:100000000C94AE100C94D6100C94D6100C94D61000
:100010000C94D6100C94D6100C94D6100C94D610C8
:100020000C94D6100C94D6100C948C1B0C94FE1BC4
:100030000C94D6100C94D6100C94D6100C94D610A8
:100040000C94D6100C94D6100C94D6100C94D61098
:100050000C94D6100C94D6100C94D6100C946911F4
:100060000C94D6100C94D6100C94D6100C94D61078
:100070000C94D6100C94D6100C94D6100C94D61068
:100080000C94D6100C94D6100C94D6100C94D61058
:100090000C94D6100C94D6100C94D6100C94D61048
:1000A0000C94D6100C94D6100C94D6100621312145
:1000B0007621A321E621E12218231D238826F0F8CA
:1000C0009C8E8783878E9CF8F00000FEFF0303035D
:1000D0000303070EFCF80000FEFF030303030307FE
:1000E0000EFCF80000FFFF00000000000000FFFF12
:1000F0000000FEFF8383838383C7EE7C380000F813
:10010000FC0E07030303070EFCF800003F7FE0C06E
:100110008080C0E07F3FFFFF01010101010101FF7D
:10012000FF0000FFFF0C0C0C0C1C3E77E3C100002D
:100130007FFFC0C0C0C0C0E0703F1F00001F3F7005
:10014000E0C0C0C0E0703F1F00007FFFC1C1C1C15F
:10015000C1E3773E1C00001F3F70E0C0C0C0E070EC
:100160003F1F000000000001FFFF01000000D5F06C
:100170008D14A1C881CFD9F1AF2000007E08087E80
:10018000003844443800427E40000038545458003F
:100190000000000078EEFEBBEFFFDB7E86780000FB
:1001A0000000007F000000000000000000000000D0
:1001B0000000007F000000000000000000000000C0
:1001C0000000007F000000000000000000000000B0
:1001D0000000007F00FF00000000000002027E021D
:1001E000023844443800043E44400020545478000F
:1001F000427E400000000000000000FD0D6D6D9D7E
:10020000FDFD5D5D3DFD1DBDDDBDFDFDFDFDFDFD9E
:10021000FDFDFDFDFE7DF50BFB5AAAF5FDFEFDFD86
:10022000FDFDFD05FDFDFDFDFDFDFDFDFDFDFDFDF6
:10023000FDFDFD05FDFDFDFDFDFDFDFDFDFDFDFDE6
:10024000FDFDFD05FDFDFDFDFDFDFDFDFDFDFDFDD6
:10025000FDFDFD05F8F265EAEAEAEAEAEAEAEAEA19
:10026000EAEAEA6AEAEAEAEAEAEA6AEAEAEA6AEA6E
:10027000EAEAEAEA6AEAEAEAEA6AEA2F2C2F2F2F88
:100280002F2E2D2D2C2F2C2F2F2F2F2E2D2E2E2D90
:100290002D2E2D2E2C2F2C2C2D2E2D2D2E2D2D2E8A
:1002A0002D2C2F882F2F2F2F2F2F2F2F2F2F2F2F0A
:1002B0002F2F2F882F2F2F2F2F2F2F2F2F2F2F2FF5
:1002C0002F2F2F882F2F2F2F2F2F2F2F2F2F2F2FE5
:1002D0002F2F2F882F2C2F2C2D2E2E2D2D2E2D2DE8
:1002E0002E2D2C2F2E2D2D2E2D2C2F2C2D2E2F2C38
:1002F0002D2E2D2C2F2C2D2E2C2F2E80808080808B
:1003000080808080808080808080808080808080ED
:1003100080808080808080808080808080808080DD
:10032000808000AA008080808080808080808080A3
:10033000808000AA00808080808080808080808093
:10034000808000AA00808080808080808080808083
:10035000808000AA00808080808080808080808073
:10036000808080808080808080808080808080808D
:1003700080808080808080808080800000000000FD
:10038000000000000000000000000000000000006D
:10039000000000000000000000000000000000005D
:1003A000000000AA000000000000000000000000A3
:1003B000000000AA00000000000000000000000093
:1003C000000000AA00000000000000000000000083
:1003D000000000AA00000000000000000000000073
:1003E000000000000000000000000000000000000D
:1003F00000000000000000000000000404040404E9
:1004000004040404040404040404040404040404AC
:10041000040404040404040404040404040404049C
:10042000040400AA000404040404040404040404EE
:10043000040400AA000404040404040404040404DE
:10044000040400AA000404040404040404040404CE
:10045000040400AA000404040404040404040404BE
:10046000040404040404040404040404040404044C
:1004700004040404040404040404042020202020B0
:10048000202020202020202020202020202020206C
:10049000202020202020202020202020202020205C
:1004A000202000AA00202020202020202020202002
:1004B000202000AA002020202020202020202020F2
:1004C000202000AA002020202020202020202020E2
:1004D000202000AA002020202020202020202020D2
:1004E000202020202020202020202020202020200C
:1004F000202020202020202020202000000000009C
:1005000000000000000000000000000000000000EB
:1005100000000000000000000000000000000000DB
:10052000000000AA00000000000000000000000021
:10053000000000AA00000000000000000000000011
:10054000000000AA00000000000000000000000001
:10055000000000AA000000000000000000000000F1
:10056000000000000000000000000000000000008B
:100570000000000000000000000000206E616D65BA
:100580003F2000506C61796572200000000000007F
:10059000000000000000000000000000000000005B
:1005A000000080C0E0E0E0E0E0E0E0E0E0E0E0E08B
:1005B000E0E0E0E0E0E0E0E0E0E0E0E0E0E0E0E03B
:1005C000E0E0E0E0E0E0E0E0E0E0E0E0E0E0E0E02B
:1005D000E0E0E0E0E0E0E0E0E0E0E0E0E0E0E0E01B
:1005E000E0E0E0E0E0E0E0E0E0E0E0E0E0E0E0E00B
:1005F000E0C08000000000000000000000000000DB
:1006000000000000000000000000000000000000EA
:1006100000000000000000000000000000000000DA
:100620000000FFFFFFFFFFFFFFFFFFFFFFFFFFFFD8
:10063000FFFFFFFFFFFFFFFFFFFFFFFFFFFFFFFFCA
:10064000FFFFFFFFFFFFFFFFFFFFFFFFFFFFFFFFBA
:10065000FFFFFFFFFFFFFFFFFFFFFFFFFFFFFFFFAA
:10066000FFFFFFFFFFFFFFFFFFFFFFFFFFFFFFFF9A
:10067000FFFFFF000000000000000000000000007D
:10068000000000000000000000000000000000006A
:10069000000000000000000000000000000000005A
:1006A0000000FFFFFFFFFFFFFFFFFFFFFFFFFFFF58
:1006B000FFFFFFFFFFFFFFFFFFFFFFFFFFFFFFFF4A
:1006C000FFFFFFFFFFFFFFFFFFFFFFFFFFFFFFFF3A
:1006D000FFFFFFFFFFFFFFFFFFFFFFFFFFFFFFFF2A
:1006E000FFFFFFFFFFFFFFFFFFFFFFFFFFFFFFFF1A
:1006F000FFFFFF00000000000000000000000000FD
:1007000000000000000000000000000000000000E9
:1007100000000000000000000000000000000000D9
:100720000000FFFFFFFFFFFFFFFFFFFFFFFFFFFFD7
:10073000FFFFFFFFFFFFFFFFFFFFFFFFFFFFFFFFC9
:10074000FFFFFFFFFFFFFFFFFFFFFFFFFFFFFFFFB9
:10075000FFFFFFFFFFFFFFFFFFFFFFFFFFFFFFFFA9
:10076000FFFFFFFFFFFFFFFFFFFFFFFFFFFFFFFF99
:10077000FFFFFF000000000000000000000000007C
:100780000000000000000000000000000000000069
:100790000000000000000000000000000000000059
:1007A0000000FFFFFFFFFFFFFFFFFFFFFFFFFFFF57
:1007B000FFFFFFFFFFFFFFFFFFFFFFFFFFFFFFFF49
:1007C000FFFFFFFFFFFFFFFFFFFFFFFFFFFFFFFF39
:1007D000FFFFFFFFFFFFFFFFFFFFFFFFFFFFFFFF29
:1007E000FFFFFFFFFFFFFFFFFFFFFFFFFFFFFFFF19
:1007F000FFFFFF00000000000000000000000000FC
:1008000000000000000000000000000000000000E8
:1008100000000000000000000000000000000000D8
:100820000000070F1F1F1F1F1F1F1F1F1F1F1F1F3E
:100830001F1F1F1F1F1F1F1F1F1F1F1F1F1F1F1FC8
:100840001F1F1F1F1FFFFFFFFFFFFFFFFFFFFFFF18
:100850001F1F1F1F1F1F1F1F9F9F9F9F9F9F9F9FA8
:100860009F9F9F9F9F9F9F9F1F1F1F1F1F1F1F1F98
:100870001F0F070000000000000000000000000043
:100880000000000000000000000000000000000068
:100890000000000000000000000000000000000058
:1008A0000000000000000000000000000000000048
:1008B0000000000000000000000000000000000038
:1008C0000000000000FFFFFFFFFFFFFFFFFFFFFF33
:1008D0000000000000000000BFBFBFBFBFBFBFBF20
:1008E000BFBFBFBFBFBFBFBF808080808080808010
:1008F00080808080000000000000000000000000F8
:1009000000000000000000000000000000000000E7
:1009100000000000000000000000000000000000D7
:1009200000000000000000000000000000000000C7
:1009300000000000000000000000000000000000B7
:100940000000000000FFFFFFFFFFFFFFFFFFFFFFB2
:1009500000000000000000003F3F3F3F3F3F3F3F9F
:100960003F3F3F3F3F3F3F3F3F3F3F3F3F3F3F3F97
:100970003F3F3F3F0000000000000000000000007B
:1009800000000000000000000000008040000000A7
:100990000000000000000000000000000000000057
:1009A000000000000080C0C0C0C0C0C0C0C0C0C047
:1009B000C0C0C0C0C0C0C0C0C0C0C0C0C0C0C0C037
:1009C000C0C0C0C0C0C0C0C0C0C0C0C0C0C0C0C027
:1009D000C0C0C0C0C0C0C0C0C0C0C0C0C0C0C0C017
:1009E000C0C0C0C0C0C0C0C0C0C0C0C0C0C0C0C007
:1009F000C0C0C08000000000000000000000000037
:100A000000000000000000000000000000000000E6
:100A100000000000000000000000000000000000D6
:100A20000000000000FFFF01FC02020202020202BD
:100A30000202020202020202020202020202020296
:100A400082C24242424242C2C20202020202020286
:100A500002C2C202C2C2424242C2C2020202020236
:100A60000202020202020202020202020202020266
:100A7000FC01FFFF0000000000000000000000007B
:100A80000000000000000000000000000000000066
:100A90000000000000000000000000000000000056
:100AA0000000000000FFFF00FF0000000080C0C049
:100AB00040404040C0C0800000000000000000FF37
:100AC000FF000000001010F0F000F0101010F0F027
:100AD00000FFFF00FFFF10101000000000000000EA
:100AE0000000000000000000000000000000000006
:100AF000FF00FFFF000000000000000000000000F9
:100B000000000000000000000000000000000000E5
:100B100000000000000000000000000000000000D5
:100B20000000000000FFFF00FF00000000FFFF00CA
:100B30000000000000030300F0101010F0F000F1BE
:100B4000E316F4E414F4E407F7101714F4E407E7E9
:100B5000F0171710E7F700F0E010F0E000F4F400F1
:100B6000F0101010F0F000F0E010F0E000000000D5
:100B7000FF00FFFF00000000000000000000000078
:100B80000000000000000000000000000000000065
:100B90000000000000000000000000000000000055
:100BA0000000000000FFFF00FF0000000003070638
:100BB00004040404040703000704040407070007EF
:100BC00007000707000707001F1C040407030003B2
:100BD00007040402070700070700070700070700CC
:100BE00007040404070700070700070700000000C8
:100BF000FF00FFFF000000000000000000000000F8
:100C000000000000000000000000000000000000E4
:100C100000000000000000000000000000000000D4
:100C20000000000000070F0E0C0D0D0D0D0D0D0D39
:100C30000D0D0D0D0D0D0D0D0D0D0D0D0D0D0D0DE4
:100C40000D0D0D0D0D0D0D0D8D0D8D8D8D8D8D8D54
:100C50008D0D0D0D0D0D0D0D0D0D0D0D0D0D0D0D44
:100C60000D0D0D0D0D0D0D0D0D0D0D0D0D0D0D0DB4
:100C70000C0E0F0700000000000000000000000044
:100C80000000000000000000000000000000000064
:100C90000000000000000000000000000000000054
:100CA0000000000000000000000000000000000044
:100CB0000000000000000000000000000000000034
:100CC0000000000000000000FF00FFFFFFFFFFFF2B
:100CD000FF000000000000000000001F02041F00D1
:100CE0001F15150007180618070000000000000077
:100CF00000000000000000000000000000000000F4
:100D000000000000000000000000000000000000E3
:100D100000000000000000000000000000000000D3
:100D200000000000000000000000000000000000C3
:100D300000000000000000000000000000000000B3
:100D40000000000000000000FF00FFFFFFFFFFFFAA
:100D5000FF000000000000000000001F051B001F36
:100D6000151500121509000F10100F001F020C02BC
:100D70001F001F151500000000000000000000000B
:100D80000000000000000000000000000000000063
:100D90000000000000000000000000000000000053
:100DA0000000000000000000000000000000000043
:100DB0000000000000000000000000000000000033
:100DC0000000000000000000000000000000000023
:100DD0000000000000000000000000000000000013
:100DE0000000000000000000000000000000000003
:100DF00000000000000000000000000000000000F3
:100E000000000000000000000000000000000000E2
:100E100000000000000000000000000000000000D2
:100E200000000000000000000000000000000000C2
:100E300000000000000000000000000080808080B2
:100E400080800000000080808080808080800000A2
:100E50000000000000000000000000000000000092
:100E60000000000000000000000000000000000082
:100E70000000000000000000000000000000000072
:100E80000000000000000000000000000000000062
:100E90000000000000000000000000000000000052
:100EA0000000000000000000000000000000000042
:100EB000000000000000000000020A2AA8A38F3FE3
:100EC000FFFFFEF08000FFFFFFFFFFFFFF070000B6
:100ED0000000000080808080C0C000800000000012
:100EE0000000000000000000000000000000000002
:100EF00000000000000000000000000000000000F2
:100F000000000000000000000000000000000000E1
:100F100000000000000000000000000000000000D1
:100F200000000000000000000000000000000000C1
:100F300000000000000000000000000000020A0A9B
:100F400028A3871F7FFCFFFFFFFFFF7F01F0F8FC56
:100F5000FE06A30B07073F0F230802000000000056
:100F60000000000000000000000000000000000081
:100F70000000000000000000000000000000000071
:100F80000000000000000000000000000000000061
:100F90000000000000000000000000000000000051
:100FA0000000000000000000000000000000000041
:100FB0000000000000000000000000000000000031
:100FC0000000020A28A1871F7FFF1F0080F1F3F3B2
:100FD000636322B21E202800000000000000000011
:100FE0000000000000000000000000000000000001
:100FF00000000000000000000000000000000000F1
:1010000000000000000000000000000000000000E0
:1010100000000000000000000000000000000000D0
:1010200000000000000000000000000000000000C0
:1010300000000000000000000000000000000000B0
:10104000080808C808884A8A48480888498908CA98
:10105000480948C8480808080000000000000000CF
:101060000000000000000000000000000000000080
:101070000000000000000000000000000000000070
:101080000000000000000000000000000000000060
:101090000000000000000000000000000000000050
:1010A0000000000000000000000000000000000040
:1010B0000000000000000000000000000000000030
:1010C000000000000300000203030001020100030E
:1010D000010000030000000000000000000000000C
:1010E0000000000000000000000000000000000000
:1010F00000000000000000000000000000000000F0
:1011000000000000000000000000000000000000DF
:1011100000000000000000000000000000000000CF
:1011200000000000000000000000000000000000BF
:1011300000000000000000000000000000000000AF
:10114000000000000000000000000000000000009F
:10115000000000000000000000000000000000008F
:10116000000000000000000000000000000000007F
:10117000000000000000000000000000000000006F
:10118000000000000000000000000000000000005F
:101190000000F0FCFEFEFFFFFFFFFEFEFCF0000083
:1011A000000000000000000000000000000000003F
:1011B000000000000000000000000000000000002F
:1011C000000000000000000000000000000000001F
:1011D000000000000000000000000000000000000F
:1011E00000000000000000000000000000000000FF
:1011F00000000000000000000000000000000000EF
:101200000000000000000000000000000080C0801E
:1012100000800003873FFFFFFFFFBF87C380008080
:10122000800000800000800080C08000008000807E
:10123000C0800080C08000800080C080008080C0AE
:101240008000008080C080008080C0800080C080DE
:1012500080000080800000800000800080C080004E
:1012600000800080C0800080C08000800080C0803E
:10127000008080C08000008080C080008080C080AE
:101280000080C08080008080000080008003030315
:10129000030303030303030303030303030303031E
:1012A000030303030303030303030303030303030E
:1012B00003030303030303030303030303030303FE
:1012C00003030303030303030303030303030303EE
:1012D00003030303030303030303030303030303DE
:1012E00003030303030303030303030303030303CE
:1012F00003030303030303030303030303030303BE
:101300000303030303030303030303030380120024
:101310000000000000F0DCFC76DEFEB6FC0CF00005
:1013200000000000000000000000000000000000BD
:1013300000000000000000000000000000000000AD
:10134000000000000000000000000000000000009D
:10135000000000000000000000000000000000008D
:10136000000000000000000000000000000000007D
:10137000000000000000000000000000000000006D
:10138000000000000000000000000000000000005D
:10139000800000000000030317F7B515020380006A
:1013A00000000000000000000000008000000000BD
:1013B00000008000000080000000000080000000AD
:1013C000008000000000008000000000800000009D
:1013D000800000000000000000000000000000800D
:1013E00000000000000080000000800000000000FD
:1013F000800000000080000000000080000000006D
:1014000080000000800000000000000000000002DA
:1014100003020203020203020003000203020302AA
:101420000203030202030202030202030302020395
:101430000202030202030302020302020302020386
:101440000203030202030203020203020303020275
:101450000302030202030302020302020302020365
:101460000302020302020302020303020203020256
:101470000302020302030302020302030202030245
:10148000030302020302030203030202030203F83E
:10149000FCFEFF070787C7C7CFCF86C0C0C0C0C04C
:1014A000C0FEFFFFFEFFFFFFC7C78F0F060000FC57
:1014B000FEFFFF070707071F3F3E9CC0C0C0C0C01C
:1014C000C080C080C0C080C0C08080C0C0C0C0C05C
:1014D000800080C0C0C0C080C080C080C0C080A06C
:1014E000F0F0A0C0C0C0C0C0C080C080C0C080003C
:1014F0000F1F3F7F707070717F7F7F3F7F7F717F95
:101500007F7F3F7F7F7F7F7F7F01010000000000A2
:101510001F3F7F7F70707070787C3C3F7F7F717F52
:101520007F7F3F7F7F3F7F7F3F7F7FFFFFFFF17F99
:101530007F3F1F3F7F7F713F7F7F3F7F7F3F7F7F69
:101540003F7F7F3F7F7F717F7F7F3F7F7F3F7F7FB9
:101550003F0000000000000000000000000000004C
:10156000000000000000000000000000000000007B
:10157000000000000000000000000000000000006B
:101580000000000000000000000000000001010059
:10159000000000000000000000000000000000004B
:1015A000000000000000000000000000000000003B
:1015B0000000611100F8FC060202028282868600A9
:1015C00080808080808000FEFE00FEFE8282820697
:1015D0000600000000FCFE0602020202061E1C00BD
:1015E000808080808080008000808000808000007B
:1015F000808080808000000080808080008000806B
:101600000080800000A0A00080808080808000801A
:101610000080800000000F1F3020202020203F3F4E
:10162000003F2020203F3F003F3F003F3F000000A1
:101630000000000000001F3F30202020202038182C
:10164000003F2020203F3F003F3F003F3F003F3F03
:1016500000FFE020203F1F001F3F2020103F3F00E1
:101660003F3F003F3F003F3F003F2020203F3F00E3
:101670003F3F003F3F00000000000000000000006E
:10168000000000000000000000000000000000005A
:10169000000000000000000000000000000000004A
:1016A000000000000000000000000000000000003A
:1016B000000000000000000000000000000000002A
:1016C000000000000000000000000000000000001A
:1016D000000000000000000000000000000000000A
:1016E00000000000000000000000000000000000FA
:1016F00000000000000000000000000000000000EA
:1017000000000000000000000000000000000000D9
:1017100000000000000000000000000000000000C9
:1017200000000000000000000000000000000000B9
:1017300000000000000000000000000000000000A9
:101740000000000000000000000000000000000099
:101750000000000000000000C00000808000008049
:101760000000800000C0800000800000C0000080F9
:10177000C00000800000C000008000C08000008029
:1017800000C000008000C0800000C0008000008019
:10179000800000800000800000C080000080000009
:1017A000C0000080C00000800000C000008000C0B9
:1017B0008000008000C000008000C0800000C000E9
:1017C00080008080000080008000C00000808000D9
:1017D00000800000800000EBF3EBF3EBF3EBF3EBA6
:1017E000F3EBF3EBF3EBF3EBF3EBF3EBF3EBF3EB09
:1017F000F3EBF3EBF3EBF3EBF3EBF3EBF3EBF3EBF9
:10180000F3EBF3EBF3EBF3EBF3EBF3EBF3EBF3EBE8
:10181000F3EBF3EBF3EBF3EBF3EBF3EBF3EBF3EBD8
:10182000F3EBF3EBF3EBF3EBF3EBF3EBF3EBF3EBC8
:10183000F3EBF3EBF3EBF3EBF3EBF3EBF3EBF3EBB8
:10184000F3EBF3EBF3EBF3EBF3EBF3EBF3EBF3EBA8
:10185000F3EBF3EBF3EBF3FFFFFFFFFFFFFFFFFF04
:10186000FFFFFFFFFFFFFFFFFFFFFFFFFFFFFFFF88
:10187000FFFFFFFFFFFFFFFFFFFFFFFFFFFFFFFF78
:10188000FFFFFFFFFFFFFFFFFFFFFFFFFFFFFFFF68
:10189000FFFFFFFFFFFFFFFFFFFFFFFFFFFFFFFF58
:1018A000FFFFFFFFFFFFFFFFFFFFFFFFFFFFFFFF48
:1018B000FFFFFFFFFFFFFFFFFFFFFFFFFFFFFFFF38
:1018C000FFFFFFFFFFFFFFFFFFFFFFFFFFFFFFFF28
:1018D000FFFFFFFFFFFFFFFFFFFFFFFFFFFFFFFF18
:1018E000FFFFFFFFFFFFFFFFFFFFFFFFFFFFFFFF08
:1018F000FFFFFFFFFFFFFFFFFFFFFFFFFFFFFFFFF8
:10190000FFFFFFFFFFFFFFFFFFFFFFFFFFFFFFFFE7
:10191000FFFFFFFFFFFFFFFFFFFFFFFFFFFFFFFFD7
:10192000FFFFFFFFFFFFFFFFFFFFFFFFFFFFFFFFC7
:10193000FFFFFFFFFFFFFFFFFFFFFFFFFFFFFFFFB7
:10194000FFFFFFFFFFFFFFFFFFFFFFFFFFFFFFFFA7
:10195000FFFFFFFFFFFFFFFFFFFFFFFFFFFFFFFF97
:10196000FFFFFFFFFFFFFFFFFFFFFFFFFFFFFFFF87
:10197000FFFFFFFFFFFFFFFFFFFFFFFFFFFFFFFF77
:10198000FFFFFFFFFFFFFFFFFFFFFFFFFFFFFFFF67
:10199000FFFFFFFFFFFFFFFFFFFFFFFFFFFFFFFF57
:1019A000FFFFFFFFFFFFFFFFFFFFFFFFFFFFFFFF47
:1019B000FFFFFFFFFFFFFFFFFFFFFFFFFFFFFFFF37
:1019C000FFFFFFFFFFFFFFFFFFFFFFFFFFFFFFFF27
:1019D000FFFFFFFFFFFFFFCFF7CFDFEFEFDFDFEF0F
:1019E000DFDFEFDFCFF7EFDFDFEFDFCFF7CFDFEFC7
:1019F000F7CFDFEFDFCFF7CFDFEFCFF7EFDFDFEFAF
:101A0000CFF7CFDFEFCFF7EFDFCFF7CFEFDFDFEFAE
:101A1000EFDFDFEFDFDFEFDFCFF7EFDFDFEFDFCF8E
:101A2000F7CFDFEFF7CFDFEFDFCFF7CFDFEFCFF786
:101A3000EFDFDFEFCFF7CFDFEFCFF7EFDFCFF7CF7E
:101A4000EFDFEFEFDFDFEFDFEFCFF7CFDFEFEFDF3E
:101A5000DFEFDFDFEFDFCFAA54AA54AA54AA54AABB
:101A600054AA54AA54AA54AA54AA54AA54AA54AA86
:101A700054AA54AA54AA54AA54AA54AA54AA54AA76
:101A800054AA54AA54AA54AA54AA54AA54AA54AA66
:101A900054AA54AA54AA54AA54AA54AA54AA54AA56
:101AA00054AA54AA54AA54AA54AA54AA54AA54AA46
:101AB00054AA54AA54AA54AA54AA54AA54AA54AA36
:101AC00054AA54AA54AA54AA54AA54AA54AA54AA26
:101AD00054AA54AA54AA5404083E09093E3F252595
:101AE0001A1E2121123F21211E3F2525213F0505D8
:101AF000011E21293A3F04043F213F2100102121EA
:101B00001F3F040A313F2020203F02023F3F0204D2
:101B10003F1E21211E3F0909061E21112E3F0909E2
:101B20003622252519013F01011F20201F0F1020FB
:101B30001F3F10103F3B04043B03043807312D23A3
:101B400021102A2A3C3F2424181C22221418242461
:101B50003F1C2A2A2C047E05014C52523E3F0404AD
:101B600038243D20004040443D3F081422213F20BE
:101B7000003E04043E3E04023C1C22221C7E222223
:101B80001C1C22227E3E040204242A2A12021F2246
:101B9000201E20201E0E10201E3E10103E3608086B
:101BA000364E50503E322A26221E29251E223F2024
:101BB00000322929261221251A0C0A3F081725254B
:101BC000191E252518013905031A25251A06292964
:101BD0001E002F000000200000022905020102045F
:101BE000081020408000000000003E5B4F5B3E3E3E
:101BF0006B4F6B3E1C3E7C3E1C183C7E3C181C57B9
:101C00007D571C1C5E7F5E1C00183C1800FFE7C35C
:101C1000E7FF0018241800FFE7DBE7FF30483A062B
:101C20000E2629792926407F050507407F05253F97
:101C30005A3CE73C5A7F3E1C1C08081C1C3E7F1483
:101C4000227F22145F5F005F5F06097F017F0066CD
:101C500089956A606060606094A2FFA29408047E27
:101C6000040810207E201008082A1C08081C2A08D6
:101C7000081E101010100C1E0C1E0C30383E383090
:101C8000060E3E0E06000000000000005F0000008F
:101C900007000700147F147F14242A7F2A122313BD
:101CA00008646236495620500008070300001C22D1
:101CB00041000041221C002A1C7F1C2A08083E0803
:101CC0000800807030000808080808000060600004
:101CD00020100804023E5149453E00427F400072F8
:101CE000494949462141494D331814127F1027456F
:101CF0004545393C4A49493141211109073649498D
:101D00004936464949291E000014000000403400AD
:101D10000000081422411414141414004122140861
:101D200002015909063E415D594E7C1211127C7F19
:101D3000494949363E414141227F4141413E7F4927
:101D40004949417F090909013E414151737F080812
:101D5000087F00417F41002040413F017F0814225D
:101D6000417F404040407F021C027F7F0408107F7B
:101D70003E4141413E7F090909063E4151215E7FB6
:101D800009192946264949493203017F01033F4089
:101D900040403F1F2040201F3F4038403F63140811
:101DA000146303047804036159494D43007F4141A2
:101DB000410204081020004141417F040201020455
:101DC0004040404040000307080020545478407FC2
:101DD000284444383844444428384444287F3854FC
:101DE00054541800087E090218A4A49C787F0804A3
:101DF000047800447D40002040403D007F1028448E
:101E00000000417F40007C047804787C080404785A
:101E10003844444438FC1824241818242418FC7C22
:101E200008040408485454542404043F44243C4007
:101E300040207C1C2040201C3C4030403C4428106A
:101E400028444C9090907C4464544C4400083641A3
:101E50000000007700000041360800020102040281
:101E60003C2623263C1EA1A161123A4040207A382C
:101E7000545455592155557941215454784121558F
:101E800054784020545579400C1E527212395555E1
:101E90005559395454545939555454580000457CB7
:101EA000410002457D420001457C40F0292429F093
:101EB000F0282528F07C545545002054547C547C4F
:101EC0000A097F4932494949323248484832324A40
:101ED0004848303A4141217A3A42402078009DA05A
:101EE000A07D39444444393D4040403D3C24FF24DA
:101EF00024487E4943662B2FFC2F2BFF0929F6200F
:101F0000C0887E090320545479410000447D41304B
:101F100048484A32384040227A007A0A0A727D0DD7
:101F200019317D2629292F28262929292630484D8F
:101F30004020380808080808080808382F10C8ACDE
:101F4000BA2F102834FA00007B000008142A14224B
:101F500022142A14089500220095AA005500AAAA66
:101F600055AA55AA000000FF00101010FF0014141D
:101F700014FF001010FF00FF1010F010F0141414E4
:101F8000FC001414F700FF0000FF00FF1414F40419
:101F9000FC141417101F10101F101F1414141F000E
:101FA000101010F0000000001F101010101F101073
:101FB0001010F010000000FF101010101010101082
:101FC00010FF10000000FF140000FF00FF00001FC2
:101FD00010170000FC04F414141710171414F40460
:101FE000F40000FF00F714141414141414F700F78D
:101FF000141414171410101F101F141414F41410B8
:1020000010F010F000001F101F0000001F1400004F
:1020100000FC140000F010F01010FF10FF14141456
:10202000FF141010101F00000000F010FFFFFFFF52
:10203000FFF0F0F0F0F0FFFFFF0000000000FFFFF6
:102040000F0F0F0F0F38444438447C2A2A3E147E69
:1020500002020606027E027E02635549416338444D
:10206000443C04407E201E2006027E020299A5E721
:10207000A5991C2A492A1C4C7201724C304A4D4DBC
:10208000303048784830BC625A463D3E49494900A4
:102090007E0101017E2A2A2A2A2A44445F444440C0
:1020A000514A444040444A51400000FF0103E0804F
:1020B000FF000008086B6B083612362436060F093D
:1020C0000F06000018180000001010003040FF013B
:1020D00001001F01011E00191D1712003C3C3C3C71
:1020E0000000000000080B000202020100090400C9
:1020F0000001020200000524001001052401010175
:10210000042402060524060001070581031000408F
:1021100009040100020A0000000705020240000055
:10212000070583024000000403090412010002EFC6
:102130000201404123368000010102030141726423
:1021400075696E6F204C4C430041726475696E6F07
:10215000204C656F6E6172646F008C2711241FBE66
:10216000CFEFDAE0DEBFCDBF11E0A0E0B1E0E2E901
:10217000F1E502C005900D92A638B107D9F726E027
:10218000A6E8B1E001C01D92AE39B207E1F710E157
:10219000CEEAD0E104C02197FE010E94B528CD3AD5
:1021A000D107C9F70E942E1E0C94C7280C9400007A
:1021B000CF92DF92EF92FF920F931F93CF93DF9313
:1021C0006C017A018B01C0E0D0E0CE15DF0589F00B
:1021D000D8016D918D01D601ED91FC910190F081B6
:1021E000E02DC6010995892B11F47E0102C02196CC
:1021F000ECCFC701DF91CF911F910F91FF90EF902E
:10220000DF90CF9008953FB7F89480918F0190911F
:102210009001A0919101B091920126B5A89B05C0B3
:102220002F3F19F00196A11DB11D3FBFBA2FA92F55
:10223000982F8827820F911DA11DB11DBC01CD01D2
:1022400042E0660F771F881F991F4A95D1F70895BE
:102250000895089580E090E008950E94BB288F9231
:102260009F92AF92BF92CF92DF92EF92FF926B015B
:102270007C010E9403114B015C01C114D104E104F3
:10228000F104F1F00E940311DC01CB0188199909D6
:10229000AA09BB09883E9340A105B10570F321E06E
:1022A000C21AD108E108F10888EE880E83E0981E72
:1022B000A11CB11CC114D104E104F10419F7DDCF54
:1022C000FF90EF90DF90CF90BF90AF909F908F9056
:1022D00008951F920F920FB60F9211242F933F93E0
:1022E0008F939F93AF93BF938091860190918701C5
:1022F000A0918801B091890130918E0123E0230FD4
:102300002D3720F40196A11DB11D05C026E8230F2D
:102310000296A11DB11D20938E018093860190939A
:102320008701A0938801B093890180918F019091DA
:102330009001A0919101B09192010196A11DB11D52
:1023400080938F0190939001A0939101B09392019B
:10235000BF91AF919F918F913F912F910F900FBEA1
:102360000F901F9018954F925F927F928F929F923D
:10237000AF92BF92CF92DF92EF92FF920F931F9393
:10238000CF93DF9300D000D0CDB7DEB729011C2D4D
:10239000A02EB12C9C012A0D3B1D121613060CF029
:1023A000B3C1803891050CF0AFC1FB01EE0DF11DFA
:1023B0001E161F060CF0A8C1603471050CF0A4C1F4
:1023C0004115510509F4A0C1E62FE770FE2EFB016F
:1023D00077FD3796A3E0F595E795AA95E1F7AE2F3F
:1023E00077FF04C0FF2011F0AFEFAE0F97FF05C0DD
:1023F000EE27FF27E81BF90B02C0E0E0F0E02038F1
:10240000310524F020E8722E781A01C0702E7E1A51
:102410006A2F0A2E000C770BAF3F1CF4D62ED094F7
:1024200001C0D12C21E03E2D377009F420E0E69464
:10243000E694E694E20E6E0D711D693071051CF094
:1024400028E0E22EEA1AED183D2D3A0FDC0120E8D3
:102450003203A00DB11D1124AE0FBF1FD09EE00DA1
:10246000F11D11244E0F5F1F81E090E04C010F2CF5
:1024700002C0880C991C0A94E2F7133009F403C1D6
:10248000A0F4113009F4B5C0123009F03DC18FEF4E
:10249000889DB001899D700D1124609570957C8395
:1024A0006B835C802E2D230F2BC01A3F31F01B3F16
:1024B00009F02AC12E2D230F88C02E2D230F51C0C5
:1024C000FA01E00FF11FE491E89D6001E99DD00C55
:1024D0001124DA82C98237FD07C0FC01E080EE2DAD
:1024E000E623CE2AFC01C082F11013C00F5F1F4FFC
:1024F0000196071528F33F5F4A0D5B1DA058BF4F9B
:10250000321709F401C1CD0189569E4F00E010E059
:10251000F0CF37305CF7FC01E058FF4FD080D5207A
:10252000CA80DC28D082E2CFFA01E60FF71FE491DF
:10253000E89D8001E99D100D11241A83098337FD60
:1025400004C0FC011081012B0083F11013C06F5FE8
:102550007F4F0196671540F33F5F4A0D5B1DA05802
:10256000BF4F321709F4D0C0CD0189569E4F60E0AD
:1025700070E0F0CF37305CF78C0100581F4FF80146
:10258000E080EA81EE2AF801E082E1CFFA01E00F73
:10259000F11FE491E89DC001E99D900D11249A83FB
:1025A000898337FD05C08095FB0190818923808355
:1025B000F11014C00F5F1F4F6F5F7F4F071530F38F
:1025C0003F5F4A0D5B1DA058BF4F321709F49CC0F6
:1025D000BD0169567E4F00E010E0F0CF373054F770
:1025E000FB01E058FF4F8A81809590818923808389
:1025F000E1CFC2018E0F9F1F2E2D230F321709F43A
:1026000083C0BD0169567E4F6B0100E010E00715E5
:1026100090F5FC01E00FF11FE491E89DB001E99D08
:10262000700D1124609570957C836B83FA01E00F27
:10263000F11FE491E89D2001E99D500C11245A827C
:10264000498237FD05C0F60170816723462A408222
:10265000FF2059F037304CF4F601E058FF4F7081FD
:102660006C8167237A81672B60830F5F1F4FFFEFB9
:10267000CF1ADF0ACCCF3F5F4A0D5B1D8A0D9B1D31
:10268000A058BF4FBBCFC72CD12CE40FF51FA956C4
:10269000BE4F60E870E06C197D09AC18BD0885017B
:1026A000000F111F572D2E2DCF93DF93ED01EF96C5
:1026B000EF962296A590C590FF2059F0A89C500156
:1026C000C89C600137302CF4E880D094ED20EB28D2
:1026D000E99233233AF0EC90C094EC20EA28ED9292
:1026E0000C94731311965A9529F72A9551F0572D8A
:1026F00033951124E00FF11DA60FB11DC60FD11D9A
:10270000D9CFDF91CF9111240F900F900F900F90A0
:10271000DF91CF911F910F91FF90EF90DF90CF90BD
:10272000BF90AF909F908F907F905F904F90089553
:10273000CF92DF92EF920F931F93CF93DF93FC0121
:1027400026816A3031F4858184836185260F268352
:102750009AC0962FEF01A48161E0620F9F3309F4C4
:102760005FC06CF49E32B9F01CF49132C9F052C0D3
:1027700080ED890F8A3008F04DC014E00FC091340D
:102780000CF448C09B354CF08FE9890F8A3108F072
:1027900041C019EB03C01FE304C01FEB190F01C0B8
:1027A0001EE32F81062E000C770B0A2E000CBB0BAC
:1027B000213009F03AC0E7EDFAE10491E8EDFAE1E1
:1027C000E490112379F1E02FF0E02E2D2695269547
:1027D0002695422F50E021E030E08E2D877011F4D5
:1027E00020E030E0240F351FE29F6001E39FD00C12
:1027F000F29FD00C112496011203A001139F500DDB
:1028000011244752554E9AEFC92E20E030E0CD01F9
:102810000E94B31188858C5F9C81890F8C8333C0A3
:1028200010E4BFCF49ED5AE1EECFE7EDFAE10491B4
:10283000E8EDFAE1E490112309F1E02FF0E02E2D0C
:10284000269526952695422F50E021E030E08E2DEA
:10285000877011F420E030E0240F351FE29F600103
:10286000E39FD00CF29FD00C112496011203A0011B
:10287000139F500D11244752554E02C049ED5AE1A5
:102880008BEFC82EC2CF81E090E0DF91CF911F91F6
:102890000F91EF90DF90CF9008952D9A0895BC018D
:1028A00080E090E00C942F118FB18095807F669B23
:1028B00088601C9B84600895FC01840F911D18168C
:1028C0001906E4F5E038F105CCF5F7FF02C0E0E0C9
:1028D000F0E08138910514F080E890E0382F3E1B3D
:1028E000AB0177FF02C0495F5F4F83E05595479585
:1028F0008A95E1F75695542F442757954795E40F4D
:10290000F51FE956FE4F6770772781E090E001C020
:10291000880F6A95EAF7482F222349F0213071F495
:10292000315020F08081842B8193FACF08958095D7
:10293000315020F0908198239193FACF0895603818
:102940007105D0F440345105B8F4EDEDFBE180E1C0
:10295000849FD001A0781124A60F4770E40FF11DC9
:102960008491A956BE4F222319F06C91862B03C087
:1029700080956C9186238C9308952F923F924F926D
:102980005F926F927F928F929F92AF92BF92CF92FF
:10299000DF92EF92FF920F931F93CF93DF93CDB708
:1029A000DEB729970FB6F894DEBF0FBECDBFFC018E
:1029B0006A3069F425898189928938E0239F800DE6
:1029C000911D1124928B818B108A1786AAC06D30BD
:1029D00009F4A7C099878887F58834882388618897
:1029E00072880785108900381105C4F0A885B9855B
:1029F00055962C915597422F50E01F968D919C91A2
:102A00005097B6E02B9F800D911D1124E885F98524
:102A1000908B8787268921116EC083C0F0E46F16E2
:102A2000710424F7C80125E0F29E800D911D112448
:102A300018161906DCF68F2D90E09C838B83C3015A
:102A4000A8E0FA9E800D911D11241816190674F63F
:102A5000B5E06B9FB0011124FB01EB51F44EFA83FA
:102A6000E98330E08885998504969E838D83E9818A
:102A7000FA81E490353009F4E12C430188E0482ED6
:102A8000E0FC02C0532C01C0522C51100BC032107C
:102A900009C0E6944A948B819C81880E991E41104E
:102AA000EFCF1BC068018C2D801B8F1590F7540150
:102AB0008A2D88198F1568F4252DA501B6018D8101
:102AC0009E813F830E949F149FEFA91AB90A3F81FC
:102AD000EFCFAFEFCA1ADA0AE6CF3F5FEB81FC8196
:102AE0000E0F1F1F89819A8101969A838983363040
:102AF00009F0BDCF7BCF6AEF64039001659F300D75
:102B0000112420583F4F281739075CF4A885B98550
:102B1000ED91FC9111970190F081E02D6AE0CD01DB
:102B2000099581E090E029960FB6F894DEBF0FBEBC
:102B3000CDBFDF91CF911F910F91FF90EF90DF906C
:102B4000CF90BF90AF909F908F907F906F905F904D
:102B50004F903F902F9008950F931F93CF93DF9343
:102B60001F92CDB7DEB78C0169830E946928698105
:102B7000681741F0C8010F90DF91CF911F910F911D
:102B80000C9471280F90DF91CF911F910F910895B0
:102B90000C9469280F93CF93DF93C0918C01D0914F
:102BA0008D0100E420E847ED56E160E070E0CE01E1
:102BB0000E948A1620E847ED56E160E070E0CE0101
:102BC00080589F4F0E948A1680912C0690912D0666
:102BD00065E070E00E94A128892B71F42197C0382C
:102BE0008FEFD80728F0D0938D01C0938C0104C0DB
:102BF00010928D0110928C01DF91CF910F91089569
:102C0000CF92EF920F93E2EBF5E10491E3EBF5E164
:102C1000E490CC24C3942FE834E144EB55E162E026
:102C200070E08FE090E00E94B3110F91EF90CF9091
:102C300008950F931F93CF93DF9300E010E0C8E156
:102C4000D0E020E0AE01B80189E296E00E949F1436
:102C50002196CA32D105A9F70F5F1F4F0038110521
:102C600071F729E130E040E850E069E170E080E090
:102C700090E00E949E1828E230E040E850E068E2D0
:102C800070E080E090E0DF91CF911F910F910C9464
:102C90009E18CF92EF920F93EDE0F3E10491EEE0F6
:102CA000F3E1E490CC24C3942DE831E14FE053E10B
:102CB0006EE270E080E090E00E94B3110F91EF901F
:102CC000CF900895FC01623059F018F4613031F072
:102CD0000895633039F0643039F0089541830895E0
:102CE000428308954383089544830895FC0162302C
:102CF00059F020F4613061F481810895633031F03E
:102D0000643031F484810895828108958381089527
:102D100080E008952F923F924F925F926F927F9240
:102D20008F929F92AF92BF92CF92DF92EF92FF92DB
:102D30000F931F93CF93DF93CDB7DEB728970FB6CE
:102D4000F894DEBF0FBECDBF5A01822E912C9C019C
:102D5000280D391D37FDC4C0803891050CF0C0C066
:102D60009B01200F311D37FDBBC0603471050CF095
:102D7000B7C0AB0177FF04C044275527461B570B4C
:102D8000477055279B0177FF02C0295F3F4FE3E063
:102D900035952795EA95E1F777FF08C0215031096D
:102DA00068E070E0DB01A41BB50BAD01602F6695F8
:102DB0006695669570E0077011F06F5F7F4FDB01DD
:102DC000A20FB31FBA83A98339017694762C6624A7
:102DD00077946794680E791EE12CF12C00E010E0E6
:102DE0002301B0E84B0E511C68E070E0DB01A41B2E
:102DF000B50BBC83AB8369817A812617370709F449
:102E00006FC02830310509F46BC02F3FBFEF3B077F
:102E10000CF45BC0B201600F711FDB01A956BE4FFD
:102E2000BE83AD83D801A60DB71DA956BE4F6C0158
:102E300060E070E0681579050CF047C0E0E8CE1658
:102E4000D10409F442C0D7FC34C02F3FFFEF3F0745
:102E500009F442C0FB01EE0DFF1DEA0DFB1DE491DC
:102E6000042E01C0EE0F0A94EAF73C90E329EC939C
:102E700041155105F1F027303105D9F0FB01EE0D78
:102E8000FF1DEA0DFB1DE4912E2E312CF1010B806C
:102E900002C0F595E7950A94E2F7F887EF83ED8194
:102EA000FE813080EF81F885E3291F01ED81FE81ED
:102EB00020826F5F7F4FED81FE813196FE83ED832F
:102EC000FFEFCF1ADF0A1196B5CF2F5F3F4F0058A3
:102ED0001F4FE80CF91C8FCF4115510579F6E9CF4A
:102EE00028960FB6F894DEBF0FBECDBFDF91CF910D
:102EF0001F910F91FF90EF90DF90CF90BF90AF9018
:102F00009F908F907F906F905F904F903F902F9009
:102F100008950F931F93CF93DF936091130686E775
:102F200090E00E94AC156091990587E790E00E94BF
:102F3000AC1560919A0588E790E00E94AC1560910D
:102F40009B0589E790E00E94AC1560919C058AE79B
:102F500090E00E94AC1560919D058BE790E00E9487
:102F6000AC1560919E058CE790E00E94AC156091D5
:102F70009F058DE790E00E94AC15CEE7D0E08E0172
:102F800009561A4FF801E557F1096081CE010E94F8
:102F9000AC15F801E457F1096081CE0101960E9459
:102FA000AC15F801E357F1096081CE0102960E9449
:102FB000AC15F801E257F1096081CE0103960E9439
:102FC000AC15F801E157F1096081CE0104960E9429
:102FD000AC152596C83DD10591F66091FA0588EDAE
:102FE00090E00E94AC156091FB0589ED90E00E9495
:102FF000AC156091FC058AED90E00E94AC156091E3
:10300000FD058BED90E00E94AC156091FE058CED06
:1030100090E00E94AC15CDEDD0E0FE01EE5DFA4FE0
:103020006081CE010E94AC152196C23ED105A9F760
:10303000FE01EE5DFA4F6081CE010E94AC15219633
:10304000C73ED105A9F7FE01EE5DFA4F6081CE01C2
:103050000E94AC152196CC3ED105A9F7FE01EE5D8C
:10306000FA4F6081CE010E94AC152196C13FD10577
:10307000A9F7DF91CF911F910F91089520912F060D
:10308000282329F490912E06982381E009F480E00A
:103090000895009769F0FC0101900020E9F731974D
:1030A000AF01481B590BBC018BE196E00C94D81082
:1030B00080E090E008958F929F92AF92BF920F931D
:1030C0001F93CF93DF93CDB7DEB7A1970FB6F894D8
:1030D000DEBF0FBECDBF19A2423008F44AE08E0118
:1030E0000F5D1F4F842E912CA12CB12CA5019401B2
:1030F0000E947F28E62FB901CA0101501109EA3068
:1031000014F4E05D01C0E95CD801EC93232B242B7F
:10311000252B61F7C8010E944918A1960FB6F894B3
:10312000DEBF0FBECDBFDF91CF911F910F91BF903A
:10313000AF909F908F9008950C9449185F926F9272
:103140007F928F929F92AF92BF92CF92DF92EF9237
:10315000FF920F931F93CF93DF93EC018B017A01C2
:10316000A901461B570B57FF03C0519541955109C3
:10317000C7018C1B9D0B97FF03C091958195910909
:10318000552453948417950714F0512C0AC09E2D92
:103190008F2D7901292F382F9C2F8D2FE801092F92
:1031A000182FEC16FD0654F4902F812F8901292F3A
:1031B000382F9C2F8D2FE701E92EF82E37016C1A3E
:1031C0007D0A5901A01AB10AB7FE03C0B194A194B7
:1031D000B108630177FE03C08FEFC81AD80AD594EF
:1031E000C7940217130714F08FEF01C081E0882EF7
:1031F000880F9908EC16FD06B4F021E0552019F06F
:10320000AE01B80102C0A801BE0189E296E00E94A9
:103210009F14CA18DB08D7FE04C0080D191DC60C80
:10322000D71C2196E7CFDF91CF911F910F91FF908F
:10323000EF90DF90CF90BF90AF909F908F907F9056
:103240006F905F900895E7E9F1E0A0E0B8E00080BA
:103250000EBC8111012C1197A0FDFDCF0192B9F791
:103260000DB408950F931F93CF93DF938C01C0E0AB
:10327000D0E0F801EC0FFD1F6491662371F0E0913E
:103280001B06F0911C060190F081E02D8BE196E089
:103290000995892B11F02196ECCFCE01DF91CF91CA
:1032A0001F910F910895682F70E080E090E04AE050
:1032B0000C945B18CF92DF92EF92FF92CF93DF9343
:1032C0006C01990FEE08FF08F7FE1FC0E0911B0686
:1032D000F0911C060190F081E02D6DE28BE196E00B
:1032E0000995EC0166277727CB016C197D098E09BA
:1032F0009F094AE00E945B188C0F9D1FDF91CF91C0
:10330000FF90EF90DF90CF9008954AE0C701B6019B
:10331000DF91CF91FF90EF90DF90CF900C945B18EE
:1033200080E0E7E9F1E081118FEF00248193819340
:10333000819381930394D1F7E5E2F6E0128A118A32
:10334000108A17860895FC0180919601811103C0AF
:103350008FEF9FEF08959FB7F89482E08093E90084
:103360002091F20030E01216130614F421E030E050
:103370002115310559F0289884E6809395018091B4
:10338000F10080838091F200882319F09FBFC9016A
:1033900008958BE68093E800F9CF2FB7F89483E087
:1033A0008093E9009091E800892F807295FF04C016
:1033B0009091F20080E4891B2FBF08958F929F9215
:1033C000AF92BF92CF92DF92EF92FF920F931F9333
:1033D000CF93DF935C016B017A0180910701882311
:1033E00009F45BC080919601882309F456C080914E
:1033F000940180FF05C08091E00082608093E0002E
:10340000E70110E00AEF83E0882E9AE3992E2097D7
:10341000D9F10E94CD1981110AC0015009F43DC0B3
:1034200061E070E080E090E00E942F11F0CF282F43
:1034300030E0C217D3070CF48C2F4FB7F89480926A
:10344000E9009091E80095FF1DC0282F30E0C21BD5
:10345000D30BF601982F915020F081918093F100C9
:10346000FACFC20ED31E112319F09092E80009C0C2
:103470008091E80085FD06C09092E80011E0209759
:1034800009F010E04FBFC3CF1111C3CF5D9884E6A0
:10349000809393011E141F0444F081E090E0F50135
:1034A0009383828380E090E001C0C701DF91CF91D8
:1034B0001F910F91FF90EF90DF90CF90BF90AF9052
:1034C0009F908F9008958091400681110DC082E0F9
:1034D00080933C0684E080933D0610923F06109254
:1034E0003E0681E0809340068CE396E00895CF93FA
:1034F000DF931F92CDB7DEB76983DC01ED91FC91BC
:103500000280F381E02D41E050E0BE016F5F7F4F0C
:1035100009950F90DF91CF91089583E08093E900A2
:103520008091F200882319F08AE38093E8000895DF
:10353000FC018485958597FD0BC09FB7F89482E0C8
:103540008093E9008091F2009FBF90E0019608957A
:103550009FB7F89482E08093E9008091F2009FBFCA
:1035600090E0089540919C0650919D0620919A0606
:1035700030919B0642175307B4F49091E800957080
:10358000E1F39091E80092FD19C08093F1008091E1
:103590009C0690919D0601968F739927892B19F4AB
:1035A0008EEF8093E80080919C0690919D06019695
:1035B00090939D0680939C0681E0089580E0089595
:1035C000DF92EF92FF920F931F93CF93DF93D82E4A
:1035D0008A017B01E40EF51EEB01CE15DF0571F0CB
:1035E000D7FE03C0FE01849101C088810E94B21AF7
:1035F00021968111F2CF8FEF9FEF01C0C801DF91BB
:10360000CF911F910F91FF90EF90DF90089561503F
:1036100030F02091F100FC0120830196F8CF28982A
:1036200084E68093950108950E94CD1990E0089555
:10363000CF93DF931F92CDB7DEB7FC0184859585CC
:1036400097FD05C02FEF3FEF358724870BC0CE01D4
:1036500001960E94A319019719F4898190E002C094
:103660008FEF9FEF0F90DF91CF9108950F931F93EE
:10367000CF93DF931F92CDB7DEB78C01FC01848519
:10368000958597FF0EC0CE0101960E94A319019760
:1036900019F4298130E002C02FEF3FEFF8013587A0
:1036A0002487F801848595850F90DF91CF911F9134
:1036B0000F9108950F931F93CF93DF931F92CDB770
:1036C000DEB782E0898342E450E065EE70E280E894
:1036D0000E94E01A0E94631ADC0112960D911C915F
:1036E00013970115110569F0D801ED91FC91028045
:1036F000F381E02DBE016F5F7F4FC801099597FFF1
:1037000007C089810F90DF91CF911F910F9108958C
:10371000F80100851185E5CF1F920F920FB60F9229
:1037200011248F939F938091E1009091E100937F0A
:103730009093E10083FF0FC01092E90091E0909315
:10374000EB001092EC0092E39093ED001092960142
:1037500098E09093F00082FF20C093E09093E900FE
:103760009091F200992319F09AE39093E8009091D8
:103770009301992339F09091930191509093930183
:10378000992389F190919501992339F090919501B0
:10379000915090939501992341F184FF10C080913D
:1037A000E2008E7E81608093E2008091E1008F7E56
:1037B0008093E100809194018E7E806111C080FF32
:1037C00016C08091E2008E7E80618093E20080913D
:1037D000E1008E7E8093E100809194018E7E816075
:1037E0008093940104C05D9ACDCF289AD6CF9F9143
:1037F0008F910F900FBE0F901F9018951F920F92F0
:103800000FB60F921124CF92DF92EF92FF920F9397
:103810001F932F933F934F935F936F937F938F9358
:103820009F93AF93BF93EF93FF93CF93DF93CDB766
:10383000DEB76C97DEBFCDBF1092E9008091E80043
:1038400083FFEDC168E0CE0145960E94071B82EF21
:103850008093E8008D8987FF05C09091E80090FF74
:10386000FCCF03C09EEF9093E800982F907609F06C
:10387000C6C09E892F89188D91110CC0803829F4FB
:10388000809199068093F10002C01092F10010928D
:10389000F10048C1422F50E0512B913051F4811179
:1038A00041C14130510509F03DC1809199068D7F9C
:1038B0000BC0933061F4811135C14130510509F0DD
:1038C00031C1809199068260809399062BC1953011
:1038D00041F48091E80080FFFCCF20682093E30052
:1038E00021C1963009F05FC0EB8CFC8C1092E9008E
:1038F00010929D0610929C06123091F510929B0634
:1039000010929A060E945A1B99E0BE016F5F7F4F8A
:10391000DB01E92F1D92EA95E9F799831A8391E07B
:103920009E8390EA98879AEF998720919C06309120
:103930009D06275F3F4F3C832B838D831092E900C8
:1039400010929D0610929C06F0929B06E0929A06B9
:1039500049E050E080E00E94E01A0E945A1BE2C059
:10396000F0929B06E0929A060E94631ADC0112967E
:10397000ED90FC901397E114F10409F4C0C0D70155
:10398000ED91FC910480F581E02DBE016B5E7F4FCF
:10399000C7010995009719F00CF0C4C0C7C0F70122
:1039A000E084F184E8CF973009F4C0C0983021F466
:1039B00081E08093F100B6C0993009F0B3C0837004
:1039C00009F0B4C0EFE3F1E081E021E036E390815B
:1039D000992361F08093E9002093EB0091919093FB
:1039E000EC003093ED008F5F873089F78EE780938E
:1039F000EA001092EA008F898093960193C08B8D24
:103A00009C8D1092E90010929D0610929C06909356
:103A10009B0680939A06898D811156C08E899D8957
:103A2000913A59F4813209F081C047E050E060E0FA
:103A300071E080E00E94E01A75C0913209F076C012
:103A4000833289F4888D90E0982F88272F89822BE4
:103A5000A0E0B0E08093080190930901A0930A01CF
:103A6000B0930B015FC0803269F48091E80082FF5F
:103A7000FCCF67E080E091E00E94071B8BEF809312
:103A8000E80006C0823209F04DC08F89809307019B
:103A900080919806882319F0EEEFFAE002C0E0E08A
:103AA000F8E08091000190910101A0910201B09194
:103AB0000301803B9440A105B10509F07BC08091D2
:103AC000070180FF93C076C00E94631ADC01129642
:103AD0000D911C9113970115110541F1D801ED913C
:103AE000FC910190F081E02DBE016B5E7F4FC8011B
:103AF0000995811117C0F80100851185ECCF1130AF
:103B000009F44EC0133091F48F89882309F445C01D
:103B1000823081F440E860E189E491E20E942C283F
:103B2000882321F08EEF8093E80079C081E28093B2
:103B3000EB0075C0813029F440E86BE08DE391E241
:103B4000EDCF833099F70E94631ADC011296ED9055
:103B5000FC9013978E010F5F1F4F6801E114F10471
:103B600079F0D701ED91FC910680F781E02DB80145
:103B7000C7010995080F111DF701E084F184EECF0C
:103B8000D8011C92F60101900020E9F73197BF019E
:103B90006C197D0940E0C601C1CF67E271E202C045
:103BA0006BE271E26115710509F2FB01449150E08D
:103BB00080E840CF0FB6F894A895809160008861A6
:103BC00080936000109260000FBEA895EE3F2AE03F
:103BD000F20739F08091FE0A9091FF0A9183808369
:103BE000A1CF1092FF0A1092FE0A9CCFEE3F8AE00E
:103BF000F80731F0808191819093FF0A8093FE0A4B
:103C000087E797E7918380839BE088E10FB6F8947C
:103C1000A895809360000FBE9093600083CF6C9650
:103C20000FB6F894DEBF0FBECDBFDF91CF91FF91ED
:103C3000EF91BF91AF919F918F917F916F915F9124
:103C40004F913F912F911F910F91FF90EF90DF9037
:103C5000CF900F900FBE0F901F901895789484B559
:103C6000826084BD84B5816084BD85B5826085BD78
:103C700085B5816085BD80916E00816080936E0006
:103C800010928100809181008260809381008091F8
:103C900081008160809381008091800081608093A9
:103CA00080008091910082608093910080919100CA
:103CB000816080939100809190008160809390005A
:103CC0008091C10084608093C1008091C1008260B6
:103CD0008093C1008091C10081608093C100809178
:103CE000C30081608093C3008091C0008260809394
:103CF000C0008091C20081608093C20080917A00F0
:103D0000846080937A0080917A00826080937A0048
:103D100080917A00816080937A0080917A00806837
:103D200080937A0010929601109299061092940155
:103D30008091D70081608093D70080EA8093D8007B
:103D400089B5806189BD89B5826089BD09B400FEED
:103D5000FDCF61E070E080E090E00E942F11809143
:103D6000D8008F7C80618093D8008091E000807FB4
:103D70008093E0008091E1008E7E8093E1008DE0F1
:103D80008093E200559A209AEEEFFFE78591949197
:103D90008B3F9C4D19F481E08093980681EC8093D1
:103DA0007C0085B1806F85B984B1877E84B984B188
:103DB000876E84B95E9A5F988AB1806D8AB9769A67
:103DC0006E9881B3806F81BB899880B38D7080BB02
:103DD00080E58CBD81E08DBD85E090E00E944F14B0
:103DE0005F9A85E090E00E944F145E985C98EEE642
:103DF000F1E08DE08E0F94919EBD00000DB407FEA2
:103E0000FDCF31968E13F7CF5C9A81E880936400E2
:103E10008091650081608093650080E00E94231995
:103E20000E94541487FF24C05C9885EA8EBD000070
:103E30000DB407FEFDCF5C9A2E982F982D98809197
:103E4000640080628093640081E083BF889513BE24
:103E5000FCCF2D980E9454148478843871F00E940D
:103E600054148471843131F188EC90E00E944F1435
:103E70000E94541482FDEDCF3AC00E944D1488EC8C
:103E800090E00E944F142F9882E090E00E946928F1
:103E90008F3F29F06FEF82E090E00E94712884EF5D
:103EA00091E00E944F142F9A0E9454148478843811
:103EB000D9F3D5CF0E944D1488EC90E00E944F14A6
:103EC0002E9882E090E00E946928882329F060E023
:103ED00082E090E00E94712884EF91E00E944F14EC
:103EE0002E9A0E94541484718431D9F3BDCF0E945C
:103EF0004D1482E090E00E946928882331F03E9AB8
:103F00003F9A81E080938A0104C010928A013E9812
:103F10003F9881E090E00E94692882FB112710F908
:103F200081E090E00E94692881FF3EC011112E9827
:103F3000C0EFDFEF0E94541486FF04C02E9A2F9A20
:103F40002D9A32C0112329F0C430D10511F42E9AD4
:103F50002F9881E00E94231900E128E54EEB50E004
:103F6000BE0184E190E00E948A1680E00E9423193D
:103F70008FE090E00E944F142196C931D105D1F60F
:103F8000112311F02F9A2D9880E991E00E944F148F
:103F90000E944D14E0912906F0912A060190F081CB
:103FA000E02D89E296E0099582E390E00E944F14AB
:103FB0000E9454148111F8CF80E180933006109252
:103FC000140680E2809315068093160680931706E8
:103FD0008093180684E790E00E94C815C82F85E7F3
:103FE00090E00E94C81560919705C61304C0909197
:103FF0009805891761F084E790E00E94AC15609104
:10400000980585E790E00E94AC150E94891786E725
:1040100090E00E94C8158093130687E790E00E9405
:10402000C8158093990588E790E00E94C815809391
:104030009A0589E790E00E94C81580939B058AE75E
:1040400090E00E94C81580939C058BE790E00E9449
:10405000C81580939D058CE790E00E94C815809359
:104060009E058DE790E00E94C81580939F05CEE7DE
:10407000D0E0CE010E94C8158E0109561A4FF801F2
:10408000E557F1098083CE0101960E94C815F80119
:10409000E457F1098083CE0102960E94C815F80109
:1040A000E357F1098083CE0103960E94C815F801F9
:1040B000E257F1098083CE0104960E94C815F801E9
:1040C000E157F10980832596C83DD10591F688ED29
:1040D00090E00E94C8158093FA0589ED90E00E9457
:1040E000C8158093FB058AED90E00E94C815809367
:1040F000FC058BED90E00E94C8158093FD058CEDCA
:1041000090E00E94C8158093FE05CDEDD0E0CE0171
:104110000E94C815FE01EE5DFA4F80832196C23ED3
:10412000D105A9F7CE010E94C815FE01EE5DFA4F38
:1041300080832196C73ED105A9F7CE010E94C815FC
:10414000FE01EE5DFA4F80832196CC3ED105A9F7A2
:10415000CE010E94C815FE01EE5DFA4F80832196C4
:10416000C13FD105A9F7A0E86A2E712CC1E0DEE1BC
:10417000F6E1DF2E8FB7F8944091860150918701C8
:1041800060918801709189018FBF80913106342F31
:10419000381B832F90913206992329F030933306F0
:1041A000109232063BC690913006391748F48F5F63
:1041B000891708F033C681E083BF889513BE2EC6E9
:1041C000C09332064093310680912C0690912D06C3
:1041D000019690932D0680932C060E949019809151
:1041E0002E0680932F060E94541480932E060E9460
:1041F0009019E09113068E2F90E08930910508F018
:104200000AC6FC01EA5AFF4F0C94B52800E420E8E6
:104210004DE85DE060E070E080E090E00E948A168A
:1042200000E010E0F0908B0120E04F2DB80180E01D
:1042300090E00E945C14B8016F5F7F4F20E04F2D2B
:10424000C3018F1991090E945C140E5F1F4F003447
:10425000110541F7F7FCD8C5F394F394F0928B0164
:10426000DAC50E94CA150E944916EBE8F9E00491EC
:10427000ECE8F9E0E490CC24C3942BE835E04DE879
:1042800059E060E070E080E090E00E94B31100E04F
:1042900010E0F0908B0120E04F2DB80180E090E01D
:1042A0000E945C14B8016F5F7F4F20E04F2DC30167
:1042B0008F1991090E945C140E5F1F4F0034110585
:1042C00041F7FF2021F08CEF8F0D80938B0188E068
:1042D0000E943E18882309F49EC582E0809313064D
:1042E0000E94891780E880938B0195C50E94CA15AA
:1042F0000E9449160E9400160E94191686E08093BB
:10430000200680931F068DE18093210685E491E0CD
:104310000E949C186091990570E080E090E04AE06E
:104320000E945B1888E591E00E94491880E80E948D
:104330003E18882309F47AC580919905843008F0E5
:1043400075C58F5F7DC584E0809313060E94891731
:1043500080919A058230E9F068F48130B9F51092C5
:1043600014068091FF0590910006A0910106B0917E
:10437000020624C08330C1F0843041F51092140647
:1043800080910E0690910F06A0911006B091110633
:1043900015C0109214068091040690910506A09114
:1043A0000606B09107060AC010921406809109060D
:1043B00090910A06A0910B06B0910C068093150609
:1043C00090931606A0931706B09318060E94CA157C
:1043D0000E9449160E9400160E94191686E08093DA
:1043E000200680931F068DE18093210683E895E0E7
:1043F0000E94321980919A050E9453198BE795E02B
:104400000E94321905E116E0F12CEDE1EE2E8FE568
:104410008F0D8093200680931F06E09221068091E5
:104420001406902F25E136E0921B89130FC036E069
:10443000839FC0011124AC014D595F4F26E230E04B
:1044400066E270E0815A9F4F0E949E18F8016191C8
:104450008F01E0911B06F0911C060190F081E02D88
:104460008BE196E00995F6E0FF0E28E1F212CFCF3E
:104470001091140680E80E943E188823E1F0E12F95
:10448000F0E0EC5EF94F81818A3589F034F48032B6
:1044900061F08CF081346CF40EC0813664F08A37A0
:1044A00044F08A3741F480E205C081E403C081E62C
:1044B00001C08F5F818380E10E943E188823D9F07C
:1044C000E12FF0E0EC5EF94F81818B3544F48234CA
:1044D00084F4803251F0813471F480E20BC0813673
:1044E00031F04CF08B372CF006C08AE703C08AE528
:1044F00001C08150818380E20E943E18882329F008
:10450000112319F011501093140680E40E943E18F4
:10451000882339F080911406833018F48F5F8093DC
:10452000140684E00E943E188823A1F080919A0529
:10453000823058F083E0809313060E94891780919F
:104540009A05815080939A0505C082E080931306F6
:104550000E94891788E00E943E18882309F45BC4F2
:1045600010919A05123089F038F41130C9F465E1E0
:1045700076E08FEF95E012C0133061F0143081F4D3
:1045800065E176E08EE096E009C065E176E084E0E2
:1045900096E004C065E176E089E096E00E94C028DC
:1045A00080919905181758F483E0809313060E94B0
:1045B000891780919A058F5F80939A052CC485E0B6
:1045C00034C00E94CA150E9449160E9400160E941B
:1045D000191686E08093200680931F068DE1809354
:1045E00021068BE591E00E949C1860919B0570E08C
:1045F00080E090E04AE00E945B1888E591E00E942C
:10460000491880E80E943E18882309F423C4809149
:104610009B05823108F01EC48F5F26C484E00E948F
:104620003E18882309F4F7C383E080931306F1C38F
:1046300037E0309313060E94891700E420E84BE727
:1046400051E060E070E080E090E00E948A16C09344
:104650002006C0931F06D09221068FEF95E00E949E
:104660009C1880919905823058F0C0932006C09321
:104670001F0681E28093210684E096E00E949C1848
:1046800080919905833058F0C0932006C0931F068F
:104690008CE28093210689E096E00E949C1880912C
:1046A0009905843058F0C0932006C0931F0687E315
:1046B000809321068EE096E00E949C1800E010E0B6
:1046C00021E049E050E0B80189E296E00E949F14A1
:1046D0000E5F1F4F0238110599F70CE20093200678
:1046E00000931F061092210680919C0590E002978E
:1046F0000E945A194CE3E42EE0922006E0921F0635
:104700001092210680919C0590E001970E945A1911
:104710005CE4F52EF0922006F0921F06109221061E
:1047200080919C050E945319109222060093200646
:1047300000931F066BE0B62EB092210680919C0577
:1047400090E0039715E0189FF001199FF00D1124D8
:10475000E956FA4F81850E945319E0922006E092B3
:104760001F06B092210680919C0590E00297189F49
:10477000F001199FF00D1124E956FA4F81850E942E
:104780005319F0922006F0921F06B09221068091F4
:104790009C0590E00197189FF001199FF00D1124DE
:1047A000E956FA4F81850E945319C093220600935F
:1047B000200600931F06D092210680919C0590E070
:1047C0000397189FF001199FF00D1124E956FA4F35
:1047D00082850E945319E0922006E0921F06D09233
:1047E000210680919C0590E00297189FF001199F87
:1047F000F00D1124E956FA4F82850E945319F09268
:104800002006F0921F06D092210680919C0590E030
:104810000197189FF001199FF00D1124E956FA4FE6
:1048200082850E94531978E6B72EB0922006B09286
:104830001F06D09221068091FB050E94531980919A
:104840009905823008F447C00093200600931F06A4
:1048500001E20093210680919C0590E00397189F48
:10486000F001199FF00D1124E956FA4F83850E943B
:104870005319E0922006E0921F06009321068091D2
:104880009C0590E00297189FF001199FF00D1124EC
:10489000E956FA4F83850E945319F0922006F09250
:1048A0001F060093210680919C0590E00197189FB8
:1048B000F001199FF00D1124E956FA4F83850E94EB
:1048C0005319B0922006B0921F06009321068091E2
:1048D000FC050E94531980919905833008F44BC060
:1048E0001CE21093200610931F061093210680915E
:1048F0009C0590E0039705E0089FF001099FF00DEB
:104900001124E956FA4F84850E9453198CE3809351
:10491000200680931F061093210680919C0590E04D
:104920000297089FF001099FF00D1124E956FA4FF4
:1049300084850E9453198CE48093200680931F067F
:104940001093210680919C0590E00197089FF0014B
:10495000099FF00D1124E956FA4F84850E945319DE
:1049600088E68093200680931F061093210680918D
:10497000FD050E94531980919905843009F04CC0BF
:104980008CE28093200680931F0617E31093210684
:1049900080919C0590E0039705E0089FF001099F36
:1049A000F00D1124E956FA4F85850E9453198CE3C6
:1049B0008093200680931F061093210680919C050A
:1049C00090E00297089FF001099FF00D1124E9562D
:1049D000FA4F85850E9453198CE4809320068093BA
:1049E0001F061093210680919C0590E00197089F77
:1049F000F001099FF00D1124E956FA4F85850E94B8
:104A0000531988E68093200680931F061093210691
:104A10008091FE050E94531980919F05882321F003
:104A2000813009F4AFC0F7C180919E0590E00197F5
:104A30002BE0289F7001299FF00C112487010B5E49
:104A40001F4F80919D0590E1899F20011124120143
:104A5000E9E22E0E311C0034110534F421E04FE060
:104A6000B801C1010E945C14B701625E7F4F6034DF
:104A700071052CF421E04FE0C1010E945C14FFE1BC
:104A8000EF0EF11C17FF02C000E010E048015701D3
:104A900031E4E316F1041CF030E4A32EB12C8A14A7
:104AA0009B045CF421E0A401B10189E296E00E943C
:104AB0009F142FEF821A920AEACF720187E3E80E61
:104AC000F11C0A151B0554F421E0A801B70189E285
:104AD00096E00E949F140F5F1F4FF3CF80E80E9463
:104AE0003E18882321F080919E058111C8C180E184
:104AF0000E943E18882339F080919E059091990577
:104B0000891708F4C0C180E20E943E188823A9F0EA
:104B100080919D05882321F0815080939D050DC0D3
:104B200080919C05843020F0815080939C0505C0C5
:104B300085E0809313060E94891780E40E943E1846
:104B40008823B9F080919D05823020F48F5F809397
:104B50009D050FC080919C0590919B05891720F4BD
:104B60008F5F80939C0505C088E0809313060E94A8
:104B7000891788E00E943E18882309F44CC1C0932D
:104B80009F0549C180919D0590E0019624E0880F22
:104B9000991F2A95E1F760919E05EBE06E9FB001A9
:104BA00011246D5E7F4FAC014A5D5F4F9B014A96B9
:104BB0000E949E1880E80E943E188823C9F08091C8
:104BC0009E05811115C020919C0580919D0590E066
:104BD0000397820F911D25E0289FF001299FF00D7A
:104BE0001124E956FA4F81858A3010F48F5F81874E
:104BF00080E10E943E188823C9F080919E058111B2
:104C000015C020919C0580919D0590E00397820F2F
:104C1000911D25E0289FF001299FF00D1124E956F0
:104C2000FA4F8185823010F08150818780E80E94A0
:104C30003E18882381F1F0909E05FF2061F12091BC
:104C40009C0580919D0590E00397820F911D25E0C2
:104C5000289F8001299F100D112400561A4F6F2D97
:104C6000C8010E947616B82E6F2D8AEF95E00E943B
:104C70007616E82E39E03B1570F041E04B0D6F2DB4
:104C8000C8010E94621641E04E0D60919E058AEFB8
:104C900095E00E94621680E10E943E18882379F117
:104CA000F0909E05FF2059F120919C0580919D0573
:104CB00090E00397820F911D25E0289F8001299F96
:104CC000100D112400561A4F6F2DC8010E94761640
:104CD000B82E6F2D8AEF95E00E947616E82EBB2045
:104CE00071F04FEF4B0D6F2DC8010E9462164FEF10
:104CF0004E0D60919E058AEF95E00E94621688E055
:104D00000E943E18882309F486C010929F0583C034
:104D10001092200610921F06109221068CE691E058
:104D20000E949C181092200610921F06F4E1F09346
:104D300021068FEF95E00E949C18D0932006D09317
:104D40001F0624E1209321068091FB050E94531940
:104D5000809199058230A0F01092200610921F06D3
:104D6000D093210684E096E00E949C18D093200600
:104D7000D0931F06D09321068091FC050E94531901
:104D8000809199058330B0F01092200610921F0692
:104D900038E23093210689E096E00E949C18D09377
:104DA0002006D0931F0688E2809321068091FD059E
:104DB0000E945319809199058430B0F0109220061A
:104DC00010921F0692E3909321068EE096E00E94D7
:104DD0009C18D0932006D0931F06E2E3E0932106AF
:104DE0008091FE050E94531984E00E943E1888239A
:104DF00029F0F7E0F09313060E94891788E00E94DB
:104E00003E18882341F003C080E880938B01C09353
:104E100013060E94891780E00E94231920E030E0E9
:104E2000232B09F4A7C90E940000A1C980E10E94B8
:104E30003E18882341F080919905823020F08150FE
:104E400080939905E8CF88E00E943E188111ECCB51
:104E500084E0D5CF80E10E943E18882341F0809104
:104E60009B05823020F0815080939B05D4CF88E051
:104E70000E943E18882309F4D1CB86E0D6CB81501E
:104E800080939E0534CE8F5F80939E053CCE0F931A
:104E90001F93CF93DF938C0181E090E00E946928FB
:104EA00080FF32C08AE090E00E9469289FEF980F4F
:104EB0009E3F50F522E330E0D80150963C932E936C
:104EC0001F9728E330E052963C932E935197CBE006
:104ED000D0E0D801ED91FC910190F081E02D682F98
:104EE000C8010995CE010E9469282196C131D105DA
:104EF00081F780E00E94231988EE93E0DF91CF9143
:104F00001F910F910C944F14DF91CF911F910F912E
:104F1000089504970C94472710924B0610924A0666
:104F200088EE93E0A0E0B0E080934C0690934D06AD
:104F3000A0934E06B0934F0680E191E0909349060E
:104F4000809348068FEF9FEF909355068093540609
:104F5000109228061092270610922E0610922F0605
:104F600080E18093300610922D0610922C0610924C
:104F700032061092350610923406109237061092BF
:104F8000360681E0809338061092390680933A06FF
:104F900010923B062EE231E0309326062093250640
:104FA0002CE331E030932A062093290610921E0646
:104FB00010921D0622E231E030931C0620931B065E
:104FC00098E0909324068093230610922006109276
:104FD000210610921F068093220690E290931506F8
:104FE00090931606909317069093180697E4909363
:104FF000970593E4909398058093990580939A057B
:1050000082E180939B0583E080939C0510929D052F
:1050100010929E0510929F0580E090E024E0FC0134
:10502000E956FA4F218705968A359105C1F784E044
:105030008093FA0510921306EEE0F6E080E294E029
:105040009E0FDF011F978C9315968C9315968C936A
:1050500081939E13F6CF0895CF92DF92EF92FF9245
:105060000F931F93CF93DF931F92CDB7DEB7182F07
:10507000062FE42E862F880F8E5F99830E94B21A26
:1050800083E00E94B21AF12EC12E9981D92E8C2D67
:105090008F19801798F4F601E7FE02C0849101C0D1
:1050A00080810E94B21A182F80E00E94B21A8123D8
:1050B000FFEFCF1ADF0A8111EACF01C081E00F9024
:1050C000DF91CF911F910F91FF90EF90DF90CF90E4
:1050D0000895F999FECF92BD81BDF89A992780B5C0
:1050E0000895262FF999FECF1FBA92BD81BD20BD2C
:1050F0000FB6F894FA9AF99A0FBE01960895A1E2B4
:105100001A2EAA1BBB1BFD010DC0AA1FBB1FEE1F41
:10511000FF1FA217B307E407F50720F0A21BB30B8C
:10512000E40BF50B661F771F881F991F1A9469F708
:1051300060957095809590959B01AC01BD01CF0164
:105140000895AA1BBB1B51E107C0AA1FBB1FA617CE
:10515000B70710F0A61BB70B881F991F5A95A9F720
:1051600080959095BC01CD010895EE0FFF1F05902D
:10517000F491E02D099481E090E0F8940C94C72814
:10518000FB01DC0101900D920020E1F70895F894F5
:02519000FFCF4F
:1051920000E1000000000000FFFFFFFF0000000030
:1051A200771ADE19141B8D1A981A181B361B000069
:1051B20000009813D8102A11291100000000BD1414
:1051C200D8102A1129114727FCFF0000892700C1A6
:1051D2008081000000486F77206D616E7920706CCD
:1051E20061796572733F20000D0A00486F77206D68
:1051F200616E7920486F6C65733F20004865726567
:1052020020617265207468652066696E616C207326
:06521200636F726573007A
:00000001FF
