:100000000C945E100C9486100C9486100C94861040
:100010000C9486100C9486100C9486100C94861008
:100020000C9486100C9486100C94A2130C94141447
:100030000C9486100C9486100C9486100C948610E8
:100040000C9486100C9486100C9486100C948610D8
:100050000C9486100C9486100C9486100C94771BCC
:100060000C9486100C9486100C9486100C948610B8
:100070000C9486100C9486100C9486100C948610A8
:100080000C9486100C9486100C9486100C94861098
:100090000C9486100C9486100C9486100C94861088
:1000A0000C9486100C9486100C948610F4201D215C
:1000B0000D224D2290228723CE23D323DF20D5F09B
:1000C0008D14A1C881CFD9F1AF20008040007E08F7
:1000D000087E003844443800427E400000385454C2
:1000E00058000000000078EEFEBBEFFFDB7E867854
:1000F00000000000007F0000000000000000000081
:1001000000000000007F0000000000000000000070
:1001100000000000007F0000000000000000000060
:1001200000000000007F00FF00000000000002024D
:100130007E02023844443800043E444000205454B7
:100140007800427E400000000000000000FD0D6DC0
:100150006D9DFDFD5D5D3DFD1DBDDDBDFDFDFDFD3F
:10016000FDFDFDFDFDFDFE7DF50BFB5AAAF5FDFE37
:10017000FDFDFDFDFD05FDFDFDFDFDFDFDFDFDFDA7
:10018000FDFDFDFDFD05FDFDFDFDFDFDFDFDFDFD97
:10019000FDFDFDFDFD05FDFDFDFDFDFDFDFDFDFD87
:1001A000FDFDFDFDFD05F8F265EAEAEAEAEAEAEAA4
:1001B000EAEAEAEAEA6AEAEAEAEAEAEA6AEAEAEA9F
:1001C0006AEAEAEAEAEA6AEAEAEAEA6AEA1714178B
:1001D00017171716151514171417171717161516BE
:1001E00016151516151614171414151615151615BB
:1001F000151615141FA81F1F1F1F1F1F1F1F1F1FAE
:100200001F1F1F1F1FA81F1F1F1F1F1F1F1F1F1F75
:100210001F1F1F1F1FA81F1F1F1F1F1F1F1F1F1F65
:100220001F1F1F1F1FA81F141714151616151516AC
:100230001515161514171615151615141714151669
:100240001714151615141714151614171680808018
:10025000808080808080808080808080808080809E
:10026000808080808080808080808080808080808E
:100270008080808000AA0080808080808080808054
:100280008080808000AA0080808080808080808044
:100290008080808000AA0080808080808080808034
:1002A0008080808000AA0080808080808080808024
:1002B000808080808080808080808080808080803E
:1002C00080808080808080808080808080000000AE
:1002D000000000000000000000000000000000001E
:1002E000000000000000000000000000000000000E
:1002F0000000000000AA0000000000000000000054
:100300000000000000AA0000000000000000000043
:100310000000000000AA0000000000000000000033
:100320000000000000AA0000000000000000000023
:1003300000000000000000000000000000000000BD
:1003400000000000000000000000000000040404A1
:10035000040404040404040404040404040404045D
:10036000040404040404040404040404040404044D
:100370000404040400AA000404040404040404049F
:100380000404040400AA000404040404040404048F
:100390000404040400AA000404040404040404047F
:1003A0000404040400AA000404040404040404046F
:1003B00004040404040404040404040404040404FD
:1003C0000404040404040404040404040420202099
:1003D000202020202020202020202020202020201D
:1003E000202020202020202020202020202020200D
:1003F0002020202000AA00202020202020202020B3
:100400002020202000AA00202020202020202020A2
:100410002020202000AA0020202020202020202092
:100420002020202000AA0020202020202020202082
:1004300020202020202020202020202020202020BC
:10044000202020202020202020202020200000000C
:10045000000000000000000000000000000000009C
:10046000000000000000000000000000000000008C
:100470000000000000AA00000000000000000000D2
:100480000000000000AA00000000000000000000C2
:100490000000000000AA00000000000000000000B2
:1004A0000000000000AA00000000000000000000A2
:1004B000000000000000000000000000000000003C
:1004C00000000000000000000000000000206E613D
:1004D0006D653F2000506C61796572200005070052
:1004E000003E000005077F7F7F7F7F000000000047
:1004F00000000000000000000000000000000000FC
:10050000000080C0E0E0E0E0E0E0E0E0E0E0E0E02B
:10051000E0E0E0E0E0E0E0E0E0E0E0E0E0E0E0E0DB
:10052000E0E0E0E0E0E0E0E0E0E0E0E0E0E0E0E0CB
:10053000E0E0E0E0E0E0E0E0E0E0E0E0E0E0E0E0BB
:10054000E0E0E0E0E0E0E0E0E0E0E0E0E0E0E0E0AB
:10055000E0C080000000000000000000000000007B
:10056000000000000000000000000000000000008B
:10057000000000000000000000000000000000007B
:100580000000FFFFFFFFFFFFFFFFFFFFFFFFFFFF79
:10059000FFFFFFFFFFFFFFFFFFFFFFFFFFFFFFFF6B
:1005A000FFFFFFFFFFFFFFFFFFFFFFFFFFFFFFFF5B
:1005B000FFFFFFFFFFFFFFFFFFFFFFFFFFFFFFFF4B
:1005C000FFFFFFFFFFFFFFFFFFFFFFFFFFFFFFFF3B
:1005D000FFFFFF000000000000000000000000001E
:1005E000000000000000000000000000000000000B
:1005F00000000000000000000000000000000000FB
:100600000000FFFFFFFFFFFFFFFFFFFFFFFFFFFFF8
:10061000FFFFFFFFFFFFFFFFFFFFFFFFFFFFFFFFEA
:10062000FFFFFFFFFFFFFFFFFFFFFFFFFFFFFFFFDA
:10063000FFFFFFFFFFFFFFFFFFFFFFFFFFFFFFFFCA
:10064000FFFFFFFFFFFFFFFFFFFFFFFFFFFFFFFFBA
:10065000FFFFFF000000000000000000000000009D
:10066000000000000000000000000000000000008A
:10067000000000000000000000000000000000007A
:100680000000FFFFFFFFFFFFFFFFFFFFFFFFFFFF78
:10069000FFFFFFFFFFFFFFFFFFFFFFFFFFFFFFFF6A
:1006A000FFFFFFFFFFFFFFFFFFFFFFFFFFFFFFFF5A
:1006B000FFFFFFFFFFFFFFFFFFFFFFFFFFFFFFFF4A
:1006C000FFFFFFFFFFFFFFFFFFFFFFFFFFFFFFFF3A
:1006D000FFFFFF000000000000000000000000001D
:1006E000000000000000000000000000000000000A
:1006F00000000000000000000000000000000000FA
:100700000000FFFFFFFFFFFFFFFFFFFFFFFFFFFFF7
:10071000FFFFFFFFFFFFFFFFFFFFFFFFFFFFFFFFE9
:10072000FFFFFFFFFFFFFFFFFFFFFFFFFFFFFFFFD9
:10073000FFFFFFFFFFFFFFFFFFFFFFFFFFFFFFFFC9
:10074000FFFFFFFFFFFFFFFFFFFFFFFFFFFFFFFFB9
:10075000FFFFFF000000000000000000000000009C
:100760000000000000000000000000000000000089
:100770000000000000000000000000000000000079
:100780000000070F1F1F1F1F1F1F1F1F1F1F1F1FDF
:100790001F1F1F1F1F1F1F1F1F1F1F1F1F1F1F1F69
:1007A0001F1F1F1F1FFFFFFFFFFFFFFFFFFFFFFFB9
:1007B0001F1F1F1F1F1F1F1F9F9F9F9F9F9F9F9F49
:1007C0009F9F9F9F9F9F9F9F1F1F1F1F1F1F1F1F39
:1007D0001F0F0700000000000000000000000000E4
:1007E0000000000000000000000000000000000009
:1007F00000000000000000000000000000000000F9
:1008000000000000000000000000000000000000E8
:1008100000000000000000000000000000000000D8
:100820000000000000FFFFFFFFFFFFFFFFFFFFFFD3
:100830000000000000000000BFBFBFBFBFBFBFBFC0
:10084000BFBFBFBFBFBFBFBF808080808000000030
:100850000000000000000000000000000000000098
:100860000000000000000000000000000000000088
:100870000000000000000000000000000000000078
:100880000000000000000000000000000000000068
:100890000000000000000000000000000000000058
:1008A0000000000000FFFFFFFFFFFFFFFFFFFFFF53
:1008B00000000000000000003F3F3F3F3F3F3F3F40
:1008C0003F3F3F3F3F3F3F3F3F3F3F3F3F000000F5
:1008D0000000000000000000000000000000000018
:1008E0000000000000000000000000804000000048
:1008F00000000000000000000000000000000000F8
:10090000000000000080C0C0C0C0C0C0C0C0C0C0E7
:10091000C0C0C0C0C0C0C0C0C0C0C0C0C0C0C0C0D7
:10092000C0C0C0C0C0C0C0C0C0C0C0C0C0C0C0C0C7
:10093000C0C0C0C0C0C0C0C0C0C0C0C0C0C0C0C0B7
:10094000C0C0C0C0C0C0C0C0C0C0C0C0C0C0C0C0A7
:10095000C0C0C080000000000000000000000000D7
:100960000000000000000000000000000000000087
:100970000000000000000000000000000000000077
:100980000000000000FFFF01FC020202020202025E
:100990000202020202020202020202020202020237
:1009A00082C24242424242C2C20202020202020227
:1009B00002C2C202C2C2424242C2C20202020202D7
:1009C0000202020202020202020202020202020207
:1009D000FC01FFFF0000000000000000000000001C
:1009E0000000000000000000000000000000000007
:1009F00000000000000000000000000000000000F7
:100A00000000000000FFFF00FF0000000080C0C0E9
:100A100040404040C0C0800000000000000000FFD7
:100A2000FF000000001010F0F000F0101010F0F0C7
:100A300000FFFF00FFFF101010000000000000008A
:100A400000000000000000000000000000000000A6
:100A5000FF00FFFF00000000000000000000000099
:100A60000000000000000000000000000000000086
:100A70000000000000000000000000000000000076
:100A80000000000000FFFF00FF00000000FFFF006B
:100A90000000000000030300F0101010F0F000F15F
:100AA000E316F4E414F4E407F7101714F4E407E78A
:100AB000F0171710E7F700F0E010F0E000F4F40092
:100AC000F0101010F0F000F0E010F0E00000000076
:100AD000FF00FFFF00000000000000000000000019
:100AE0000000000000000000000000000000000006
:100AF00000000000000000000000000000000000F6
:100B00000000000000FFFF00FF00000000030706D8
:100B1000040404040407030007040404070700078F
:100B200007000707000707001F1C04040703000352
:100B3000070404020707000707000707000707006C
:100B40000704040407070007070007070000000068
:100B5000FF00FFFF00000000000000000000000098
:100B60000000000000000000000000000000000085
:100B70000000000000000000000000000000000075
:100B80000000000000070F0E0C0D0D0D0D0D0D0DDA
:100B90000D0D0D0D0D0D0D0D0D0D0D0D0D0D0D0D85
:100BA0000D0D0D0D0D0D0D0D8D0D8D8D8D8D8D8DF5
:100BB0008D0D0D0D0D0D0D0D0D0D0D0D0D0D0D0DE5
:100BC0000D0D0D0D0D0D0D0D0D0D0D0D0D0D0D0D55
:100BD0000C0E0F07000000000000000000000000E5
:100BE0000000000000000000000000000000000005
:100BF00000000000000000000000000000000000F5
:100C000000000000000000000000000000000000E4
:100C100000000000000000000000000000000000D4
:100C20000000000000000000FF00FFFFFFFFFFFFCB
:100C3000FF000000000000000000001F02041F0071
:100C40001F15150007180618070000000000000017
:100C50000000000000000000000000000000000094
:100C60000000000000000000000000000000000084
:100C70000000000000000000000000000000000074
:100C80000000000000000000000000000000000064
:100C90000000000000000000000000000000000054
:100CA0000000000000000000FF00FFFFFFFFFFFF4B
:100CB000FF000000000000000000001F051B001FD7
:100CC000151500121509001F151500011F01000060
:100CD0000000000000000000000000000000000014
:100CE0000000000000000000000000000000000004
:100CF00000000000000000000000000000000000F4
:100D000000000000000000000000000000000000E3
:100D100000000000000000000000000000000000D3
:100D200000000000000000000000000000000000C3
:100D300000000000000000000000000000000000B3
:100D400000000000000000000000000000000000A3
:100D50000000000000000000000000000000000093
:100D60000000000000000000000000000000000083
:100D70000000000000000000000000000000000073
:100D80000000000000000000000000000000000063
:100D90000000000000000000000000008080808053
:100DA0008080000000008080808080808080000043
:100DB0000000000000000000000000000000000033
:100DC0000000000000000000000000000000000023
:100DD0000000000000000000000000000000000013
:100DE0000000000000000000000000000000000003
:100DF00000000000000000000000000000000000F3
:100E000000000000000000000000000000000000E2
:100E1000000000000000000000020A2AA8A38F3F83
:100E2000FFFFFEF08000FFFFFFFFFFFFFF07000056
:100E30000000000080808080C0C0008000000000B2
:100E400000000000000000000000000000000000A2
:100E50000000000000000000000000000000000092
:100E60000000000000000000000000000000000082
:100E70000000000000000000000000000000000072
:100E80000000000000000000000000000000000062
:100E900000000000000000000000000000020A0A3C
:100EA00028A3871F7FFCFFFFFFFFFF7F01F0F8FCF7
:100EB000FE06A30B07073F0F2308020000000000F7
:100EC0000000000000000000000000000000000022
:100ED0000000000000000000000000000000000012
:100EE0000000000000000000000000000000000002
:100EF00000000000000000000000000000000000F2
:100F000000000000000000000000000000000000E1
:100F100000000000000000000000000000000000D1
:100F20000000020A28A1871F7FFF1F0080F1F3F352
:100F3000636322B21E2028000000000000000000B1
:100F400000000000000000000000000000000000A1
:100F50000000000000000000000000000000000091
:100F60000000000000000000000000000000000081
:100F70000000000000000000000000000000000071
:100F80000000000000000000000000000000000061
:100F90000000000000000000000000000000000051
:100FA000080808C808884A8A48480888498908CA39
:100FB000480948C848080808000000000000000070
:100FC0000000000000000000000000000000000021
:100FD0000000000000000000000000000000000011
:100FE0000000000000000000000000000000000001
:100FF00000000000000000000000000000000000F1
:1010000000000000000000000000000000000000E0
:1010100000000000000000000000000000000000D0
:1010200000000000030000020303000102010003AE
:1010300001000003000000000000000000000000AC
:1010400000000000000000000000000000000000A0
:101050000000000000000000000000000000000090
:101060000000000000000000000000000000000080
:101070000000000000000000000000000000000070
:101080000000000000000000000000000000000060
:101090000000000000000000000000000000000050
:1010A0000000000000000000000000000000000040
:1010B0000000000000000000000000000000000030
:1010C0000000000000000000000000000000000020
:1010D0000000000000000000000000000000000010
:1010E00000000000000000000000000000080B00ED
:1010F00002020201000904000001020200000524AE
:101100000010010524010101042402060524060043
:10111000010705810310004009040100020A0000D4
:10112000000705020240000007058302400000049A
:1011300003090412010002EF02014041233680003E
:10114000010102030141726475696E6F204C4C43CA
:101150000041726475696E6F204C656F6E617264D8
:101160006F000000000000F0FCFEFEFFFFFFFFFE2E
:10117000FEFCF00000000000000000000000000085
:10118000000000000000000000000000000000005F
:10119000000000000000000000000000000000004F
:1011A000000000000000000000000000000000003F
:1011B000000000000000000000000000000000002F
:1011C000000000000000000000000000000000001F
:1011D000000000000000000000000000000000000F
:1011E000000080C08000800003873FFFFFFFFFBF3B
:1011F00087C3800080800000800000800080C08065
:101200000000800080C0800080C08000800080C01E
:1012100080008080C08000008080C080008080C00E
:10122000800080C0808000008080000080000080FE
:101230000080C0800000800080C0800080C08000EE
:10124000800080C080008080C08000008080C080DE
:10125000008080C0800080C080800080800000808E
:1012600000800303030303030303030303030303D4
:10127000030303030303030303030303030303033E
:10128000030303030303030303030303030303032E
:10129000030303030303030303030303030303031E
:1012A000030303030303030303030303030303030E
:1012B00003030303030303030303030303030303FE
:1012C00003030303030303030303030303030303EE
:1012D00003030303030303030303030303030303DE
:1012E00003038012000000000000F0DCFC76DEFE4C
:1012F000B6FC0CF000000000000000000000000040
:1013000000000000000000000000000000000000DD
:1013100000000000000000000000000000000000CD
:1013200000000000000000000000000000000000BD
:1013300000000000000000000000000000000000AD
:10134000000000000000000000000000000000009D
:10135000000000000000000000000000000000008D
:101360000000000000800000000000030317F7B534
:1013700015020380000000000000000000000000D3
:1013800080000000000000800000008000000000DD
:1013900000800000000080000000000080000000CD
:1013A000008000000080000000000000000000003D
:1013B00000000000800000000000008000000080AD
:1013C000000000000080000000008000000000001D
:1013D000800000000080000000800000000000008D
:1013E00000000000020302020302020302000300E5
:1013F00002030203020203030202030202030202C7
:1014000003030202030202030202030302020302B5
:1014100002030202030203030202030203020203A5
:101420000203030202030203020203030202030295
:101430000203020203030202030202030202030385
:101440000202030202030202030203030202030276
:101450000302020302030302020302030203030264
:1014600002030203F8FCFEFF070787C7C7CFCF863A
:10147000C0C0C0C0C0C0FEFFFFFEFFFFFFC7C78FD8
:101480000F060000FCFEFFFF070707071F3F3E9CFB
:10149000C0C0C0C0C0C080C080C0C080C0C080808C
:1014A000C0C0C0C0C0800080C0C0C0C080C080C0FC
:1014B00080C0C080A0F0F0A0C0C0C0C0C0C080C0CC
:1014C00080C0C080000F1F3F7F707070717F7F7F72
:1014D0003F7F7F717F7F7F3F7F7F7F7F7F7F0101A6
:1014E00000000000001F3F7F7F70707070787C3CB0
:1014F0003F7F7F717F7F7F3F7F7F3F7F7F3F7F7F0A
:10150000FFFFFFF17F7F3F1F3F7F7F713F7F7F3F67
:101510007F7F3F7F7F3F7F7F3F7F7F717F7F7F3FE9
:101520007F7F3F7F7F3F0000000000000000000041
:1015300000000000000000000000000000000000AB
:10154000000000000000000000000000000000009B
:10155000000000000000000000000000000000008B
:101560000000010100000000000000000000000079
:10157000000000000000000000000000000000006B
:1015800000000000000000611100F8FC06020202E9
:10159000828286860080808080808000FEFE00FE41
:1015A000FE828282060600000000FCFE06020202A5
:1015B00002061E1C00808080808080008000808069
:1015C000008080000080808080800000008080801B
:1015D00080008000800080800000A0A000808080CB
:1015E00080808000800080800000000F1F3020205D
:1015F0002020203F3F003F2020203F3F003F3F0072
:101600003F3F0000000000000000001F3F3020208E
:101610002020203818003F2020203F3F003F3F007F
:101620003F3F003F3F00FFE020203F1F001F3F20C3
:1016300020103F3F003F3F003F3F003F3F003F2023
:1016400020203F3F003F3F003F3F000000000000E0
:10165000000000000000000000000000000000008A
:10166000000000000000000000000000000000007A
:10167000000000000000000000000000000000006A
:10168000000000000000000000000000000000005A
:10169000000000000000000000000000000000004A
:1016A000000000000000000000000000000000003A
:1016B000000000000000000000000000000000002A
:1016C000000000000000000000000000000000001A
:1016D000000000000000000000000000000000000A
:1016E00000000000000000000000000000000000FA
:1016F00000000000000000000000000000000000EA
:1017000000000000000000000000000000000000D9
:1017100000000000000000000000000000000000C9
:1017200000000000000000000000000000C00000F9
:1017300080800000800000800000C08000008000E9
:1017400000C0000080C00000800000C000008000D9
:10175000C08000008000C000008000C0800000C089
:101760000080000080800000800000800000C080B9
:101770000000800000C0000080C00000800000C0A9
:1017800000008000C08000008000C000008000C019
:10179000800000C00080008080000080008000C0C9
:1017A000000080800000800000800000EBF3EBF37D
:1017B000EBF3EBF3EBF3EBF3EBF3EBF3EBF3EBF339
:1017C000EBF3EBF3EBF3EBF3EBF3EBF3EBF3EBF329
:1017D000EBF3EBF3EBF3EBF3EBF3EBF3EBF3EBF319
:1017E000EBF3EBF3EBF3EBF3EBF3EBF3EBF3EBF309
:1017F000EBF3EBF3EBF3EBF3EBF3EBF3EBF3EBF3F9
:10180000EBF3EBF3EBF3EBF3EBF3EBF3EBF3EBF3E8
:10181000EBF3EBF3EBF3EBF3EBF3EBF3EBF3EBF3D8
:10182000EBF3EBF3EBF3EBF3EBF3EBF3FFFFFFFF88
:10183000FFFFFFFFFFFFFFFFFFFFFFFFFFFFFFFFB8
:10184000FFFFFFFFFFFFFFFFFFFFFFFFFFFFFFFFA8
:10185000FFFFFFFFFFFFFFFFFFFFFFFFFFFFFFFF98
:10186000FFFFFFFFFFFFFFFFFFFFFFFFFFFFFFFF88
:10187000FFFFFFFFFFFFFFFFFFFFFFFFFFFFFFFF78
:10188000FFFFFFFFFFFFFFFFFFFFFFFFFFFFFFFF68
:10189000FFFFFFFFFFFFFFFFFFFFFFFFFFFFFFFF58
:1018A000FFFFFFFFFFFFFFFFFFFFFFFFFFFFFFFF48
:1018B000FFFFFFFFFFFFFFFFFFFFFFFFFFFFFFFF38
:1018C000FFFFFFFFFFFFFFFFFFFFFFFFFFFFFFFF28
:1018D000FFFFFFFFFFFFFFFFFFFFFFFFFFFFFFFF18
:1018E000FFFFFFFFFFFFFFFFFFFFFFFFFFFFFFFF08
:1018F000FFFFFFFFFFFFFFFFFFFFFFFFFFFFFFFFF8
:10190000FFFFFFFFFFFFFFFFFFFFFFFFFFFFFFFFE7
:10191000FFFFFFFFFFFFFFFFFFFFFFFFFFFFFFFFD7
:10192000FFFFFFFFFFFFFFFFFFFFFFFFFFFFFFFFC7
:10193000FFFFFFFFFFFFFFFFFFFFFFFFFFFFFFFFB7
:10194000FFFFFFFFFFFFFFFFFFFFFFFFFFFFFFFFA7
:10195000FFFFFFFFFFFFFFFFFFFFFFFFFFFFFFFF97
:10196000FFFFFFFFFFFFFFFFFFFFFFFFFFFFFFFF87
:10197000FFFFFFFFFFFFFFFFFFFFFFFFFFFFFFFF77
:10198000FFFFFFFFFFFFFFFFFFFFFFFFFFFFFFFF67
:10199000FFFFFFFFFFFFFFFFFFFFFFFFFFFFFFFF57
:1019A000FFFFFFFFFFFFFFFFFFFFFFFFCFF7CFDFCF
:1019B000EFEFDFDFEFDFDFEFDFCFF7EFDFDFEFDFCF
:1019C000CFF7CFDFEFF7CFDFEFDFCFF7CFDFEFCF0F
:1019D000F7EFDFDFEFCFF7CFDFEFCFF7EFDFCFF7B7
:1019E000CFEFDFDFEFEFDFDFEFDFDFEFDFCFF7EFAF
:1019F000DFDFEFDFCFF7CFDFEFF7CFDFEFDFCFF7BF
:101A0000CFDFEFCFF7EFDFDFEFCFF7CFDFEFCFF7AE
:101A1000EFDFCFF7CFEFDFEFEFDFDFEFDFEFCFF776
:101A2000CFDFEFEFDFDFEFDFDFEFDFCFAA54AA5426
:101A3000AA54AA54AA54AA54AA54AA54AA54AA54B6
:101A4000AA54AA54AA54AA54AA54AA54AA54AA54A6
:101A5000AA54AA54AA54AA54AA54AA54AA54AA5496
:101A6000AA54AA54AA54AA54AA54AA54AA54AA5486
:101A7000AA54AA54AA54AA54AA54AA54AA54AA5476
:101A8000AA54AA54AA54AA54AA54AA54AA54AA5466
:101A9000AA54AA54AA54AA54AA54AA54AA54AA5456
:101AA000AA54AA54AA54AA54AA54AA5404083E09EF
:101AB000093E3F25251A1E2121123F21211E3F25C7
:101AC00025213F0505011E21293A3F04043F213FFE
:101AD00021001021211F3F040A313F2020203F0216
:101AE000023F3F02043F1E21211E3F0909061E211D
:101AF000112E3F09093622252519013F01011F201A
:101B0000201F0F10201F3F10103F3B04043B030415
:101B10003807312D2321102A2A3C3F2424181C2267
:101B200022141824243F1C2A2A2C047E05014C521E
:101B3000523E3F040438243D20004040443D3F08CD
:101B40001422213F20003E04043E3E04023C1C229D
:101B5000221C7E22221C1C22227E3E040204242AF5
:101B60002A12021F22201E20201E0E10201E3E10B0
:101B7000103E360808364E50503E322A26221E2984
:101B8000251E223F2000322929261221251A0C0A5F
:101B90003F08172525191E252518013905031A2583
:101BA000251A0629291E002F000000200000022906
:101BB0000502010204081020408000000000003EE1
:101BC0005B4F5B3E3E6B4F6B3E1C3E7C3E1C183CAD
:101BD0007E3C181C577D571C1C5E7F5E1C00183C09
:101BE0001800FFE7C3E7FF0018241800FFE7DBE752
:101BF000FF30483A060E2629792926407F05050739
:101C0000407F05253F5A3CE73C5A7F3E1C1C080894
:101C10001C1C3E7F14227F22145F5F005F5F060959
:101C20007F017F006689956A606060606094A2FFB2
:101C3000A29408047E040810207E201008082A1CA4
:101C400008081C2A08081E101010100C1E0C1E0C70
:101C500030383E3830060E3E0E0600000000000010
:101C6000005F00000007000700147F147F14242A7F
:101C70007F2A122313086462364956205000080751
:101C80000300001C2241000041221C002A1C7F1C72
:101C90002A08083E08080080703000080808080874
:101CA000000060600020100804023E5149453E00DB
:101CB000427F400072494949462141494D33181439
:101CC000127F1027454545393C4A49493141211188
:101CD00009073649494936464949291E000014007A
:101CE000000040340000000814224114141414149D
:101CF000004122140802015909063E415D594E7CFB
:101D00001211127C7F494949363E414141227F41AF
:101D100041413E7F494949417F090909013E41410D
:101D200051737F0808087F00417F41002040413FF8
:101D3000017F081422417F404040407F021C027F07
:101D40007F0408107F3E4141413E7F090909063E5C
:101D50004151215E7F09192946264949493203012B
:101D60007F01033F4040403F1F2040201F3F40383D
:101D7000403F631408146303047804036159494D18
:101D800043007F4141410204081020004141417F4E
:101D900004020102044040404040000307080020C4
:101DA000545478407F2844443838444444283844C4
:101DB00044287F385454541800087E090218A4A4FB
:101DC0009C787F0804047800447D40002040403D1A
:101DD000007F1028440000417F40007C0478047894
:101DE0007C080404783844444438FC182424181827
:101DF000242418FC7C080404084854545424040483
:101E00003F44243C4040207C1C2040201C3C40306F
:101E1000403C44281028444C9090907C4464544C9E
:101E200044000836410000007700000041360800F9
:101E300002010204023C2623263C1EA1A161123AA3
:101E40004040207A385454555921555579412154F0
:101E5000547841215554784020545579400C1E52F5
:101E60007212395555555939545454593955545499
:101E7000580000457C410002457D420001457C4000
:101E8000F0292429F0F0282528F07C54554500201D
:101E900054547C547C0A097F4932494949323248BA
:101EA000484832324A4848303A4141217A3A424021
:101EB0002078009DA0A07D39444444393D404040F5
:101EC0003D3C24FF2424487E4943662B2FFC2F2BC6
:101ED000FF0929F620C0887E090320545479410067
:101EE00000447D413048484A32384040227A007AE6
:101EF0000A0A727D0D19317D2629292F28262929C4
:101F0000292630484D4020380808080808080808E5
:101F1000382F10C8ACBA2F102834FA00007B00000C
:101F200008142A142222142A14089500220095AAC3
:101F3000005500AAAA55AA55AA000000FF001010DB
:101F400010FF00141414FF001010FF00FF1010F019
:101F500010F0141414FC001414F700FF0000FF002C
:101F6000FF1414F404FC141417101F10101F101F7A
:101F70001414141F00101010F0000000001F1010A7
:101F800010101F10101010F010000000FF101010A3
:101F9000101010101010FF10000000FF140000FFC0
:101FA00000FF00001F10170000FC04F414141710A9
:101FB000171414F404F40000FF00F714141414149C
:101FC0001414F700F7141414171410101F101F1412
:101FD0001414F4141010F010F000001F101F000073
:101FE000001F14000000FC140000F010F01010FF9F
:101FF00010FF141414FF141010101F00000000F044
:1020000010FFFFFFFFFFF0F0F0F0F0FFFFFF000018
:10201000000000FFFF0F0F0F0F0F38444438447CBF
:102020002A2A3E147E02020606027E027E026355C2
:102030004941633844443C04407E201E2006027E11
:10204000020299A5E7A5991C2A492A1C4C72017223
:102050004C304A4D4D303048784830BC625A463D8D
:102060003E494949007E0101017E2A2A2A2A2A4442
:10207000445F444440514A444040444A5140000077
:10208000FF0103E080FF000008086B6B0836123682
:102090002436060F090F0600001818000000101063
:1020A000003040FF0101001F01011E00191D171221
:1020B000003C3C3C3C00000000009F2811241FBE57
:1020C000CFEFDAE0DEBFCDBF11E0A0E0B1E0EEE19E
:1020D000F5E502C005900D92AA38B107D9F726E0C0
:1020E000AAE8B1E001C01D92A03BB207E1F710E100
:1020F000CEE5D0E104C02197FE010E947B2ACD35B8
:10210000D107C9F70E942A1E0C948D2A0C94000056
:10211000FC0180919801811103C08FEF9FEF08951A
:102120009FB7F89482E08093E9002091F20030E0BC
:102130001216130614F421E030E02115310559F090
:10214000289884E6809397018091F10080838091A4
:10215000F200882319F09FBFC90108958BE6809390
:10216000E800F9CF2FB7F89483E08093E9009091CD
:10217000E800892F807295FF04C09091F20080E4FE
:10218000891B2FBF089580919E0181110DC082E0AF
:1021900080939A0184E080939B0110929D0110929C
:1021A0009C0181E080939E018AE991E00895CF939C
:1021B000DF931F92CDB7DEB76983DC01ED91FC910F
:1021C0000280F381E02D41E050E0BE016F5F7F4F60
:1021D00009950F90DF91CF91089583E08093E900F6
:1021E0008091F200882319F08AE38093E800089533
:1021F0000E94B21090E00895CF93DF931F92CDB765
:10220000DEB7FC018485958597FD05C02FEF3FEF74
:10221000358724870BC0CE0101960E948810019754
:1022200019F4898190E002C08FEF9FEF0F90DF914A
:10223000CF9108950F931F93CF93DF931F92CDB744
:10224000DEB78C01FC018485958597FF0EC0CE0119
:1022500001960E948810019719F4298130E002C08C
:102260002FEF3FEFF80135872487F80184859585A6
:102270000F90DF91CF911F910F910895FC018485FC
:10228000958597FD0BC09FB7F89482E08093E90095
:102290008091F2009FBF90E0019608959FB7F89457
:1022A00082E08093E9008091F2009FBF90E0089562
:1022B0008F929F92AF92BF92CF92DF92EF92FF9256
:1022C0000F931F93CF93DF935C016B017A01809191
:1022D0000B01882309F45BC080919801882309F4DD
:1022E00056C08091960180FF05C08091E000826019
:1022F0008093E000E70110E00AEF83E0882E9AE384
:10230000992E2097D9F10E94B21081110AC0015074
:1023100009F43DC061E070E080E090E00E943D1B68
:10232000F0CF282F30E0C217D3070CF48C2F4FB713
:10233000F8948092E9009091E80095FF1DC0282F45
:1023400030E0C21BD30BF601982F915020F0819101
:102350008093F100FACFC20ED31E112319F0909290
:10236000E80009C08091E80085FD06C09092E80071
:1023700011E0209709F010E04FBFC3CF1111C3CF78
:102380005D9884E6809399011E141F0444F081E057
:1023900090E0F5019383828380E090E001C0C70163
:1023A000DF91CF911F910F91FF90EF90DF90CF9031
:1023B000BF90AF909F908F900895CF92DF92EF9251
:1023C000FF920F931F93CF93DF931F92CDB7DEB78A
:1023D000182F062FE42E862F880F8E5F99830E9478
:1023E000EF1D83E00E94EF1DF12EC12E9981D92EA1
:1023F0008C2D8F19801798F4F601E7FE02C08491A6
:1024000001C080810E94EF1D182F80E00E94EF1D07
:102410008123FFEFCF1ADF0A8111EACF01C081E0EB
:102420000F90DF91CF911F910F91FF90EF90DF9070
:10243000CF900895DF92EF92FF920F931F93CF9367
:10244000DF93D82E8A017B01E40EF51EEB01CE1539
:10245000DF0571F0D7FE03C0FE01849101C08881C1
:102460000E94EF1D21968111F2CF8FEF9FEF01C0E7
:10247000C801DF91CF911F910F91FF90EF90DF90F6
:1024800008950F931F93CF93DF931F92CDB7DEB7BD
:1024900082E0898342E450E06DEE70E180E80E94C2
:1024A0001A120E94C310DC0112960D911C91139711
:1024B0000115110569F0D801ED91FC910280F381BD
:1024C000E02DBE016F5F7F4FC801099597FF07C0E0
:1024D00089810F90DF91CF911F910F910895F8019D
:1024E00000851185E5CF009769F0FC01019000207F
:1024F000E9F73197AF01481B590BBC0188E396E01F
:102500000C94901A80E090E008958F929F92AF9281
:10251000BF920F931F93CF93DF93CDB7DEB7A197F1
:102520000FB6F894DEBF0FBECDBF19A2423008F43B
:102530004AE08E010F5D1F4F842E912CA12CB12CEF
:10254000A50194010E94362AE62FB901CA01015063
:102550001109EA3014F4E05D01C0E95CD801EC93A4
:10256000232B242B252B61F7C8010E947312A196FF
:102570000FB6F894DEBF0FBECDBFDF91CF911F9194
:102580000F91BF90AF909F908F9008950C9473120D
:102590000F931F93CF93DF938C01C0E0D0E0F8013D
:1025A000EC0FFD1F6491662371F0E0913806F09105
:1025B00039060190F081E02D88E396E00995892B9A
:1025C00011F02196ECCFCE01DF91CF911F910F91A9
:1025D0000895682F70E080E090E04AE00C94851246
:1025E0008F929F92AF92BF92CF92DF92FF920F9302
:1025F0001F93CF93DF938C01EB01F42E60347105B0
:1026000020F4242F4FE00E94CE1BBE01675F7F4F56
:102610006034710528F42F2D4FE0C8010E94CE1BB5
:102620004E018AE0880E911CD7FF02C0C0E0D0E0C6
:102630006E01540181E4881691041CF080E4A82EF8
:10264000B12CCA14DB045CF42F2DA601B80186E47A
:1026500096E00E94111C8FEFC81AD80AEACF025FD9
:102660001F4FCA15DB054CF42F2DAE01B80186E4CF
:1026700096E00E94111C2196F4CFDF91CF911F911B
:102680000F91FF90DF90CF90BF90AF909F908F9071
:102690000895CF92DF92EF92FF92CF93DF936C0178
:1026A000990FEE08FF08F7FE1FC0E0913806F09181
:1026B00039060190F081E02D6DE288E396E00995FE
:1026C000EC0166277727CB016C197D098E099F09DC
:1026D0004AE00E9485128C0F9D1FDF91CF91FF90E1
:1026E000EF90DF90CF9008954AE0C701B601DF91E7
:1026F000CF91FF90EF90DF90CF900C94851280E007
:10270000E6EAF1E081118FEF0024819381938193B8
:1027100081930394D1F7E2E4F6E0128A118A108AD9
:1027200017860895E6EAF1E080E0A0E0B8E00080D6
:102730000EBC8111012C1197A0FDFDCF0192B9F7BC
:102740000DB408951F920F920FB60F9211248F931C
:102750009F938091E1009091E100937F9093E1003D
:1027600083FF0FC01092E90091E09093EB0010926C
:10277000EC0092E39093ED001092980198E0909312
:10278000F00082FF20C093E09093E9009091F20066
:10279000992319F09AE39093E80090919901992375
:1027A00039F090919901915090939901992389F171
:1027B00090919701992339F09091970191509093BE
:1027C0009701992341F184FF10C08091E2008E7E31
:1027D00081608093E2008091E1008F7E8093E10030
:1027E000809196018E7E806111C080FF16C080911D
:1027F000E2008E7E80618093E2008091E1008E7E17
:102800008093E100809196018E7E81608093960195
:1028100004C05D9ACDCF289AD6CF9F918F910F900B
:102820000FBE0F901F9018951F920F920FB60F9228
:102830001124CF92DF92EF92FF920F931F932F9369
:102840003F934F935F936F937F938F939F93AF9338
:10285000BF93EF93FF93CF93DF93CDB7DEB76C9722
:10286000DEBFCDBF1092E9008091E80083FFEDC18B
:1028700068E0CE0145960E941D1E82EF8093E8001D
:102880008D8987FF05C09091E80090FFFCCF03C0C1
:102890009EEF9093E800982F907609F0C6C09E892D
:1028A0002F89188D91110CC0803829F480919501E1
:1028B0008093F10002C01092F1001092F10048C123
:1028C000422F50E0512B913051F4811141C14130E0
:1028D000510509F03DC1809195018D7F0BC093306A
:1028E00061F4811135C14130510509F031C1809148
:1028F00095018260809395012BC1953041F48091C0
:10290000E80080FFFCCF20682093E30021C19630CF
:1029100009F05FC0EB8CFC8C1092E90010929301DF
:1029200010929201123091F5109291011092900143
:102930000E94411299E0BE016F5F7F4FDB01E92FDA
:102940001D92EA95E9F799831A8391E09E8390EAB4
:1029500098879AEF99872091920130919301275F90
:102960003F4F3C832B838D831092E900109293019B
:1029700010929201F0929101E092900149E050E0B2
:1029800080E00E941A120E944112E2C0F09291016E
:10299000E09290010E94C310DC011296ED90FC9031
:1029A0001397E114F10409F4C0C0D701ED91FC9133
:1029B0000480F581E02DBE016B5E7F4FC701099554
:1029C000009719F00CF0C4C0C7C0F701E084F1848F
:1029D000E8CF973009F4C0C0983021F481E08093AB
:1029E000F100B6C0993009F0B3C0837009F0B4C0EB
:1029F000E1E1F1E081E021E036E39081992361F0AB
:102A00008093E9002093EB0091919093EC00309338
:102A1000ED008F5F873089F78EE78093EA00109290
:102A2000EA008F898093980193C08B8D9C8D1092C2
:102A3000E90010929301109292019093910180937A
:102A40009001898D811156C08E899D89913A59F4E2
:102A5000813209F081C047E050E064E071E080E03D
:102A60000E941A1275C0913209F076C0833289F43F
:102A7000888D90E0982F88272F89822BA0E0B0E0E6
:102A80008093000190930101A0930201B093030190
:102A90005FC0803269F48091E80082FFFCCF67E07C
:102AA00084E091E00E941D1E8BEF8093E80006C039
:102AB000823209F04DC08F8980930B01809194017F
:102AC000882319F0EEEFFAE002C0E0E0F8E0809130
:102AD000040190910501A0910601B0910701803B8E
:102AE0009440A105B10509F07BC080910B0180FFE6
:102AF00093C076C00E94C310DC0112960D911C9108
:102B000013970115110541F1D801ED91FC91019048
:102B1000F081E02DBE016B5E7F4FC80109958111E8
:102B200017C0F80100851185ECCF113009F44EC0B3
:102B3000133091F48F89882309F445C0823081F4E1
:102B400040E860E181E591E10E94DD11882321F0F8
:102B50008EEF8093E80079C081E28093EB0075C02E
:102B6000813029F440E86BE085E491E1EDCF8330DA
:102B700099F70E94C310DC011296ED90FC90139718
:102B80008E010F5F1F4F6801E114F10479F0D70146
:102B9000ED91FC910680F781E02DB801C701099500
:102BA000080F111DF701E084F184EECFD8011C92CB
:102BB000F60101900020E9F73197BF016C197D09FA
:102BC00040E0C601C1CF6FE271E102C063E371E191
:102BD0006115710509F2FB01449150E080E840CF96
:102BE0000FB6F894A895809160008861809360008A
:102BF000109260000FBEA895EE3F2AE0F20739F070
:102C00008091FE0A9091FF0A91838083A1CF109258
:102C1000FF0A1092FE0A9CCFEE3F8AE0F80731F0DF
:102C2000808191819093FF0A8093FE0A87E797E75E
:102C3000918380839BE088E10FB6F894A8958093F8
:102C400060000FBE9093600083CF6C960FB6F8942F
:102C5000DEBF0FBECDBFDF91CF91FF91EF91BF914E
:102C6000AF919F918F917F916F915F914F913F9124
:102C70002F911F910F91FF90EF90DF90CF900F90C9
:102C80000FBE0F901F9018952F923F925F926F92F8
:102C90007F928F929F92AF92BF92CF92DF92EF92EC
:102CA000FF920F931F93CF93DF939C0120583F4FC8
:102CB0002F3F310511F008F097C09B01205C3F4F7A
:102CC0002038310508F090C0DB0177FF04C0AA2747
:102CD000BB27A61BB70BA770BB279B0177FF02C0C2
:102CE000295F3F4FE3E035952795EA95E1F777FFB8
:102CF00008C02150310968E070E0FB01EA1BFB0BC2
:102D0000DF015901B694BA2CAA24B794A794A80E4F
:102D1000B91E60E070E04501F0E88F0E911CE8E01C
:102D2000F0E03F016A1A7B0A2F3FEFEF3E076CF499
:102D30002F5F3F4F60587F4F6115F4E07F0709F424
:102D400053C02830310581F74FC0E401C60FD71FAB
:102D5000CA55DE4F8B010A0D1B1D0A551E4F6C0113
:102D6000E12CF12CE0E8CE16D10411F3D7FC2AC0F7
:102D70002F3FFFEF3F07A9F1F701E60FF71FE40F21
:102D8000F51FE491F0E01F010A2E01C0220C0A9405
:102D9000EAF7F801508025282082109799F0273013
:102DA000310581F0F701E60FF71FE40FF51FE491FD
:102DB000F0E0062C02C0F595E7950A94E2F75880FA
:102DC000E529E883FFEFEF1AFF0AEFEFCE1ADE0ADC
:102DD00021960F5F1F4FF0E8EF16F10409F0C2CF04
:102DE000A7CF1097F9F6EECFDF91CF911F910F91FA
:102DF000FF90EF90DF90CF90BF90AF909F908F901B
:102E00007F906F905F903F902F9008950F931F9346
:102E1000CF93DF9360912A0686E790E00E941E1D03
:102E20006091A80587E790E00E941E1D6091A905AA
:102E300088E790E00E941E1D6091AA0589E790E056
:102E40000E941E1D6091AB058AE790E00E941E1D46
:102E50006091AC058BE790E00E941E1D6091AD056E
:102E60008CE790E00E941E1D6091AE058DE790E01A
:102E70000E941E1DCEE7D0E08E010A551A4FF801C0
:102E8000E557F1096081CE010E941E1DF801E4574B
:102E9000F1096081CE0101960E941E1DF801E357E1
:102EA000F1096081CE0102960E941E1DF801E257D1
:102EB000F1096081CE0103960E941E1DF801E157C1
:102EC000F1096081CE0104960E941E1D2596C83D21
:102ED000D10591F66091090688ED90E00E941E1DD3
:102EE00060910A0689ED90E00E941E1D60910B061C
:102EF0008AED90E00E941E1D60910C068BED90E023
:102F00000E941E1D60910D068CED90E00E941E1D1A
:102F1000CDEDD0E0FE01EF5CFA4F6081CE010E9462
:102F20001E1D2196C43ED105A9F7FE01EF5CFA4FA4
:102F30006081CE010E941E1D2196CB3ED105A9F7CE
:102F4000FE01EF5CFA4F6081CE010E941E1D2196AA
:102F5000C23FD105A9F7FE01EF5CFA4F6081CE01B7
:102F60000E941E1D2196C93FD105A9F7DF91CF917F
:102F70001F910F910895823069F028F4813081F417
:102F800080910A060895833041F0843049F480919D
:102F90000D06089580910B06089580910C06089502
:102FA00080E00895833039F0843041F0823049F474
:102FB00085E196E008958CE196E0089583E296E03D
:102FC00008958EE096E008956F927F928F929F927F
:102FD000AF92BF92CF92DF92EF92FF920F931F9327
:102FE000CF93DF9300D000D0CDB7DEB7DC014B012B
:102FF0007E2D4115510509F4EEC1FA016491319617
:1030000094915A01F2E0AF0EB11CC62ED12C2223AE
:1030100009F1492F469546954695E42FF0E041E0A9
:1030200050E0892F877011F440E050E04E0F5F1F91
:10303000C49EF001C59EF00DD49EF00D1124733096
:1030400011F4EE0FFF1F2E9FA0012F9F500D112492
:10305000A40EB51E7F3F31F40115110511F071E08A
:1030600001C072E0AD014C0D5D1D141615060CF08B
:10307000B2C1A038B1050CF0AEC19401290F311DC9
:10308000121613060CF0A7C180E4881691040CF008
:10309000A2C1A114B10409F49EC1382D3770F40106
:1030A00097FC379623E0F595E7952A95E1F72E2FC3
:1030B00097FE04C0332311F02FEF2E0FB7FF05C08A
:1030C000EE27FF27EA1BFB0B02C0E0E0F0E04038F0
:1030D000510524F050E85A1B952E01C0962E9E1AD9
:1030E000E22E022E000CFF082F3F1CF45E2D50959F
:1030F00001C050E041E0892F877009F440E09695C7
:1031000096959695490FE40EF11C99E0E916F104A5
:1031100014F048E0421BF42EF51A250F40E8240372
:10312000A00DB11D1124AE0FBF1F569FE00DF11D64
:103130001124A5014E0F5F1F81E090E05C01032E7A
:1031400002C0AA0CBB1C0A94E2F7733009F400C158
:10315000A0F4713009F4B3C0723009F03CC18FEFB4
:103160008A9DB0018B9D700D1124609570957C83B4
:103170006B837C806F2C620E29C07A3F29F07B3FE5
:1031800009F029C1F20E87C0F20E51C0FA01E00F1A
:10319000F11FE491EA9D7001EB9DF00C1124FA827D
:1031A000E98227FD07C0FC01F080EF2DE623EE2A1F
:1031B000FC01E082311113C00F5F1F4F019609150A
:1031C00028F32F5F4C0D5D1DA058BF4F261509F445
:1031D00002C1CD018A559E4F00E010E0F0CF2730AC
:1031E0005CF7FC01E058FF4FE080E7208A80E82888
:1031F000E082E2CFFA01E60FF71FE491EA9D800139
:10320000EB9D100D11241A83098327FD04C0FC01D6
:103210001081012B0083311113C06F5F7F4F019626
:10322000691540F32F5F4C0D5D1DA058BF4F2F1542
:1032300009F4D1C0CD018A559E4F60E070E0F0CF17
:1032400027305CF78C0100581F4FF801E080FA81AD
:10325000EF2AF801E082E1CFFA01E00FF11FE491DB
:10326000EA9DC001EB9D900D11249A83898327FD6F
:1032700005C08095FB01908189238083311114C0A2
:103280000F5F1F4F6F5F7F4F091530F32F5F4C0D9E
:103290005D1DA058BF4F2F1509F49DC0BD016A5593
:1032A0007E4F00E010E0F0CF273054F7FB01E058EC
:1032B000FF4F8A818095908189238083E1CF0E0F13
:1032C0001F1F8F2C820E281509F485C0CD018A5549
:1032D0009E4F7C0160E070E0691590F5F801E60F03
:1032E000F71FE491EA9DC001EB9D900D112480959C
:1032F00090959C838B83FA01E60FF71FE491EA9D7A
:103300003001EB9D700C11247A82698227FD05C083
:10331000F70190818923682A6082332359F027308E
:103320004CF4F701E058FF4F90818C8189239A81FA
:10333000892B80836F5F7F4FFFEFEF1AFF0ACCCF9F
:103340002F5F4C0D5D1D0C0D1D1DA058BF4FBBCF39
:10335000892D90E0E40FF51FAA55BE4F60E870E09C
:10336000681B790BC81AD90A8601000F111F592D45
:103370004F2D792CE32ECF93DF93ED01EF96EF964F
:1033800022968590C590EE2059F08A9C4001CA9CF7
:10339000600127302CF4F880D094FD20F928F992B0
:1033A00022233AF0FC90C094FC20F828FD920C9463
:1033B000DA1911965A9529F74A9551F0572D239508
:1033C0001124E00FF11DA60FB11DC60FD11DD9CFDD
:1033D000DF91CF9111240F900F900F900F90DF91FC
:1033E000CF911F910F91FF90EF90DF90CF90BF9002
:1033F000AF909F908F907F906F9008954F925F92C3
:103400006F927F928F929F92AF92BF92CF92DF92F4
:10341000EF92FF920F931F93CF93DF93EC017B0109
:103420006A01C901A901461B570B57FF03C05195FB
:103430004195510996012C1B3D0B37FF03C0319577
:103440002195310911E02417350714F010E00AC066
:103450003C2D2D2D6C01832F922F3C2F2D2FE7011A
:10346000E32EF22ECC16DD0654F43E2D2F2D7C01DA
:10347000832F922F3C2F2D2FE601C32ED22E260113
:103480004C1A5D0A4C018E189F0897FE03C0919458
:1034900081949108520157FE03C02FEFA21AB20A7D
:1034A000B594A794E816F90614F08FEF01C081E0F7
:1034B000682E880F7708CC16DD06B4F0202F112374
:1034C00019F0AE01B70102C0A701BE0186E496E083
:1034D0000E94111CA818B908B7FE04C0E60CF71C1E
:1034E000A40CB51C2196E7CFDF91CF911F910F91CE
:1034F000FF90EF90DF90CF90BF90AF909F908F9014
:103500007F906F905F904F90089520914C062823F4
:1035100029F490914B06982381E009F480E0089506
:10352000CF92DF92EF92FF920F931F93CF93DF938F
:103530006C017A018B01C0E0D0E0CE15DF0589F087
:10354000D8016D918D01D601ED91FC910190F08132
:10355000E02DC6010995892B11F47E0102C0219648
:10356000ECCFC701DF91CF911F910F91FF90EF90AA
:10357000DF90CF9008950895089580E090E0089539
:103580000E94812AEF920F931F93CF93DF93FC0148
:1035900096816A3031F4858184836185960F9683A4
:1035A0003FC0262FEF01848161E0690F2F3399F12D
:1035B00064F42E32A1F01CF42132A9F026C090ED63
:1035C000920F9A3010F52C5F0FC02134F4F02B3598
:1035D00044F09FE9920F9A31C0F4275405C02FE3BD
:1035E00003C0215401C02EE33F81062E000C770B4F
:1035F000082E000C990B313081F44AEFE42E00E0E4
:1036000010E04CEA5AE10E94E41788858C5F9C81A7
:10361000890F8C8305C020E4E7CF3BEFE32EEFCF8B
:1036200081E090E0DF91CF911F910F91EF9008958D
:103630003FB7F8948091AC069091AD06A091AE068C
:10364000B091AF0626B5A89B05C02F3F19F0019693
:10365000A11DB11D3FBFBA2FA92F982F8827820F18
:10366000911DA11DB11DBC01CD0142E0660F771F68
:10367000881F991F4A95D1F708958F929F92AF9214
:10368000BF92CF92DF92EF92FF926B017C010E947A
:10369000181B4B015C01C114D104E104F104F1F0E9
:1036A0000E94181BDC01CB0188199909AA09BB09E2
:1036B000883E9340A105B10570F321E0C21AD108FC
:1036C000E108F10888EE880E83E0981EA11CB11C69
:1036D000C114D104E104F10419F7DDCFFF90EF909C
:1036E000DF90CF90BF90AF909F908F9008951F92E2
:1036F0000F920FB60F9211242F933F938F939F93A6
:10370000AF93BF9380918A0190918B01A0918C011E
:10371000B0918D013091AB0623E0230F2D3720F4BB
:103720000196A11DB11D05C026E8230F0296A11D1B
:10373000B11D2093AB0680938A0190938B01A093D7
:103740008C01B0938D018091AC069091AD06A09153
:10375000AE06B091AF060196A11DB11D8093AC06D7
:103760009093AD06A093AE06B093AF06BF91AF9114
:103770009F918F913F912F910F900FBE0F901F90AF
:103780001895BC0180E090E00C943D1B8FB18095B2
:10379000807F669B88601C9B84600895FC01840F79
:1037A000911D18161906E4F5E038F105CCF5F7FF80
:1037B00002C0E0E0F0E08138910514F080E890E08C
:1037C000382F3E1BAB0177FF02C0495F5F4F83E09C
:1037D000559547958A95E1F75695542F4427579567
:1037E0004795E40FF51FEA55FE4F6770772781E094
:1037F00090E001C0880F6A95EAF7482F222349F02C
:10380000213071F4315020F08081842B8193FACFE4
:1038100008958095315020F0908198239193FACFAC
:10382000089560387105D0F440345105B8F4E2EBE6
:10383000FBE180E1849FD001A0781124A60F47709E
:10384000E40FF11D8491AA55BE4F222319F06C910B
:10385000862B03C080956C9186238C9308952F92BC
:103860003F924F925F926F927F928F929F92AF9210
:10387000BF92CF92DF92EF92FF920F931F93CF935D
:10388000DF93CDB7DEB729970FB6F894DEBF0FBE32
:10389000CDBFFC016A3069F425898189928938E0BD
:1038A000239F800D911D1124928B818B108A178686
:1038B000AAC06D3009F4A7C099878887F588348835
:1038C0002388618872880785108900381105C4F043
:1038D000A885B98555962C915597422F50E01F9693
:1038E0008D919C915097B6E02B9F800D911D1124D6
:1038F000E885F985908B8787268921116EC083C062
:10390000F0E46F16710424F7C80125E0F29E800DE3
:10391000911D112418161906DCF68F2D90E09C835A
:103920008B83C301A8E0FA9E800D911D1124181607
:10393000190674F6B5E06B9FB0011124FB01E65443
:10394000F44EFA83E98330E08885998504969E8356
:103950008D83E981FA81E490353009F4E12C43014B
:1039600088E0482EE0FC02C0532C01C0522C5110BC
:103970000BC0321009C0E6944A948B819C81880E5A
:10398000991E4110EFCF1BC068018C2D801B8F1535
:1039900090F754018A2D88198F1568F4252DA501FB
:1039A000B6018D819E813F830E94111C9FEFA91A51
:1039B000B90A3F81EFCFAFEFCA1ADA0AE6CF3F5F0D
:1039C000EB81FC810E0F1F1F89819A8101969A83DA
:1039D0008983363009F0BDCF7BCF6AEF6403900155
:1039E000659F300D112420583F4F281739075CF48C
:1039F000A885B985ED91FC9111970190F081E02D9A
:103A00006AE0CD01099581E090E029960FB6F8941F
:103A1000DEBF0FBECDBFDF91CF911F910F91FF9001
:103A2000EF90DF90CF90BF90AF909F908F907F905E
:103A30006F905F904F903F902F9008950F931F933A
:103A4000CF93DF931F92CDB7DEB78C0169830E94BD
:103A5000EE296981681741F0C8010F90DF91CF917D
:103A60001F910F910C94F6290F90DF91CF911F9128
:103A70000F9108950C94EE29CF93DF93C091A9067E
:103A8000D091AA064CEA56E160E070E0CE010E94B7
:103A900044164CEA56E160E070E0CE0180589F4F3A
:103AA0000E9444168091490690914A0665E070E0B4
:103AB0000E94672A892B71F42197C0388FEFD807AD
:103AC00028F0D093AA06C093A90604C01092AA06B3
:103AD0001092A906DF91CF910895EF920F931F9353
:103AE000EE24E39404E614E120E047E855E162E0C7
:103AF00070E08FE090E00E94E4171F910F91EF902B
:103B000008950F931F93CF93DF9300E010E0C8E177
:103B1000D0E020E0AE01B80186E496E00E94111CDE
:103B20002196CA32D105A9F70F5F1F4F0038110542
:103B300071F701E029E130E040E850E069E170E030
:103B400080E090E00E94FE1928E230E040E850E07A
:103B500068E270E080E090E00E94FE19DF91CF9172
:103B60001F910F910895EF920F931F93EE24E3940A
:103B700002E611E120E042EE52E16EE270E080E008
:103B800090E00E94E4171F910F91EF900895FC01BF
:103B9000623059F018F4613031F00895633039F033
:103BA000643039F008954183089542830895438332
:103BB000089544830895FC01623059F020F4613087
:103BC00061F481810895633031F0643031F484818F
:103BD0000895828108958381089580E00895409139
:103BE00092015091930120919001309191014217DF
:103BF0005307B4F49091E8009570E1F39091E800D8
:103C000092FD19C08093F1008091920190919301EF
:103C100001968F739927892B19F48EEF8093E80012
:103C200080919201909193010196909393018093DA
:103C3000920181E0089580E00895615030F0209174
:103C4000F100FC0120830196F8CF289884E6809348
:103C500097010895CF93DF9300D000D000D0CDB767
:103C6000DEB7789484B5826084BD84B5816084BDFC
:103C700085B5826085BD85B5816085BD80916E000A
:103C8000816080936E00109281008091810082603B
:103C90008093810080918100816080938100809178
:103CA0008000816080938000809191008260809389
:103CB00091008091910081608093910080919000AB
:103CC0008160809390008091C10084608093C100E6
:103CD0008091C10082608093C1008091C1008160A9
:103CE0008093C1008091C30081608093C300809164
:103CF000C00082608093C0008091C2008160809388
:103D0000C20080917A00846080937A0080917A006A
:103D1000826080937A0080917A00816080937A003B
:103D200080917A00806880937A00109298011092B6
:103D30009501109296018091D70081608093D70001
:103D400080EA8093D80089B5806189BD89B5826099
:103D500089BD09B400FEFDCF61E070E080E090E035
:103D60000E943D1B8091D8008F7C80618093D80099
:103D70008091E000807F8093E0008091E1008E7E62
:103D80008093E1008DE08093E200559A209AEEEF57
:103D9000FFE7859194918B3F9C4D19F481E08093CE
:103DA000940181EC80937C0085B1806F85B984B1EA
:103DB000877E84B984B1876E84B95E9A5F988AB130
:103DC000806D8AB9769A6E9881B3806F81BB89982D
:103DD00080B38D7080BB80E58CBD81E08DBD85E0BA
:103DE00090E00E94C11B5F9A85E090E00E94C11B99
:103DF0005E985C98EEEBF0E08DE08E0F94919EBDA6
:103E000000000DB407FEFDCF31968E13F7CF5C9AFC
:103E100081E88093640080916500816080936500F3
:103E20000E94C61B87FF24C05C9885EA8EBD0000F7
:103E30000DB407FEFDCF5C9A2E982F982D98809197
:103E4000640080628093640081E083BF889513BE24
:103E5000FCCF2D980E94C61B8478843871F00E9494
:103E6000C61B8471843129F188EC90E00E94C11B4B
:103E70000E94C61B82FDEDCF38C02D9A88EC90E0E1
:103E80000E94C11B2F9882E090E00E94EE298F3F94
:103E900029F06FEF82E090E00E94F62984EF91E034
:103EA0000E94C11B2F9A0E94C61B84788438D9F3C4
:103EB000D6CF2D9A88EC90E00E94C11B2E9882E00C
:103EC00090E00E94EE29882329F060E082E090E0F3
:103ED0000E94F62984EF91E00E94C11B2E9A0E9455
:103EE000C61B84718431D9F3BFCF2D9A80916400B1
:103EF0008E7F8093640080917A00806480937A0042
:103F000080917A0086FDFCCF0091780010917900B5
:103F10000E94181B20E030E0980111270027600F55
:103F2000711F821F931F611571058105910511F0A5
:103F30000E94E5298091640081608093640080E1A3
:103F400080934D0610922F0680E280933006809376
:103F50003106809332068093330680933406809333
:103F6000350684E790E00E943A1D182F85E790E01F
:103F70000E943A1D6091A605161304C09091A705F2
:103F8000891761F084E790E00E941E1D6091A705EB
:103F900085E790E00E941E1D0E94061786E790E0CC
:103FA0000E943A1D80932A0687E790E00E943A1DFE
:103FB0008093A80588E790E00E943A1D8093A905A8
:103FC00089E790E00E943A1D8093AA058AE790E075
:103FD0000E943A1D8093AB058BE790E00E943A1D4A
:103FE0008093AC058CE790E00E943A1D8093AD056C
:103FF0008DE790E00E943A1D8093AE059EE7E92E82
:10400000F12CC7010E943A1D87010A551A4FF80189
:10401000E557F1098083C70101960E943A1DF80116
:10402000E457F1098083C70102960E943A1DF80106
:10403000E357F1098083C70103960E943A1DF801F6
:10404000E257F1098083C70104960E943A1DF801E6
:10405000E157F109808385E0E80EF11C98EDE9163F
:10406000F10479F688ED90E00E943A1D80930906EC
:1040700089ED90E00E943A1D80930A068AED90E057
:104080000E943A1D80930B068BED90E00E943A1D32
:1040900080930C068CED90E00E943A1D80930D06F3
:1040A0000DED10E0C8010E943A1DF801EF5CFA4FD7
:1040B00080830F5F1F4F043E1105A1F7C8010E94C6
:1040C0003A1DF801EF5CFA4F80830F5F1F4F0B3EE4
:1040D0001105A1F7C8010E943A1DF801EF5CFA4FE3
:1040E00080830F5F1F4F023F1105A1F7C8010E9497
:1040F0003A1DF801EF5CFA4F80830F5F1F4F093FB5
:104100001105A1F706E1C02E80E8A82EB12C83E2AC
:1041100096E0E6E0E80FE983ABE09A2EB2E7FB2EEB
:1041200017E3D12E8FB7F89440918A0150918B01FB
:1041300060918C0170918D018FBF80914E06F42F9C
:10414000F81B8F2F90914F06992329F0F09350067A
:1041500010924F0693C790914D06F91748F48F5F60
:10416000891708F08BC721E023BF889513BE86C747
:1041700081E080934F0640934E06809149069091CE
:104180004A06019690934A06809349060E947F133F
:1041900080914B0680934C060E94C61B80934B0671
:1041A0000E947F13E0912A068E2F90E089309105BE
:1041B00008F062C7FC01EA5AFF4F0C947B2A91E099
:1041C00090932B0682E080932C0683E080932D064B
:1041D00084E080932E064090A805E12C512C3201FA
:1041E000E1E06E1A7108A7C64DEE5CE060E070E099
:1041F00080E090E00E94441600E010E0E0908F0123
:1042000020E04E2DB80180E090E00E94CE1BB80166
:104210006F5F7F4F20E04E2DC5018E1991090E94DE
:10422000CE1B0E5F1F4F0034110541F7E7FC2EC770
:10423000E394E394E0928F011FC70E943C1D0E940B
:10424000B31DEE24E3940BEE14E020E04BEE58E0B7
:1042500060E070E080E090E00E94E41700E010E091
:10426000E0908F0120E04E2DB80180E090E00E94A8
:10427000CE1BB8016F5F7F4F20E04E2DC5018E1918
:1042800091090E94CE1B0E5F1F4F0034110541F7AC
:10429000EE2021F08CEF8E0D80938F0180908E01A7
:1042A0008820C1F0F1E08F122DC06BEFE62E00E008
:1042B00010E020E044EE54E067E370E089E490E031
:1042C0000E94E4177AEFE72E20E04DED54E067E31B
:1042D00070E014C0EBEFEE2E00E010E020E044EEC2
:1042E00054E06FE270E089E490E00E94E417FAEF96
:1042F000EF2E20E04DED54E06FE270E089E490E0B5
:104300000E94E41780E80E94851A882321F021E0AA
:10431000821609F4C4C680E10E94851A882329F018
:1043200080918E01882309F4BDC688E00E94851A19
:10433000882309F4A1C680918E01882399F08130E9
:1043400009F09AC682E18093AA0583E08093AB05C9
:104350001092AC051092AD051092AE0580E090E091
:1043600024E03BC082E18093AA0583E08093AB0503
:104370001092AC051092AD051092AE0580E090E071
:1043800024E0FC01EA55FA4F218712861386148631
:10439000158605968A359105A1F784E08093090674
:1043A00010920A0610920B0610920C0610920D063F
:1043B00081E08093A8058093A905E3E2F6E080E21E
:1043C000DF0155978C9317968C9317968C93819356
:1043D00099819E13F5CF82E018C0FC01EA55FA4F8F
:1043E0002187128613861486158605968A359105CF
:1043F000A1F784E08093090610920A0610920B063A
:1044000010920C0610920D0686E080932A060E94F8
:10441000061780E880938F012FC60E943C1D0E94E2
:10442000B31D0E946D1D0E94811D86E080933D0694
:1044300080933C068DE180933E0689E491E00E94E2
:10444000C6126091A80570E080E090E04AE00E940A
:1044500085128CE591E00E9473128091490690913B
:104460004A068F739927809758F401E025E230E0DF
:1044700043E650E065E270E080E690E00E94FE19BD
:1044800080E80E94851A882309F410C68091A80547
:10449000843008F00BC68F5F13C684E080932A0631
:1044A0000E9406178091A9058230E9F068F48130F6
:1044B000B9F510922F0680910E0690910F06A091EB
:1044C0001006B091110624C08330C1F0843041F54C
:1044D00010922F068091230690912406A091250624
:1044E000B091260615C010922F0680911506909166
:1044F0001606A0911706B09118060AC010922F0652
:1045000080911C0690911D06A0911E06B0911F0679
:104510008093300690933106A0933206B093330611
:104520000E943C1D0E94B31D0E946D1D0E94811DB2
:1045300086E080933D0680933C068DE180933E06A5
:1045400085ED94E00E94C8128091A9050E94E912AD
:104550008DEC94E00E94C81240E3642E46E0742E75
:1045600010E05DE1E52E262D80E396E0281B82E534
:10457000810F80933D0680933C06E0923E06809139
:10458000490690914A068F739927809728F4809165
:104590002F06821709F4AEC5F30161913F01E09146
:1045A0003806F09139060190F081E02D88E396E01D
:1045B00009951A5F1432B9F610912F0680E80E940F
:1045C000851A8823E1F0E12FF0E0E15DF94F818168
:1045D0008A3589F034F4803261F08CF081346CF4E7
:1045E0000EC0813664F08A3744F08A3741F480E2A5
:1045F00005C081E403C081E601C08F5F818380E153
:104600000E94851A8823D9F0E12FF0E0E15DF94F8F
:1046100081818B3544F4823484F4803251F08134CA
:1046200071F480E20BC0813631F04CF08B372CF006
:1046300006C08AE703C08AE501C08150818380E219
:104640000E94851A882329F0112319F01150109324
:104650002F0680E40E94851A882339F080912F0666
:10466000853018F48F5F80932F0684E00E94851AAE
:104670008823A1F08091A905823058F083E08093CF
:104680002A060E9406178091A90581508093A905EA
:1046900005C082E080932A060E94061788E00E94E7
:1046A000851A882309F4E8C41091A905123089F00D
:1046B00038F41130C9F460E376E08EE096E012C081
:1046C000133061F0143081F460E376E083E296E029
:1046D00009C060E376E085E196E004C060E376E03F
:1046E0008CE196E00E94862A8091A805181758F45C
:1046F00083E080932A060E9406178091A9058F5FA8
:104700008093A905B9C4F5E0F0932A06C5C40E94B8
:104710003C1D0E94B31D0E946D1D0E94811D86E0FC
:1047200080933D0680933C068DE180933E068FE5A5
:1047300091E00E94C6126091AA0570E080E090E0CE
:104740004AE00E9485128CE591E00E9473128091EC
:10475000490690914A068F739927809790F480912B
:10476000AA058A3018F04EE550E002C049E550E055
:1047700001E025E230E065E270E086E590E00E942D
:10478000FE1980E80E94851A882309F4A5C4809147
:10479000AA05823108F0A0C48F5FC2C487E080936D
:1047A0002A060E94061732E0E32E00E010E020E027
:1047B0004BEC50E060E070E080E090E00E94E41795
:1047C00021E020933D0620933C06C0923E068EE0F9
:1047D00096E00E94C6128091A805823060F081E0C8
:1047E00080933D0680933C0681E280933E0685E1FE
:1047F00096E00E94C6128091A805833060F091E097
:1048000090933D0690933C068CE280933E068CE1AB
:1048100096E00E94C6128091A805843058F0E1E02D
:10482000E0933D06E0933C06D0923E0683E296E09C
:104830000E94C6128091AB0590E08C30910514F077
:104840002CE201C02EE220933D0620933C061092FC
:104850003E0602970E9449138091AB0590E08B3091
:10486000910514F02CE301C02EE320933D06209324
:104870003C0610923E0601970E9449138091AB05B9
:104880008A3010F09CE401C09EE490933D06909322
:104890003C0610923E060E94E91210923F0680915B
:1048A000AB0590E0039725E0289FF001299FF00DCC
:1048B0001124EA55FA4F81858A3010F09CE201C03C
:1048C0009EE290933D0690933C0690923E060E9495
:1048D000E9128091AB0590E0029725E0289FF00156
:1048E000299FF00D1124EA55FA4F81858A3010F086
:1048F0009CE301C09EE390933D0690933C0690920A
:104900003E060E94E9128091AB0590E0019725E0F8
:10491000289FF001299FF00D1124EA55FA4F818557
:104920008A3010F09CE401C09EE490933D06909381
:104930003C0690923E060E94E91281E080933F0679
:104940008091AB0590E0039725E0289FF001299F17
:10495000F00D1124EA55FA4F82858A3010F09CE25E
:1049600001C09EE290933D0690933C06C0923E06A5
:104970000E94E9128091AB0590E0029725E0289F04
:10498000F001299FF00D1124EA55FA4F82858A30F3
:1049900010F09CE301C09EE390933D0690933C068B
:1049A000C0923E060E94E9128091AB0590E001970B
:1049B00025E0289FF001299FF00D1124EA55FA4FB8
:1049C00082858A3010F09CE401C09EE490933D06FD
:1049D00090933C06C0923E060E94E912F0923D067A
:1049E000F0923C06C0923E0680910A060E94E912AF
:1049F0008091A805823008F45BC08091AB0590E0FF
:104A0000039725E0289FF001299FF00D1124EA5516
:104A1000FA4F83858A3010F09CE201C09EE29093A9
:104A20003D0690933C0691E290933E060E94E91267
:104A30008091AB0590E0029725E0289FF001299F27
:104A4000F00D1124EA55FA4F83858A3010F09CE36B
:104A500001C09EE390933D0690933C0691E29093B3
:104A60003E060E94E9128091AB0590E0019725E097
:104A7000289FF001299FF00D1124EA55FA4F8385F4
:104A80008A3010F09CE401C09EE490933D06909320
:104A90003C0611E210933E060E94E912F0923D0698
:104AA000F0923C0610933E0680910B060E94E9129C
:104AB0008091A805833008F45BC08091AB0590E03D
:104AC000039725E0289FF001299FF00D1124EA5556
:104AD000FA4F84858A3010F09CE201C09EE29093E8
:104AE0003D0690933C069CE290933E060E94E9129C
:104AF0008091AB0590E0029725E0289FF001299F67
:104B0000F00D1124EA55FA4F84858A3010F09CE3A9
:104B100001C09EE390933D0690933C069CE29093E7
:104B20003E060E94E9128091AB0590E0019725E0D6
:104B3000289FF001299FF00D1124EA55FA4F848532
:104B40008A3010F09CE401C09EE490933D0690935F
:104B50003C061CE210933E060E94E912F0923D06CC
:104B6000F0923C0610933E0680910C060E94E912DA
:104B70008091A805843009F058C08091AB0590E081
:104B8000039725E0289FF001299FF00D1124EA5595
:104B9000FA4F85858A3010F09CE201C09EE2909326
:104BA0003D0690933C06D0923E060E94E912809109
:104BB000AB0590E0029725E0289FF001299FF00DBA
:104BC0001124EA55FA4F85858A3010F09CE301C024
:104BD0009EE390933D0690933C06D0923E060E9441
:104BE000E9128091AB0590E0019725E0289FF00144
:104BF000299FF00D1124EA55FA4F85858A3010F06F
:104C00009CE401C09EE490933D0690933C06D092B4
:104C10003E060E94E912F0923D06F0923C06D092C8
:104C20003E0680910D060E94E9128091AE05882310
:104C300021F0813009F476C01FC22091AD0580912A
:104C4000AC05211108C0E0E18E9FC001112440E0B5
:104C50006AE070E00FC030E021503109929EB0014F
:104C6000939E700D11246B5E7F4FF0E18F9FC0010A
:104C7000112441E089960E94F01280E80E94851A72
:104C8000882321F08091AD0581114DC280E10E9401
:104C9000851A882339F08091AD059091A805891770
:104CA00008F447C280E20E94851A8823A9F0809107
:104CB000AC05882321F081508093AC050BC0809116
:104CC000AB05843020F081508093AB0503C025E014
:104CD00020932A060E94061780E40E94851A8823E2
:104CE000B9F08091AC05823020F48F5F8093AC05E1
:104CF0000DC08091AB059091AA05891720F48F5FB4
:104D00008093AB0503C088E080932A060E940617B3
:104D100088E00E94851A882309F4AEC181E080935F
:104D2000AE05BAC18091490690914A068F739927C2
:104D3000809720F56091AD058091AC0590E00196DB
:104D400024E0880F991F2A95E1F7611109C0AC0191
:104D50004A5D5F4F00E023E130E063E170E00BC0AB
:104D6000EBE06E9FB00111246D5E7F4FAC014A5D98
:104D70005F4F01E09B014A960E94FE1980E80E9465
:104D8000851A8823D9F08091AD05811117C0209133
:104D9000AB058091AC0590E00397820F911D25E053
:104DA000289FF001299FF00D1124EA55FA4F8185C3
:104DB0008A3010F48F5F81870E94061780E10E947D
:104DC000851A8823D9F08091AD05811117C02091F3
:104DD000AB058091AC0590E00397820F911D25E013
:104DE000289FF001299FF00D1124EA55FA4F818583
:104DF000823010F0815081870E94061780E80E945F
:104E0000851A882391F1E090AD05EE2071F1209193
:104E1000AB058091AC0590E00397820F911DE5E012
:104E2000E89F8001E99F100D112401551A4F6E2D46
:104E3000C8010E94DB1D882E6E2D89E096E00E943D
:104E4000DB1D782EF9E0F81580F041E0480D6E2D5D
:104E5000C8010E94C71D41E0470D6091AD0589E082
:104E600096E00E94C71D0E94061780E10E94851AE5
:104E7000882389F1E090AD05EE2069F12091AB0522
:104E80008091AC0590E00397820F911D25E0289F4B
:104E90008001299F100D112401551A4F6E2DC80154
:104EA0000E94DB1D882E6E2D89E096E00E94DB1D9E
:104EB000782E882081F04FEF480D6E2DC8010E949A
:104EC000C71D4FEF470D6091AD0589E096E00E9448
:104ED000C71D0E94061788E00E94851A882309F4DE
:104EE000CBC01092AE05D8C09801255D394FF901AD
:104EF0004081842F2D833E834C830E94BB17982FC3
:104F0000045D194FF8015081852F5B839A830E94BD
:104F1000BB179A812D813E814C815B81891720F4DA
:104F2000F9015083F80140838394082D10E00215A5
:104F30001305D4F2E3948E2D90E08615970544F482
:104F4000812C1201281A390AF1E02F1A3108EDCF0D
:104F500010923D0610923C0610923E0680E791E0CA
:104F60000E94C61210923D0610923C0604E1009386
:104F70003E0680912B060E94D2170E94C6121EE1A7
:104F800010933D0610933C0600933E0680912B063D
:104F90000E94BB170E94E9128091A8058230C0F0E0
:104FA00010923D0610923C0610933E0680912C060E
:104FB0000E94D2170E94C61210933D0610933C0621
:104FC00010933E0680912C060E94BB170E94E912A6
:104FD0008091A8058330D0F010923D0610923C06D7
:104FE00018E210933E0680912D060E94D2170E946F
:104FF000C6128EE180933D0680933C0610933E06D8
:1050000080912D060E94BB170E94E9128091A8058D
:105010008430D0F010923D0610923C0612E31093BB
:105020003E0680912E060E94D2170E94C6128EE183
:1050300080933D0680933C0610933E0680912E0699
:105040000E94BB170E94E91284E00E94851A8823FF
:1050500029F087E080932A060E94061788E00E94C4
:10506000851A882349F0E1E0E0932A0615C084E020
:105070000E94851A81112CC00E94921380E090E05A
:10508000892B09F44FC80E94000046C880E880932D
:105090008F0191E090932A060E940617EDCF10929F
:1050A0008E0139C9E1E0E0938E013FC980E10E94A1
:1050B000851A882341F08091A805823020F0815024
:1050C0008093A805D9CF88E00E94851A882311F023
:1050D00083E00DC084E0C3CF80E10E94851A811176
:1050E0001AC088E00E94851A882309F286E080931E
:1050F0002A06D2CFF6E08F9FC0011124AC014B5A93
:105100005F4F01E025E230E065E270E08E5A9F4F8C
:105110000E94FE1941CA8091AA05843010F3815083
:105120008093AA05A9CF81508093AD050E940617F0
:10513000ADCD8F5F8093AD050E940617B3CD109261
:105140005C0610925B0688EE93E0A0E0B0E08093EE
:105150005D0690935E06A0935F06B09360068BE1B8
:1051600091E090935A06809359068FEF9FEF9093AA
:1051700066068093650610924506109244061092CA
:105180004B0610924C0680E180934D0610924A0621
:105190001092490610924F06109252061092510634
:1051A000109254061092530681E080935506109297
:1051B0005606809357061092580629E331E0309343
:1051C00043062093420627E431E0309347062093BC
:1051D000460610923B0610923A062DE231E03093DB
:1051E00039062093380698E0909341068093400654
:1051F00010923D0610923E0610923C0680933F06A8
:1052000090E29093300690933106909332069093FB
:105210003306909334069093350697E49093A60551
:1052200093E49093A7058093A8058093A90582E154
:105230008093AA0583E08093AB051092AC05109291
:10524000AD051092AE0580E090E034E0FC01EA5537
:10525000FA4F24E0318705968A359105B9F72093F6
:10526000090610922A0681E080932B0682E0809343
:105270002C0683E080932D0620932E06E3E2F6E0D1
:1052800080E296E09E0FDF0155978C9317968C93E2
:1052900017968C9381939E13F6CF08950F931F93C7
:1052A000CF93DF938C0181E090E00E94EE2980FF94
:1052B00031C08AE090E00E94EE299FEF980F9E3F58
:1052C00048F522E330E0D80150963C932E931F9787
:1052D00028E330E052963C932E935197CBE0D0E0F8
:1052E000D801ED91FC910190F081E02D682FC8016B
:1052F0000995CE010E94EE292196C131D10581F791
:105300000E94921388EE93E0DF91CF911F910F914D
:105310000C94C11BDF91CF911F910F9108950497B9
:105320000C944E298F929F92AF92BF92CF92DF92B0
:10533000EF92FF92CF93DF93EC01688179818A81AC
:105340009B81611571058105910521F464E279ED78
:105350008BE597E02DE133EF41E050E00E94042A15
:1053600049015A019B01AC01A7EAB1E40E94232A3A
:105370006B017C01ACEEB4EFA50194010E94312ACF
:10538000DC01CB018C0D9D1DAE1DBF1DB7FF03C001
:105390000197A109B04888839983AA83BB83BC0184
:1053A000CD019F77DF91CF91FF90EF90DF90CF906D
:1053B000BF90AF909F908F9008950E94922908957A
:1053C0008CE091E00E949229089560930C01709303
:1053D0000D0180930E0190930F010895F999FECF6E
:1053E00092BD81BDF89A992780B50895262FF99925
:1053F000FECF1FBA92BD81BD20BD0FB6F894FA9AB8
:10540000F99A0FBE01960895052E97FB1EF400949D
:105410000E941B2A57FD07D00E94362A07FC03D0A2
:105420004EF40C941B2A50954095309521953F4F92
:105430004F4F5F4F089590958095709561957F4F80
:105440008F4F9F4F08950E94582AA59F900DB49F9B
:10545000900DA49F800D911D11240895B7FF0C9409
:10546000232A0E94232A821B930B0895A1E21A2E5D
:10547000AA1BBB1BFD010DC0AA1FBB1FEE1FFF1FF8
:10548000A217B307E407F50720F0A21BB30BE40B48
:10549000F50B661F771F881F991F1A9469F760958F
:1054A0007095809590959B01AC01BD01CF01089549
:1054B000A29FB001B39FC001A39F700D811D112455
:1054C000911DB29F700D811D1124911D0895AA1B7D
:1054D000BB1B51E107C0AA1FBB1FA617B70710F0DF
:1054E000A61BB70B881F991F5A95A9F78095909511
:1054F000BC01CD010895EE0FFF1F0590F491E02D42
:10550000099481E090E0F8940C948D2AFB01DC0171
:0E55100001900D920020E1F70895F894FFCF6E
:10551E00FFFFFFFF00E1000000000000010000009F
:10552E0000C1808100000000000000D7105811F863
:10553E0010ED103E11FC101A1100000000C21A905E
:10554E001ABD1ABC1A000000002F1C901ABD1ABCFE
:10555E001A4E29FCFF00008F29486F77206D616E6F
:10556E007920706C61796572733F20000D0A0048D6
:10557E006F77206D616E7920486F6C65733F2000E8
:10558E004865726520617265207468652066696E73
:0A559E00616C2073636F7265730087
:00000001FF
