:100000000C9461140C9489140C9489140C94891424
:100010000C9489140C9489140C9489140C948914EC
:100020000C9489140C9489140C94D31B0C94451CC7
:100030000C9489140C9489140C9489140C948914CC
:100040000C9489140C9489140C9489140C948914BC
:100050000C9489140C9489140C9489140C945F1FCB
:100060000C9489140C9489140C9489140C9489149C
:100070000C9489140C9489140C9489140C9489148C
:100080000C9489140C9489140C9489140C9489147C
:100090000C9489140C9489140C9489140C9489146C
:1000A0000C9489140C9489140C948914FB2427252E
:1000B00004265B269E269E2702280728E624D5F0E4
:1000C0008D14A1C881CFD9F1AF2000FFFFFFFFFF42
:1000D000FFFFFFFFFFFFFFFFFFFFFFFFFFFFFFFF30
:1000E000FFFFFFFFFFFFFFFFFFFFFFFFFFFFFFFF20
:1000F000FFFFFFFFFFFFFFFFFFFFFFFFFFFFFFFF10
:10010000FFFFFFFFFFFFFFFFFFFFFFFFFFFFFFFFFF
:10011000FFFFFFFFFFFFFFFFFFFFFFFFFFFFFFFFEF
:10012000FFFFFFFFFFFFFFFFFFFFFFFFFFFFFFFFDF
:10013000FFFFFFFFFFFFFFFFFFFFFFFFFFFFFFFFCF
:10014000FFFFFFFFFFFFFFFFFFFFFF0B070B070B8B
:10015000070B070BC7EBF7FBFFFBFFFBFFFBFFFBEF
:10016000FFFBFFFBFFFBFFFBFFFBFFFBFFFBFFFBBF
:10017000FFFBFFFBFFFBFFFBFFFBFFFBFFFBFFFBAF
:10018000FFFBFFFBFFFBFFFBFFFBFFFBFFFBFFFB9F
:10019000FFFBFFFBFFFBFFFBFFFBFFFBFFFBFFFB8F
:1001A000FFFBFFFBFFFBFFFBFFFBFFFBFFFBFFFB7F
:1001B000FFFBFFFBFFFBFFFBFFFBFFFBFFFBE7CBB7
:1001C000870B070B070B070B070B0700000000004E
:1001D00000000000FFFFFFFFFFFFFFFFFFFFFFFF2B
:1001E000FFFFFFFFFFFFFFFFFFFFFFFFFFFFFFFF1F
:1001F000FFFFFFFFFFFFFFFFFFFFFFFFFFFFFFFF0F
:10020000FFFFFFFFFFFFFFFFFFFFFFFFFFFFFFFFFE
:10021000FFFFFFFFFFFFFFFFFFFFFFFFFFFFFFFFEE
:10022000FFFFFFFFFFFFFFFFFFFFFFFFFFFFFFFFDE
:10023000FFFFFFFFFFFFFFFFFFFFFFFFFFFFFFFFCE
:10024000AA550000000000000000002070F8FCFC2F
:10025000FCFCF870FFFFFFFFFFFFFFFFFFFFFFFF4A
:10026000FFFFFFFFFFFFFFFFFFFFFFFFFFFFFFFF9E
:10027000FFFFFFFFFFFFFFFFFFFFFFFFFFFFFFFF8E
:10028000FFFFFFFFFFFFFFFFFFFFFFFFFFFFFFFF7E
:10029000FFFFFFFFFFFFFFFFFFFFFFFFFFFFFFFF6E
:1002A000FFFFFFFFFFFFFFFFFFFFFFFFFFFFFFFF5E
:1002B000FFFFFFFFFFFFFFFFFFFFFFFFFFFFFFFF4E
:1002C000AA55000000000000000000000001030328
:1002D00003030100FFFFFFFFFFFFFFFFFFFFFFFF23
:1002E000FFFFFFFFFFFFFFFFFFFFFFFFFFFFFFFF1E
:1002F000FFFFFFFFFFFFFFFFFFFFFFFFFFFFFFFF0E
:10030000FFFFFFFFFFFFFFFFFFFFFFFFFFFFFFFFFD
:10031000FFFFFFFFFFFFFFFFFFFFFFFFFFFFFFFFED
:10032000FFFFFFFFFFFFFFFFFFFFFFFFFFFFFFFFDD
:10033000FFFFFFFFFFFFFFFFFFFFFFFFFFFFFFFFCD
:10034000AA550000000000000000000000000000AE
:1003500000000000FFFFFFFFFFFFFFFFFFFFFFFFA9
:10036000FFFFFFFFFFFFFFFFFFFFFFFFFFFFFFFF9D
:10037000FFFFFFFFFFFFFFFFFFFFFFFFFFFFFFFF8D
:10038000FFFFFFFFFFFFFFFFFFFFFFFFFFFFFFFF7D
:10039000FFFFFFFFFFFFFFFFFFFFFFFFFFFFFFFF6D
:1003A000FFFFFFFFFFFFFFFFFFFFFFFFFFFFFFFF5D
:1003B000FFFFFFFFFFFFFFFFFFFFFFFFFFFFFFFF4D
:1003C000AA5500000000000000000000000000002E
:1003D00000000000FFFFFFFFFFFFFFFFFFFFFFFF29
:1003E000FFFFFFFFFFFFFFFFFFFFFFFFFFFFFFFF1D
:1003F000FFFFFFFFFFFFFFFFFFFFFFFFFFFFFFFF0D
:10040000FFFFFFFFFFFFFFFFFFFFFFFFFFFFFFFFFC
:10041000FFFFFFFFFFFFFFFFFFFFFFFFFFFFFFFFEC
:10042000FFFFFFFFFFFFFFFFFFFFFFFFFFFFFFFFDC
:10043000FFFFFFFFFFFFFFFFFFFFFFFFFFFFFFFFCC
:10044000AA550000000000000000000000000000AD
:1004500000000000FFFFFFFFFFFFFFFFFFFFFFFFA8
:10046000FFFFFFFFFFFFFFFFFFFFFFFFFFFFFFFF9C
:10047000FFFFFFFFFFFFFFFFFFFFFFFFFFFFFFFF8C
:10048000FFFFFFFFFFFFFFFFFFFFFFFFFFFFFFFF7C
:10049000FFFFFFFFFFFFFFFFFFFFFFFFFFFFFFFF6C
:1004A000FFFFFFFFFFFFFFFFFFFFFFFFFFFFFFFF5C
:1004B000FFFFFFFFFFFFFFFFFFFFFFFFFFFFFFFF4C
:1004C000AA5500000000000000000080400000006D
:1004D000000000000000000000000000000000001C
:1004E000000000000000000000000000000000000C
:1004F00000000000000000000000000000000000FC
:1005000000000000000000000000000000000000EB
:1005100000000000000000000000000000000000DB
:1005200000000000000000000000000000000000CB
:1005300000000000000000000000000000000000BB
:1005400000000000000000000000000000020202A5
:1005500002020202020202C222925252525252522B
:10056000525252525252525252525252525252526B
:10057000525252525252525252525252525252525B
:10058000525252525252525252525252525252524B
:10059000525252525252525252525252525252523B
:1005A000525252525252525252525252525252522B
:1005B000525252525252525252525252525292220B
:1005C000C202020202020202020202020200000051
:1005D00000000000000000FF00FF0000000000001D
:1005E000000000000000000000000000000000000B
:1005F00000000000000000000000000000000000FB
:1006000000007F000000000000000000000000006B
:1006100000000000000000000000000000000000DA
:10062000000000000000000000007F00000000004B
:100630000000000000000000000000000000FF00BB
:10064000FF0000000000000000000000000020503B
:1006500078D8C878502000FF00FF01010101010196
:10066000010101010101010101010101010101017A
:10067000010101010101010101010101010101016A
:100680000101FD010101010101010101010101015E
:10069000010101010101010101010101010101014A
:1006A00001010101010101010101FD01010101013E
:1006B0000101010101010101010101010101FF002D
:1006C000FF0000000000000000000000000000002B
:1006D00001010101000000FF00FF0004000400040C
:1006E00000040004000400040004000400040004EA
:1006F00000040004000400040004000400040004DA
:100700000000FF00000400040004000400040004D2
:1007100000040004000400040004000400040004B9
:1007200000040004000400040000FF0000040004B2
:100730000004000400040004000400040000FF00A2
:10074000FF000000000000000000000000000000AA
:1007500000000000000000FF00FF0010001000106B
:100760000010001000100010001000100010001009
:1007700000100010001000100010001000100010F9
:100780000000FF000010001000100010001000100A
:1007900000100010001000100010001000100010D9
:1007A00000100010001000100000FF0000100010EA
:1007B0000010001000100010001000100000FF00DA
:1007C000FF0000000000000000000000000000002A
:1007D00000000000000000FF00FF0040004000405B
:1007E0000040004000400040004000400040004009
:1007F00000400040004000400040004000400040F9
:100800000000FF0000400040004000400040004069
:1008100000400040004000400040004000400040D8
:1008200000400040004000400000FF000040004049
:100830000040004000400040004000400000FF0039
:10084000FF000000000000000000000000000000A9
:1008500000000000000000FF00FF0000000000009A
:100860000000000000000000000000000000000088
:100870000000000000000000000000000000000078
:1008800000007F00000000000000000000000000E9
:100890000000000000000000000000000000000058
:1008A000000000000000000000007F0000000000C9
:1008B0000000000000000000000000000000FF0039
:1008C000FF00000000000000000000000080400069
:1008D0007E08087E003844443800427E40000038DC
:1008E000545458000000000078EEFEBBEFFFDB7EA2
:1008F000867800000000007F00000000000000007B
:10090000000000000000007F000000000000000068
:10091000000000000000007F000000000000000058
:10092000000000000000007F00FF00000000000049
:1009300002027E02023844443800043E4440002053
:1009400054547800427E400000000000000000FD8A
:100950000D6D6D9DFDFD5D5D3DFD1DBDDDBDFDFDB7
:10096000FDFDFDFDFDFDFDFDFE7DF50BFB5AAAF530
:10097000FDFEFDFDFDFDFD05FDFDFDFDFDFDFDFD9E
:10098000FDFDFDFDFDFDFD05FDFDFDFDFDFDFDFD8F
:10099000FDFDFDFDFDFDFD05FDFDFDFDFDFDFDFD7F
:1009A000FDFDFDFDFDFDFD05F8F265EAEAEAEAEA76
:1009B000EAEAEAEAEAEAEA6AEAEAEAEAEAEA6AEA97
:1009C000EAEA6AEAEAEAEAEA6AEAEAEAEA6AEA17DA
:1009D00014171717171615151417141717171716B6
:1009E00015161615151615161417141415161515B3
:1009F0001615151615141FA81F1F1F1F1F1F1F1FB9
:100A00001F1F1F1F1F1F1FA81F1F1F1F1F1F1F1F6D
:100A10001F1F1F1F1F1F1FA81F1F1F1F1F1F1F1F5D
:100A20001F1F1F1F1F1F1FA81F1417141516161591
:100A30001516151516151417161515161514171461
:100A400015161714151615141714151614171680E5
:100A50008080808080808080808080808080808096
:100A60008080808080808080808080808080808086
:100A700080808080808000AA00808080808080804C
:100A800080808080808000AA00808080808080803C
:100A900080808080808000AA00808080808080802C
:100AA00080808080808000AA00808080808080801C
:100AB0008080808080808080808080808080808036
:100AC00080808080808080808080808080808000A6
:100AD0000000000000000000000000000000000016
:100AE0000000000000000000000000000000000006
:100AF00000000000000000AA00000000000000004C
:100B000000000000000000AA00000000000000003B
:100B100000000000000000AA00000000000000002B
:100B200000000000000000AA00000000000000001B
:100B300000000000000000000000000000000000B5
:100B400000000000000000000000000000000004A1
:100B50000404040404040404040404040404040455
:100B60000404040404040404040404040404040445
:100B700004040404040400AA000404040404040497
:100B800004040404040400AA000404040404040487
:100B900004040404040400AA000404040404040477
:100BA00004040404040400AA000404040404040467
:100BB00004040404040404040404040404040404F5
:100BC00004040404040404040404040404040420C9
:100BD0002020202020202020202020202020202015
:100BE0002020202020202020202020202020202005
:100BF00020202020202000AA0020202020202020AB
:100C000020202020202000AA00202020202020209A
:100C100020202020202000AA00202020202020208A
:100C200020202020202000AA00202020202020207A
:100C300020202020202020202020202020202020B4
:100C400020202020202020202020202020202000C4
:100C50000000000000000000000000000000000094
:100C60000000000000000000000000000000000084
:100C700000000000000000AA0000000000000000CA
:100C800000000000000000AA0000000000000000BA
:100C900000000000000000AA0000000000000000AA
:100CA00000000000000000AA00000000000000009A
:100CB0000000000000000000000000000000000034
:100CC0000000000000000000000000000000002004
:100CD0006E616D653F2000506C6179657220000582
:100CE0000700003E000005077F7F7F7F7F00000038
:100CF00000000000000000000000000000000000F4
:100D00000000000080C0E0E0E0E0E0E0E0E0E0E0E3
:100D1000E0E0E0E0E0E0E0E0E0E0E0E0E0E0E0E0D3
:100D2000E0E0E0E0E0E0E0E0E0E0E0E0E0E0E0E0C3
:100D3000E0E0E0E0E0E0E0E0E0E0E0E0E0E0E0E0B3
:100D4000E0E0E0E0E0E0E0E0E0E0E0E0E0E0E0E0A3
:100D5000E0E0E0C0800000000000000000000000B3
:100D60000000000000000000000000000000000083
:100D70000000000000000000000000000000000073
:100D800000000000FFFFFFFFFFFFFFFFFFFFFFFF6F
:100D9000FFFFFFFFFFFFFFFFFFFFFFFFFFFFFFFF63
:100DA000FFFFFFFFFFFFFFFFFFFFFFFFFFFFFFFF53
:100DB000FFFFFFFFFFFFFFFFFFFFFFFFFFFFFFFF43
:100DC000FFFFFFFFFFFFFFFFFFFFFFFFFFFFFFFF33
:100DD000FFFFFFFFFF000000000000000000000018
:100DE0000000000000000000000000000000000003
:100DF00000000000000000000000000000000000F3
:100E000000000000FFFFFFFFFFFFFFFFFFFFFFFFEE
:100E1000FFFFFFFFFFFFFFFFFFFFFFFFFFFFFFFFE2
:100E2000FFFFFFFFFFFFFFFFFFFFFFFFFFFFFFFFD2
:100E3000FFFFFFFFFFFFFFFFFFFFFFFFFFFFFFFFC2
:100E4000FFFFFFFFFFFFFFFFFFFFFFFFFFFFFFFFB2
:100E5000FFFFFFFFFF000000000000000000000097
:100E60000000000000000000000000000000000082
:100E70000000000000000000000000000000000072
:100E800000000000FFFFFFFFFFFFFFFFFFFFFFFF6E
:100E9000FFFFFFFFFFFFFFFFFFFFFFFFFFFFFFFF62
:100EA000FFFFFFFFFFFFFFFFFFFFFFFFFFFFFFFF52
:100EB000FFFFFFFFFFFFFFFFFFFFFFFFFFFFFFFF42
:100EC000FFFFFFFFFFFFFFFFFFFFFFFFFFFFFFFF32
:100ED000FFFFFFFFFF000000000000000000000017
:100EE0000000000000000000000000000000000002
:100EF00000000000000000000000000000000000F2
:100F000000000000FFFFFFFFFFFFFFFFFFFFFFFFED
:100F1000FFFFFFFFFFFFFFFFFFFFFFFFFFFFFFFFE1
:100F2000FFFFFFFFFFFFFFFFFFFFFFFFFFFFFFFFD1
:100F3000FFFFFFFFFFFFFFFFFFFFFFFFFFFFFFFFC1
:100F4000FFFFFFFFFFFFFFFFFFFFFFFFFFFFFFFFB1
:100F5000FFFFFFFFFF000000000000000000000096
:100F60000000000000000000000000000000000081
:100F70000000000000000000000000000000000071
:100F800000000000070F1F1F1F1F1F1F1F1F1F1F15
:100F90001F1F1F1F1F1F1F1F1F1F1F1F1F1F1F1F61
:100FA0001F1F1F1F1F1F1FFFFFFFFFFFFFFFFFFF71
:100FB000FFFF1F1F1F1F1F1F1F1F9F9F9F9F9F9F81
:100FC0009F9F9F9F9F9F9F9F9F9F1F1F1F1F1F1F31
:100FD0001F1F1F0F0700000000000000000000009E
:100FE0000000000000000000000000000000000001
:100FF00000000000000000000000000000000000F1
:1010000000000000000000000000000000000000E0
:1010100000000000000000000000000000000000D0
:1010200000000000000000FFFFFFFFFFFFFFFFFFC9
:10103000FFFF0000000000000000BFBFBFBFBFBF38
:10104000BFBFBFBFBFBFBFBFBFBF808080808000AA
:101050000000000000000000000000000000000090
:101060000000000000000000000000000000000080
:101070000000000000000000000000000000000070
:101080000000000000000000000000000000000060
:101090000000000000000000000000000000000050
:1010A00000000000000000FFFFFFFFFFFFFFFFFF49
:1010B000FFFF00000000000000003F3F3F3F3F3FB8
:1010C0003F3F3F3F3F3F3F3F3F3F3F3F3F3F3F006F
:1010D0000000000000000000000000000000000010
:1010E0000000000000000000000000000080400040
:1010F00000000000000000000000000000000000F0
:101100000000000000000080C0C0C0C0C0C0C0C05F
:10111000C0C0C0C0C0C0C0C0C0C0C0C0C0C0C0C0CF
:10112000C0C0C0C0C0C0C0C0C0C0C0C0C0C0C0C0BF
:10113000C0C0C0C0C0C0C0C0C0C0C0C0C0C0C0C0AF
:10114000C0C0C0C0C0C0C0C0C0C0C0C0C0C0C0C09F
:10115000C0C0C0C0C080000000000000000000004F
:10116000000000000000000000000000000000007F
:10117000000000000000000000000000000000006F
:1011800000000000000000FFFF01FC02020202025A
:10119000020202020202020202020202020202022F
:1011A000020282C24242424242C2C202020202021F
:1011B000020202C2C202C2C2424242C2C2020202CF
:1011C00002020202020202020202020202020202FF
:1011D0000202FC01FFFF0000000000000000000010
:1011E00000000000000000000000000000000000FF
:1011F00000000000000000000000000000000000EF
:1012000000000000000000FFFF00FF000000008061
:10121000C0C040404040C0C080000000000000004E
:1012200000FFFF000000001010F0F000F0101010A0
:10123000F0F000FFFF00FFFF1010100000000000A2
:10124000000000000000000000000000000000009E
:101250000000FF00FFFF0000000000000000000091
:10126000000000000000000000000000000000007E
:10127000000000000000000000000000000000006E
:1012800000000000000000FFFF00FF00000000FF62
:10129000FF000000000000030300F0101010F0F049
:1012A00000F1E316F4E414F4E407F7101714F4E47F
:1012B00007E7F0171710E7F700F0E010F0E000F490
:1012C000F400F0101010F0F000F0E010F0E000007A
:1012D0000000FF00FFFF0000000000000000000011
:1012E00000000000000000000000000000000000FE
:1012F00000000000000000000000000000000000EE
:1013000000000000000000FFFF00FF0000000003DD
:101310000706040404040407030007040404070781
:10132000000707000707000707001F1C0404070346
:101330000003070404020707000707000707000768
:101340000700070404040707000707000707000059
:101350000000FF00FFFF0000000000000000000090
:10136000000000000000000000000000000000007D
:10137000000000000000000000000000000000006D
:1013800000000000000000070F0E0C0D0D0D0D0DEC
:101390000D0D0D0D0D0D0D0D0D0D0D0D0D0D0D0D7D
:1013A0000D0D0D0D0D0D0D0D0D0D8D0D8D8D8D8DED
:1013B0008D8D8D0D0D0D0D0D0D0D0D0D0D0D0D0DDD
:1013C0000D0D0D0D0D0D0D0D0D0D0D0D0D0D0D0D4D
:1013D0000D0D0C0E0F0700000000000000000000C3
:1013E00000000000000000000000000000000000FD
:1013F00000000000000000000000000000000000ED
:1014000000000000000000000000000000000000DC
:1014100000000000000000000000000000000000CC
:1014200000000000000000000000FF00FFFFFFFFC1
:10143000FFFFFF000000000000000000001F02048A
:101440001F001F15150007180618070000000000F0
:10145000000000000000000000000000000000008C
:10146000000000000000000000000000000000007C
:10147000000000000000000000000000000000006C
:10148000000000000000000000000000000000005C
:10149000000000000000000000000000000000004C
:1014A00000000000000000000000FF00FFFFFFFF41
:1014B000FFFFFF000000000000000000001F051BF0
:1014C000001F151500121509001F151500011F0139
:1014D000000000000000000000000000000000000C
:1014E00000000000000000000000000000000000FC
:1014F00000000000000000000000000000000000EC
:1015000000000000000000000000000000000000DB
:1015100000000000000000000000000000000000CB
:1015200000000000000000000000000000000000BB
:1015300000000000000000000000000000000000AB
:10154000000000000000000000000000000000009B
:10155000000000000000000000000000000000008B
:10156000000000000000000000000000000000007B
:10157000000000000000000000000000000000006B
:10158000000000000000000000000000000000005B
:10159000000000000000000000000000000080804B
:1015A000808080800000000080808080808080803B
:1015B000000000000000000000000000000000002B
:1015C000000000000000000000000000000000001B
:1015D000000000000000000000000000000000000B
:1015E00000000000000000000000000000000000FB
:1015F00000000000000000000000000000000000EB
:1016000000000000000000000000000000000000DA
:101610000000000000000000000000020A2AA8A349
:101620008F3FFFFFFEF08000FFFFFFFFFFFFFF0780
:1016300000000000000080808080C0C000800000AA
:10164000000000000000000000000000000000009A
:10165000000000000000000000000000000000008A
:10166000000000000000000000000000000000007A
:10167000000000000000000000000000000000006A
:10168000000000000000000000000000000000005A
:101690000000000000000000000000000000000248
:1016A0000A0A28A3871F7FFCFFFFFFFFFF7F01F0CF
:1016B000F8FCFE06A30B07073F0F230802000000FB
:1016C000000000000000000000000000000000001A
:1016D000000000000000000000000000000000000A
:1016E00000000000000000000000000000000000FA
:1016F00000000000000000000000000000000000EA
:1017000000000000000000000000000000000000D9
:1017100000000000000000000000000000000000C9
:1017200000000000020A28A1871F7FFF1F0080F130
:10173000F3F3636322B21E202800000000000000C3
:101740000000000000000000000000000000000099
:101750000000000000000000000000000000000089
:101760000000000000000000000000000000000079
:101770000000000000000000000000000000000069
:101780000000000000000000000000000000000059
:101790000000000000000000000000000000000049
:1017A0000000080808C808884A8A48480888498903
:1017B00008CA480948C84808080800000000000096
:1017C0000000000000000000000000000000000019
:1017D0000000000000000000000000000000000009
:1017E00000000000000000000000000000000000F9
:1017F00000000000000000000000000000000000E9
:1018000000000000000000000000000000000000D8
:1018100000000000000000000000000000000000C8
:1018200000000000000003000002030300010201A9
:1018300000030100000300000000000000000000A1
:101840000000000000000000000000000000000098
:101850000000000000000000000000000000000088
:101860000000000000000000000000000000000078
:101870000000000000000000000000000000000068
:101880000000000000000000000000000000000058
:101890000000000000000000000000000000000048
:1018A0000000000000000000000000000000000038
:1018B0000000000000000000000000000000000028
:1018C0000000000000000000000000000000000018
:1018D0000000000000000000000000000000000008
:1018E00000000000000000000000000000000008F0
:1018F0000B000202020100090400000102020000C4
:101900000524001001052401010104240206052418
:101910000600010705810310004009040100020AC6
:101920000000000705020240000007058302400096
:10193000000403090412010002EF020140412336B2
:101940008000010102030141726475696E6F204CD1
:101950004C430041726475696E6F204C656F6E6117
:1019600072646F000000000000F0FCFEFEFFFFFF4D
:10197000FFFEFEFCF0000000000000000000000080
:101980000000000000000000000000000000000057
:101990000000000000000000000000000000000047
:1019A0000000000000000000000000000000000037
:1019B0000000000000000000000000000000000027
:1019C0000000000000000000000000000000000017
:1019D0000000000000000000000000000000000007
:1019E0000000000080C08000800003873FFFFFFFF1
:1019F000FFBF87C3800080800000800000800080DF
:101A0000C0800000800080C0800080C08000800016
:101A100080C080008080C08000008080C080008006
:101A200080C0800080C08080000080800000800036
:101A300000800080C0800000800080C0800080C0E6
:101A40008000800080C080008080C0800000808096
:101A5000C080008080C0800080C0808000808000C6
:101A60000080008003030303030303030303030352
:101A70000303030303030303030303030303030336
:101A80000303030303030303030303030303030326
:101A90000303030303030303030303030303030316
:101AA0000303030303030303030303030303030306
:101AB00003030303030303030303030303030303F6
:101AC00003030303030303030303030303030303E6
:101AD00003030303030303030303030303030303D6
:101AE000030303038012000000000000F0DCFC761A
:101AF000DEFEB6FC0CF0000000000000000000005C
:101B000000000000000000000000000000000000D5
:101B100000000000000000000000000000000000C5
:101B200000000000000000000000000000000000B5
:101B300000000000000000000000000000000000A5
:101B40000000000000000000000000000000000095
:101B50000000000000000000000000000000000085
:101B600000000000000000800000000000030317D8
:101B7000F7B515020380000000000000000000001F
:101B800000008000000000000080000000800000D5
:101B900000000080000000008000000000008000C5
:101BA0000000008000000080000000000000000035
:101BB0000000000000008000000000000080000025
:101BC0000080000000000080000000008000000095
:101BD0000000800000000080000000800000000085
:101BE00000000000000002030202030202030200E0
:101BF00003000203020302020303020203020203C0
:101C000002020303020203020203020203030202AE
:101C1000030202030202030203030202030203029D
:101C2000020302030302020302030202030302028D
:101C3000030202030202030302020302020302027E
:101C4000030302020302020302020302030302026D
:101C5000030203020203020303020203020302035C
:101C6000030202030203F8FCFEFF070787C7C7CF82
:101C7000CF86C0C0C0C0C0C0FEFFFFFEFFFFFFC7D1
:101C8000C78F0F060000FCFEFFFF070707071F3F77
:101C90003E9CC0C0C0C0C0C080C080C0C080C0C0AA
:101CA0008080C0C0C0C0C0800080C0C0C0C080C034
:101CB00080C080C0C080A0F0F0A0C0C0C0C0C0C0C4
:101CC00080C080C0C080000F1F3F7F707070717F28
:101CD0007F7F3F7F7F717F7F7F3F7F7F7F7F7F7FA2
:101CE000010100000000001F3F7F7F70707070785E
:101CF0007C3C3F7F7F717F7F7F3F7F7F3F7F7F3F48
:101D00007F7FFFFFFFF17F7F3F1F3F7F7F713F7F1F
:101D10007F3F7F7F3F7F7F3F7F7F3F7F7F717F7FE1
:101D20007F3F7F7F3F7F7F3F00000000000000007B
:101D300000000000000000000000000000000000A3
:101D40000000000000000000000000000000000093
:101D50000000000000000000000000000000000083
:101D60000000000001010000000000000000000071
:101D70000000000000000000000000000000000063
:101D8000000000000000000000611100F8FC0602E5
:101D90000202828286860080808080808000FEFE33
:101DA00000FEFE828282060600000000FCFE0602A3
:101DB000020202061E1C008080808080800080005D
:101DC0008080008080000080808080800000008013
:101DD000808080008000800080800000A0A00080C3
:101DE000808080808000800080800000000F1F3095
:101DF00020202020203F3F003F2020203F3F003F69
:101E00003F003F3F0000000000000000001F3F3087
:101E100020202020203818003F2020203F3F003F76
:101E20003F003F3F003F3F00FFE020203F1F001FDB
:101E30003F2020103F3F003F3F003F3F003F3F001B
:101E40003F2020203F3F003F3F003F3F0000000079
:101E50000000000000000000000000000000000082
:101E60000000000000000000000000000000000072
:101E70000000000000000000000000000000000062
:101E80000000000000000000000000000000000052
:101E90000000000000000000000000000000000042
:101EA0000000000000000000000000000000000032
:101EB0000000000000000000000000000000000022
:101EC0000000000000000000000000000000000012
:101ED0000000000000000000000000000000000002
:101EE00000000000000000000000000000000000F2
:101EF00000000000000000000000000000000000E2
:101F000000000000000000000000000000000000D1
:101F100000000000000000000000000000000000C1
:101F2000000000000000000000000000000000C0F1
:101F3000000080800000800000800000C080000061
:101F4000800000C0000080C00000800000C00000D1
:101F50008000C08000008000C000008000C08000C1
:101F600000C0008000008080000080000080000031
:101F7000C0800000800000C0000080C00000800021
:101F800000C000008000C08000008000C000008011
:101F900000C0800000C000800080800000800080C1
:101FA00000C0000080800000800000800000EBF393
:101FB000EBF3EBF3EBF3EBF3EBF3EBF3EBF3EBF331
:101FC000EBF3EBF3EBF3EBF3EBF3EBF3EBF3EBF321
:101FD000EBF3EBF3EBF3EBF3EBF3EBF3EBF3EBF311
:101FE000EBF3EBF3EBF3EBF3EBF3EBF3EBF3EBF301
:101FF000EBF3EBF3EBF3EBF3EBF3EBF3EBF3EBF3F1
:10200000EBF3EBF3EBF3EBF3EBF3EBF3EBF3EBF3E0
:10201000EBF3EBF3EBF3EBF3EBF3EBF3EBF3EBF3D0
:10202000EBF3EBF3EBF3EBF3EBF3EBF3EBF3FFFFA0
:10203000FFFFFFFFFFFFFFFFFFFFFFFFFFFFFFFFB0
:10204000FFFFFFFFFFFFFFFFFFFFFFFFFFFFFFFFA0
:10205000FFFFFFFFFFFFFFFFFFFFFFFFFFFFFFFF90
:10206000FFFFFFFFFFFFFFFFFFFFFFFFFFFFFFFF80
:10207000FFFFFFFFFFFFFFFFFFFFFFFFFFFFFFFF70
:10208000FFFFFFFFFFFFFFFFFFFFFFFFFFFFFFFF60
:10209000FFFFFFFFFFFFFFFFFFFFFFFFFFFFFFFF50
:1020A000FFFFFFFFFFFFFFFFFFFFFFFFFFFFFFFF40
:1020B000FFFFFFFFFFFFFFFFFFFFFFFFFFFFFFFF30
:1020C000FFFFFFFFFFFFFFFFFFFFFFFFFFFFFFFF20
:1020D000FFFFFFFFFFFFFFFFFFFFFFFFFFFFFFFF10
:1020E000FFFFFFFFFFFFFFFFFFFFFFFFFFFFFFFF00
:1020F000FFFFFFFFFFFFFFFFFFFFFFFFFFFFFFFFF0
:10210000FFFFFFFFFFFFFFFFFFFFFFFFFFFFFFFFDF
:10211000FFFFFFFFFFFFFFFFFFFFFFFFFFFFFFFFCF
:10212000FFFFFFFFFFFFFFFFFFFFFFFFFFFFFFFFBF
:10213000FFFFFFFFFFFFFFFFFFFFFFFFFFFFFFFFAF
:10214000FFFFFFFFFFFFFFFFFFFFFFFFFFFFFFFF9F
:10215000FFFFFFFFFFFFFFFFFFFFFFFFFFFFFFFF8F
:10216000FFFFFFFFFFFFFFFFFFFFFFFFFFFFFFFF7F
:10217000FFFFFFFFFFFFFFFFFFFFFFFFFFFFFFFF6F
:10218000FFFFFFFFFFFFFFFFFFFFFFFFFFFFFFFF5F
:10219000FFFFFFFFFFFFFFFFFFFFFFFFFFFFFFFF4F
:1021A000FFFFFFFFFFFFFFFFFFFFFFFFFFFFCFF777
:1021B000CFDFEFEFDFDFEFDFDFEFDFCFF7EFDFDFE7
:1021C000EFDFCFF7CFDFEFF7CFDFEFDFCFF7CFDFF7
:1021D000EFCFF7EFDFDFEFCFF7CFDFEFCFF7EFDFB7
:1021E000CFF7CFEFDFDFEFEFDFDFEFDFDFEFDFCFC7
:1021F000F7EFDFDFEFDFCFF7CFDFEFF7CFDFEFDF97
:10220000CFF7CFDFEFCFF7EFDFDFEFCFF7CFDFEFA6
:10221000CFF7EFDFCFF7CFEFDFEFEFDFDFEFDFEF6E
:10222000CFF7CFDFEFEFDFDFEFDFDFEFDFCFAA5456
:10223000AA54AA54AA54AA54AA54AA54AA54AA54AE
:10224000AA54AA54AA54AA54AA54AA54AA54AA549E
:10225000AA54AA54AA54AA54AA54AA54AA54AA548E
:10226000AA54AA54AA54AA54AA54AA54AA54AA547E
:10227000AA54AA54AA54AA54AA54AA54AA54AA546E
:10228000AA54AA54AA54AA54AA54AA54AA54AA545E
:10229000AA54AA54AA54AA54AA54AA54AA54AA544E
:1022A000AA54AA54AA54AA54AA54AA54AA54040830
:1022B0003E09093E3F25251A1E2121123F21211EDC
:1022C0003F2525213F0505011E21293A3F04043FF2
:1022D000213F21001021211F3F040A313F202020EF
:1022E0003F02023F3F02043F1E21211E3F09090613
:1022F0001E21112E3F09093622252519013F010112
:102300001F20201F0F10201F3F10103F3B04043BD5
:1023100003043807312D2321102A2A3C3F24241896
:102320001C2222141824243F1C2A2A2C047E050176
:102330004C52523E3F040438243D20004040443D6E
:102340003F081422213F20003E04043E3E04023C8C
:102350001C22221C7E22221C1C22227E3E040204FD
:10236000242A2A12021F22201E20201E0E10201EA8
:102370003E10103E360808364E50503E322A262275
:102380001E29251E223F2000322929261221251A26
:102390000C0A3F08172525191E25251801390503A4
:1023A0001A25251A0629291E002F000000200000EA
:1023B00002290502000404000102040810204080E4
:1023C00000000000003E5B4F5B3E3E6B4F6B3E1CCF
:1023D0003E7C3E1C183C7E3C181C577D571C1C5EE6
:1023E0007F5E1C00183C1800FFE7C3E7FF001824BD
:1023F0001800FFE7DBE7FF30483A060E2629792967
:1024000026407F050507407F05253F5A3CE73C5A9B
:102410007F3E1C1C08081C1C3E7F14227F22145F78
:102420005F005F5F06097F017F006689956A6060D3
:1024300060606094A2FFA29408047E040810207ECD
:10244000201008082A1C08081C2A08081E10101052
:10245000100C1E0C1E0C30383E3830060E3E0E0698
:10246000000000000000005F0000000700070014EB
:102470007F147F14242A7F2A1223130864623649AA
:102480005620500008070300001C22410000412292
:102490001C002A1C7F1C2A08083E08080080703097
:1024A0000008080808080000606000201008040206
:1024B0003E5149453E00427F40007249494946210C
:1024C00041494D331814127F1027454545393C4A80
:1024D0004949314121110907364949493646494997
:1024E000291E0000140000004034000000081422DF
:1024F000411414141414004122140802015909064D
:102500003E415D594E7C1211127C7F494949363E4D
:10251000414141227F4141413E7F494949417F0933
:102520000909013E414151737F0808087F00417F3E
:1025300041002040413F017F081422417F4040403C
:10254000407F021C027F7F0408107F3E4141413ED4
:102550007F090909063E4151215E7F091929462656
:102560004949493203017F01033F4040403F1F205A
:1025700040201F3F4038403F631408146303047831
:1025800004036159494D43007F4141410204081051
:1025900020004141417F040201020440404040408C
:1025A000000307080020545478407F2844443838FA
:1025B00044444428384444287F385454541800086C
:1025C0007E090218A4A49C787F0804047800447D46
:1025D00040002040403D007F1028440000417F40E3
:1025E000007C047804787C08040478384444443837
:1025F000FC1824241818242418FC7C080404084817
:102600005454542404043F44243C4040207C1C2067
:1026100040201C3C4030403C44281028444C9090C2
:10262000907C4464544C440008364100000077001C
:1026300000004136080002010204023C2623263C29
:102640001EA1A161123A4040207A385454555921B4
:10265000555579412154547841215554784020549E
:102660005579400C1E5272123955555559395454EA
:10267000545939555454580000457C410002457D59
:10268000420001457C40F0292429F0F0282528F05B
:102690007C545545002054547C547C0A097F4932AF
:1026A000494949323248484832324A4848303A412A
:1026B00041217A3A42402078009DA0A07D394444CF
:1026C00044393D4040403D3C24FF2424487E49435A
:1026D000662B2FFC2F2BFF0929F620C0887E0903CB
:1026E00020545479410000447D413048484A3238F2
:1026F0004040227A007A0A0A727D0D19317D26291E
:10270000292F28262929292630484D402038080815
:10271000080808080808382F10C8ACBA2F10283449
:10272000FA00007B000008142A142222142A14083C
:102730009500220095AA005500AAAA55AA55AA00FC
:102740000000FF00101010FF00141414FF00101000
:10275000FF00FF1010F010F0141414FC001414F714
:1027600000FF0000FF00FF1414F404FC1414171001
:102770001F10101F101F1414141F00101010F00051
:102780000000001F101010101F10101010F010008B
:102790000000FF101010101010101010FF1000009B
:1027A00000FF140000FF00FF00001F10170000FCD6
:1027B00004F414141710171414F404F40000FF00A8
:1027C000F714141414141414F700F7141414171431
:1027D00010101F101F141414F4141010F010F00037
:1027E000001F101F0000001F14000000FC14000058
:1027F000F010F01010FF10FF141414FF141010103C
:102800001F00000000F010FFFFFFFFFFF0F0F0F0EE
:10281000F0FFFFFF0000000000FFFF0F0F0F0F0F82
:1028200038444438447C2A2A3E147E0202060602BA
:102830007E027E0263554941633844443C04407E35
:10284000201E2006027E020299A5E7A5991C2A49AE
:102850002A1C4C7201724C304A4D4D303048784839
:1028600030BC625A463D3E494949007E0101017E25
:102870002A2A2A2A2A44445F444440514A44404078
:10288000444A51400000FF0103E080FF00000808B7
:102890006B6B083612362436060F090F0600001837
:1028A000180000001010003040FF0101001F01015E
:1028B0001E00191D1712003C3C3C3C0000000000AB
:1028C000702D11241FBECFEFDAE0DEBFCDBF11E0C7
:1028D000A0E0B1E0E0ECFEE502C005900D92AE395B
:1028E000B107D9F726E0AEE9B1E001C01D92A43CE2
:1028F000B207E1F714E1C1E6D4E104C02197FE017B
:102900000E944C2FC036D107C9F70E9425220C9493
:102910005E2F0C9400002F923F925F926F927F92F5
:102920008F929F92AF92BF92CF92DF92EF92FF92DF
:102930000F931F93CF93DF939C0120583F4F2F3F5E
:10294000310511F008F097C09B01205C3F4F203803
:10295000310508F090C0DB0177FF04C0AA27BB2730
:10296000A61BB70BA770BB279B0177FF02C0295F8F
:102970003F4FE3E035952795EA95E1F777FF08C0EB
:102980002150310968E070E0FB01EA1BFB0BDF011D
:102990005901B694BA2CAA24B794A794A80EB91ECC
:1029A00060E070E04501F0E88F0E911CE8E0F0E097
:1029B0003F016A1A7B0A2F3FEFEF3E076CF42F5F4F
:1029C0003F4F60587F4F6115F4E07F0709F453C013
:1029D0002830310581F74FC0E401C60FD71FC85515
:1029E000DE4F8B010A0D1B1D08551E4F6C01E12C9B
:1029F000F12CE0E8CE16D10411F3D7FC2AC02F3F0A
:102A0000FFEF3F07A9F1F701E60FF71FE40FF51FEE
:102A1000E491F0E01F010A2E01C0220C0A94EAF7AB
:102A2000F801508025282082109799F02730310531
:102A300081F0F701E60FF71FE40FF51FE491F0E0D6
:102A4000062C02C0F595E7950A94E2F75880E5292F
:102A5000E883FFEFEF1AFF0AEFEFCE1ADE0A2196A6
:102A60000F5F1F4FF0E8EF16F10409F0C2CFA7CFB8
:102A70001097F9F6EECFDF91CF911F910F91FF9054
:102A8000EF90DF90CF90BF90AF909F908F907F900E
:102A90006F905F903F902F9008950F931F93CF9367
:102AA000DF9360912C0686E790E00E9406216091FA
:102AB000AA0587E790E00E9406216091AB0588E7B0
:102AC00090E00E9406216091AC0589E790E00E94A9
:102AD00006216091AD058AE790E00E940621609191
:102AE000AE058BE790E00E9406216091AF058CE770
:102AF00090E00E9406216091B0058DE790E00E9471
:102B00000621CEE7D0E08E0108551A4FF801E557AF
:102B1000F1096081CE010E940621F801E457F10914
:102B20006081CE0101960E940621F801E357F10968
:102B30006081CE0102960E940621F801E257F10958
:102B40006081CE0103960E940621F801E157F10948
:102B50006081CE0104960E9406212596C83DD105CC
:102B600091F660910B0688ED90E00E94062160913D
:102B70000C0689ED90E00E94062160910D068AED19
:102B800090E00E94062160910E068BED90E00E947D
:102B9000062160910F068CED90E00E940621CDED9C
:102BA000D0E0FE01ED5CFA4F6081CE010E9406216B
:102BB0002196C43ED105A9F7FE01ED5CFA4F608174
:102BC000CE010E9406212196CB3ED105A9F7FE0138
:102BD000ED5CFA4F6081CE010E9406212196C23F32
:102BE000D105A9F7FE01ED5CFA4F6081CE010E948C
:102BF00006212196C93FD105A9F7DF91CF911F91F9
:102C00000F910895823069F028F4813081F4809129
:102C10000C060895833041F0843049F480910F060A
:102C2000089580910D06089580910E06089580E024
:102C30000895833039F0843041F0823049F487E1DF
:102C400096E008958EE196E0089585E296E0089575
:102C500080E196E008956F927F928F929F92AF925B
:102C6000BF92CF92DF92EF92FF920F931F93CF9379
:102C7000DF9300D000D0CDB7DEB7DC014B017E2D55
:102C80004115510509F4EEC1FA0164913196949110
:102C90005A01F2E0AF0EB11CC62ED12C222309F14D
:102CA000492F469546954695E42FF0E041E050E0E7
:102CB000892F877011F440E050E04E0F5F1FC49ED3
:102CC000F001C59EF00DD49EF00D1124733011F467
:102CD000EE0FFF1F2E9FA0012F9F500D1124A40E59
:102CE000B51E7F3F31F40115110511F071E001C0EF
:102CF00072E0AD014C0D5D1D141615060CF0B2C14D
:102D0000A038B1050CF0AEC19401290F311D121687
:102D100013060CF0A7C180E4881691040CF0A2C140
:102D2000A114B10409F49EC1382D3770F40197FC49
:102D3000379623E0F595E7952A95E1F72E2F97FE34
:102D400004C0332311F02FEF2E0FB7FF05C0EE277D
:102D5000FF27EA1BFB0B02C0E0E0F0E04038510522
:102D600024F050E85A1B952E01C0962E9E1AE22E92
:102D7000022E000CFF082F3F1CF45E2D509501C061
:102D800050E041E0892F877009F440E096959695D0
:102D90009695490FE40EF11C99E0E916F10414F040
:102DA00048E0421BF42EF51A250F40E82403A00D3D
:102DB000B11D1124AE0FBF1F569FE00DF11D112450
:102DC000A5014E0F5F1F81E090E05C01032E02C061
:102DD000AA0CBB1C0A94E2F7733009F400C1A0F4FA
:102DE000713009F4B3C0723009F03CC18FEF8A9D95
:102DF000B0018B9D700D1124609570957C836B8361
:102E00007C806F2C620E29C07A3F29F07B3F09F04D
:102E100029C1F20E87C0F20E51C0FA01E00FF11F76
:102E2000E491EA9D7001EB9DF00C1124FA82E98295
:102E300027FD07C0FC01F080EF2DE623EE2AFC0100
:102E4000E082311113C00F5F1F4F0196091528F35F
:102E50002F5F4C0D5D1DA058BF4F261509F402C110
:102E6000CD0188559E4F00E010E0F0CF27305CF791
:102E7000FC01E058FF4FE080E7208A80E828E082EC
:102E8000E2CFFA01E60FF71FE491EA9D8001EB9D86
:102E9000100D11241A83098327FD04C0FC01108141
:102EA000012B0083311113C06F5F7F4F01966915AD
:102EB00040F32F5F4C0D5D1DA058BF4F2F1509F437
:102EC000D1C0CD0188559E4F60E070E0F0CF273033
:102ED0005CF78C0100581F4FF801E080FA81EF2A5F
:102EE000F801E082E1CFFA01E00FF11FE491EA9DE1
:102EF000C001EB9D900D11249A83898327FD05C0A5
:102F00008095FB01908189238083311114C00F5F6C
:102F10001F4F6F5F7F4F091530F32F5F4C0D5D1D05
:102F2000A058BF4F2F1509F49DC0BD0168557E4FB5
:102F300000E010E0F0CF273054F7FB01E058FF4FDE
:102F40008A818095908189238083E1CF0E0F1F1F96
:102F50008F2C820E281509F485C0CD0188559E4F0F
:102F60007C0160E070E0691590F5F801E60FF71F4D
:102F7000E491EA9DC001EB9D900D11248095909500
:102F80009C838B83FA01E60FF71FE491EA9D3001E1
:102F9000EB9D700C11247A82698227FD05C0F70130
:102FA00090818923682A6082332359F027304CF4BA
:102FB000F701E058FF4F90818C8189239A81892BFA
:102FC00080836F5F7F4FFFEFEF1AFF0ACCCF2F5F39
:102FD0004C0D5D1D0C0D1D1DA058BF4FBBCF892D85
:102FE00090E0E40FF51FA855BE4F60E870E0681B45
:102FF000790BC81AD90A8601000F111F592D4F2DC0
:10300000792CE32ECF93DF93ED01EF96EF96229686
:103010008590C590EE2059F08A9C4001CA9C6001C1
:1030200027302CF4F880D094FD20F928F99222233F
:103030003AF0FC90C094FC20F828FD920C942118E2
:1030400011965A9529F74A9551F0572D2395112439
:10305000E00FF11DA60FB11DC60FD11DD9CFDF9115
:10306000CF9111240F900F900F900F90DF91CF917F
:103070001F910F91FF90EF90DF90CF90BF90AF9096
:103080009F908F907F906F9008954F925F926F9274
:103090007F928F929F92AF92BF92CF92DF92EF92E8
:1030A000FF920F931F93CF93DF93EC017B016A0193
:1030B000C901A901461B570B57FF03C05195419504
:1030C000510996012C1B3D0B37FF03C0319521950B
:1030D000310911E02417350714F010E00AC03C2D27
:1030E0002D2D6C01832F922F3C2F2D2FE701E32EE6
:1030F000F22ECC16DD0654F43E2D2F2D7C01832FAD
:10310000922F3C2F2D2FE601C32ED22E26014C1AD2
:103110005D0A4C018E189F0897FE03C0919481941C
:103120009108520157FE03C02FEFA21AB20AB594BC
:10313000A794E816F90614F08FEF01C081E0682E1D
:10314000880F7708CC16DD06B4F0202F112319F074
:10315000AE01B70102C0A701BE0188E496E00E945B
:10316000F91FA818B908B7FE04C0E60CF71CA40C98
:10317000B51C2196E7CFDF91CF911F910F91FF9062
:10318000EF90DF90CF90BF90AF909F908F907F9007
:103190006F905F904F90089520914E06282329F458
:1031A00090914D06982381E009F480E008950097FE
:1031B00069F0FC0101900020E9F73197AF01481B4D
:1031C000590BBC018AE396E00C94751E80E090E0F8
:1031D00008958F929F92AF92BF920F931F93CF93B8
:1031E000DF93CDB7DEB7A1970FB6F894DEBF0FBE61
:1031F000CDBF19A2423008F44AE08E010F5D1F4F87
:10320000842E912CA12CB12CA50194010E94072F92
:10321000E62FB901CA0101501109EA3014F4E05D4A
:1032200001C0E95CD801EC93232B242B252B61F7FB
:10323000C8010E94D718A1960FB6F894DEBF0FBE42
:10324000CDBFDF91CF911F910F91BF90AF909F9015
:103250008F9008950C94D7180F931F93CF93DF93FB
:103260008C01C0E0D0E0F801EC0FFD1F64916623F3
:1032700071F0E0913A06F0913B060190F081E02D6B
:103280008AE396E00995892B11F02196ECCFCE01C7
:10329000DF91CF911F910F910895682F70E080E02A
:1032A00090E04AE00C94E918CF92DF92EF92FF92FF
:1032B000CF93DF936C01990FEE08FF08F7FE1FC054
:1032C000E0913A06F0913B060190F081E02D6DE22D
:1032D0008AE396E00995EC0166277727CB016C1904
:1032E0007D098E099F094AE00E94E9188C0F9D1FF5
:1032F000DF91CF91FF90EF90DF90CF9008954AE05B
:10330000C701B601DF91CF91FF90EF90DF90CF9092
:103310000C94E91880E0E8EAF1E081118FEF0024D5
:1033200081938193819381930394D1F7E4E4F6E050
:10333000128A118A108A17860895E8EAF1E080E07F
:10334000A0E0B8E000800EBC8111012C1197A0FD17
:10335000FDCF0192B9F70DB40895FC018091A7014A
:10336000811103C08FEF9FEF08959FB7F89482E01B
:103370008093E9002091F20030E01216130614F455
:1033800021E030E02115310559F0289884E680933A
:10339000A6018091F10080838091F200882319F0CA
:1033A0009FBFC90108958BE68093E800F9CF2FB73E
:1033B000F89483E08093E9009091E800892F80726F
:1033C00095FF04C09091F20080E4891B2FBF0895FF
:1033D0008F929F92AF92BF92CF92DF92EF92FF9225
:1033E0000F931F93CF93DF935C016B017A01809160
:1033F0000701882309F45BC08091A701882309F4A1
:1034000056C08091A50180FF05C08091E0008260D8
:103410008093E000E70110E00AEF83E0882E9AE352
:10342000992E2097D9F10E94D71981110AC0015015
:1034300009F43DC061E070E080E090E00E94251F4B
:10344000F0CF282F30E0C217D3070CF48C2F4FB7E2
:10345000F8948092E9009091E80095FF1DC0282F14
:1034600030E0C21BD30BF601982F915020F08191D0
:103470008093F100FACFC20ED31E112319F090925F
:10348000E80009C08091E80085FD06C09092E80040
:1034900011E0209709F010E04FBFC3CF1111C3CF47
:1034A0005D9884E68093A4011E141F0444F081E01B
:1034B00090E0F5019383828380E090E001C0C70132
:1034C000DF91CF911F910F91FF90EF90DF90CF9000
:1034D000BF90AF909F908F90089580915F0681116B
:1034E0000DC082E080935B0684E080935C061092BE
:1034F0005E0610925D0681E080935F068BE596E0A4
:103500000895CF93DF931F92CDB7DEB76983DC01B7
:10351000ED91FC910280F381E02D41E050E0BE018D
:103520006F5F7F4F09950F90DF91CF91089583E0F2
:103530008093E9008091F200882319F08AE3809358
:10354000E8000895FC018485958597FD0BC09FB721
:10355000F89482E08093E9008091F2009FBF90E0B0
:10356000019608959FB7F89482E08093E9008091D6
:10357000F2009FBF90E008954091BB065091BC06B9
:103580002091B9063091BA0642175307B4F49091CE
:10359000E8009570E1F39091E80092FD19C08093E6
:1035A000F1008091BB069091BC0601968F7399271C
:1035B000892B19F48EEF8093E8008091BB069091DF
:1035C000BC0601969093BC068093BB0681E00895EB
:1035D00080E00895CF92DF92EF92FF920F931F93B6
:1035E000CF93DF931F92CDB7DEB7182F062FE42EAF
:1035F000862F880F8E5F99830E94BC1A83E00E94F9
:10360000BC1AF12EC12E9981D92E8C2D8F198017BD
:1036100098F4F601E7FE02C0849101C080810E9407
:10362000BC1A182F80E00E94BC1A8123FFEFCF1A2A
:10363000DF0A8111EACF01C081E00F90DF91CF91C5
:103640001F910F91FF90EF90DF90CF900895DF9240
:10365000EF92FF920F931F93CF93DF93D82E8A019F
:103660007B01E40EF51EEB01CE15DF0571F0D7FEF0
:1036700003C0FE01849101C088810E94BC1A21967A
:103680008111F2CF8FEF9FEF01C0C801DF91CF9181
:103690001F910F91FF90EF90DF900895615030F0EF
:1036A0002091F100FC0120830196F8CF289884E650
:1036B0008093A60108950E94D71990E00895CF93B2
:1036C000DF931F92CDB7DEB7FC018485958597FD0A
:1036D00005C02FEF3FEF358724870BC0CE01019641
:1036E0000E94AD19019719F4898190E002C08FEF13
:1036F0009FEF0F90DF91CF9108950F931F93CF937A
:10370000DF931F92CDB7DEB78C01FC0184859585D0
:1037100097FF0EC0CE0101960E94AD19019719F4D2
:10372000298130E002C02FEF3FEFF8013587248771
:10373000F801848595850F90DF91CF911F910F91AE
:1037400008950F931F93CF93DF931F92CDB7DEB7EA
:1037500082E0898342E450E06FEE78E180E80E94E5
:10376000271B0E946D1ADC0112960D911C91139774
:103770000115110569F0D801ED91FC910280F381EA
:10378000E02DBE016F5F7F4FC801099597FF07C00D
:1037900089810F90DF91CF911F910F910895F801CA
:1037A00000851185E5CF1F920F920FB60F9211245D
:1037B0008F939F938091E1009091E100937F90938C
:1037C000E10083FF0FC01092E90091E09093EB00BD
:1037D0001092EC0092E39093ED001092A70198E014
:1037E0009093F00082FF20C093E09093E9009091C5
:1037F000F200992319F09AE39093E8009091A401C4
:10380000992339F09091A40191509093A4019923A8
:1038100089F19091A601992339F09091A6019150D8
:103820009093A601992341F184FF10C08091E2009A
:103830008E7E81608093E2008091E1008F7E809394
:10384000E1008091A5018E7E806111C080FF16C0CD
:103850008091E2008E7E80618093E2008091E100A1
:103860008E7E8093E1008091A5018E7E81608093A1
:10387000A50104C05D9ACDCF289AD6CF9F918F9194
:103880000F900FBE0F901F9018951F920F920FB6BA
:103890000F921124CF92DF92EF92FF920F931F931A
:1038A0002F933F934F935F936F937F938F939F9348
:1038B000AF93BF93EF93FF93CF93DF93CDB7DEB773
:1038C0006C97DEBFCDBF1092E9008091E80083FFC6
:1038D000EDC168E0CE0145960E944E1B82EF8093B9
:1038E000E8008D8987FF05C09091E80090FFFCCF2C
:1038F00003C09EEF9093E800982F907609F0C6C021
:103900009E892F89188D91110CC0803829F48091DF
:10391000B8068093F10002C01092F1001092F100FD
:1039200048C1422F50E0512B913051F4811141C1D7
:103930004130510509F03DC18091B8068D7F0BC023
:10394000933061F4811135C14130510509F031C125
:103950008091B80682608093B8062BC1953041F4FF
:103960008091E80080FFFCCF20682093E30021C114
:10397000963009F05FC0EB8CFC8C1092E90010923D
:10398000BC061092BB06123091F51092BA06109246
:10399000B9060E94A11B99E0BE016F5F7F4FDB015A
:1039A000E92F1D92EA95E9F799831A8391E09E83A6
:1039B00090EA98879AEF99872091BB063091BC06D0
:1039C000275F3F4F3C832B838D831092E900109239
:1039D000BC061092BB06F092BA06E092B90649E026
:1039E00050E080E00E94271B0E94A11BE2C0F092E1
:1039F000BA06E092B9060E946D1ADC011296ED90AB
:103A0000FC901397E114F10409F4C0C0D701ED91C3
:103A1000FC910480F581E02DBE016B5E7F4FC701F4
:103A20000995009719F00CF0C4C0C7C0F701E084F5
:103A3000F184E8CF973009F4C0C0983021F481E0D8
:103A40008093F100B6C0993009F0B3C0837009F0DB
:103A5000B4C0E3E4F1E081E021E036E39081992312
:103A600061F08093E9002093EB0091919093EC003A
:103A70003093ED008F5F873089F78EE78093EA00FF
:103A80001092EA008F898093A70193C08B8D9C8D43
:103A90001092E9001092BC061092BB069093BA06F1
:103AA0008093B906898D811156C08E899D89913A7E
:103AB00059F4813209F081C047E050E060E071E0E4
:103AC00080E00E94271B75C0913209F076C08332D6
:103AD00089F4888D90E0982F88272F89822BA0E089
:103AE000B0E08093080190930901A0930A01B0937C
:103AF0000B015FC0803269F48091E80082FFFCCF47
:103B000067E080E091E00E944E1B8BEF8093E8001D
:103B100006C0823209F04DC08F89809307018091E1
:103B2000B706882319F0EEEFFAE002C0E0E0F8E013
:103B30008091000190910101A0910201B0910301D7
:103B4000803B9440A105B10509F07BC0809107013D
:103B500080FF93C076C00E946D1ADC0112960D9111
:103B60001C9113970115110541F1D801ED91FC91BC
:103B70000190F081E02DBE016B5E7F4FC801099579
:103B8000811117C0F80100851185ECCF113009F4BF
:103B90004EC0133091F48F89882309F445C08230D8
:103BA00081F440E860E183E599E10E94EA1A882304
:103BB00021F08EEF8093E80079C081E28093EB00E2
:103BC00075C0813029F440E86BE087E499E1EDCFDE
:103BD000833099F70E946D1ADC011296ED90FC90EB
:103BE00013978E010F5F1F4F6801E114F10479F004
:103BF000D701ED91FC910680F781E02DB801C70156
:103C00000995080F111DF701E084F184EECFD8016A
:103C10001C92F60101900020E9F73197BF016C1961
:103C20007D0940E0C601C1CF61E379E102C065E3EF
:103C300079E16115710509F2FB01449150E080E8DA
:103C400040CF0FB6F894A89580916000886180936A
:103C50006000109260000FBEA895EE3F2AE0F207C8
:103C600039F08091FE0A9091FF0A91838083A1CF61
:103C70001092FF0A1092FE0A9CCFEE3F8AE0F807EE
:103C800031F0808191819093FF0A8093FE0A87E74B
:103C900097E7918380839BE088E10FB6F894A8951D
:103CA000809360000FBE9093600083CF6C960FB638
:103CB000F894DEBF0FBECDBFDF91CF91FF91EF91A2
:103CC000BF91AF919F918F917F916F915F914F9134
:103CD0003F912F911F910F91FF90EF90DF90CF9028
:103CE0000F900FBE0F901F901895CF92DF92EF921A
:103CF000FF920F931F93CF93DF936C017A018B0197
:103D0000C0E0D0E0CE15DF0589F0D8016D918D01BE
:103D1000D601ED91FC910190F081E02DC60109954D
:103D2000892B11F47E0102C02196ECCFC701DF91EF
:103D3000CF911F910F91FF90EF90DF90CF9008955A
:103D40000895089580E090E008950E94522FEF9228
:103D50000F931F93CF93DF93FC0196816A3031F468
:103D6000858184836185960F968342C0262FEF015B
:103D7000848161E0690F2A334CF42033C4F42D327E
:103D8000C1F02E3281F0213241F515C02B352CF4D3
:103D900021345CF42F3339F120C09FE9920F9A311E
:103DA000E0F4275409C02FE307C0215405C02C5F5D
:103DB00003C021E401C02EE33F81062E000C770BE7
:103DC000082E000C990B313081F44AEFE42E00E00C
:103DD00010E04EEA52E20E942B1688858C5F9C818F
:103DE000890F8C8305C020E4E7CF3BEFE32EEFCFB4
:103DF00081E090E0DF91CF911F910F91EF900895B6
:103E00003FB7F8948091C0069091C106A091C20678
:103E1000B091C30626B5A89B05C02F3F19F00196A7
:103E2000A11DB11D3FBFBA2FA92F982F8827820F40
:103E3000911DA11DB11DBC01CD0142E0660F771F90
:103E4000881F991F4A95D1F708958F929F92AF923C
:103E5000BF92CF92DF92EF92FF926B017C010E94A2
:103E6000001F4B015C01C114D104E104F104F1F025
:103E70000E94001FDC01CB0188199909AA09BB091E
:103E8000883E9340A105B10570F321E0C21AD10824
:103E9000E108F10888EE880E83E0981EA11CB11C91
:103EA000C114D104E104F10419F7DDCFFF90EF90C4
:103EB000DF90CF90BF90AF909F908F9008951F920A
:103EC0000F920FB60F9211242F933F938F939F93CE
:103ED000AF93BF9380919E0190919F01A091A0010B
:103EE000B091A1013091BF0623E0230F2D3720F4BC
:103EF0000196A11DB11D05C026E8230F0296A11D44
:103F0000B11D2093BF0680939E0190939F01A093C3
:103F1000A001B093A1018091C0069091C106A0912B
:103F2000C206B091C3060196A11DB11D8093C006C3
:103F30009093C106A093C206B093C306BF91AF9100
:103F40009F918F913F912F910F900FBE0F901F90D7
:103F50001895BC0180E090E00C94251F8FB18095EE
:103F6000807F669B88601C9B84600895FC01840FA1
:103F7000911D18161906E4F5E038F105CCF5F7FFA8
:103F800002C0E0E0F0E08138910514F080E890E0B4
:103F9000382F3E1BAB0177FF02C0495F5F4F83E0C4
:103FA000559547958A95E1F75695542F442757958F
:103FB0004795E40FF51FE855FE4F6770772781E0BE
:103FC00090E001C0880F6A95EAF7482F222349F054
:103FD000213071F4315020F08081842B8193FACF0D
:103FE00008958095315020F0908198239193FACFD5
:103FF000089560387105D0F440345105B8F4E8EB09
:10400000F3E280E1849FD001A0781124A60F4770CD
:10401000E40FF11D8491A855BE4F222319F06C9135
:10402000862B03C080956C9186238C9308952F92E4
:104030003F924F925F926F927F928F929F92AF9238
:10404000BF92CF92DF92EF92FF920F931F93CF9385
:10405000DF93CDB7DEB729970FB6F894DEBF0FBE5A
:10406000CDBFFC016A3069F425898189928938E0E5
:10407000239F800D911D1124928B818B108A1786AE
:10408000AAC06D3009F4A7C099878887F58834885D
:104090002388618872880785108900381105C4F06B
:1040A000A885B98555962C915597422F50E01F96BB
:1040B0008D919C915097B6E02B9F800D911D1124FE
:1040C000E885F985908B8787268921116EC083C08A
:1040D000F0E46F16710424F7C80125E0F29E800D0C
:1040E000911D112418161906DCF68F2D90E09C8383
:1040F0008B83C301A8E0FA9E800D911D1124181630
:10410000190674F6B5E06B9FB0011124FB01E05471
:10411000FC4DFA83E98330E08885998504969E8377
:104120008D83E981FA81E490353009F4E12C430173
:1041300088E0482EE0FC02C0532C01C0522C5110E4
:104140000BC0321009C0E6944A948B819C81880E82
:10415000991E4110EFCF1BC068018C2D801B8F155D
:1041600090F754018A2D88198F1568F4252DA50123
:10417000B6018D819E813F830E94F91F9FEFA91A8E
:10418000B90A3F81EFCFAFEFCA1ADA0AE6CF3F5F35
:10419000EB81FC810E0F1F1F89819A8101969A8302
:1041A0008983363009F0BDCF7BCF6AEF640390017D
:1041B000659F300D112420583F4F281739075CF4B4
:1041C000A885B985ED91FC9111970190F081E02DC2
:1041D0006AE0CD01099581E090E029960FB6F89448
:1041E000DEBF0FBECDBFDF91CF911F910F91FF902A
:1041F000EF90DF90CF90BF90AF909F908F907F9087
:104200006F905F904F903F902F9008950F931F9362
:10421000CF93DF931F92CDB7DEB78C0169830E94E5
:10422000BF2E6981681741F0C8010F90DF91CF91CF
:104230001F910F910C94C72E0F90DF91CF911F917A
:104240000F9108950C94BF2ECF93DF93C091BD06BC
:10425000D091BE064EEA5EE160E070E0CE010E94C1
:104260008B144EEA5EE160E070E0CE0180589F4F13
:104270000E948B1480914B0690914C0665E070E093
:104280000E94382F892B71F42197C0388FEFD807FF
:1042900028F0D093BE06C093BD0604C01092BE069F
:1042A0001092BD06DF91CF91089525E0829FC00155
:1042B0001124FC01E855FA4F618712861386148693
:1042C000158610920B0610920C0610920D06109295
:1042D0000E0610920F068091AC0550E040E030E0F1
:1042E00020E0E5EBF5E090E060E0681791F0DF0199
:1042F00014977C91570F11967C91470F11967C91E2
:10430000370F11967C91270F7081970F6F5F35964D
:10431000ECCF50930B0640930C0630930D06209380
:104320000E0690930F0695E0823160F4989FF0019D
:104330001124E855FA4F11861286138614861586C5
:104340008F5FF2CF0895EF920F931F93EE24E394C3
:1043500006E61CE120E049E85DE162E070E08FE004
:1043600090E00E942B161F910F91EF9008950F93EC
:104370001F93CF93DF9300E010E0C8E1D0E020E08E
:10438000AE01B80188E496E00E94F91F2196CA3276
:10439000D105A9F70F5F1F4F0038110571F701E034
:1043A00029E130E040E850E069E170E080E090E031
:1043B0000E94451828E230E040E850E068E270E0F2
:1043C00080E090E00E944518DF91CF911F910F91FE
:1043D0000895EF920F931F93EE24E39404E619E1FE
:1043E00020E044EE5AE16EE270E080E090E00E944E
:1043F0002B161F910F91EF900895FC01623059F038
:1044000018F4613031F00895633039F0643039F0D8
:104410000895418308954283089543830895448312
:104420000895FC01623059F020F4613061F481811B
:104430000895633031F0643031F4848108958281CD
:1044400008958381089580E00895CF93DF9300D08D
:1044500000D0CDB7DEB7789484B5826084BD84B5D2
:10446000816084BD85B5826085BD85B5816085BD6F
:1044700080916E00816080936E0010928100809127
:1044800081008260809381008091810081608093AF
:1044900081008091800081608093800080919100F4
:1044A000826080939100809191008160809391005F
:1044B000809190008160809390008091C100846021
:1044C0008093C1008091C10082608093C10080917F
:1044D000C10081608093C1008091C300816080939E
:1044E000C3008091C00082608093C0008091C200B0
:1044F00081608093C20080917A00846080937A000A
:1045000080917A00826080937A0080917A00816045
:1045100080937A0080917A00806880937A0010926C
:10452000A7011092B8061092A5018091D700816072
:104530008093D70080EA8093D80089B5806189BDD7
:1045400089B5826089BD09B400FEFDCF61E070E0ED
:1045500080E090E00E94251F8091D8008F7C8061D0
:104560008093D8008091E000807F8093E00080916C
:10457000E1008E7E8093E1008DE08093E200559A09
:10458000209AEEEFFFE7859194918B3F9C4D19F4B3
:1045900081E08093B70681EC80937C0085B1806FC9
:1045A00085B984B1877E84B984B1876E84B95E9AF7
:1045B0005F988AB1806D8AB9769A6E9881B3806F60
:1045C00081BB899880B38D7080BB80E58CBD81E014
:1045D0008DBD85E090E00E94A91F5F9A85E090E084
:1045E0000E94A91F5E985C98EEEBF0E08DE08E0FC4
:1045F00094919EBD00000DB407FEFDCF31968E1341
:10460000F7CF5C9A81E880936400809165008160B7
:10461000809365000E94AE1F87FF24C05C9885EAE6
:104620008EBD00000DB407FEFDCF5C9A2E982F982A
:104630002D988091640080628093640081E083BF44
:10464000889513BEFCCF2D980E94AE1F84788438C5
:1046500071F00E94AE1F8471843129F188EC90E0E2
:104660000E94A91F0E94AE1F82FDEDCF38C02D9A77
:1046700088EC90E00E94A91F2F9882E090E00E94B1
:10468000BF2E8F3F29F06FEF82E090E00E94C72E8F
:1046900084EF91E00E94A91F2F9A0E94AE1F847898
:1046A0008438D9F3D6CF2D9A88EC90E00E94A91FC8
:1046B0002E9882E090E00E94BF2E882329F060E0CF
:1046C00082E090E00E94C72E84EF91E00E94A91F33
:1046D0002E9A0E94AE1F84718431D9F3BFCF2D9AD8
:1046E000809164008E7F8093640080917A00806462
:1046F00080937A0080917A0086FDFCCF009178004B
:10470000109179000E94001F20E030E098011127ED
:104710000027600F711F821F931F611571058105AE
:10472000910511F00E94B62E809164008160809303
:10473000640080E180934F061092310680E28093FE
:104740003206809333068093340680933506809337
:1047500036068093370684E790E00E942221182FC6
:1047600085E790E00E9422216091A805161304C0FD
:104770009091A905891761F084E790E00E940621D5
:104780006091A90585E790E00E9406210E944D15E1
:1047900086E790E00E94222180932C0687E790E034
:1047A0000E9422218093AA0588E790E00E9422219E
:1047B0008093AB0589E790E00E942221182F809317
:1047C000AC058AE790E00E9422218093AD058BE73B
:1047D00090E00E9422218093AE058CE790E00E9439
:1047E00022218093AF058DE790E00E9422218093E3
:1047F000B005A12CB12C00E06501F5E0CF0ED11C75
:10480000011749F1C50182589F4F0E942221F601EC
:10481000E855FA4F7F018483C50181589F4F0E945C
:104820002221F7018583C50180589F4F0E942221D4
:10483000F7018683C5018F579F4F0E942221F70100
:104840008783C5018E579F4F0E942221F7018087E1
:104850000F5F5601D1CF85E0123160F4819FF001E6
:104860001124E855FA4F1186128613861486158690
:104870001F5FF2CF88ED90E00E94222180930B060B
:1048800089ED90E00E94222180930C068AED90E051
:104890000E94222180930D068BED90E00E94222140
:1048A00080930E068CED90E00E94222180930F06EB
:1048B0000DED10E0C8010E942221F801ED5CFA4FD5
:1048C00080830F5F1F4F043E1105A1F7C8010E94AE
:1048D0002221F801ED5CFA4F80830F5F1F4F0B3EE2
:1048E0001105A1F7C8010E942221F801ED5CFA4FE1
:1048F00080830F5F1F4F023F1105A1F7C8010E947F
:104900002221F801ED5CFA4F80830F5F1F4F093FB2
:104910001105A1F786E1C82E85E296E026E0280F72
:10492000298312E7F12E07E3D02E8FB7F894409138
:104930009E0150919F016091A0017091A1018FBFD4
:1049400080915006342F381B832F90915106992364
:1049500031F030935206109251060C94242D909110
:104960004F06391758F48F5F891710F00C94242DD7
:1049700081E083BF889513BE0C94242D91E0909321
:1049800051064093500680914B0690914C0601963B
:1049900090934C0680934B060E948A1980914D0695
:1049A00080934E060E94AE1F80934D060E948A1986
:1049B000E0912C068E2F90E08930910510F00C9438
:1049C000222DFC01EA5AFF4F0C944C2FE1E0E093BA
:1049D0002D0682E080932E0683E080932F0684E0EC
:1049E000809330064090AA05E12C512C4201F1E061
:1049F0008F1A910822C74FEE54E160E070E080E02A
:104A000090E00E948B1400E010E0E090A30120E011
:104A10004E2DB80180E090E00E94B61FB8016F5F94
:104A20007F4F20E04E2D80E890E08E1991090E9482
:104A3000B61F0E5F1F4F0034110539F7E7FE02C0A5
:104A40000C942E2DE394E394E092A301FBC70E9403
:104A500024210E94E921EE24E3940DEE1CE020E0E5
:104A60004DEE50E160E070E080E090E00E942B1697
:104A700000E010E0E090A30120E04E2DB80180E0BE
:104A800090E00E94B61FB8016F5F7F4F20E04E2D6F
:104A900080E890E08E1991090E94B61F0E5F1F4FAB
:104AA0000034110539F7EE2021F08CEF8E0D809344
:104AB000A301B090A201BB20C1F021E0B2122DC031
:104AC000EBEFEE2E00E010E020E046EE5CE067E366
:104AD00070E089E490E00E942B16FAEFEF2E20E0C0
:104AE0004FED5CE067E370E014C0ABEFEA2E00E04E
:104AF00010E020E046EE5CE06FE270E089E490E0D8
:104B00000E942B16BAEFEB2E20E04FED5CE06FE237
:104B100070E089E490E00E942B1680E80E94CC1897
:104B2000882321F031E0B31609F49FC780E10E9489
:104B3000CC18882329F08091A201882309F498C712
:104B400088E00E94CC18882309F47CC78091A201D8
:104B50008823C1F0813009F075C783E08093AD05EB
:104B60001092AE051092AF051092B00510920B0690
:104B700010920C0610920D0610920E0610920F065F
:104B800086E03AC083E08093AD051092AE051092A6
:104B9000AF051092B00510920C0610920D061092FF
:104BA0000E0610920F0682E18093AC0580E090E043
:104BB00024E0FC01E855FA4F2187128613861486FB
:104BC000158605968A359105A1F788E480930B0632
:104BD00081E08093AA058093AB05E5E2F6E080E2F0
:104BE000DF0155978C9317968C9317968C9381932E
:104BF00099819E13F5CF82E080932C060E944D157B
:104C000080E88093A3011EC70E9424210E94E9210D
:104C10000E94A3210E94B72186E080933F068093E3
:104C20003E068DE18093400689E491E00E942A19B6
:104C30006091AA0570E080E090E04AE00E94E918E7
:104C40008CE591E00E94D71880914B0690914C061C
:104C50008F739927809758F401E025E230E043E60E
:104C600050E065E270E080E690E00E944518809197
:104C70004B0690914C0687709927892B59F40E9416
:104C8000AE1F87FFDBC68091AA05843008F0D6C628
:104C90008F5FF7C688E00E94CC18882311F083E06C
:104CA000A7C184E00E94CC18882309F4CBC6E1E0B8
:104CB000E0932C06B2C484E080932C060E944D152C
:104CC0008091AB058230E9F068F48130B9F510923B
:104CD00031068091100690911106A0911206B091B4
:104CE000130624C08330C1F0843041F510923106A0
:104CF0008091250690912606A0912706B09128065E
:104D000015C0109231068091170690911806A09157
:104D10001906B0911A060AC01092310680911E063B
:104D200090911F06A0912006B09121068093320633
:104D300090933306A0933406B09335060E94242145
:104D40000E94E9210E94A3210E94B72186E080935E
:104D50003F0680933E068DE18093400687ED9CE000
:104D60000E942C198091AB050E944D198FEC9CE09C
:104D70000E942C1962E3A62E66E0B62E10E07DE1BB
:104D8000E72E2A2D82E396E0281B82E5810F80938F
:104D90003F0680933E06E092400680914B0690913C
:104DA0004C068F739927809728F4809131068217DB
:104DB00009F46AC6F50161915F01E0913A06F0914C
:104DC0003B060190F081E02D8AE396E009951A5F99
:104DD0001432B9F61091310680914B0690914C0631
:104DE00087709927892B09F03FC00E94AE1F87FF6B
:104DF0001CC0E12FF0E0EF5CF94F81818A3589F02A
:104E000034F4803261F08CF081346CF40EC0813661
:104E100064F08A3744F08A3741F480E205C081E4C7
:104E200003C081E601C08F5F81830E94AE1F84FFB3
:104E30001BC0E12FF0E0EF5CF94F81818B3544F42A
:104E4000823484F4803251F0813471F480E20BC0FA
:104E5000813631F04CF08B372CF006C08AE703C066
:104E60008AE501C08150818380E20E94CC188823AA
:104E700039F080913106882319F0815080933106F2
:104E800080E40E94CC18882339F080913106853067
:104E900018F48F5F8093310684E00E94CC18882339
:104EA000A1F08091AB05823058F083E080932C060E
:104EB0000E944D158091AB0581508093AB0505C0D4
:104EC00082E080932C060E944D1588E00E94CC1849
:104ED000882309F4B7C51091AB05123089F038F476
:104EE0001130C9F462E376E080E196E012C013303D
:104EF00061F0143081F462E376E085E296E009C067
:104F000062E376E087E196E004C062E376E08EE15A
:104F100096E00E94572F8091AA05181758F483E055
:104F200080932C060E944D158091AB058F5F809376
:104F3000AB0588C5F5E0F0932C066FC30E942421D1
:104F40000E94E9210E94A3210E94B72186E080935C
:104F50003F0680933E068DE1809340068FE591E009
:104F60000E942A196091AC0570E080E090E04AE070
:104F70000E94E9188CE591E00E94D71880914B06B9
:104F800090914C068F739927809790F48091AC058F
:104F90008A3018F04EE550E002C049E550E001E0EB
:104FA00025E230E065E270E086E590E00E94451879
:104FB00080914B0690914C0687709927892B91F42C
:104FC0000E94AE1F87FF71C58091AC05823108F049
:104FD0006CC564E00E9455218091AC058F5F809381
:104FE000AC0530C588E00E94CC18882321F086E00B
:104FF00080932C0612C384E00E94CC18882309F405
:1050000021C54DCE87E080932C060E944D1552E0BD
:10501000E52E00E010E020E04DEC58E060E070E0AC
:1050200080E090E00E942B1621E020933F06209321
:105030003E06C092400680E196E00E942A198091C7
:10504000AA05823060F031E030933F0630933E068F
:1050500081E28093400687E196E00E942A198091C0
:10506000AA05833060F081E080933F0680933E067E
:105070008CE2809340068EE196E00E942A1980918E
:10508000AA05843058F091E090933F0690933E0635
:10509000D092400685E296E00E942A198091AD05E3
:1050A00090E08C30910514F02CE201C02EE22093A8
:1050B0003F0620933E061092400602970E94541924
:1050C0008091AD0590E08B30910514F02CE301C088
:1050D0002EE320933F0620933E0610924006019750
:1050E0000E9454198091AD058A3010F09CE401C0F3
:1050F0009EE490933F0690933E06109240060E94D5
:105100004D19109241068091AD0590E0039725E07E
:10511000289FF001299FF00D1124E855FA4F818551
:105120008A3010F09CE201C09EE290933F0690937B
:105130003E063BE0309340060E944D198091AD053C
:1051400090E0029725E0289FF001299FF00D11249F
:10515000E855FA4F81858A3010F09CE301C09EE348
:1051600090933F0690933E063BE0309340060E94AA
:105170004D198091AD0590E0019725E0289FF00141
:10518000299FF00D1124E855FA4F81858A3010F0DF
:105190009CE401C09EE490933F0690933E063BE062
:1051A000309340060E944D1981E080934106809122
:1051B000AD0590E0039725E0289FF001299FF00DB1
:1051C0001124E855FA4F82858A3010F09CE201C024
:1051D0009EE290933F0690933E06C09240060E9446
:1051E0004D198091AD0590E0029735E0389FF001B0
:1051F000399FF00D1124E855FA4F82858A3010F05E
:105200009CE301C09EE390933F0690933E06C092BC
:1052100040060E944D198091AD0590E0019725E070
:10522000289FF001299FF00D1124E855FA4F82853F
:105230008A3010F09CE401C09EE490933F06909366
:105240003E06C09240060E944D19F0923F06F09231
:105250003E06C092400680910C060E944D19809136
:10526000AA05823008F45BC08091AD0590E00397F9
:1052700035E0389FF001399FF00D1124E855FA4FC1
:1052800083858A3010F09CE201C09EE290933F0635
:1052900090933E0691E2909340060E944D198091B2
:1052A000AD0590E0029725E0289FF001299FF00DC1
:1052B0001124E855FA4F83858A3010F09CE301C031
:1052C0009EE390933F0690933E0691E290934006B2
:1052D0000E944D198091AD0590E0019735E0389F0F
:1052E000F001399FF00D1124E855FA4F83858A307B
:1052F00010F09CE401C09EE490933F0690933E061C
:1053000011E2109340060E944D19F0923F06F09270
:105310003E061093400680910D060E944D19809123
:10532000AA05833008F45BC08091AD0590E0039737
:1053300025E0289FF001299FF00D1124E855FA4F30
:1053400084858A3010F09CE201C09EE290933F0673
:1053500090933E069CE2909340060E944D198091E6
:10536000AD0590E0029735E0389FF001399FF00DD0
:105370001124E855FA4F84858A3010F09CE301C06F
:105380009EE390933F0690933E069CE290934006E6
:105390000E944D198091AD0590E0019725E0289F6E
:1053A000F001299FF00D1124E855FA4F84858A30C9
:1053B00010F09CE401C09EE490933F0690933E065B
:1053C0001CE2109340060E944D19F0923F06F092A5
:1053D0003E061093400680910E060E944D19809162
:1053E000AA05843009F058C08091AD0590E003977C
:1053F00035E0389FF001399FF00D1124E855FA4F40
:1054000085858A3010F09CE201C09EE290933F06B1
:1054100090933E06D09240060E944D198091AD05B2
:1054200090E0029725E0289FF001299FF00D1124BC
:10543000E855FA4F85858A3010F09CE301C09EE361
:1054400090933F0690933E06D09240060E944D19DD
:105450008091AD0590E0019735E0389FF001399FCC
:10546000F00D1124E855FA4F85858A3010F09CE440
:1054700001C09EE490933F0690933E06D092400672
:105480000E944D19F0923F06F0923E06D0924006DF
:1054900080910F060E944D198091B005882321F05C
:1054A000813009F4BDC0CEC28091AF05EE24E394F3
:1054B000811101C0E12C90E00197EBE0E89F4001F1
:1054C000E99F900C112484010B5E1F4FA090AE0544
:1054D000F0E1AF9E10011124210129E2420E511C7E
:1054E0000034110534F42E2D4FE0B801C2010E94A2
:1054F000B61FB401625E7F4F603471052CF42E2D0F
:105500004FE0C2010E94B61F34013FE1630E711CDF
:1055100017FF02C000E010E05801430191E4691652
:1055200071041CF040E4842E912CA814B9045CF49E
:105530002E2DA501B20188E496E00E94F91F8FEF9D
:10554000A81AB80AEACF5101E7E3AE0EB11C08155C
:10555000190554F42E2DA801B50188E496E00E94A7
:10556000F91F0F5F1F4FF3CF80914B0690914C06B0
:1055700087709927892B09F047C00E94AE1F87FFCB
:1055800004C08091AF0581119FC20E94AE1F84FFAD
:1055900007C08091AF059091AA05891708F49AC2B7
:1055A0000E94AE1F85FF15C08091AE05882321F0B3
:1055B00081508093AE050BC08091AD05843020F002
:1055C00081508093AD0503C0F5E0F0932C060E9456
:1055D0004D150E94AE1F86FF17C08091AE05823028
:1055E00020F48F5F8093AE050DC08091AD05909142
:1055F000AC05891720F48F5F8093AD0503C088E068
:1056000080932C060E944D1588E00E94CC188823B8
:1056100009F418C221E02093B0050E944D1512C272
:1056200080914B0690914C068F7399278097E0F4F8
:105630002091AF058091AE0590E0019634E0880F8F
:10564000991F3A95E1F73BE0239FB00111246D5E6D
:105650007F4F01E0211101C000E0AC014A5D5F4FC6
:105660009B014A960E94451880914B0690914C06EA
:1056700087709927892B09F0B3C00E94AE1F87FF5E
:1056800020C08091AF0581111CC02091AD05809193
:10569000AE0590E00397820F911D25E0289FF00151
:1056A000299FF00D1124E855FA4F81858A3038F48E
:1056B0008F5F818780910B068F5F80930B060E941E
:1056C0004D150E94AE1F84FF20C08091AF0581114F
:1056D0001CC02091AD058091AE0590E00397820F2C
:1056E000911D35E0389FF001399FF00D1124E855E8
:1056F000FA4F8185823038F08150818780910B0686
:10570000815080930B060E944D150E94AE1F87FFAB
:1057100032C0E090AF05EE2071F12091AD0580918F
:10572000AE0590E00397820F911DE5E0E89F8001B0
:10573000E99F100D11240F541A4F6E2DC8010E94BD
:105740001122B82E6E2D8BE096E00E941122A82E19
:10575000F9E0FB1580F041E04B0D6E2DC8010E9471
:10576000FD2141E04A0D6091AF058BE096E00E947B
:10577000FD210E944D150E94AE1F84FF31C0E090B4
:10578000AF05EE2069F12091AD058091AE0590E066
:105790000397820F911D25E0289F8001299F100DFE
:1057A00011240F541A4F6E2DC8010E941122B82ED9
:1057B0006E2D8BE096E00E941122A82EBB2081F076
:1057C0004FEF4B0D6E2DC8010E94FD214FEF4A0D8A
:1057D0006091AF058BE096E00E94FD210E944D157F
:1057E00088E00E94CC18882309F42CC11092B005DF
:1057F00014CFC801835D994F3C01FC012081822FA9
:105800002C830E940216382F025D194FF801408147
:10581000842F3A834B830E9402163A812C814B815C
:10582000831720F4F3014083F80120832394022D91
:1058300010E00A151B05ECF2E3942E2D30E028153C
:10584000390544F4212C5201A21AB30AF1E0AF1A2F
:10585000B108EDCF0E942421EE24E3940BEC10E07C
:1058600020E04BEC54E060E070E080E090E00E94CB
:105870002B1682E080933F0680933E0610924006EE
:1058800080E791E00E942A1980910B060E944D1931
:1058900010E110933F0610933E0687E08093400688
:1058A00088E891E00E942A1910933F0610933E0663
:1058B0008AE1B82EB092400680912D060E941916FA
:1058C0000E942A1992E4E92EE0923F06E0923E06F9
:1058D000B092400680912D060E9402160E944D193A
:1058E00001E600933F0600933E06B0924006809189
:1058F0002D060E94021690E020910B06821B910952
:105900000E9454198091AA05823050F110933F06ED
:1059100010933E0614E21093400680912E060E94DA
:1059200019160E942A19E0923F06E0923E06109353
:10593000400680912E060E9402160E944D19009387
:105940003F0600933E061093400680912E060E946B
:10595000021690E020910B06821B91090E945419B7
:105960008091AA05833068F180E180933F0680939F
:105970003E061EE21093400680912F060E941916E3
:105980000E942A1982E480933F0680933E0610937A
:10599000400680912F060E9402160E944D1981E652
:1059A00080933F0680933E061093400680912F0619
:1059B0000E94021690E020910B06821B91090E9422
:1059C00054198091AA05843068F180E180933F06E4
:1059D00080933E0618E310934006809130060E94A3
:1059E00019160E942A1982E480933F0680933E068E
:1059F00010934006809130060E9402160E944D19B5
:105A000081E680933F0680933E0610934006809186
:105A100030060E94021690E020910B06821B91092D
:105A20000E94541984E00E94CC18882329F087E052
:105A300080932C060E944D1588E034C90E94AE1F49
:105A400084FD1AC00E949D1920E030E0232B11F440
:105A50000C9495240E9400000C94912480E880937B
:105A6000A30131E030932C06D8CD1092A2015EC87C
:105A700081E08093A20164C88091AA05823010F36E
:105A800081508093AA05DECFE6E08E9FC0011124ED
:105A9000AC014B5A5F4F01E025E230E065E270E077
:105AA0008E5A9F4F0E94451885C90E94AE1F84FFE1
:105AB000C9CF8091AC05843028F281508093AC0529
:105AC00060E00E945521BECF81508093AF050E94B7
:105AD0004D155BCD8F5F8093AF050E944D1560CD56
