:100000000C94B20D0C94DA0D0C94DA0D0C94DA0DFC
:100010000C94DA0D0C94DA0D0C94DA0D0C94DA0DC4
:100020000C94DA0D0C94DA0D0C948E180C940019C3
:100030000C94DA0D0C94DA0D0C94DA0D0C94DA0DA4
:100040000C94DA0D0C94DA0D0C94DA0D0C94DA0D94
:100050000C94DA0D0C94DA0D0C94DA0D0C946D0EF0
:100060000C94DA0D0C94DA0D0C94DA0D0C94DA0D74
:100070000C94DA0D0C94DA0D0C94DA0D0C94DA0D64
:100080000C94DA0D0C94DA0D0C94DA0D0C94DA0D54
:100090000C94DA0D0C94DA0D0C94DA0D0C94DA0D44
:1000A0000C94DA0D0C94DA0D0C94DA0D081E351E42
:1000B0007C1EA91EEC1EE71F1E2023208523F0F8BE
:1000C0009C8E8783878E9CF8F00000FEFF0303035D
:1000D0000303070EFCF80000FEFF030303030307FE
:1000E0000EFCF80000FFFF00000000000000FFFF12
:1000F0000000FEFF8383838383C7EE7C380000F813
:10010000FC0E07030303070EFCF800003F7FE0C06E
:100110008080C0E07F3FFFFF01010101010101FF7D
:10012000FF0000FFFF0C0C0C0C1C3E77E3C100002D
:100130007FFFC0C0C0C0C0E0703F1F00001F3F7005
:10014000E0C0C0C0E0703F1F00007FFFC1C1C1C15F
:10015000C1E3773E1C00001F3F70E0C0C0C0E070EC
:100160003F1F000000000001FFFF01000000D5F06C
:100170008D14A1C881CFD9F1AF2000007E08087E80
:10018000003844443800427E40000038545458003F
:100190000000000078EEFEBBEFFFDB7E86780000FB
:1001A0000000007F000000000000000000000000D0
:1001B0000000007F000000000000000000000000C0
:1001C0000000007F000000000000000000000000B0
:1001D0000000007F00FF00000000000002027E021D
:1001E000023844443800043E44400020545478000F
:1001F000427E400000000000000000FD0D6D6D9D7E
:10020000FDFD5D5D3DFD1DBDDDBDFDFDFDFDFDFD9E
:10021000FDFDFDFDFE7DF50BFB5AAAF5FDFEFDFD86
:10022000FDFDFD05FDFDFDFDFDFDFDFDFDFDFDFDF6
:10023000FDFDFD05FDFDFDFDFDFDFDFDFDFDFDFDE6
:10024000FDFDFD05FDFDFDFDFDFDFDFDFDFDFDFDD6
:10025000FDFDFD05F8F265EAEAEAEAEAEAEAEAEA19
:10026000EAEAEA6AEAEAEAEAEAEA6AEAEAEA6AEA6E
:10027000EAEAEAEA6AEAEAEAEA6AEA2F2C2F2F2F88
:100280002F2E2D2D2C2F2C2F2F2F2F2E2D2E2E2D90
:100290002D2E2D2E2C2F2C2C2D2E2D2D2E2D2D2E8A
:1002A0002D2C2F882F2F2F2F2F2F2F2F2F2F2F2F0A
:1002B0002F2F2F882F2F2F2F2F2F2F2F2F2F2F2FF5
:1002C0002F2F2F882F2F2F2F2F2F2F2F2F2F2F2FE5
:1002D0002F2F2F882F2C2F2C2D2E2E2D2D2E2D2DE8
:1002E0002E2D2C2F2E2D2D2E2D2C2F2C2D2E2F2C38
:1002F0002D2E2D2C2F2C2D2E2C2F2E80808080808B
:1003000080808080808080808080808080808080ED
:1003100080808080808080808080808080808080DD
:10032000808000AA008080808080808080808080A3
:10033000808000AA00808080808080808080808093
:10034000808000AA00808080808080808080808083
:10035000808000AA00808080808080808080808073
:10036000808080808080808080808080808080808D
:1003700080808080808080808080800000000000FD
:10038000000000000000000000000000000000006D
:10039000000000000000000000000000000000005D
:1003A000000000AA000000000000000000000000A3
:1003B000000000AA00000000000000000000000093
:1003C000000000AA00000000000000000000000083
:1003D000000000AA00000000000000000000000073
:1003E000000000000000000000000000000000000D
:1003F00000000000000000000000000404040404E9
:1004000004040404040404040404040404040404AC
:10041000040404040404040404040404040404049C
:10042000040400AA000404040404040404040404EE
:10043000040400AA000404040404040404040404DE
:10044000040400AA000404040404040404040404CE
:10045000040400AA000404040404040404040404BE
:10046000040404040404040404040404040404044C
:1004700004040404040404040404042020202020B0
:10048000202020202020202020202020202020206C
:10049000202020202020202020202020202020205C
:1004A000202000AA00202020202020202020202002
:1004B000202000AA002020202020202020202020F2
:1004C000202000AA002020202020202020202020E2
:1004D000202000AA002020202020202020202020D2
:1004E000202020202020202020202020202020200C
:1004F000202020202020202020202000000000009C
:1005000000000000000000000000000000000000EB
:1005100000000000000000000000000000000000DB
:10052000000000AA00000000000000000000000021
:10053000000000AA00000000000000000000000011
:10054000000000AA00000000000000000000000001
:10055000000000AA000000000000000000000000F1
:10056000000000000000000000000000000000008B
:100570000000000000000000000000206E616D65BA
:100580003F2000506C61796572200000000000007F
:1005900000000000000000000000000000F8FCFE69
:1005A000FF070787C7C7CFCF86C0C0C0C0C0C0FE87
:1005B000FFFFFEFFFFFFC7C78F0F06000000000010
:1005C000000000000000000000000000FCFEFFFF33
:1005D000070707071F3F3E9CC0C0C0C0C0C08FDFD9
:1005E000BFFFF0F0F0F1FFFFFFFFFFFFF1FF7FFF24
:1005F000FFFFFFFFFFFFFFC181C0C080A0F0F0A0A0
:10060000C0C0C0C0C0C080C080C0C080001F3F7FCD
:100610007F70707070787C3C3F7F7F717F7F7F3F01
:100620007F7F3F7F7F3F7F7FFFFFFFF17F7F3F1F08
:100630003F7F7F713F7F7F3F7F7F3F7F7F3F7F7F18
:100640003F7F7F717F7F7F3F7F7F3F7F7F3F0000C6
:10065000000000000000000000000000000000009A
:100660000000000000000000000001010000000088
:10067000000000000000000000000000000000007A
:100680000000000000000000000000000000004129
:100690001900000000000000000000000000000041
:1006A00000000000F8FC06020202828286860080BA
:1006B000808080808000FEFE00FEFE828282060630
:1006C000000000000000000000000000000000002A
:1006D000000000FCFE0602020202061E1C008080D2
:1006E00080808080008F1FB0A020A0A0203FBF800E
:1006F000BFA0A0203F3F80BFBF803FBF00800080E1
:10070000800000A0A0008080808080800080008029
:10071000800000001F3F3020202020203818003F9C
:100720002020203F3F003F3F003F3F003F3F00FF72
:10073000E020203F1F001F3F2020103F3F003F3F91
:10074000003F3F003F3F003F2020203F3F003F3F12
:10075000003F3F000000000000000000000000001B
:100760000000000000000000000000000000000089
:100770000000000000000000000000000000000079
:100780000000000000000000000000000000000069
:100790000000000000000000000000000000000059
:1007A0000000000000000000000000000000000049
:1007B0000000000000000000000000000000000039
:1007C0000000000000000000000000000000000029
:1007D0000000000000000000000000000000000019
:1007E0000000000000000000000000000000000009
:1007F00000000000000000000000000000000000F9
:1008000000000000000000000000000000000000E8
:1008100000000000000000000000000000000000D8
:1008200000000000000000000000000000000000C8
:1008300000000000000000000000000000000000B8
:1008400000000000808080808080000000008080A8
:100850008080808080800000000000000000000098
:100860000000000000000000000000000000000088
:100870000000000000000000000000000000000078
:100880000000000000000000000000000000000068
:100890000000000000000000000000000000000058
:1008A0000000000000000000000000000000000048
:1008B0000000000000000000000000000000000038
:1008C00000020A2AA8A38F3FFFFFFEF08000FFFF6F
:1008D000FFFFFFFFFF070000000000008080808016
:1008E000C0C0008000000000000000000000000008
:1008F00000000000000000000000000000000000F8
:1009000000000000000000000000000000000000E7
:1009100000000000000000000000000000000000D7
:1009200000000000000000000000000000000000C7
:1009300000000000000000000000000000000000B7
:100940000000000000020A0A28A3871F7FFCFFFFA7
:10095000FFFFFF7F01F0F8FCFE06A30B07073F0F28
:10096000230802000000000000000000000000005A
:100970000000000000000000000000000000000077
:100980000000000000000000000000000000000067
:100990000000000000000000000000000000000057
:1009A0000000000000000000000000000000000047
:1009B0000000000000000000000000000000000037
:1009C00000000000000000000000020A28A1871FAC
:1009D0007FFF1F0080F1F3F3636322B21E20280023
:1009E0000000000000000000000000000000000007
:1009F00000000000000000000000000000000000F7
:100A000000000000000000000000000000000000E6
:100A100000000000000000000000000000000000D6
:100A200000000000000000000000000000000000C6
:100A300000000000000000000000000000000000B6
:100A40000000000000000000080808C808884A8A62
:100A500048480888498908CA480948C84808080811
:100A60000000000000000000000000000000000086
:100A70000000000000000000000000000000000076
:100A80000000000000000000000000000000000066
:100A90000000000000000000000000000000000056
:100AA0000000000000000000000000000000000046
:100AB0000000000000000000000000000000000036
:100AC0000000000000000000000000000300000221
:100AD0000303000102010003010000030000000005
:100AE0000000000000000000000000000000000006
:100AF00000000000000000000000000000000000F6
:100B000000000000000000000000000000000000E5
:100B100000000000000000000000000000000000D5
:100B200000000000000000000000000000000000C5
:100B300000000000000000000000000000000000B5
:100B400000000000000000000000000000000000A5
:100B50000000000000000000000000000000000095
:100B60000000000000000000000000000000000085
:100B70000000000000000000000000000000000075
:100B80000000000000000000000000000000000065
:100B900000000000000000000000F0FCFEFEFFFF6F
:100BA000FFFFFEFEFCF0000000000000000000005F
:100BB0000000000000000000000000000000000035
:100BC0000000000000000000000000000000000025
:100BD0000000000000000000000000000000000015
:100BE0000000000000000000000000000000000005
:100BF00000000000000000000000000000000000F5
:100C000000000000000000000000000000000000E4
:100C1000000000000080C08000800003873FFFFFCD
:100C2000FFFFBF87C380008080000080000080003D
:100C300080C0800000800080C0800080C080008074
:100C40000080C080008080C08000008080C0800064
:100C50008080C0800080C080800000808000008094
:100C60000000800080C0800000800080C080008084
:100C7000C08000800080C080008080C08000008034
:100C800080C080008080C0800080C0808000808024
:100C90000000800080030303030303030303030333
:100CA0000303030303030303030303030303030314
:100CB0000303030303030303030303030303030304
:100CC00003030303030303030303030303030303F4
:100CD00003030303030303030303030303030303E4
:100CE00003030303030303030303030303030303D4
:100CF00003030303030303030303030303030303C4
:100D000003030303030303030303030303030303B3
:100D100003030303038012000000000000F0DCFC6A
:100D200076DEFEB6FC0CF0000000000000000000C3
:100D300000000000000000000000000000000000B3
:100D400000000000000000000000000000000000A3
:100D50000000000000000000000000000000000093
:100D60000000000000000000000000000000000083
:100D70000000000000000000000000000000000073
:100D80000000000000000000000000000000000063
:100D900000000000000000008000000000000303CD
:100DA00017F7B515020380000000000000000000E6
:100DB00000000080000000000000800000008000B3
:100DC00000000000800000000080000000000080A3
:100DD0000000000080000000800000000000000013
:100DE0000000000000000080000000000000800003
:100DF0000000800000000000800000000080000073
:100E00000000008000000000800000008000000062
:100E100000000000000000020302020302020302BD
:100E200000030002030203020203030202030202A0
:100E3000030202030302020302020302020303028B
:100E4000020302020302020302030302020302037B
:100E5000020203020303020203020302020303026B
:100E6000020302020302020303020203020203025C
:100E7000020303020203020203020203020303024B
:100E8000020302030202030203030202030203023B
:100E900003030202030203F8FCFEFF070787C7C72C
:100EA000CFCF86C0C0C0C0C0C0FEFFFFFEFFFFFFA7
:100EB000C7C78F0F060000FCFEFFFF070707071FCD
:100EC0003F3E9CC0C0C0C0C0C080C080C0C080C009
:100ED000C08080C0C0C0C0C0800080C0C0C0C08012
:100EE000C080C080C0C080A0F0F0A0C0C0C0C0C0A2
:100EF000C080C080C0C080000F1F3F7F70707071C5
:100F00007F7F7F3F7F7F717F7F7F3F7F7F7F7F7F7F
:100F10007F010100000000001F3F7F7F7070707034
:100F2000787C3C3F7F7F717F7F7F3F7F7F3F7F7FEC
:100F30003F7F7FFFFFFFF17F7F3F1F3F7F7F713F3D
:100F40007F7F3F7F7F3F7F7F3F7F7F3F7F7F717FBF
:100F50007F7F3F7F7F3F7F7F3F00000000000000DA
:100F60000000000000000000000000000000000081
:100F70000000000000000000000000000000000071
:100F80000000000000000000000000000000000061
:100F9000000000000001010000000000000000004F
:100FA0000000000000000000000000000000000041
:100FB00000000000000000000000611100F8FC06C5
:100FC000020202828286860080808080808000FE0D
:100FD000FE00FEFE828282060600000000FCFE0685
:100FE00002020202061E1C00808080808080008039
:100FF0000080800080800000808080808000000071
:1010000080808080008000800080800000A0A000A0
:1010100080808080808000800080800000000F1F22
:101020003020202020203F3F003F2020203F3F0055
:101030003F3F003F3F0000000000000000001F3F56
:101040003020202020203818003F2020203F3F0063
:101050003F3F003F3F003F3F00FFE020203F1F0099
:101060001F3F2020103F3F003F3F003F3F003F3FDA
:10107000003F2020203F3F003F3F003F3F00000057
:101080000000000000000000000000000000000060
:101090000000000000000000000000000000000050
:1010A0000000000000000000000000000000000040
:1010B0000000000000000000000000000000000030
:1010C0000000000000000000000000000000000020
:1010D0000000000000000000000000000000000010
:1010E0000000000000000000000000000000000000
:1010F00000000000000000000000000000000000F0
:1011000000000000000000000000000000000000DF
:1011100000000000000000000000000000000000CF
:1011200000000000000000000000000000000000BF
:1011300000000000000000000000000000000000AF
:10114000000000000000000000000000000000009F
:10115000000000000000000000000000000000008F
:10116000C0000080800000800000800000C080007F
:1011700000800000C0000080C00000800000C000AF
:10118000008000C08000008000C000008000C0809F
:101190000000C0008000008080000080000080000F
:1011A00000C0800000800000C0000080C0000080FF
:1011B0000000C000008000C08000008000C000006F
:1011C0008000C0800000C00080008080000080009F
:1011D0008000C0000080800000800000800000EBE4
:1011E000F3EBF3EBF3EBF3EBF3EBF3EBF3EBF3EB0F
:1011F000F3EBF3EBF3EBF3EBF3EBF3EBF3EBF3EBFF
:10120000F3EBF3EBF3EBF3EBF3EBF3EBF3EBF3EBEE
:10121000F3EBF3EBF3EBF3EBF3EBF3EBF3EBF3EBDE
:10122000F3EBF3EBF3EBF3EBF3EBF3EBF3EBF3EBCE
:10123000F3EBF3EBF3EBF3EBF3EBF3EBF3EBF3EBBE
:10124000F3EBF3EBF3EBF3EBF3EBF3EBF3EBF3EBAE
:10125000F3EBF3EBF3EBF3EBF3EBF3EBF3EBF3FF8A
:10126000FFFFFFFFFFFFFFFFFFFFFFFFFFFFFFFF8E
:10127000FFFFFFFFFFFFFFFFFFFFFFFFFFFFFFFF7E
:10128000FFFFFFFFFFFFFFFFFFFFFFFFFFFFFFFF6E
:10129000FFFFFFFFFFFFFFFFFFFFFFFFFFFFFFFF5E
:1012A000FFFFFFFFFFFFFFFFFFFFFFFFFFFFFFFF4E
:1012B000FFFFFFFFFFFFFFFFFFFFFFFFFFFFFFFF3E
:1012C000FFFFFFFFFFFFFFFFFFFFFFFFFFFFFFFF2E
:1012D000FFFFFFFFFFFFFFFFFFFFFFFFFFFFFFFF1E
:1012E000FFFFFFFFFFFFFFFFFFFFFFFFFFFFFFFF0E
:1012F000FFFFFFFFFFFFFFFFFFFFFFFFFFFFFFFFFE
:10130000FFFFFFFFFFFFFFFFFFFFFFFFFFFFFFFFED
:10131000FFFFFFFFFFFFFFFFFFFFFFFFFFFFFFFFDD
:10132000FFFFFFFFFFFFFFFFFFFFFFFFFFFFFFFFCD
:10133000FFFFFFFFFFFFFFFFFFFFFFFFFFFFFFFFBD
:10134000FFFFFFFFFFFFFFFFFFFFFFFFFFFFFFFFAD
:10135000FFFFFFFFFFFFFFFFFFFFFFFFFFFFFFFF9D
:10136000FFFFFFFFFFFFFFFFFFFFFFFFFFFFFFFF8D
:10137000FFFFFFFFFFFFFFFFFFFFFFFFFFFFFFFF7D
:10138000FFFFFFFFFFFFFFFFFFFFFFFFFFFFFFFF6D
:10139000FFFFFFFFFFFFFFFFFFFFFFFFFFFFFFFF5D
:1013A000FFFFFFFFFFFFFFFFFFFFFFFFFFFFFFFF4D
:1013B000FFFFFFFFFFFFFFFFFFFFFFFFFFFFFFFF3D
:1013C000FFFFFFFFFFFFFFFFFFFFFFFFFFFFFFFF2D
:1013D000FFFFFFFFFFFFFFFFFFFFFFFFFFFFFFCF4D
:1013E000F7CFDFEFEFDFDFEFDFDFEFDFCFF7EFDFAD
:1013F000DFEFDFCFF7CFDFEFF7CFDFEFDFCFF7CFD5
:10140000DFEFCFF7EFDFDFEFCFF7CFDFEFCFF7EF94
:10141000DFCFF7CFEFDFDFEFEFDFDFEFDFDFEFDF94
:10142000CFF7EFDFDFEFDFCFF7CFDFEFF7CFDFEF84
:10143000DFCFF7CFDFEFCFF7EFDFDFEFCFF7CFDF94
:10144000EFCFF7EFDFCFF7CFEFDFEFEFDFDFEFDF4C
:10145000EFCFF7CFDFEFEFDFDFEFDFDFEFDFCFAA99
:1014600054AA54AA54AA54AA54AA54AA54AA54AA8C
:1014700054AA54AA54AA54AA54AA54AA54AA54AA7C
:1014800054AA54AA54AA54AA54AA54AA54AA54AA6C
:1014900054AA54AA54AA54AA54AA54AA54AA54AA5C
:1014A00054AA54AA54AA54AA54AA54AA54AA54AA4C
:1014B00054AA54AA54AA54AA54AA54AA54AA54AA3C
:1014C00054AA54AA54AA54AA54AA54AA54AA54AA2C
:1014D00054AA54AA54AA54AA54AA54AA54AA5404C2
:1014E000083E09093E3F25251A1E2121123F2121D0
:1014F0001E3F2525213F0505011E21293A3F0404F1
:101500003F213F21001021211F3F040A313F2020AD
:10151000203F02023F3F02043F1E21211E3F0909D6
:10152000061E21112E3F09093622252519013F01EA
:10153000011F20201F0F10201F3F10103F3B0404ED
:101540003B03043807312D2321102A2A3C3F242451
:10155000181C2222141824243F1C2A2A2C047E053D
:10156000014C52523E3F040438243D200040404488
:101570003D3F081422213F20003E04043E3E040269
:101580003C1C22221C7E22221C1C22227E3E0402A3
:1015900004242A2A12021F22201E20201E0E1020A0
:1015A0001E3E10103E360808364E50503E322A2657
:1015B000221E29251E223F200032292926122125FC
:1015C0001A0C0A3F08172525191E2525180139056B
:1015D000031A25251A0629291E002F0000002000C5
:1015E00000022905020102040810204080000000CA
:1015F00000003E5B4F5B3E3E6B4F6B3E1C3E7C3EB5
:101600001C183C7E3C181C577D571C1C5E7F5E1CC2
:1016100000183C1800FFE7C3E7FF0018241800FF7C
:10162000E7DBE7FF30483A060E2629792926407F76
:10163000050507407F05253F5A3CE73C5A7F3E1C85
:101640001C08081C1C3E7F14227F22145F5F005F71
:101650005F06097F017F006689956A60606060604F
:1016600094A2FFA29408047E040810207E20100893
:10167000082A1C08081C2A08081E101010100C1E2E
:101680000C1E0C30383E3830060E3E0E06000000B0
:10169000000000005F00000007000700147F147FB7
:1016A00014242A7F2A1223130864623649562050D4
:1016B0000008070300001C2241000041221C002AF0
:1016C0001C7F1C2A08083E080800807030000808AB
:1016D000080808000060600020100804023E51491C
:1016E000453E00427F400072494949462141494DEB
:1016F000331814127F1027454545393C4A49493172
:1017000041211109073649494936464949291E00F0
:10171000001400000040340000000814224114149A
:10172000141414004122140802015909063E415DB7
:10173000594E7C1211127C7F494949363E41414144
:10174000227F4141413E7F494949417F09090901C1
:101750003E414151737F0808087F00417F410020CE
:1017600040413F017F081422417F404040407F02BA
:101770001C027F7F0408107F3E4141413E7F0909E2
:1017800009063E4151215E7F0919294626494949EA
:101790003203017F01033F4040403F1F2040201F94
:1017A0003F4038403F631408146303047804036126
:1017B00059494D43007F4141410204081020004136
:1017C00041417F04020102044040404040000307C1
:1017D000080020545478407F284444383844444416
:1017E00028384444287F385454541800087E09028D
:1017F00018A4A49C787F0804047800447D4000204D
:1018000040403D007F1028440000417F40007C04A0
:101810007804787C080404783844444438FC18245C
:10182000241818242418FC7C080404084854545430
:101830002404043F44243C4040207C1C2040201CC5
:101840003C4030403C44281028444C9090907C44CC
:1018500064544C4400083641000000770000004109
:1018600036080002010204023C2623263C1EA1A1E8
:1018700061123A4040207A385454555921555579CF
:101880004121545478412155547840205455794091
:101890000C1E5272123955555559395454545939F0
:1018A000555454580000457C410002457D420001DA
:1018B000457C40F0292429F0F0282528F07C545557
:1018C00045002054547C547C0A097F4932494949D7
:1018D000323248484832324A4848303A4141217A07
:1018E0003A42402078009DA0A07D39444444393DCF
:1018F0004040403D3C24FF2424487E4943662B2F32
:10190000FC2F2BFF0929F620C0887E0903205454A0
:1019100079410000447D413048484A3238404022F5
:101920007A007A0A0A727D0D19317D2629292F281D
:10193000262929292630484D40203808080808085B
:10194000080808382F10C8ACBA2F102834FA000045
:101950007B000008142A142222142A14089500225D
:101960000095AA005500AAAA55AA55AA000000FF92
:1019700000101010FF00141414FF001010FF00FFDF
:101980001010F010F0141414FC001414F700FF00F1
:1019900000FF00FF1414F404FC141417101F10109F
:1019A0001F101F1414141F00101010F0000000006E
:1019B0001F101010101F10101010F010000000FF6A
:1019C000101010101010101010FF10000000FF1465
:1019D0000000FF00FF00001F10170000FC04F414BB
:1019E000141710171414F404F40000FF00F7141473
:1019F0001414141414F700F7141414171410101FEF
:101A0000101F141414F4141010F010F000001F1024
:101A10001F0000001F14000000FC140000F010F074
:101A20001010FF10FF141414FF141010101F0000EA
:101A30000000F010FFFFFFFFFFF0F0F0F0F0FFFFFD
:101A4000FF0000000000FFFF0F0F0F0F0F3844448E
:101A500038447C2A2A3E147E02020606027E027E5A
:101A60000263554941633844443C04407E201E20B3
:101A700006027E020299A5E7A5991C2A492A1C4C58
:101A80007201724C304A4D4D303048784830BC625B
:101A90005A463D3E494949007E0101017E2A2A2AD3
:101AA0002A2A44445F444440514A444040444A51F5
:101AB000400000FF0103E080FF000008086B6B0896
:101AC0003612362436060F090F06000018180000DB
:101AD000001010003040FF0101001F01011E00191D
:101AE0001D1712003C3C3C3C0000000000080B00AD
:101AF00002020201000904000001020200000524A4
:101B00000010010524010101042402060524060039
:101B1000010705810310004009040100020A0000CA
:101B20000007050202400000070583024000000490
:101B300003090412010002EF020140412336800034
:101B4000010102030141726475696E6F204C4C43C0
:101B50000041726475696E6F204C656F6E617264CE
:101B60006F00272411241FBECFEFDAE0DEBFCDBF08
:101B700011E0A0E0B1E0E8ECFAE402C005900D92BB
:101B8000A638B107D9F726E0A6E8B1E001C01D925A
:101B9000AE39B207E1F71DE0C2EBDDE004C02197EA
:101BA000FE010E945025C13BD107C9F70E94301B9E
:101BB0000C9462250C940000CF92DF92EF92FF927A
:101BC0000F931F93CF93DF936C017A018B01C0E0D9
:101BD000D0E0CE15DF0589F0D8016D918D01D601D9
:101BE000ED91FC910190F081E02DC6010995892BC2
:101BF00011F47E0102C02196ECCFC701DF91CF9195
:101C00001F910F91FF90EF90DF90CF9008953FB715
:101C1000F89480918F0190919001A0919101B091E1
:101C2000920126B5A89B05C02F3F19F00196A11D72
:101C3000B11D3FBFBA2FA92F982F8827820F911D62
:101C4000A11DB11DBC01CD0142E0660F771F881FA9
:101C5000991F4A95D1F708950895089580E090E07E
:101C600008950E9456258F929F92AF92BF92CF9275
:101C7000DF92EF92FF926B017C010E94070E4B01F5
:101C80005C01C114D104E104F104F1F00E94070EDB
:101C9000DC01CB0188199909AA09BB09883E934048
:101CA000A105B10570F321E0C21AD108E108F108DD
:101CB00088EE880E83E0981EA11CB11CC114D104CB
:101CC000E104F10419F7DDCFFF90EF90DF90CF90A2
:101CD000BF90AF909F908F9008951F920F920FB674
:101CE0000F9211242F933F938F939F93AF93BF93A2
:101CF0008091860190918701A0918801B09189011E
:101D000030918E0123E0230F2D3720F40196A11D81
:101D1000B11D05C026E8230F0296A11DB11D209319
:101D20008E018093860190938701A0938801B093E0
:101D3000890180918F0190919001A0919101B091C2
:101D400092010196A11DB11D80938F019093900186
:101D5000A0939101B0939201BF91AF919F918F9108
:101D60003F912F910F900FBE0F901F9018954F929B
:101D70005F927F928F929F92AF92BF92CF92DF92AB
:101D8000EF92FF920F931F93CF93DF9300D000D079
:101D9000CDB7DEB729011C2DA02EB12C9C012A0D38
:101DA0003B1D121613060CF0B3C1803891050CF0E0
:101DB000AFC1FB01EE0DF11D1E161F060CF0A8C1F0
:101DC000603471050CF0A4C14115510509F4A0C19E
:101DD000E62FE770FE2EFB0177FD3796A3E0F59521
:101DE000E795AA95E1F7AE2F77FF04C0FF2011F029
:101DF000AFEFAE0F97FF05C0EE27FF27E81BF90BEB
:101E000002C0E0E0F0E02038310524F020E8722E36
:101E1000781A01C0702E7E1A6A2F0A2E000C770BDA
:101E2000AF3F1CF4D62ED09401C0D12C21E03E2D22
:101E3000377009F420E0E694E694E694E20E6E0D25
:101E4000711D693071051CF028E0E22EEA1AED18C8
:101E50003D2D3A0FDC0120E83203A00DB11D112405
:101E6000AE0FBF1FD09EE00DF11D11244E0F5F1F5E
:101E700081E090E04C010F2C02C0880C991C0A9460
:101E8000E2F7133009F403C1A0F4113009F4B5C02E
:101E9000123009F03DC18FEF889DB001899D700D12
:101EA0001124609570957C836B835C802E2D230FAD
:101EB0002BC01A3F31F01B3F09F02AC12E2D230FF2
:101EC00088C02E2D230F51C0FA01E00FF11FE491BD
:101ED000E89D6001E99DD00C1124DA82C98237FDAA
:101EE00007C0FC01E080EE2DE623CE2AFC01C08273
:101EF000F11013C00F5F1F4F0196071528F33F5FC6
:101F00004A0D5B1DA058BF4F321709F401C1CD0126
:101F100089569E4F00E010E0F0CF37305CF7FC01AF
:101F2000E058FF4FD080D520CA80DC28D082E2CF95
:101F3000FA01E60FF71FE491E89D8001E99D100D7D
:101F400011241A83098337FD04C0FC011081012B81
:101F50000083F11013C06F5F7F4F0196671540F348
:101F60003F5F4A0D5B1DA058BF4F321709F4D0C028
:101F7000CD0189569E4F60E070E0F0CF37305CF7BE
:101F80008C0100581F4FF801E080EA81EE2AF80129
:101F9000E082E1CFFA01E00FF11FE491E89DC0017A
:101FA000E99D900D11249A83898337FD05C08095A2
:101FB000FB01908189238083F11014C00F5F1F4FB4
:101FC0006F5F7F4F071530F33F5F4A0D5B1DA058D1
:101FD000BF4F321709F49CC0BD0169567E4F00E027
:101FE00010E0F0CF373054F7FB01E058FF4F8A8103
:101FF0008095908189238083E1CFC2018E0F9F1F3E
:102000002E2D230F321709F483C0BD0169567E4F70
:102010006B0100E010E0071590F5FC01E00FF11FE7
:10202000E491E89DB001E99D700D112460957095D3
:102030007C836B83FA01E00FF11FE491E89D20019E
:10204000E99D500C11245A82498237FD05C0F601E2
:1020500070816723462A4082FF2059F037304CF4C4
:10206000F601E058FF4F70816C8167237A81672BFE
:1020700060830F5F1F4FFFEFCF1ADF0ACCCF3F5FA8
:102080004A0D5B1D8A0D9B1DA058BF4FBBCFC72CAF
:10209000D12CE40FF51FA956BE4F60E870E06C1913
:1020A0007D09AC18BD088501000F111F572D2E2D7D
:1020B000CF93DF93ED01EF96EF962296A590C59012
:1020C000FF2059F0A89C5001C89C600137302CF4C7
:1020D000E880D094ED20EB28E99233233AF0EC909D
:1020E000C094EC20EA28ED920C94771011965A9542
:1020F00029F72A9551F0572D33951124E00FF11D42
:10210000A60FB11DC60FD11DD9CFDF91CF911124DC
:102110000F900F900F900F90DF91CF911F910F9123
:10212000FF90EF90DF90CF90BF90AF909F908F90F7
:102130007F905F904F900895CF92DF92EF920F9330
:102140001F93CF93DF93FC0126816A3031F48581A0
:1021500084836185260F26839AC0962FEF01A48180
:1021600061E0620F9F3309F45FC06CF49E32B9F0F6
:102170001CF49132C9F052C080ED890F8A3008F00A
:102180004DC014E00FC091340CF448C09B354CF0A6
:102190008FE9890F8A3108F041C019EB03C01FE3B2
:1021A00004C01FEB190F01C01EE32F81062E000C87
:1021B000770B0A2E000CBB0B213009F03AC0EFED73
:1021C000F4E10491E0EEF4E1E490112379F1E02FE1
:1021D000F0E02E2D269526952695422F50E021E001
:1021E00030E08E2D877011F420E030E0240F351F91
:1021F000E29F6001E39FD00CF29FD00C1124960166
:102200001203A001139F500D11244F515B4E9AEF02
:10221000C92E20E030E0CD010E94B70E88858C5F8A
:102220009C81890F8C8333C010E4BFCF41EE54E111
:10223000EECFEFEDF4E10491E0EEF4E1E490112350
:1022400009F1E02FF0E02E2D269526952695422FB8
:1022500050E021E030E08E2D877011F420E030E076
:10226000240F351FE29F6001E39FD00CF29FD00C3A
:10227000112496011203A001139F500D11244F51F8
:102280005B4E02C041EE54E18BEFC82EC2CF81E01D
:1022900090E0DF91CF911F910F91EF90DF90CF9061
:1022A00008952D9A0895BC0180E090E00C94330EBF
:1022B0008FB18095807F669B88601C9B84600895A9
:1022C000FC01840F911D18161906E4F5E038F1059C
:1022D000CCF5F7FF02C0E0E0F0E08138910514F0A2
:1022E00080E890E0382F3E1BAB0177FF02C0495FCA
:1022F0005F4F83E0559547958A95E1F75695542FA2
:10230000442757954795E40FF51FE956FE4F677030
:10231000772781E090E001C0880F6A95EAF7482F9F
:10232000222349F0213071F4315020F08081842B38
:102330008193FACF08958095315020F090819823B1
:102340009193FACF089560387105D0F44034510567
:10235000B8F4E5EEF5E180E1849FD001A078112486
:10236000A60F4770E40FF11D8491A956BE4F22239A
:1023700019F06C91862B03C080956C9186238C9309
:1023800008952F923F924F925F926F927F928F9219
:102390009F92AF92BF92CF92DF92EF92FF920F93F4
:1023A0001F93CF93DF93CDB7DEB729970FB6F8947D
:1023B000DEBF0FBECDBFFC016A3069F4258981897B
:1023C000928938E0239F800D911D1124928B818B7F
:1023D000108A1786AAC06D3009F4A7C0998788872C
:1023E000F5883488238861887288078510890038C9
:1023F0001105C4F0A885B98555962C915597422FA3
:1024000050E01F968D919C915097B6E02B9F800DC8
:10241000911D1124E885F985908B878726892111E4
:102420006EC083C0F0E46F16710424F7C80125E084
:10243000F29E800D911D112418161906DCF68F2DC1
:1024400090E09C838B83C301A8E0FA9E800D911DD0
:1024500011241816190674F6B5E06B9FB00111240B
:10246000FB01E351FA4EFA83E98330E088859985D0
:1024700004969E838D83E981FA81E490353009F4D6
:10248000E12C430188E0482EE0FC02C0532C01C03F
:10249000522C51100BC0321009C0E6944A948B8123
:1024A0009C81880E991E4110EFCF1BC068018C2DB6
:1024B000801B8F1590F754018A2D88198F1568F4A9
:1024C000252DA501B6018D819E813F830E94A31118
:1024D0009FEFA91AB90A3F81EFCFAFEFCA1ADA0A04
:1024E000E6CF3F5FEB81FC810E0F1F1F89819A8130
:1024F00001969A838983363009F0BDCF7BCF6AEF8E
:1025000064039001659F300D112420583F4F281718
:1025100039075CF4A885B985ED91FC91119701907C
:10252000F081E02D6AE0CD01099581E090E02996E7
:102530000FB6F894DEBF0FBECDBFDF91CF911F91D4
:102540000F91FF90EF90DF90CF90BF90AF909F9052
:102550008F907F906F905F904F903F902F90089555
:102560000F931F93CF93DF931F92CDB7DEB78C01EC
:1025700069830E9404256981681741F0C8010F90A2
:10258000DF91CF911F910F910C940C250F90DF914B
:10259000CF911F910F9108950C9404250F93CF9321
:1025A000DF93C0918C01D0918D0100E420E84FEDC4
:1025B00050E160E070E0CE010E948E1320E84FED04
:1025C00050E160E070E0CE0180589F4F0E948E1372
:1025D00080912C0690912D0665E070E00E943C25CC
:1025E000892B71F42197C0388FEFD80728F0D0934A
:1025F0008D01C0938C0104C010928D0110928C014A
:10260000DF91CF910F910895CF92EF920F93EAEB64
:10261000FFE00491EBEBFFE0E490CC24C39427E9C6
:102620003EE04CEB5FE062E070E08FE090E00E9403
:10263000B70E0F91EF90CF9008950F931F93CF9304
:10264000DF9300E010E0C8E1D0E020E0AE01B80187
:1026500089E296E00E94A3112196CA32D105A9F71A
:102660000F5F1F4F0038110571F729E130E040E896
:1026700050E069E170E080E090E00E94A01528E25F
:1026800030E040E850E068E270E080E090E0DF9108
:10269000CF911F910F910C94A015CF92EF920F93B1
:1026A000E5E1FDE00491E6E1FDE0E490CC24C39493
:1026B00025E93BE047E15DE06EE270E080E090E01C
:1026C0000E94B70E0F91EF90CF900895FC016230F9
:1026D00059F018F4613031F00895633039F0643006
:1026E00039F00895418308954283089543830895FE
:1026F00044830895FC01623059F020F4613061F4A4
:1027000081810895633031F0643031F4848108951B
:10271000828108958381089580E008952F923F92E9
:102720004F925F926F927F928F929F92AF92BF92E1
:10273000CF92DF92EF92FF920F931F93CF93DF938D
:10274000CDB7DEB728970FB6F894DEBF0FBECDBF6A
:102750005A01822E912C9C01280D391D37FDC4C0D1
:10276000803891050CF0C0C09B01200F311D37FD52
:10277000BBC0603471050CF0B7C0AB0177FF04C07B
:1027800044275527461B570B477055279B0177FF5A
:1027900002C0295F3F4FE3E035952795EA95E1F7C1
:1027A00077FF08C02150310968E070E0DB01A41B0D
:1027B000B50BAD01602F66956695669570E0077064
:1027C00011F06F5F7F4FDB01A20FB31FBA83A983A4
:1027D00039017694762C662477946794680E791E76
:1027E000E12CF12C00E010E02301B0E84B0E511C6D
:1027F00068E070E0DB01A41BB50BBC83AB8369818F
:102800007A812617370709F46FC02830310509F49B
:102810006BC02F3FBFEF3B070CF45BC0B201600FF2
:10282000711FDB01A956BE4FBE83AD83D801A60D33
:10283000B71DA956BE4F6C0160E070E068157905C0
:102840000CF047C0E0E8CE16D10409F442C0D7FC32
:1028500034C02F3FFFEF3F0709F442C0FB01EE0DEC
:10286000FF1DEA0DFB1DE491042E01C0EE0F0A943A
:10287000EAF73C90E329EC9341155105F1F027303C
:102880003105D9F0FB01EE0DFF1DEA0DFB1DE491B2
:102890002E2E312CF1010B8002C0F595E7950A949C
:1028A000E2F7F887EF83ED81FE813080EF81F885D4
:1028B000E3291F01ED81FE8120826F5F7F4FED8153
:1028C000FE813196FE83ED83FFEFCF1ADF0A11966A
:1028D000B5CF2F5F3F4F00581F4FE80CF91C8FCF2B
:1028E0004115510579F6E9CF28960FB6F894DEBF69
:1028F0000FBECDBFDF91CF911F910F91FF90EF9051
:10290000DF90CF90BF90AF909F908F907F906F900F
:102910005F904F903F902F9008950F931F93CF9308
:10292000DF936091130686E790E00E94B0126091F9
:10293000990587E790E00E94B01260919A0588E7B8
:1029400090E00E94B01260919B0589E790E00E94A0
:10295000B01260919C058AE790E00E94B0126091ED
:102960009D058BE790E00E94B01260919E058CE778
:1029700090E00E94B01260919F058DE790E00E9468
:10298000B012CEE7D0E08E0109561A4FF801E55794
:10299000F1096081CE010E94B012F801E457F109FB
:1029A0006081CE0101960E94B012F801E357F1094F
:1029B0006081CE0102960E94B012F801E257F1093F
:1029C0006081CE0103960E94B012F801E157F1092F
:1029D0006081CE0104960E94B0122596C83DD105B3
:1029E00091F66091FA0588ED90E00E94B012609136
:1029F000FB0589ED90E00E94B0126091FC058AED24
:102A000090E00E94B0126091FD058BED90E00E9475
:102A1000B0126091FE058CED90E00E94B012CDEDF9
:102A2000D0E0FE01EE5DFA4F6081CE010E94B0124F
:102A30002196C23ED105A9F7FE01EE5DFA4F6081F5
:102A4000CE010E94B0122196C73ED105A9F7FE0122
:102A5000EE5DFA4F6081CE010E94B0122196CC3E0D
:102A6000D105A9F7FE01EE5DFA4F6081CE010E940B
:102A7000B0122196C13FD105A9F7DF91CF911F91E7
:102A80000F91089520912F06282329F490912E0666
:102A9000982381E009F480E00895009769F0FC0133
:102AA00001900020E9F73197AF01481B590BBC0199
:102AB0008BE196E00C94DC0D80E090E008958F921D
:102AC0009F92AF92BF920F931F93CF93DF93CDB797
:102AD000DEB7A1970FB6F894DEBF0FBECDBF19A227
:102AE000423008F44AE08E010F5D1F4F842E912C76
:102AF000A12CB12CA50194010E941A25E62FB90141
:102B0000CA0101501109EA3014F4E05D01C0E95C2A
:102B1000D801EC93232B242B252B61F7C8010E94AD
:102B20004D15A1960FB6F894DEBF0FBECDBFDF9155
:102B3000CF911F910F91BF90AF909F908F9008956C
:102B40005F926F927F928F929F92AF92BF92CF923D
:102B5000DF92EF92FF920F931F93CF93DF93EC01DD
:102B60008B017A01A901461B570B57FF03C05195F2
:102B700041955109C7018C1B9D0B97FF03C091958F
:102B800081959109552453948417950714F0512C7D
:102B90000AC09E2D8F2D7901292F382F9C2F8D2F24
:102BA000E801092F182FEC16FD0654F4902F812F01
:102BB0008901292F382F9C2F8D2FE701E92EF82E20
:102BC00037016C1A7D0A5901A01AB10AB7FE03C079
:102BD000B194A194B108630177FE03C08FEFC81AC6
:102BE000D80AD594C7940217130714F08FEF01C0C9
:102BF00081E0882E880F9908EC16FD06B4F021E0DC
:102C0000552019F0AE01B80102C0A801BE0189E249
:102C100096E00E94A311CA18DB08D7FE04C0080D75
:102C2000191DC60CD71C2196E7CFDF91CF911F91BC
:102C30000F91FF90EF90DF90CF90BF90AF909F905B
:102C40008F907F906F905F900895E7E9F1E0A0E0AA
:102C5000B8E000800EBC8111012C1197A0FDFDCFC2
:102C60000192B9F70DB408950F931F93CF93DF939B
:102C70008C01C0E0D0E0F801EC0FFD1F64916623E9
:102C800071F0E0911B06F0911C060190F081E02D9F
:102C90008BE196E00995892B11F02196ECCFCE01BE
:102CA000DF91CF911F910F910895682F70E080E020
:102CB00090E04AE00C945F15CF92DF92EF92FF9282
:102CC000CF93DF936C01990FEE08FF08F7FE1FC04A
:102CD000E0911B06F0911C060190F081E02D6DE261
:102CE0008BE196E00995EC0166277727CB016C19FB
:102CF0007D098E099F094AE00E945F158C0F9D1F78
:102D0000DF91CF91FF90EF90DF90CF9008954AE050
:102D1000C701B601DF91CF91FF90EF90DF90CF9088
:102D20000C945F1580E0E7E9F1E081118FEF00245A
:102D300081938193819381930394D1F7E5E2F6E047
:102D4000128A118A108A17860895FC0180919601D3
:102D5000811103C08FEF9FEF08959FB7F89482E031
:102D60008093E9002091F20030E01216130614F46B
:102D700021E030E02115310559F0289884E6809350
:102D800095018091F10080838091F200882319F0F1
:102D90009FBFC90108958BE68093E800F9CF2FB754
:102DA000F89483E08093E9009091E800892F807285
:102DB00095FF04C09091F20080E4891B2FBF089515
:102DC0008F929F92AF92BF92CF92DF92EF92FF923B
:102DD0000F931F93CF93DF935C016B017A01809176
:102DE0000701882309F45BC080919601882309F4C8
:102DF00056C08091940180FF05C08091E000826000
:102E00008093E000E70110E00AEF83E0882E9AE368
:102E1000992E2097D9F10E94CF1681110AC0015036
:102E200009F43DC061E070E080E090E00E94330E64
:102E3000F0CF282F30E0C217D3070CF48C2F4FB7F8
:102E4000F8948092E9009091E80095FF1DC0282F2A
:102E500030E0C21BD30BF601982F915020F08191E6
:102E60008093F100FACFC20ED31E112319F0909275
:102E7000E80009C08091E80085FD06C09092E80056
:102E800011E0209709F010E04FBFC3CF1111C3CF5D
:102E90005D9884E6809393011E141F0444F081E042
:102EA00090E0F5019383828380E090E001C0C70148
:102EB000DF91CF911F910F91FF90EF90DF90CF9016
:102EC000BF90AF909F908F900895809140068111A0
:102ED0000DC082E080933C0684E080933D06109212
:102EE0003F0610923E0681E0809340068CE396E018
:102EF0000895CF93DF931F92CDB7DEB76983DC01CE
:102F0000ED91FC910280F381E02D41E050E0BE01A3
:102F10006F5F7F4F09950F90DF91CF91089583E008
:102F20008093E9008091F200882319F08AE380936E
:102F3000E8000895FC018485958597FD0BC09FB737
:102F4000F89482E08093E9008091F2009FBF90E0C6
:102F5000019608959FB7F89482E08093E9008091EC
:102F6000F2009FBF90E0089540919C0650919D060D
:102F700020919A0630919B0642175307B4F4909122
:102F8000E8009570E1F39091E80092FD19C08093FC
:102F9000F10080919C0690919D0601968F73992770
:102FA000892B19F48EEF8093E80080919C06909114
:102FB0009D06019690939D0680939C0681E008955E
:102FC00080E00895DF92EF92FF920F931F93CF93CB
:102FD000DF93D82E8A017B01E40EF51EEB01CE159E
:102FE000DF0571F0D7FE03C0FE01849101C0888126
:102FF0000E94B41721968111F2CF8FEF9FEF01C08D
:10300000C801DF91CF911F910F91FF90EF90DF905A
:103010000895615030F02091F100FC012083019669
:10302000F8CF289884E68093950108950E94CF16E2
:1030300090E00895CF93DF931F92CDB7DEB7FC01E8
:103040008485958597FD05C02FEF3FEF3587248751
:103050000BC0CE0101960E94A516019719F4898133
:1030600090E002C08FEF9FEF0F90DF91CF91089516
:103070000F931F93CF93DF931F92CDB7DEB78C01D1
:10308000FC018485958597FF0EC0CE0101960E94B4
:10309000A516019719F4298130E002C02FEF3FEF08
:1030A000F80135872487F801848595850F90DF9195
:1030B000CF911F910F9108950F931F93CF93DF939B
:1030C0001F92CDB7DEB782E0898342E450E06DEE17
:1030D0007AE180E80E94E2170E946517DC011296EF
:1030E0000D911C9113970115110569F0D801ED910F
:1030F000FC910280F381E02DBE016F5F7F4FC8011C
:10310000099597FF07C089810F90DF91CF911F919B
:103110000F910895F80100851185E5CF1F920F9258
:103120000FB60F9211248F939F938091E10090919D
:10313000E100937F9093E10083FF0FC01092E900BC
:1031400091E09093EB001092EC0092E39093ED00ED
:103150001092960198E09093F00082FF20C093E0D7
:103160009093E9009091F200992319F09AE39093DB
:10317000E80090919301992339F090919301915037
:1031800090939301992389F190919501992339F0B6
:1031900090919501915090939501992341F184FF6D
:1031A00010C08091E2008E7E81608093E200809169
:1031B000E1008F7E8093E100809194018E7E80619A
:1031C00011C080FF16C08091E2008E7E80618093E6
:1031D000E2008091E1008E7E8093E1008091940175
:1031E0008E7E81608093940104C05D9ACDCF289A31
:1031F000D6CF9F918F910F900FBE0F901F90189573
:103200001F920F920FB60F921124CF92DF92EF927E
:10321000FF920F931F932F933F934F935F936F935F
:103220007F938F939F93AF93BF93EF93FF93CF932E
:10323000DF93CDB7DEB76C97DEBFCDBF1092E9004C
:103240008091E80083FFEDC168E0CE0145960E94C1
:10325000091882EF8093E8008D8987FF05C090915F
:10326000E80090FFFCCF03C09EEF9093E800982FFA
:10327000907609F0C6C09E892F89188D91110CC0D7
:10328000803829F4809199068093F10002C0109251
:10329000F1001092F10048C1422F50E0512B9130C3
:1032A00051F4811141C14130510509F03DC1809176
:1032B00099068D7F0BC0933061F4811135C1413087
:1032C000510509F031C18091990682608093990679
:1032D0002BC1953041F48091E80080FFFCCF20683D
:1032E0002093E30021C1963009F05FC0EB8CFC8C89
:1032F0001092E90010929D0610929C06123091F5F2
:1033000010929B0610929A060E945C1899E0BE01EA
:103310006F5F7F4FDB01E92F1D92EA95E9F79983F3
:103320001A8391E09E8390EA98879AEF998720917B
:103330009C0630919D06275F3F4F3C832B838D83F6
:103340001092E90010929D0610929C06F0929B0646
:10335000E0929A0649E050E080E00E94E2170E9465
:103360005C18E2C0F0929B06E0929A060E946517F4
:10337000DC011296ED90FC901397E114F10409F42E
:10338000C0C0D701ED91FC910480F581E02DBE0114
:103390006B5E7F4FC7010995009719F00CF0C4C010
:1033A000C7C0F701E084F184E8CF973009F4C0C0CA
:1033B000983021F481E08093F100B6C0993009F093
:1033C000B3C0837009F0B4C0EFE3F1E081E021E025
:1033D00036E39081992361F08093E9002093EB001C
:1033E00091919093EC003093ED008F5F873089F7D7
:1033F0008EE78093EA001092EA008F89809396010D
:1034000093C08B8D9C8D1092E90010929D061092B6
:103410009C0690939B0680939A06898D811156C0D5
:103420008E899D89913A59F4813209F081C047E033
:1034300050E060E071E080E00E94E21775C09132D8
:1034400009F076C0833289F4888D90E0982F882720
:103450002F89822BA0E0B0E08093080190930901AE
:10346000A0930A01B0930B015FC0803269F4809190
:10347000E80082FFFCCF67E080E091E00E9409183D
:103480008BEF8093E80006C0823209F04DC08F892F
:103490008093070180919806882319F0EEEFFAE0F7
:1034A00002C0E0E0F8E08091000190910101A0915C
:1034B0000201B0910301803B9440A105B10509F0E0
:1034C0007BC08091070180FF93C076C00E94651782
:1034D000DC0112960D911C9113970115110541F114
:1034E000D801ED91FC910190F081E02DBE016B5E61
:1034F0007F4FC8010995811117C0F801008511851A
:10350000ECCF113009F44EC0133091F48F89882329
:1035100009F445C0823081F440E860E181E59BE137
:103520000E94C724882321F08EEF8093E80079C0A1
:1035300081E28093EB0075C0813029F440E86BE0B4
:1035400085E49BE1EDCF833099F70E946517DC019C
:103550001296ED90FC9013978E010F5F1F4F68013C
:10356000E114F10479F0D701ED91FC910680F78127
:10357000E02DB801C7010995080F111DF701E0847E
:10358000F184EECFD8011C92F60101900020E9F7FA
:103590003197BF016C197D0940E0C601C1CF6FE2D0
:1035A0007BE102C063E37BE16115710509F2FB0178
:1035B000449150E080E840CF0FB6F894A8958091F0
:1035C0006000886180936000109260000FBEA89533
:1035D000EE3F2AE0F20739F08091FE0A9091FF0A4F
:1035E00091838083A1CF1092FF0A1092FE0A9CCF94
:1035F000EE3F8AE0F80731F0808191819093FF0AD5
:103600008093FE0A87E797E7918380839BE088E1B8
:103610000FB6F894A895809360000FBE9093600059
:1036200083CF6C960FB6F894DEBF0FBECDBFDF918F
:10363000CF91FF91EF91BF91AF919F918F917F912A
:103640006F915F914F913F912F911F910F91FF903B
:10365000EF90DF90CF900F900FBE0F901F901895B6
:10366000789484B5826084BD84B5816084BD85B55D
:10367000826085BD85B5816085BD80916E00816069
:1036800080936E001092810080918100826080930F
:103690008100809181008160809381008091800011
:1036A000816080938000809191008260809391007E
:1036B0008091910081608093910080919000816061
:1036C000809390008091C10084608093C1008091BC
:1036D000C10082608093C1008091C10081608093AD
:1036E000C1008091C30081608093C3008091C000BD
:1036F00082608093C0008091C20081608093C2008C
:1037000080917A00846080937A0080917A00826050
:1037100080937A0080917A00816080937A00809112
:103720007A00806880937A00109296011092990630
:10373000109294018091D70081608093D70080EA35
:103740008093D80089B5806189BD89B5826089BDC3
:1037500009B400FEFDCF61E070E080E090E00E94DF
:10376000330E8091D8008F7C80618093D800809147
:10377000E000807F8093E0008091E1008E7E809366
:10378000E1008DE08093E200559A209AEEEFFFE78A
:10379000859194918B3F9C4D19F481E0809398061C
:1037A00081EC80937C0085B1806F85B984B1877E80
:1037B00084B984B1876E84B95E9A5F988AB1806D4E
:1037C0008AB9769A6E9881B3806F81BB899880B3ED
:1037D0008D7080BB80E58CBD81E08DBD85E090E083
:1037E0000E9453115F9A85E090E00E9453115E9809
:1037F0005C98EEE6F1E08DE08E0F94919EBD0000A6
:103800000DB407FEFDCF31968E13F7CF5C9A81E899
:10381000809364008091650081608093650080E002
:103820000E9425160E94581187FF24C05C9885EAE3
:103830008EBD00000DB407FEFDCF5C9A2E982F9828
:103840002D988091640080628093640081E083BF42
:10385000889513BEFCCF2D980E9458118478843827
:1038600071F00E9458118471843131F188EC90E03C
:103870000E9453110E94581182FDEDCF3AC00E9460
:10388000511188EC90E00E9453112F9882E090E053
:103890000E9404258F3F29F06FEF82E090E00E94A4
:1038A0000C2584EF91E00E9453112F9A0E94581129
:1038B00084788438D9F3D5CF0E94511188EC90E0F8
:1038C0000E9453112E9882E090E00E9404258823E4
:1038D00029F060E082E090E00E940C2584EF91E006
:1038E0000E9453112E9A0E94581184718431D9F389
:1038F000BDCF0E94511182E090E00E9404258823F0
:1039000031F03E9A3F9A81E080938A0104C0109280
:103910008A013E983F9881E090E00E94042582FB56
:10392000112710F981E090E00E94042581FF3EC03C
:1039300011112E98C0EFDFEF0E94581186FF04C0CE
:103940002E9A2F9A2D9A32C0112329F0C430D10516
:1039500011F42E9A2F9881E00E94251600E128E5A7
:103960004EEB50E0BE0184E190E00E948E1380E0B7
:103970000E9425168FE090E00E9453112196C931D4
:10398000D105D1F6112311F02F9A2D9880E991E0FD
:103990000E9453110E945111E0912906F0912A06CC
:1039A0000190F081E02D89E296E0099582E390E0B4
:1039B0000E9453110E9458118111F8CF80E1809329
:1039C00030061092140680E2809315068093160646
:1039D000809317068093180684E790E00E94CC122B
:1039E000C82F85E790E00E94CC1260919705C6131E
:1039F00004C090919805891761F084E790E00E94D7
:103A0000B0126091980585E790E00E94B0120E9484
:103A10008D1486E790E00E94CC128093130687E70E
:103A200090E00E94CC128093990588E790E00E9474
:103A3000CC1280939A0589E790E00E94CC12809383
:103A40009B058AE790E00E94CC1280939C058BE74F
:103A500090E00E94CC1280939D058CE790E00E943C
:103A6000CC1280939E058DE790E00E94CC1280934B
:103A70009F05CEE7D0E0CE010E94CC128E01095600
:103A80001A4FF801E557F1098083CE0101960E9493
:103A9000CC12F801E457F1098083CE0102960E940E
:103AA000CC12F801E357F1098083CE0103960E94FE
:103AB000CC12F801E257F1098083CE0104960E94EE
:103AC000CC12F801E157F10980832596C83DD10554
:103AD00091F688ED90E00E94CC128093FA0589ED72
:103AE00090E00E94CC128093FB058AED90E00E944A
:103AF000CC128093FC058BED90E00E94CC12809359
:103B0000FD058CED90E00E94CC128093FE05CDED7A
:103B1000D0E0CE010E94CC12FE01EE5DFA4F808310
:103B20002196C23ED105A9F7CE010E94CC12FE011A
:103B3000EE5DFA4F80832196C73ED105A9F7CE01ED
:103B40000E94CC12FE01EE5DFA4F80832196CC3E9E
:103B5000D105A9F7CE010E94CC12FE01EE5DFA4F0D
:103B600080832196C13FD105A9F7D1E0F1E2BF2EB4
:103B7000CCE2A7E3AA2E1CE38FB7F894409186010C
:103B80005091870160918801709189018FBF809168
:103B90003106342F381B832F90913206992329F058
:103BA0003093330610923206D4C5909130063917FF
:103BB00048F48F5F891708F0CCC581E083BF8895F2
:103BC00013BEC7C5D09332064093310680912C06B0
:103BD00090912D06019690932D0680932C060E94BD
:103BE000921680912E0680932F060E945811809382
:103BF0002E060E949216E09113068E2F90E08930D7
:103C0000910508F0A3C5FC01EA5AFF4F0C9450251A
:103C100000E420E845E957E060E070E080E090E0F3
:103C20000E948E13E12CF12C00918B0120E0402F9B
:103C3000B70180E090E00E946011B7016F5F7F4F95
:103C400020E0402F80E890E0801B91090E946011E5
:103C500092E0E90EF11CE0E4EE16F10429F707FD0D
:103C60006EC50E5F00938B0171C50E94CE120E943B
:103C70004D13EFE8F6E00491E0E9F6E0E490CC249F
:103C8000C3942BE835E041E956E068E170E08EE14D
:103C900090E00E94B70EE12CF12C00918B0120E006
:103CA000402FB70180E090E00E946011B7016F5F84
:103CB0007F4F20E0402F80E890E0801B91090E9418
:103CC0006011F2E0EF0EF11C20E4E216F10429F796
:103CD000002319F0045000938B0188E00E944215E4
:103CE000882309F433C582E0809313060E948D1463
:103CF00080E880938B012AC50E94CE120E944D134A
:103D00000E9404130E941D1386E080932006809376
:103D10001F068DE18093210685E491E00E944D15F8
:103D20006091990570E080E090E04AE00E945F15A4
:103D300088E591E00E944D1580E80E944215882395
:103D400009F40FC580919905843008F00AC58F5F8A
:103D500012C584E0809313060E948D1480919A0509
:103D60008230E9F068F48130B9F510921406809140
:103D7000FF0590910006A0910106B091020624C0B3
:103D80008330C1F0843041F51092140680910E0604
:103D900090910F06A0911006B091110615C01092D7
:103DA00014068091040690910506A0910606B09134
:103DB00007060AC0109214068091090690910A061F
:103DC000A0910B06B0910C068093150690931606F1
:103DD000A0931706B09318060E94CE120E944D13AE
:103DE0000E9404130E941D1386E080932006809396
:103DF0001F068DE18093210683E895E00E9434162A
:103E000080919A050E9455168BE795E00E94341622
:103E100075E1E72E76E0F72E00E0EDE19E2E8FE5CE
:103E2000800F8093200680931F0690922106809138
:103E300014069E2DE5E1F6E09E1B89130FC0F6E007
:103E40008F9FC0011124AC014D595F4F26E230E035
:103E500066E270E0815A9F4F0E94A015F7016191C0
:103E60007F01E0911B06F0911C060190F081E02D8E
:103E70008BE196E009950A5F083189F600911406F6
:103E800080E80E9442158823E1F0E02FF0E0EC5E2C
:103E9000F94F81818A3589F034F4803261F08CF0F9
:103EA00081346CF40EC0813664F08A3744F08A376E
:103EB00041F480E205C081E403C081E601C08F5F68
:103EC000818380E10E9442158823D9F0E02FF0E041
:103ED000EC5EF94F81818B3544F4823484F4803276
:103EE00051F0813471F480E20BC0813631F04CF036
:103EF0008B372CF006C08AE703C08AE501C08150E9
:103F0000818380E20E944215882329F0002319F062
:103F100001500093140680E40E944215882339F072
:103F200080911406833018F48F5F8093140684E028
:103F30000E9442158823A1F080919A05823058F0A2
:103F400083E0809313060E948D1480919A0581501E
:103F500080939A0505C082E0809313060E948D1419
:103F600088E00E944215882309F4F0C300919A0565
:103F7000023089F038F40130C9F465E176E08FEF62
:103F800095E012C0033061F0043081F465E176E021
:103F90008EE096E009C065E176E084E096E004C03A
:103FA00065E176E089E096E00E945B2580919905C5
:103FB000081758F483E0809313060E948D148091B3
:103FC0009A058F5F80939A05C1C385E034C00E9433
:103FD000CE120E944D130E9404130E941D1386E00E
:103FE0008093200680931F068DE1809321068BE548
:103FF00091E00E944D1560919B0570E080E090E09B
:104000004AE00E945F1588E591E00E944D1580E826
:104010000E944215882309F4B8C380919B05823120
:1040200008F0B3C38F5FBBC384E00E9442158823AE
:1040300009F48CC383E08093130686C3F7E0F09302
:1040400013060E948D1400E420E84BE751E060E085
:1040500070E080E090E00E948E13D0932006D09311
:104060001F0626E1209321068FEF95E00E944D1553
:10407000D0932006D0931F06B092210684E096E0EC
:104080000E944D15D0932006D0931F06C0932106A1
:1040900089E096E00E944D15D0932006D0931F062C
:1040A000A09221068EE096E00E944D15E12CF12CA5
:1040B00021E049E050E0B70189E296E00E94A311B7
:1040C00032E0E30EF11C82E8E816F10489F7C093B0
:1040D0002006C0931F061092210680919C0590E057
:1040E00002970E945C161093200610931F061092F0
:1040F000210680919C0590E001970E945C164CE49B
:10410000F42EF0922006F0921F0610922106809164
:104110009C050E94551610922206C0932006C0935B
:104120001F065BE0E52EE092210680919C0590E061
:10413000039705E0089FF001099FF00D1124E9564F
:10414000FA4F81850E9455161093200610931F0682
:10415000E092210680919C0590E00297089FF00173
:10416000099FF00D1124E956FA4F81850E945516DA
:10417000F0922006F0921F06E092210680919C05A5
:1041800090E00197089FF001099FF00D1124E95676
:10419000FA4F81850E945516D0932206C0932006BF
:1041A000C0931F0696E19093210680919C0590E0B4
:1041B0000397089FF001099FF00D1124E956FA4F6B
:1041C00082850E9455161093200610931F06E6E183
:1041D000E093210680919C0590E00297089FF001F2
:1041E000099FF00D1124E956FA4F82850E94551659
:1041F000F0922006F0921F06F6E1F09321068091DE
:104200009C0590E00197089FF001099FF00D112493
:10421000E956FA4F82850E94551668E6E62EE0922E
:104220002006E0921F0626E1209321068091FB05DF
:104230000E94551680919905823008F446C0C093BB
:104240002006C0931F06B092210680919C0590E045
:104250000397089FF001099FF00D1124E956FA4FCA
:1042600083850E9455161093200610931F06B09266
:10427000210680919C0590E00297089FF001099F1C
:10428000F00D1124E956FA4F83850E945516F092DD
:104290002006F0921F06B092210680919C0590E0C6
:1042A0000197089FF001099FF00D1124E956FA4F7C
:1042B00083850E945516E0922006E0921F06B09278
:1042C00021068091FC050E94551680919905833046
:1042D00008F449C0C0932006C0931F06C09321066E
:1042E00080919C0590E0039705E0089FF001099FED
:1042F000F00D1124E956FA4F84850E94551610934B
:10430000200610931F06C093210680919C0590E023
:104310000297089FF001099FF00D1124E956FA4F0A
:1043200084850E9455168CE48093200680931F0696
:10433000C093210680919C0590E00197089FF001B1
:10434000099FF00D1124E956FA4F84850E945516F5
:1043500088E68093200680931F06C09321068091F3
:10436000FD050E94551680919905843009F049C0D9
:10437000C0932006C0931F06A092210680919C0541
:1043800090E0039705E0089FF001099FF00D1124CC
:10439000E956FA4F85850E94551610932006109312
:1043A0001F06A092210680919C0590E00297089F2D
:1043B000F001099FF00D1124E956FA4F85850E94FE
:1043C00055168CE48093200680931F06A092210648
:1043D00080919C0590E00197089FF001099FF00DE6
:1043E0001124E956FA4F85850E94551688E6809378
:1043F000200680931F06A09221068091FE050E9450
:10440000551680919F05882321F0813009F4B2C0B0
:104410009DC180919E0590E001972BE0289F20018F
:10442000299F500C1124720135E1E30EF11C80909C
:104430009D0580E1889E60011124160199E2290EF4
:10444000311CE0E4EE16F10434F421E04FE0B70152
:10445000C1010E946011B201625E7F4F603471053C
:104460002CF421E04FE0C1010E946011FFE14F0EEA
:10447000511CF7FE02C0E12CF12C4701320131E45E
:10448000431651041CF030E4632E712C86149704FB
:104490005CF421E0A401B10189E296E00E94A3113D
:1044A0002FEF821A920AEACF460187E3880E911C09
:1044B000E614F7045CF421E0A701B40189E296E078
:1044C0000E94A3119FEFE91AF90AF2CF80E80E9437
:1044D0004215882321F080919E0581116BC180E1F6
:1044E0000E944215882339F080919E05909199058C
:1044F000891708F463C180E20E9442158823A9F05D
:1045000080919D05882321F0815080939D050DC0E9
:1045100080919C05843020F0815080939C0505C0DB
:1045200085E0809313060E948D1480E40E9442155A
:104530008823B9F080919D05823020F48F5F8093AD
:104540009D050FC080919C0590919B05891720F4D3
:104550008F5F80939C0505C088E0809313060E94BE
:104560008D1488E00E944215882309F4EFC0D0938F
:104570009F05ECC080919D0590E0019624E0880F96
:10458000991F2A95E1F760919E05EBE06E9FB001BF
:1045900011246D5E7F4FAC014A5D5F4F9B014A96CF
:1045A0000E94A01580E80E9442158823C9F08091DE
:1045B0009E05811115C020919C0580919D0590E07C
:1045C0000397820F911D25E0289FF001299FF00D90
:1045D0001124E956FA4F81858A3010F48F5F818764
:1045E00080E10E9442158823C9F080919E058111C7
:1045F00015C020919C0580919D0590E00397820F46
:10460000911D25E0289FF001299FF00D1124E95606
:10461000FA4F8185823010F08150818780E80E94B6
:104620004215882399F100919E05002379F180912C
:104630009C0520919D0530E023503109280F311D44
:1046400045E0429FC001439F900D1124FC01E056BC
:10465000FA4F7F01602FCF010E947A13982E602FAE
:104660008AEF95E00E947A13882EF9E0F91570F030
:1046700041E0490D602FC7010E94661341E0480DDB
:1046800060919E058AEF95E00E94661380E10E948A
:104690004215882391F100919E05002371F18091CC
:1046A0009C0520919D0530E023503109280F311DD4
:1046B00045E0429FC001439F900D11249C0120566C
:1046C0003A4F7901602FC9010E947A13982E602F0A
:1046D0008AEF95E00E947A13882E992071F04FEFAF
:1046E000490D602FC7010E9466134FEF480D60917E
:1046F0009E058AEF95E00E94661388E00E944215AD
:10470000882321F110929F0521C01092200610925B
:104710001F06109221068CE691E00E944D1584E060
:104720000E944215882329F0F7E0F09313060E94B7
:104730008D1488E00E944215882341F003C080E870
:1047400080938B01D09313060E948D1480E00E9409
:10475000251620E030E0232B09F40ECA0E94000049
:1047600005CA80E10E944215882341F08091990595
:10477000823020F0815080939905E8CF88E00E9434
:104780004215811157CC84E0D5CF80E10E944215BB
:10479000882341F080919B05823020F081508093E6
:1047A0009B05D4CF88E00E944215882309F43CCCB5
:1047B00086E041CC815080939E0591CE8F5F80939F
:1047C0009E0599CE0F931F93CF93DF938C0181E0C9
:1047D00090E00E94042580FF32C08AE090E00E94B1
:1047E00004259FEF980F9E3F50F522E330E0D8015B
:1047F00050963C932E931F9728E330E052963C93BB
:104800002E935197CBE0D0E0D801ED91FC9101902F
:10481000F081E02D682FC8010995CE010E94042582
:104820002196C131D10581F780E00E94251688EEDE
:1048300093E0DF91CF911F910F910C945311DF9171
:10484000CF911F910F91089504970C94E223109239
:104850004B0610924A0688EE93E0A0E0B0E0809309
:104860004C0690934D06A0934E06B0934F0680E100
:1048700091E090934906809348068FEF9FEF9093C5
:10488000550680935406109228061092270610921F
:104890002E0610922F0680E18093300610922D068E
:1048A00010922C06109232061092350610923406A1
:1048B000109237061092360681E0809338061092E7
:1048C000390680933A0610923B062EE231E030938F
:1048D0002606209325062CE331E030932A06209308
:1048E000290610921E0610921D0622E231E0309336
:1048F0001C0620931B0698E09093240680932306C1
:10490000109220061092210610921F068093220614
:1049100090E2909315069093160690931706909345
:10492000180697E49093970593E4909398058093E5
:10493000990580939A0582E180939B0583E080939B
:104940009C0510929D0510929E0510929F0580E097
:1049500090E024E0FC01E956FA4F218705968A355C
:104960009105C1F784E08093FA0510921306EEE0FA
:10497000F6E080E294E09E0FDF011F978C9315967E
:104980008C9315968C9381939E13F6CF0895CF92B6
:10499000DF92EF92FF920F931F93CF93DF931F92BB
:1049A000CDB7DEB7182F062FE42E862F880F8E5F27
:1049B00099830E94B41783E00E94B417F12EC12E90
:1049C0009981D92E8C2D8F19801798F4F601E7FE66
:1049D00002C0849101C080810E94B417182F80E02A
:1049E0000E94B4178123FFEFCF1ADF0A8111EACFAB
:1049F00001C081E00F90DF91CF911F910F91FF9047
:104A0000EF90DF90CF900895F999FECF92BD81BDD0
:104A1000F89A992780B50895262FF999FECF1FBAE5
:104A200092BD81BD20BD0FB6F894FA9AF99A0FBED7
:104A300001960895A1E21A2EAA1BBB1BFD010DC011
:104A4000AA1FBB1FEE1FFF1FA217B307E407F5073E
:104A500020F0A21BB30BE40BF50B661F771F881F1A
:104A6000991F1A9469F760957095809590959B01B0
:104A7000AC01BD01CF010895AA1BBB1B51E107C0CA
:104A8000AA1FBB1FA617B70710F0A61BB70B881FDE
:104A9000991F5A95A9F780959095BC01CD0108956D
:104AA000EE0FFF1F0590F491E02D099481E090E056
:104AB000F8940C946225FB01DC0101900D9200201A
:084AC000E1F70895F894FFCF1F
:104AC80000E1000000000000FFFFFFFF0000000001
:104AD8007917E01616188F179A171A183818000041
:104AE80000009C10DC0D2E0E2D0E00000000C111E0
:104AF800DC0D2E0E2D0EE223FCFF0000242400C145
:104B08008081000000486F77206D616E7920706C9D
:104B180061796572733F20000D0A00486F77206D38
:104B2800616E7920486F6C65733F20004865726537
:104B380020617265207468652066696E616C2073F7
:064B4800636F726573004B
:00000001FF
