:100000000C94D9160C9401170C9401170C94011739
:100010000C9401170C9401170C9401170C94011700
:100020000C9401170C9401170C940A220C94792259
:100030000C9401170C9401170C9401170C940117E0
:100040000C9401170C9401170C9401170C940117D0
:100050000C9401170C9401170C9401170C94AB2409
:100060000C9401170C9401170C9401170C940117B0
:100070000C9401170C9401170C9401170C940117A0
:100080000C9401170C9401170C9401170C94011790
:100090000C9401170C9401170C9401170C94011780
:1000A0000C9401170C9401170C9401170000000028
:1000B00000F0FCFEFEFFFFFFFFFEFEFCF000000074
:1000C0000000000000000000000000000000000030
:1000D0000000000000000000000000000000000020
:1000E0000000000000000000000000000000000010
:1000F0000000000000000000000000000000000000
:1001000000000000000000000000000000000000EF
:1001100000000000000000000000000000000000DF
:1001200000000000000000000000000080C0C0E0EF
:10013000C0C0E3C73FFFFFFFFFBF87C3C0E0C0C031
:10014000E0C0800000800080C0E0C0C0E0C080C08F
:10015000800080C0E0C0C0E0E0C080008080C0C0FF
:10016000E0C0C0E0C080C0E0C0C0E0C080C080800F
:100170000080C0E0C0C0E0C000800080C0800000FF
:10018000800080C08080C0E0C0C0E0C080C080002F
:1001900080C0E0C0C0E0C0C080008080C0C0E0C0BF
:1001A000C0E0C080C0C0C0C0E0C080C00303030383
:1001B000030303030303030303030303030303030F
:1001C00003030303030303030303030303030303FF
:1001D00003030303030303030303030303030303EF
:1001E00003030303030303030303030303030303DF
:1001F00003030303030303030303030303030303CF
:1002000003030303030303030303030303030303BE
:1002100003030303030303030303030303030303AE
:100220000303030303030303030303038012000018
:1002300000000000F0DCFC76DEFEB6FC0CF00000F6
:1002400000000000000000000000000000000000AE
:10025000000000000000000000000000000000009E
:10026000000000000000000000000000000000008E
:10027000000000000000000000000000000000007E
:10028000000000000000000000000000000000006E
:10029000000000000000000000000000000000005E
:1002A00000000000000000000000000000000080CE
:1002B00000C0008040030317F7B51502038000C09B
:1002C0000080400000000000000080C0008040006E
:1002D000008000000080C00080400080000000001E
:1002E0008000C0008040800000C00080400000808E
:1002F0000000000000C000804000000000008000FE
:10030000000000000080000000C00080400000806D
:1003100000000080C00080400080000000008000DD
:10032000C0008040800000C00080400000800203C8
:100330000203030302030200030002030203020399
:100340000303020303020203020303030203030382
:100350000203020203030302030203030202030275
:100360000303030203020303020302030303020362
:100370000203020303030203030302030202030353
:100380000202030202030203030302030303020344
:100390000202030303020302030302020302030334
:1003A0000302030203030203020303030203F8FC34
:1003B000FEFF070787C7C7CFCF86C0C0C0C0C0C079
:1003C000FEFFFFFEFFFFFFC7C78F0F060000FCFE0A
:1003D000FFFF070707071F3F3E9CC0C0C0C0C0C04B
:1003E00080C080C0C080C0C08080C0C0C0C0C0808D
:1003F0000080C0C0C0C080C080C080C0C080A0F0ED
:10040000F0A0C0C0C0C0C0C080C080C0C080000F0D
:100410001F3F7F707070717F7F7F3F7F7F717F7F15
:100420007F3F7F7F7F7F7F7F010100000000001FF3
:100430003F7F7F70707070787C3C3F7F7F717F7FE3
:100440007F3F7F7F3F7F7F3F7F7FFFFFFFF17F7F8A
:100450003F1F3F7F7F713F7F7F3F7F7F3F7F7F3F9A
:100460007F7F3F7F7F717F7F7F3F7F7F3F7F7F3FAA
:10047000000000000000000000000000000000007C
:10048000000000000000000000000000000000006C
:10049000000000000000000000000000000000005C
:1004A000000000000000000000000000010100004A
:1004B000000000000000000000000000000000003C
:1004C000000000000000000000000000000000002C
:1004D00000611100F8FC060202028282868600801A
:1004E000808080808000FEFE00FEFE828282060602
:1004F00000000000FCFE0602020202061E1C008034
:10050000808080808000800080800080800000806B
:1005100080808080000000808080800080008000DB
:1005200080800000A0A0008080808080800080000B
:1005300080800000000F1F3020202020203F3F003F
:100540003F2020203F3F003F3F003F3F0000000092
:1005500000000000001F3F3020202020203818001D
:100560003F2020203F3F003F3F003F3F003F3F00F4
:10057000FFE020203F1F001F3F2020103F3F003F93
:100580003F003F3F003F3F003F2020203F3F003FD4
:100590003F003F3F0000000000000000000000009E
:1005A000000000000000000000000000000000004B
:1005B000000000000000000000000000000000003B
:1005C000000000000000000000000000000000002B
:1005D000000000000000000000000000000000001B
:1005E000000000000000000000000000000000000B
:1005F00000000000000004083E09093E3F25251ABE
:100600001E2121123F21211E3F2525213F050501E5
:100610001E21293A3F04043F213F21001021211FC0
:100620003F040A313F2020203F02023F3F02043FA7
:100630001E21211E3F0909061E21112E3F090936E0
:1006400022252519013F01011F20201F0F10201F07
:100650003F10103F3B04043B03043807312D232196
:10066000102A2A3C3F2424181C2222141824243F38
:100670001C2A2A2C043E05014C52523E3F040438E9
:10068000243D20004040443D3F081422213F2000EB
:100690003E04043E3E04023C1C22221C7E22221CFC
:1006A0001C22227E3E040204242A2A12021F222037
:1006B0001E20201E0E10201E3E10103E360808364A
:1006C0004E50503E322A26221E29251E223F20004F
:1006D000322929261221251A0C0A3F081725251927
:1006E0001E252518013905031A25251A0629291E54
:1006F000002F000000200000022905020004040071
:1007000000000000003E5B4F5B3E3E6B4F6B3E1CAB
:100710003E7C3E1C183C7E3C181C577D571C1C5EC2
:100720007F5E1C00183C1800FFE7C3E7FF00182499
:100730001800FFE7DBE7FF30483A060E2629792943
:1007400026407F050507407F05253F5A3CE73C5A78
:100750007F3E1C1C08081C1C3E7F14227F22145F55
:100760005F005F5F06097F017F006689956A6060B0
:1007700060606094A2FFA29408047E040810207EAA
:10078000201008082A1C08081C2A08081E1010102F
:10079000100C1E0C1E0C30383E3830060E3E0E0675
:1007A000000000000000005F0000000700070014C8
:1007B0007F147F14242A7F2A122313086462364987
:1007C0005620500008070300001C2241000041226F
:1007D0001C002A1C7F1C2A08083E08080080703074
:1007E00000080808080800006060002010080402E3
:1007F0003E5149453E00427F4000724949494621E9
:1008000041494D331814127F1027454545393C4A5C
:100810004949314121110907364949493646494973
:10082000291E0000140000004034000000081422BB
:100830004114141414140041221408020159090629
:100840003E415D594E7C1211127C7F494949363E2A
:10085000414141227F4141413E7F494949417F0910
:100860000909013E414151737F0808087F00417F1B
:1008700041002040413F017F081422417F40404019
:10088000407F021C027F7F0408107F3E4141413EB1
:100890007F090909063E4151215E7F091929462633
:1008A0004949493203017F01033F4040403F1F2037
:1008B00040201F3F4038403F63140814630304780E
:1008C00004036159494D43007F414141020408102E
:1008D00020004141417F0402010204404040404069
:1008E000000307080020545478407F2844443838D7
:1008F00044444428384444287F3854545418000849
:100900007E090218A4A49C787F0804047800447D22
:1009100040002040403D007F1028440000417F40BF
:10092000007C047804787C08040478384444443813
:10093000FC1824241818242418FC7C0804040848F3
:100940005454542404043F44243C4040207C1C2044
:1009500040201C3C4030403C44281028444C90909F
:10096000907C4464544C44000836410000007700F9
:1009700000004136080002010204023C2623263C06
:100980001EA1A161123A4040207A38545455592191
:10099000555579412154547841215554784020547B
:1009A0005579400C1E5272123955555559395454C7
:1009B000545939555454580000457C410002457D36
:1009C000420001457C40F0292429F0F0282528F038
:1009D0007C545545002054547C547C0A097F49328C
:1009E000494949323248484832324A4848303A4107
:1009F00041217A3A42402078009DA0A07D394444AC
:100A000044393D4040403D3C24FF2424487E494336
:100A1000662B2FFC2F2BFF0929F620C0887E0903A7
:100A200020545479410000447D413048484A3238CE
:100A30004040227A007A0A0A727D0D19317D2629FA
:100A4000292F28262929292630484D4020380808F2
:100A5000080808080808382F10C8ACBA2F10283426
:100A6000FA00007B000008142A142222142A140819
:100A70009500220095AA005500AAAA55AA55AA00D9
:100A80000000FF00101010FF00141414FF001010DD
:100A9000FF00FF1010F010F0141414FC001414F7F1
:100AA00000FF0000FF00FF1414F404FC14141710DE
:100AB0001F10101F101F1414141F00101010F0002E
:100AC0000000001F101010101F10101010F0100068
:100AD0000000FF101010101010101010FF10000078
:100AE00000FF140000FF00FF00001F10170000FCB3
:100AF00004F414141710171414F404F40000FF0085
:100B0000F714141414141414F700F714141417140D
:100B100010101F101F141414F4141010F010F00013
:100B2000001F101F0000001F14000000FC14000034
:100B3000F010F01010FF10FF141414FF1410101018
:100B40001F00000000F010FFFFFFFFFFF0F0F0F0CB
:100B5000F0FFFFFF0000000000FFFF0F0F0F0F0F5F
:100B600038444438447C2A2A3E147E020206060297
:100B70007E027E0263554941633844443C04407E12
:100B8000201E2006027E020299A5E7A5991C2A498B
:100B90002A1C4C7201724C304A4D4D303048784816
:100BA00030BC625A463D3E494949007E0101017E02
:100BB0002A2A2A2A2A44445F444440514A44404055
:100BC000444A51400000FF0103E080FF0000080894
:100BD0006B6B083612362436060F090F0600001814
:100BE000180000001010003040FF0101001F01013B
:100BF0001E00191D1712003C3C3C3C000000000088
:100C0000D5F08D14A1C881CFD9F1AF2000FFFFFF2F
:100C1000FFFFFFFFFFFFFFFFFFFFFFFFFFFFFFFFE4
:100C2000FFFFFFFFFFFFFFFFFFFFFFFFFFFFFFFFD4
:100C3000FFFFFFFFFFFFFFFFFFFFFFFFFFFFFFFFC4
:100C4000FFFFFFFFFFFFFFFFFFFFFFFFFFFFFFFFB4
:100C5000FFFFFFFFFFFFFFFFFFFFFFFFFFFFFFFFA4
:100C6000FFFFFFFFFFFFFFFFFFFFFFFFFFFFFFFF94
:100C7000FFFFFFFFFFFFFFFFFFFFFFFFFFFFFFFF84
:100C8000FFFFFFFFFFFFFFFFFFFFFFFFFF0101016E
:100C900001010101010101C1E1F9F9F9F9F9F9F9DC
:100CA000F9F9F9F9F9F9F9F9F9F9F9F9F9F9F9F9B4
:100CB000F9F9F9F9F9F9F9F9F9F9F9F9F9F9F9F9A4
:100CC000F9F9F9F9F9F9F9F9F9F9F9F9F9F9F9F994
:100CD000F9F9F9F9F9F9F9F9F9F9F9F9F9F9F9F984
:100CE000F9F9F9F9F9F9F9F9F9F9F9F9F9F9F9F974
:100CF000F9F9F9F9F9F9F9F9F9F9F9F9F9F9F9F964
:100D0000F9E1C1010101010101010101010000003E
:100D100000000000000000FFFFFFFFFFFFFFFFFFDC
:100D2000FFFFFFFFFFFFFFFFFFFFFFFFFFFFFFFFD3
:100D3000FFFFFFFFFFFFFFFFFFFFFFFFFFFFFFFFC3
:100D4000FFFFFFFFFFFFFFFFFFFFFFFFFFFFFFFFB3
:100D5000FFFFFFFFFFFFFFFFFFFFFFFFFFFFFFFFA3
:100D6000FFFFFFFFFFFFFFFFFFFFFFFFFFFFFFFF93
:100D7000FFFFFFFFFFFFFFFFFFFFFFFFFFFFFFFF83
:100D8000FFFFFFBF5E00000000000000002070F8C1
:100D9000FCFCFCFCF87020FFFFFFFFFFFFFFFFFFE4
:100DA000FFFFFFFFFFFFFFFFFFFFFFFFFFFFFFFF53
:100DB000FFFFFFFFFFFFFFFFFFFFFFFFFFFFFFFF43
:100DC000FFFFFFFFFFFFFFFFFFFFFFFFFFFFFFFF33
:100DD000FFFFFFFFFFFFFFFFFFFFFFFFFFFFFFFF23
:100DE000FFFFFFFFFFFFFFFFFFFFFFFFFFFFFFFF13
:100DF000FFFFFFFFFFFFFFFFFFFFFFFFFFFFFFFF03
:100E0000FFFFFFAA550000000000000000000001E5
:100E100003030303010000FFFFFFFFFFFFFFFFFFCE
:100E2000FFFFFFFFFFFFFFFFFFFFFFFFFFFFFFFFD2
:100E3000FFFFFFFFFFFFFFFFFFFFFFFFFFFFFFFFC2
:100E4000FFFFFFFFFFFFFFFFFFFFFFFFFFFFFFFFB2
:100E5000FFFFFFFFFFFFFFFFFFFFFFFFFFFFFFFFA2
:100E6000FFFFFFFFFFFFFFFFFFFFFFFFFFFFFFFF92
:100E7000FFFFFFFFFFFFFFFFFFFFFFFFFFFFFFFF82
:100E8000FFFFFFAA55000000000000000000000066
:100E900000008080C0C0C0FFFFFFFFFFFFFFFFFF1B
:100EA000FFFFFFFFFFFFFFFFFFFFFFFFFFFFFFFF52
:100EB000FFFFFFFFFFFFFFFFFFFFFFFFFFFFFFFF42
:100EC000FFFFFFFFFFFFFFFFFFFFFFFFFFFFFFFF32
:100ED000FFFFFFFFFFFFFFFFFFFFFFFFFFFFFFFF22
:100EE000FFFFFFFFFFFFFFFFFFFFFFFFFFFFFFFF12
:100EF000FFFFFFFFFFFFFFFFFFFFFFFFFFFFFFFF02
:100F0000FFFFFFEAD5C08080000000000000000065
:100F10003CFFFFFFFFFFFFFFFFFFFFFFFFFFFFFFA4
:100F2000FFFFFFFFFFFFFFFFFFFFFFFFFFFFFFFFD1
:100F3000FFFFFFFFFFFFFFFFFFFFFFFFFFFFFFFFC1
:100F4000FFFFFFFFFFFFFFFFFFFFFFFFFFFFFFFFB1
:100F5000FFFFFFFFFFFFFFFFFFFFFFFFFFFFFFFFA1
:100F6000FFFFFFFFFFFFFFFFFFFFFFFFFFFFFFFF91
:100F7000FFFFFFFFFFFFFFFFFFFFFFFFFFFFFFFF81
:100F8000FFFFFFFFFFFFFFFFFF3C000000F0F8F056
:100F9000F0F8F1CFFFFFFFFFFFFFFFFFFFFFFFFFB5
:100FA000FFFFFFFFFFFFFFFFFFFFFFFFFFFFFFFF51
:100FB000FFFFFFFFFFFFFFFFFFFFFFFFFFFFFFFF41
:100FC000FFFFFFFFFFFFFFFFFFFFFFFFFFFFFFFF31
:100FD000FFFFFFFFFFFFFFFFFFFFFFFFFFFFFFFF21
:100FE000FFFFFFFFFFFFFFFFFFFFFFFFFFFFFFFF11
:100FF000FFFFFFFFFFFFFFFFFFFFFFFFFFFFFFFF01
:10100000FFFFFFFFFFFFFFF9F0F0F8F0F080407EF8
:10101000FFFFFFFFFFFFFFFFFFFFFFFFFFFFFFFFE0
:10102000FFFFFFFFFFFFFFFFFFFFFFFFFFFFFFFFD0
:10103000FFFFFFFFFFFFFFFFFFFFFFFFFFFFFFFFC0
:10104000FFFFFFFFFFFFFFFFFFFFFFFFFFFFFFFFB0
:10105000FFFFFFFFFFFFFFFFFFFFFFFFFFFFFFFFA0
:10106000FFFFFFFFFFFFFFFFFFFFFFFFFFFFFFFF90
:10107000FFFFFFFFFFFFFFFFFFFFFFFFFFFFFFFF80
:10108000FFFFFFFFFFFFFFFFFFFFFFFFFFFF7E00F0
:1010900000000000000000000000C02090505050F0
:1010A0005050505050505050505050505050505040
:1010B0005050505050505050505050505050505030
:1010C0005050505050505050505050505050505020
:1010D0005050505050505050505050505050505010
:1010E0005050505050505050505050505050505000
:1010F00050505050505050505050505050505050F0
:10110000509020C00000000000000000000000001F
:1011100000000000000000000000FF00FF000000D1
:101120007E12120C00427E40000020545478009C35
:10113000A0A07C0038545458007C0804080000002B
:1011400000FF0000000000444A4A320038444428AE
:101150000038444438007C080408003854545800CF
:10116000000000FF000000040E44300C22200000AC
:101170007E12120C0020545478007C0804080000F1
:1011800000FF00FF00000000000000000000002041
:1011900050A884243484A8502000FF00FF020202DB
:1011A000020202020202020202020202020202021F
:1011B000020202020202020202020202020202020F
:1011C00002FA020202020202020202020202020207
:1011D00002020202020202020202020202020202EF
:1011E000020202FA020202020202020202020202E7
:1011F00002020202020202020202020202020202CF
:1012000002FF00FF000000000000000000000000DE
:1012100000010202020201000000FF00FF000400C2
:10122000040004000400040004000400040004009E
:10123000040004000400040004000400040004008E
:1012400000FF000004000400040004000400040087
:10125000040004000400040004000400040004006E
:10126000040000FF00000400040004000400040067
:10127000040004000400040004000400040004004E
:1012800000FF00FF00000000000000000000000060
:10129000000000000000808080807F00FF000800C8
:1012A00008000800080008000800080008000800FE
:1012B00008000800080008000800080008000800EE
:1012C00000FF0000080008000800080008000800EF
:1012D00008000800080008000800080008000800CE
:1012E000080000FF000008000800080008000800CF
:1012F00008000800080008000800080008000800AE
:1013000000FF007F8080808000000000000000005F
:101310000000003CF7FFDDF77F6DBFC33C0010000D
:10132000100010001000100010001000100010003D
:10133000100010001000100010001000100010002D
:1013400000FF00001000100010001000100010003E
:10135000100010001000100010001000100010000D
:10136000100000FF0000100010001000100010001E
:1013700010001000100010001000100010001000ED
:10138000003CF7FFDDF77F6DBFC33C00000000802D
:10139000F0C0E090C08005FD2D85D080EF80E0C0DA
:1013A000E080C0C080A0C080C0E0E080E0C0C0801D
:1013B000E08080C0E0E080E080C0E08080C080E02D
:1013C000C0E780E080E0C080E080E0C0C080E080D6
:1013D000C080C0C0E080E0C0C0A0C08080E0C0800D
:1013E00080C0808FE080C0C0E080E0C0C080E0802E
:1013F00080C0E0E080E080C0E0808080E080E0C0ED
:10140000E097C0A005FD2D85C090E080F0C0E08091
:1014100040007E08087E003844443800427E400088
:101420000038545458000000000078EEFEBBEFFF77
:10143000DB7E867800000000007F000000000000D6
:101440000000000000000000007F0000000000001D
:101450000000000000000000007F0000000000000D
:101460000000000000000000007F00FF00000000FE
:10147000000002027E02023844443800043E444028
:10148000002054547800427E40000000000000001C
:1014900000FD0D6D6D9DFDFD5D5D3DFD1DBDDDBD69
:1014A000FDFDFDFDFDFDFDFDFDFDFE7DF50BFB5A8A
:1014B000AAF5FDFEFDFDFDFDFD05FDFDFDFDFDFDAE
:1014C000FDFDFDFDFDFDFDFDFD05FDFDFDFDFDFD44
:1014D000FDFDFDFDFDFDFDFDFD05FDFDFDFDFDFD34
:1014E000FDFDFDFDFDFDFDFDFD05F8F265EAEAEA05
:1014F000EAEAEAEAEAEAEAEAEA6AEAEAEAEAEAEACC
:101500006AEAEAEA6AEAEAEAEAEA6AEAEAEAEA6A3B
:10151000EA17141717171716151514171417171796
:101520001716151616151516151614171414151664
:1015300015151615151615141FA81F1F1F1F1F1F81
:101540001F1F1F1F1F1F1F1F1FA81F1F1F1F1F1F22
:101550001F1F1F1F1F1F1F1F1FA81F1F1F1F1F1F12
:101560001F1F1F1F1F1F1F1F1FA81F141714151633
:101570001615151615151615141716151516151416
:101580001714151617141516151417141516141705
:1015900016808080808080808080808080808080B5
:1015A000808080808080808080808080808080803B
:1015B000808080808080808000AA00808080808001
:1015C000808080808080808000AA008080808080F1
:1015D000808080808080808000AA008080808080E1
:1015E000808080808080808000AA008080808080D1
:1015F00080808080808080808080808080808080EB
:1016000080808080808080808080808080808080DA
:10161000800000000000000000000000000000004A
:1016200000000000000000000000000000000000BA
:10163000000000000000000000AA00000000000000
:10164000000000000000000000AA000000000000F0
:10165000000000000000000000AA000000000000E0
:10166000000000000000000000AA000000000000D0
:10167000000000000000000000000000000000006A
:10168000000000000000000000000000000000005A
:10169000000404040404040404040404040404040E
:1016A00004040404040404040404040404040404FA
:1016B000040404040404040400AA0004040404044C
:1016C000040404040404040400AA0004040404043C
:1016D000040404040404040400AA0004040404042C
:1016E000040404040404040400AA0004040404041C
:1016F00004040404040404040404040404040404AA
:101700000404040404040404040404040404040499
:1017100004202020202020202020202020202020E5
:1017200020202020202020202020202020202020B9
:10173000202020202020202000AA0020202020205F
:10174000202020202020202000AA0020202020204F
:10175000202020202020202000AA0020202020203F
:10176000202020202020202000AA0020202020202F
:101770002020202020202020202020202020202069
:101780002020202020202020202020202020202059
:101790002000000000000000000000000000000029
:1017A0000000000000000000000000000000000039
:1017B000000000000000000000AA0000000000007F
:1017C000000000000000000000AA0000000000006F
:1017D000000000000000000000AA0000000000005F
:1017E000000000000000000000AA0000000000004F
:1017F00000000000000000000000000000000000E9
:1018000000000000000000000000000000000000D8
:1018100000206E616D653F2000506C61796572201B
:1018200000000000000000000000000000000000B8
:1018300000000000000000000000000000000000A8
:1018400000FFFFFFFFFFFFFFFFFFFFFFFFFFFFFFA7
:10185000FFFFFFFFFFFFFFFFFFFFFFFFFFFFFFFF98
:10186000FFFFFFFFFFFFFFFFFFFFFFFFFFFFFFFF88
:10187000FFFFFFFFFFFFFFFFFFFFFFFFFFFFFFFF78
:101880000000000000000000000000000000000058
:101890000000000000000000000000000000000048
:1018A0000000000000000000000000000000000038
:1018B0000000000000000000000000000000000028
:1018C00000FFFFFFFFFFFFFFFFFFFFFFFFFFFFFF27
:1018D000FFFFFFFFFFFFFFFFFFFFFFFFFFFFFFFF18
:1018E000FFFFFFFFFFFFFFFFFFFFFFFFFFFFFFFF08
:1018F000FFFFFFFFFFFFFFFFFFFFFFFFFFFFFFFFF8
:1019000000000000000000000000000000000000D7
:1019100000000000000000000000000000000000C7
:1019200000000000000000000000000000000000B7
:1019300000000000000000000000000000000000A7
:1019400000FFFFFFFFFFFFFFFFFFFFFFFFFFFFFFA6
:10195000FFFFFFFFFFFFFFFFFFFFFFFFFFFFFFFF97
:10196000FFFFFFFFFFFFFFFFFFFFFFFFFFFFFFFF87
:10197000FFFFFFFFFFFFFFFFFFFFFFFFFFFFFFFF77
:101980000000000000000000000000000000000057
:101990000000000000000000000000000000000047
:1019A0000000000000000080C0C0E0E0E0E0C0C037
:1019B00080000000000000000000000000000000A7
:1019C00000FFFFFFFFFFFFFFFFFFFFFFFFFFFFFF26
:1019D000FFFFFFFFFFFFFFFFFFFFFFFFFFFFFFFF17
:1019E000FFFFFFFFFFFFFFFFFFFFFFFFFFFFFFFF07
:1019F000FFFFFFFFFFFFFFFFFFFFFFFFFFFFFFFFF7
:101A000000000000000000000000000000000000D6
:101A100080C0C0E0E0E0E0C0C08000000000000046
:101A20000000000000001E7FFFFFFFFFFFFFFFFF21
:101A30007F1E000000000000000000000000000009
:101A400000FFFFFFFFFFFFFFFFFFFFFFFFFFFFFFA5
:101A5000FFFFFFFFFFFFFFFFFFFFFFFFFFFFFFFF96
:101A6000FFFFFFFFFFFFFFFFFFFFFFFFFFFFFFFF86
:101A7000FFFFFFFFFFFFFFFFFFFFFFFFFFFFFFFF76
:101A80000000000000000000000000000000001E38
:101A90007FFFFFFFFFFFFFFFFF7F1E000000000032
:101AA00000F0F8F8FCF8F8FCF8E2FFFFFFF7F2F0BE
:101AB000F8F8FCF8F8FCF8F0E0E0F0E0F0F8FCF8FA
:101AC000FCFFFFFFFFFFFFFFFFFFFFFFFFFFFFFF29
:101AD000FFFFFFFFFFFFFFFFFFFFFFFFFFFFFFFF16
:101AE000FFFFFFFFFFFFFFFFFFFFFFFFFFFFFFFF06
:101AF000FFFFFFFFFFFFFFFFFFFFFFFFFFFFFFFFF6
:101B0000F8F0F8F0E0F0F0F8FCF8F8FCF8FCF8F881
:101B1000FCF8FAFFFFFFFFF2F8FCF8F8FCF8E0E051
:101B2000F0FFFFFFFFFFFFFFFFFFFFFFFFFFFFFFD4
:101B3000FFFFFFFFFFFFFFFFFFFFFFFFFFFFFFFFB5
:101B4000FFFFFFFFFFFFFFFFFFFFFFFFFFFFFFFFA5
:101B5000FFFFFFFFFFFFFFFFFFFFFFFFFFFFFFFF95
:101B6000FFFFFFFFFFFFFFFFFFFFFFFFFFFFFFFF85
:101B7000FFFFFFFFFFFFFFFFFFFFFFFFFFFFFFFF75
:101B8000FFFFFFFFFFFFFFFFFFFFFFFFFFFFFFFF65
:101B9000FFFFFFFFFFFFFFFFFFFFFFFFFFFFFFFF55
:101BA000FFFFFFFFFFFFFFFFFFFFFFFFFFFFFFFF45
:101BB000FFFFFFFFFFFFFFFFFFFFFFFFFFFFFFFF35
:101BC000FFFFFFFFFFFFFFFFFFFFFFFFFFFFFFFF25
:101BD000FFFFFFFFFFFFFFFFFFFFFFFFFFFFFFFF15
:101BE000FFFFFFFFFFFFFFFFFFFFFFFFFFFFFFFF05
:101BF000FFFFFFFFFFFFFFFFFFFFFFFFFFFFFFFFF5
:101C0000FFFFFFFFFFFFFFFFFFFFFFFFFFFFFFFFE4
:101C1000FFFFFFFFFFFFFFFFFFFFFFFFFFFFFFFFD4
:101C2000FF804000000000000000000000000000F5
:101C300000000000000000000000000000000000A4
:101C400000000000FF00FF00000000000000000096
:101C50000000000000000000000000000000000084
:101C60000000000000000000000000000000000074
:101C70000000000000000000000000000000FF0065
:101C8000FF00000000000000000000000000000055
:101C90000000000000000000000000000000000044
:101CA0000000000000000000000000000000000034
:101CB0000000000000000000000000000000000024
:101CC00000000000FF00FF0000000000082088382E
:101CD000F8E0F8F838884040E00000608000E0005C
:101CE00000000000800000000000000000008000F4
:101CF0000000004000000000000000000000FF00A5
:101D0000FF000000000000000000000000000000D4
:101D100000000000000000000000000000000000C3
:101D200000000000000000000000000000000000B3
:101D300000000000000000000000000000000000A3
:101D400000000000FF00FF00000000000000000293
:101D500008030701180B0B0600000000030E01002A
:101D600006090E000F010E010E001F0906000E00ED
:101D70000F02000F000609000B0D00000000FF001D
:101D8000FF00000000000000000000000000000054
:101D90000000000000000000000000000000000043
:101DA000000000000000000000008080C0C0C0C033
:101DB0008080000000000000000000000000000023
:101DC00000000000FF00FF00000000000000E03005
:101DD000FA6C7878786CFA30E0000000FC2404D4C7
:101DE00000FC00F020C020C000C020C008FC08C0DB
:101DF0002060000000000000000000000000FF0064
:101E0000FF000000000000000000000000000000D3
:101E10000000008080C0C0C0C080800000000000C2
:101E20000000000000000000001E7B7FEEFBBFB63C
:101E30005F611E00000000000000000000000000C4
:101E400000000000FF00FF00000000000000000094
:101E5000000101000101000000000000010000017C
:101E6000000100010001000100000100000100006C
:101E70000101000000000000000000000000FF0061
:101E8000FF00000000000000000000000000000053
:101E900000001E7B7FEEFBBFB65F611E00000000EE
:101EA000000000C0F0C0F8E0F0C8E0C082FE96C2BA
:101EB000E0C0F0C0F8E0F0C8E0E0C0C0E0C0E0F092
:101EC000F8C0F0E8E7C0F7C0C0E0F0F8C0F0C8E044
:101ED000F0C0C0E0C0F0E0F8C0F0C8F0E0C0F8C06A
:101EE000F0E8E0C0F0C0E0C0E0E0F8C0F0E8E0C03A
:101EF000E0C0C0F0E0C0C0E0C0C0F0C0E0E0FFC0A3
:101F0000F7E8E0C0F0C0C0E0E0F0F8C0F0F8E0F8BA
:101F1000E0F0C8E0D082FE96C2E0C0F8C0F0E8E091
:101F2000C0C0E0FFFFEFFFE3FFE7FBEFFFFFFFFFB6
:101F3000FFEFFFE3FFE7FBFFFFFFFFFFFFFFFFEF09
:101F4000FFE3FFE7FBEFFFFFFFFFFFEFFFE3FFE72D
:101F5000FBEFFFFFFFFFFFFFFFEFFFE3FFE7FBEFFD
:101F6000FFFFFFFFFFEFFFE3FFE7FBEFFFFFFFFFD9
:101F7000FFFFFFEFFFE3FFE7FBEFFFFFFFFFFFEFD9
:101F8000FFE3FFE7FBEFFFFFFFFFFFFFFFFFEFFFB9
:101F9000E3FFE7FBEFFFFFFFFFFFEFFFE3FFE7FBE1
:101FA000EFFFFFFFFFFFFFFFFFFFF7FFF1FFF3FD75
:101FB000F7FFFFFFFFFFFFFFFFFFFFFFFFFFFFFF39
:101FC000FFFFFFFFF7FFF1FFF3FDF7FFFFFFFFFF4D
:101FD000FFFFFFFFFFFFFFFFFFFFFFFFFFFFF7FF19
:101FE000F1FFF3FDF7FFFFFFFFFFFFFFFFFFFFFF25
:101FF000FFFFFFFFFFFFFFFFF7FFF1FFF3FDF7FF1D
:10200000FFFFFFFFFFFFFFFFFFFFFFFFFFFFFFFFE0
:10201000FFFFFFF7FFF1FFF3FDF7FFFFFFFFFFFFFC
:10202000FFFFFF050700003E000005077F7F7F7F61
:102030007F000000000000C0E0F0F0F0F0F0F0F0F1
:10204000F0F0F0F0F0F0F0F0F0F0F0F0F0F0F0F090
:10205000F0F0F0F0F0F0F0F0F0F0F0F0F0F0F0F080
:10206000F0F0F0F0F0F0F0F0F0F0F0F0F0F0F0F070
:10207000F0F0F0F0F0F0F0F0F0F0F0F0F0F0F0F060
:10208000F0F0F0F0F0F0E0C0000000000000000010
:102090000000000000000000000000000000000040
:1020A0000000000000000000000000000000000030
:1020B00000000000000000FFFFFFFFFFFFFFFFFF29
:1020C000FFFFFFFFFFFFFFFFFFFFFFFFFFFFFFFF20
:1020D000FFFFFFFFFFFFFFFFFFFFFFFFFFFFFFFF10
:1020E000FFFFFFFFFFFFFFFFFFFFFFFFFFFFFFFF00
:1020F000FFFFFFFFFFFFFFFFFFFFFFFFFFFFFFFFF0
:10210000FFFFFFFFFFFFFFFF0000000000000000D7
:1021100000000000000000000000000000000000BF
:1021200000000000000000000000000000000000AF
:1021300000000000000000FFFFFFFFFFFFFFFFFFA8
:10214000FFFFFFFFFFFFFFFFFFFFFFFFFFFFFFFF9F
:10215000FFFFFFFFFFFFFFFFFFFFFFFFFFFFFFFF8F
:10216000FFFFFFFFFFFFFFFFFFFFFFFFFFFFFFFF7F
:10217000FFFFFFFFFFFFFFFFFFFFFFFFFFFFFFFF6F
:10218000FFFFFFFFFFFFFFFF00000000000000E077
:10219000E0E0E0E0E0E0E0E0E0E0E0E0E0E0E0001F
:1021A000000000000000000000000000000000002F
:1021B00000000000000000FFFFFFFFFFFFFFFFFF28
:1021C000FFFFFFFFFFFFFFFFFFFFFFFFFFFFFFFF1F
:1021D000FFFFFFFFFFFFFFFFFFFFFFFFFFFFFFFF0F
:1021E000FFFFFFFFFFFFFFFFFFFFFFFFFFFFFFFFFF
:1021F000FFFFFFFFFFFFFFFFFFFFFFFFFFFFFFFFEF
:10220000FFFFFFFFFFFFFFFF00000000000000EFE7
:10221000EFEFEFEFEFEFEFEFEFEFEFEFEFEFEFE0DD
:10222000E0E0E0E00000000000000000000000002E
:1022300000000000000000FFFFFFFFFFFFFFFFFFA7
:10224000FFFFFFFFFFFFFFFFFFFFFFFFFFFFFFFF9E
:10225000FFFFFFFFFFFFFFFFFFFFFFFFFFFFFFFF8E
:10226000FFFFFFFFFFFFFFFFFFFFFFFFFFFFFFFF7E
:10227000FFFFFFFFFFFFFFFFFFFFFFFFFFFFFFFF6E
:10228000FFFFFFFFFFFFFFFF00000000000000EF67
:10229000EFEFEFEFEFEFEFEFEFEFEFEFEFEFEFEF4E
:1022A000EFEFEFEFE0E0E0E0E0E000000000000032
:1022B0000000000000000003878FCFCFCFCF8F8FAB
:1022C0000F0F0F0F0F0F0F0F0F0F0F0F0F0F0F0F1E
:1022D0000F0F0F0F0F0F0F0F0F0FFFFFFFFFFFFF6E
:1022E000FFFFFF0F0F0F0F0F0F0F0F0F0F0F0F0F2E
:1022F0000F0F0F0F0F0F0F0F0F0F0F0F0F0F0F8F6E
:102300008FCFCFCFCF8F8703000000000000000FDA
:102310000F0F0F0F0F0F0F0F0F0F0F0F0F0F0F0FCD
:102320000F0F0F0F0F0F0F0F0F0F00000000000017
:102330000000000000003CFFFFFFFFFFFFFFFFFF6A
:10234000FF3C000000000000000000000000000052
:1023500000000000000000000000FFFFFFFFFFFF83
:10236000FFFFFF0000000000000000000000000070
:10237000000000000000000000000000003CFFFF23
:10238000FFFFFFFFFFFFFFFF3C0000000000000019
:10239000000000000000000000000000000000003D
:1023A000000000000000000000000000000000002D
:1023B00000E0F0F0F8F0F0F8F1CFFFFFFFFFEFE101
:1023C000F0F0F8F0F0F8F0E0C0C0E0C0E0F0F8F0B5
:1023D000F0F8F0E0F0E0C0E0F0F8FFFFFFFFFFFFF3
:1023E000FFFFFFF0F0F8F0F0F8F0E0F0F8F0F0F8B0
:1023F000F0E0F0E0E0C0E0F0F8F0F0F8F0F0F8F134
:10240000EFFFFFFFFFEFE1F0F0F8F0F0F8F0E0E0B1
:10241000C0E0F0E0F0F8F0F0F8F0E0F0E0F0E0F02C
:10242000F8F0F0F8F8F0F0E0E0E0F0F0F8F0F0F8B4
:10243000F0804000000000000000C0E0E06060604C
:10244000606060606060606060606060606060608C
:10245000606060606060606060606060606060607C
:10246000606060606060606060606060606060606C
:10247000606060606060606060606060606060605C
:10248000606060606060E0E0C0000000000000008C
:10249000000000000000000000000000000000003C
:1024A000000000000000000000000000000000002C
:1024B00000000000000000000000FFFF00FE01011E
:1024C00001010101010101010101010101010101FC
:1024D0000101010181C161212121212161610101EC
:1024E000010101010101E1E101E1E121212161613C
:1024F00001010101010101010101010101010101CC
:102500000101010101FE00FFFF00000000000000CA
:1025100000000000000000000000000000000000BB
:1025200000000000000000000000000000000000AB
:1025300000000000000000000000FFFF00FF00009E
:102540000000C0E0602020202060E0C0000000000B
:1025500000000000FFFF000000000808F8F800F885
:10256000080808F8F800FFFF00FFFF08080800004F
:10257000000000000000000000000000000000005B
:102580000000000000FF00FFFF000000000000004E
:102590000000C08000C000C0404000C0008000C0FB
:1025A000000000000000000000000000000000002B
:1025B00000000000000000000000FFFF00FF00001E
:1025C0000000FFFF000000000000818100F8080803
:1025D00008F8F800F8F10BFAF20AFAF203FB080B1C
:1025E0000AFAF203F3F80B0B08F3FB00F8F008F813
:1025F000F000FAFA00F8080808F8F800F8F008F80F
:10260000F000000000FF00FFFF00000000000000DD
:102610000000C740C107C047450580414601C6418B
:10262000400040C04000000000000000000000002A
:1026300000000000000000000000FFFF007F80801D
:10264000808081838382828282828381808382826E
:10265000828383808383808383808383808F8E8241
:10266000828381808183828281838380838380834C
:102670008380838380838282828383808383808339
:1026800083808080807F00FFFF000000000000004A
:102690000000C7414600C745C500C4454200C745C4
:1026A0008500C00740C0400080404000000000009E
:1026B00000000000000000000000030787868686F7
:1026C00006060606060606060606060606060606AA
:1026D00006060606060606060606060606C606C61A
:1026E000C6C6C6C60606060606060606060606068A
:1026F000060606060606060606060606060606067A
:102700000606068686868707030000000000000094
:102710000000070404000701060007050500070480
:102720000700070000070000040502000000000089
:102730000000000000000000003CF7FFDDF77F6DA7
:10274000BFC33C00000000000000000000000000CB
:1027500000000000000000000000000000FF00FF7B
:10276000FFFFFFFF0000000000000000000000006D
:102770000000000000000000000000000000000059
:102780003CF7FFDDF77F6DBFC33C00000000000099
:102790000000000000000000000000000000000039
:1027A0000000000000000000000000000000000029
:1027B00000000080E080F0C0E090C08005FD2D8525
:1027C000C080E080F0C0E090C0C08080C080C0E0E9
:1027D000F080E0D0C080E08080C0E0F080EF90C763
:1027E000EF9FBFDF80E0C0F080E090E0C080F0802D
:1027F000E0D0C080E080C080C0C090E080F0C0E049
:1028000090C08005FD2D85C080E080F0C0E090C0C4
:10281000C08080C0A0C0E0F080E0D0C080E080A098
:10282000C0E0F080E090C0E08080C080E0C0F08038
:10283000E090E00208D4D205087F7F3E1C084120CA
:10284000FE0105F1F1F111D1B1D111F15151515107
:10285000515151515151515151510000FF00007FD0
:102860007F09090F06007F7F19396F46007F7F4976
:1028700049414100266F49497B3200266F49497B17
:1028800032FF0000FFFFFFFEFFFEFF0279CD95A59E
:10289000CD790111111101F9F901010000FF0000CA
:1028A0007F7F09090F06007F7F40404040007C7E0B
:1028B0000B0B7E7C00070F78780F070000000000EC
:1028C0000000FF00001F3F3F33333333333E3636C3
:1028D0003E363E363E36363E36363E360000FF0049
:1028E000003E7F41417F3E007F7F0E1C7F7F0000C6
:1028F00000000000000000000000000000000000D8
:102900000000003F40504040407846414159594105
:102910004141415959414141414141414100007FBB
:10292000000001017F7F0101007C7E0B0B7E7C009B
:102930007F7F09090F06007F7F4949414100000060
:1029400000000000080B0002020200000904000061
:102950000102020000052400100105240101010408
:102960002402060524060001070581031000400922
:10297000040100020A0000000705020240000007EF
:102980000583024000000403090412010002EF0263
:102990000140412336800001010203014172647548
:1029A000696E6F204C4C430041424C31313036004F
:1029B0000000000000000000000000000000000017
:1029C0000000000000000000000000000000000007
:1029D00000000000000000000000000000000000F7
:1029E00000000000000000000000000000000000E7
:1029F00000000000000000000000000000000000D7
:102A000000000000000000000000000000000000C6
:102A100000000000000000000000000000000000B6
:102A200000000000000000000000000000000000A6
:102A3000C0F0C0C0E0E0C0C0E0C0C0E0C0C0F0E096
:102A4000C0C0E0C0C0F0C0C0E0F0C0C0E0C0C0F096
:102A5000C0C0E0C0F0E0C0C0E0C0F0C0C0E0C0F066
:102A6000E0C0C0F0C0E0C0C0E0E0C0C0E0C0C0E076
:102A7000C0C0F0E0C0C0E0C0C0F0C0C0E0F0C0C066
:102A8000E0C0C0F0C0C0E0C0F0E0C0C0E0C0F0C036
:102A9000C0E0C0F0E0C0C0F0C0E0C0E0E0C0C0E016
:102AA000C0E0C0F0C0C0E0E0C0C0E0C0C0E0C0C056
:102AB000FAFCFAFCFAFCFAFCFAFCFAFCFAFCFAFC66
:102AC000FAFCFAFCFAFCFAFCFAFCFAFCFAFCFAFC56
:102AD000FAFCFAFCFAFCFAFCFAFCFAFCFAFCFAFC46
:102AE000FAFCFAFCFAFCFAFCFAFCFAFCFAFCFAFC36
:102AF000FAFCFAFCFAFCFAFCFAFCFAFCFAFCFAFC26
:102B0000FAFCFAFCFAFCFAFCFAFCFAFCFAFCFAFC15
:102B1000FAFCFAFCFAFCFAFCFAFCFAFCFAFCFAFC05
:102B2000FAFCFAFCFAFCFAFCFAFCFAFCFAFCFAFCF5
:102B3000FFFFFFFFFFFFFFFFFFFFFFFFFFFFFFFFA5
:102B4000FFFFFFFFFFFFFFFFFFFFFFFFFFFFFFFF95
:102B5000FFFFFFFFFFFFFFFFFFFFFFFFFFFFFFFF85
:102B6000FFFFFFFFFFFFFFFFFFFFFFFFFFFFFFFF75
:102B7000FFFFFFFFFFFFFFFFFFFFFFFFFFFFFFFF65
:102B8000FFFFFFFFFFFFFFFFFFFFFFFFFFFFFFFF55
:102B9000FFFFFFFFFFFFFFFFFFFFFFFFFFFFFFFF45
:102BA000FFFFFFFFFFFFFFFFFFFFFFFFFFFFFFFF35
:102BB000FFFFFFFFFFFFFFFFFFFFFFFFFFFFFFFF25
:102BC000FFFFFFFFFFFFFFFFFFFFFFFFFFFFFFFF15
:102BD000FFFFFFFFFFFFFFFFFFFFFFFFFFFFFFFF05
:102BE000FFFFFFFFFFFFFFFFFFFFFFFFFFFFFFFFF5
:102BF000FFFFFFFFFFFFFFFFFFFFFFFFFFFFFFFFE5
:102C0000FFFFFFFFFFFFFFFFFFFFFFFFFFFFFFFFD4
:102C1000FFFFFFFFFFFFFFFFFFFFFFFFFFFFFFFFC4
:102C2000FFFFFFFFFFFFFFFFFFFFFFFFFFFFFFFFB4
:102C3000FFFFFFFFFFFFFFFFFFFFFFFFFFFFFFFFA4
:102C4000FFFFFFFFFFFFFFFFFFFFFFFFFFFFFFFF94
:102C5000FFFFFFFFFFFFFFFFFFFFFFFFFFFFFFFF84
:102C6000FFFFFFFFFFFFFFFFFFFFFFFFFFFFFFFF74
:102C7000FFFFFFFFFFFFFFFFFFFFFFFFFFFFFFFF64
:102C8000FFFFFFFFFFFFFFFFFFFFFFFFFFFFFFFF54
:102C9000FFFFFFFFFFFFFFFFFFFFFFFFFFFFFFFF44
:102CA000FFFFFFFFFFFFFFFFFFFFFFFFFFFFFFFF34
:102CB000B33DB337BB3BB737BB37B73BB733BD3B90
:102CC000B737BB37B33DB337BB3DB337BB37B33D86
:102CD000B337BB33BD3BB737BB33BD33B73BB33D76
:102CE000BB37B33DB33BB737BB3BB737BB37B73B5E
:102CF000B733BD3BB737BB37B33DB337BB3DB33756
:102D0000BB37B33DB337BB33BD3BB737BB33BD3345
:102D1000B73BB33DBB37B33DB33BB73BBB37B73B2B
:102D2000B73BB33DB337BB3BB737BB37B73BB73325
:102D3000AA55AA55AA55AA55AA55AA55AA55AA559B
:102D4000AA55AA55AA55AA55AA55AA55AA55AA558B
:102D5000AA55AA55AA55AA55AA55AA55AA55AA557B
:102D6000AA55AA55AA55AA55AA55AA55AA55AA556B
:102D7000AA55AA55AA55AA55AA55AA55AA55AA555B
:102D8000AA55AA55AA55AA55AA55AA55AA55AA554B
:102D9000AA55AA55AA55AA55AA55AA55AA55AA553B
:102DA000AA55AA55AA55AA55AA55AA55AA55AA552B
:102DB000392511241FBECFEFDAE0DEBFCDBF11E011
:102DC000A0E0B1E0E4EBF6E602C005900D92AE386B
:102DD000B107D9F726E0AEE8B1E001C01D92AE3BE5
:102DE000B207E1F716E1C9EDD6E104C02197FE0173
:102DF0000E944B33C83DD107C9F70E94E7250C94C8
:102E000058330C94000090910F06ABE0B6E0FD0142
:102E100080E03596981311C095E0899FF001112448
:102E2000E55FF94F982F3596923168F41482158238
:102E30001682178210869F5FF6CF15821682178240
:102E400010868F5FE6CF10926E0690E020E0159618
:102E5000821731F014963C911497930F2F5FF7CFA0
:102E600090936E060895823079F020F4813049F015
:102E700080E00895833059F08430D1F78091720654
:102E8000089580916F06089580917006089580914D
:102E900071060895833039F0843041F0823049F46E
:102EA0008AE796E0089581E896E0089588E896E03C
:102EB000089583E796E008956F927F928F929F9294
:102EC000AF92BF92CF92DF92EF92FF920F931F9338
:102ED000CF93DF936C01CB013A017E2DFA0164910F
:102EE00031965491F2E06F0E711CC62FD0E0222370
:102EF00001F1E1E0F0E0352F377011F4F0E0E0E0AF
:102F0000A52FA695A695A695AE0FBF2FB11DAC9F78
:102F1000F001AD9FF00DBC9FF00D1124733011F442
:102F2000EE0FFF1F2E9FD0012F9FB00D11246A0EB0
:102F30007B1ED601AC0FBD1F1A161B060CF067C016
:102F40009C01250F311D121613060CF060C0803451
:102F500091050CF05CC06114710409F458C0382F5D
:102F60003770FC0197FD379623E0F595E7952A9594
:102F7000E1F72E2F97FF04C0332311F02FEF2E0F10
:102F8000EE27FF27EC19FD09D7FC02C0F0E0E0E0D6
:102F900090E89C19A038B1050CF4962F9E1BA22F27
:102FA000022E000CBB0B4A2F40952F3F0CF040E047
:102FB000BB24B394852F877009F4B12C5695569590
:102FC0005695B50EAB0DB11D19971CF058E0B52EF6
:102FD000B21AB41A240F50E82503D0011124AC0D05
:102FE000BD1DAE0FBF1F649FE00DF11D11246E0EBD
:102FF0007F1EC32E032E000CDD08733009F417C1A9
:10300000A8F4713009F4CAC0723009F478C0DF91B5
:10301000CF911F910F91FF90EF90DF90CF90BF90D5
:10302000AF909F908F907F906F9008957A3FB1F10D
:103030000B2D020F7B3F59F7201749F3BD01655453
:103040007E4FF12CE12CE91608F0A2C0F301EE0D41
:10305000FF1DE491F0E0AF010C2C02C0440F551F9E
:103060000A94E2F727FD06C0FB018081142F10951A
:1030700081238083332361F0273054F45B01F0E82F
:10308000AF0EB11C452F4095F501808184238083CC
:10309000FFEFEF1AFF0A6F5F7F4FD5CF0B2D020FA7
:1030A000201709F4B4CFBD0165547E4FF12CE12CFB
:1030B000E91608F067C0F301EE0DFF1DE491F0E0A2
:1030C000AF010C2C02C0440F551F0A94E2F727FDF4
:1030D00004C0FB018081842B8083332351F027308F
:1030E00044F45B01F0E8AF0EB11CF5018081852B43
:1030F0008083FFEFEF1AFF0A6F5F7F4FD9CF6FEF2B
:1031000070E0032E02C0660F771F0A94E2F7609505
:103110007095972E8B2C820E281509F478CF8D018F
:1031200005541E4FF12CE12CE91630F5F301EE0D9C
:10313000FF1DE491F0E0AF010C2C02C0440F551FBD
:103140000A94E2F727FD05C0F80180818623842BCD
:103150008083332359F027304CF45801F0E8AF0E48
:10316000B11CF50180818921852B8083FFEFEF1A47
:10317000FF0A0F5F1F4FD8CF2F5F6C0E7D1EA05828
:10318000BF4FCACF2F5F6C0E7D1EA058BF4F88CF98
:103190002F5F6C0E7D1EA058BF4F4ECF0E0F1F1F0E
:1031A0008B2D820F281709F432CFBD0165547E4F55
:1031B000F12CE12CE91698F5F801EE0DFF1DA49015
:1031C000B12C0C2C02C0AA0CBB1C0A94E2F7A094F0
:1031D000B094F301EE0DFF1D8490912C0C2C02C0D5
:1031E000880C991C0A94E2F727FD08C0FB01408176
:1031F000E42FEA214E2F4829FB014083332349F075
:1032000027303CF4FB01E058FF4FA080BA20B928DA
:10321000B082FFEFEF1AFF0A6F5F7F4FCBCF2F5FB8
:103220006C0E7D1E0C0F1D1FA058BF4FBBCFE92E8B
:10323000F12CE60DF71DA554BE4F60E870E06E1945
:103240007F09CE19DF09AE01440F551FC1E0D0E060
:103250007E01032E01C0EE0C0A94EAF7192F0B2D04
:10326000892E932ECF93DF93ED01EF96EF96229662
:10327000A590C590992059F0AE9C5001CE9C60015C
:1032800027302CF4F880D094FD20FB28F9922223DB
:103290003AF0FC90C094FC20FA28FD920C9451194D
:1032A00011961A9529F70A9551F0182D2395112496
:1032B000E40FF11DA60FB11DC60FD11DD9CFDF91AF
:1032C000CF911124A4CE2F923F924F925F926F9292
:1032D0007F928F929F92AF92BF92CF92DF92EF92A6
:1032E000FF920F931F93CF93DF939C0121583F4F81
:1032F0002F3F310508F091C09B01215C3F4F2F37D4
:10330000310508F08AC0AB0177FF04C04427552778
:10331000461B570B477055279B0177FF02C0295F5B
:103320003F4FE3E035952795EA95E1F777FF08C031
:103330002150310968E070E0EB01C41BD50BAE01F0
:10334000E901D695DC2FCC27D795C795C80FD91F93
:10335000B0E0A0E0FE01E554FE4F5F01BE01655CF8
:103360007D4F1B0168E070E02B01441A550A2F3F86
:103370007FEF37070CF445C035016A0E7B1E410113
:103380008A0E9B1E8C0170E060E0ED01C055D64DA9
:103390007E0100381105A9F117FD2CC02F3F32071F
:1033A00009F44EC0F701E60FF71FE4916301C60E62
:1033B000D71E042E01C0EE0F0A94EAF7E601F88149
:1033C000EF2BE88341155105A9F02730310591F025
:1033D000F701E60FF71FE4916401C60ED71EF0E077
:1033E000042C02C0F595E7950A94E2F7E601F8810E
:1033F000EF2BE8836F5F7F4F0F5F1F4F60387105C2
:1034000041F62F5F3F4FA058BF4FA115D4E0BD0735
:1034100021F02830310509F0AACFDF91CF911F911B
:103420000F91FF90EF90DF90CF90BF90AF909F9063
:103430008F907F906F905F904F903F902F90089566
:103440004115510529F6D6CF9091B106982329F45C
:103450009091B006982381E009F480E00895EF92FE
:103460000F931F9322E0E22E10E000E020E00E9484
:103470005C171F910F91EF900895EBEBF1E080E066
:10348000A0E0B8E000800EBC8111012C1197A0FDD6
:10349000FDCF0192B9F70DB4089580E0EBEBF1E0B8
:1034A00081118FEF00248193819381938193039401
:1034B000D1F7E7EAF6E0128A118A108A1786089592
:1034C000E1E0F0E00E94751A319728F068517C4FD6
:1034D0008F4F9F4FF9CFAB01FC010E94751A641703
:1034E00075078E079F07C8F30895AAE9B1E02FB7C3
:1034F000F8947D918D919C9166B52FBFA89B05C0D6
:103500006F3F18F47F5F8F4F9F4F22E0660F771F4A
:10351000881F991F2A95D1F70895FC018091BA015F
:10352000882311F13FB7F89482E08093E90020915D
:10353000F200822F90E01816190614F481E090E052
:10354000882339F0289844E64093B9014091F1006E
:103550004083222339F02091F200211103C02BE691
:103560002093E8003FBF08958FEF9FEF08952FB796
:10357000F89483E08093E9009091E800892F8072AD
:1035800095FF04C09091F20080E4891B2FBF08953D
:103590008091B10181110DC082E08093AD0184E082
:1035A0008093AE011092B0011092AF0181E0809340
:1035B000B1018DEA91E008958F929F92AF92BF92F0
:1035C000CF92DF92EF92FF920F931F93CF93DF93EF
:1035D0006C017B018A0180910B01882309F458C09A
:1035E0008091BA01882309F453C08091AC0180FF17
:1035F00005C08091E00082608093E000E801B12C7A
:103600008AEFA82E93E0892E2AE3922E209711F4B8
:10361000BB20B9F10E94B71A811106C0AA94AA2052
:10362000B9F10E94601AF2CF8C171D0611F00CF050
:103630008C2F9FB7F8948092E9002091E80025FD37
:1036400002C09FBFE3CF282F30E0C21BD30BF7018E
:10365000815020F041914093F100FACFE20EF31E29
:10366000BB2021F09092E800B12CEBCF8091E800D4
:1036700085FDE7CF9092E800BB24B394209709F32F
:10368000F3CF5D9884E68093AB01101611063CF0F1
:1036900081E090E0F6019383828310E000E0C801AE
:1036A000DF91CF911F910F91FF90EF90DF90CF901E
:1036B000BF90AF909F908F900895CF93DF931F920C
:1036C000CDB7DEB76983DC01ED91FC910280F38117
:1036D000E02D41E050E0BE016F5F7F4F09950F90F4
:1036E000DF91CF91089583E08093E9008091F2000B
:1036F000882319F08AE38093E80008950E94B71A9E
:1037000090E00895CF93DF931F92CDB7DEB7FC0111
:103710008485958597FD08C02FEF3FEF3587248777
:103720000F90DF91CF910895CE0101960E948D1ADE
:10373000019719F4898190E0F3CF8FEF9FEFF0CFDD
:103740000F931F93CF93DF931F92CDB7DEB78C01FA
:10375000FC018485958597FF0BC0CE0101960E94E0
:103760008D1A019771F4898190E0F801958784871B
:10377000F801848595850F90DF91CF911F910F916E
:1037800008958FEF9FEFF1CFFC018485958597FD1C
:103790000BC09FB7F89482E08093E9008091F2001B
:1037A0009FBF90E0019608959FB7F89482E08093C0
:1037B000E9008091F2009FBF90E008954091A70139
:1037C0005091A8012091A5013091A60142175307FD
:1037D000B4F49091E8009570E1F39091E80092FDC7
:1037E00019C08093F1008091A7019091A8010196E2
:1037F0008F739927892B19F48EEF8093E8008091BD
:10380000A7019091A80101969093A8018093A70128
:1038100081E0089580E00895EF92FF920F931F9347
:10382000CF93DF93F82E192FE62E042F81E0860F19
:10383000880F0E94DE1B83E00E94DE1BCF2DD12F5C
:10384000EC0EFD2EF11CCE15DF05B9F007FF13C0FD
:10385000FE0184910E94DE1B182F80E00E94DE1B77
:10386000812321968111EFCFDF91CF911F910F918D
:10387000FF90EF9008958881EDCF81E0F5CFDF9242
:10388000EF92FF920F931F93CF93DF93D82E8A016D
:10389000EB017B01E40EF51ECE15DF0559F0D7FED6
:1038A00012C0FE0184910E94DE1B21968111F4CF8B
:1038B0000FEF1FEFC801DF91CF911F910F91FF9084
:1038C000EF90DF9008958881EECF0F931F93CF93F1
:1038D000DF931F92CDB7DEB782E0898342E450E0E8
:1038E00064E479E280E80E943F1C0E94C81ADC016F
:1038F00012960D911C910115110589F0D801ED91D9
:10390000FC910280F381E02DBE016F5F7F4FC80103
:10391000099597FD04C0F80100851185ECCF8981D8
:103920000F90DF91CF911F910F910895615030F06A
:103930002091F100FC0120830196F8CF289884E6BD
:103940008093B90108950895AF92BF92CF92DF920C
:10395000EF92FF920F931F93CF93DF936C017B0144
:103960008B01040F151FEB015E01AE18BF08C017D5
:10397000D10759F06991D601ED91FC910190F08148
:10398000E02DC6010995892B79F7C501DF91CF910B
:103990001F910F91FF90EF90DF90CF90BF90AF906D
:1039A0000895EF920F931F933AEFE32E10E000E09B
:1039B0000E945C171F910F91EF900895EF920F9363
:1039C0001F933BEFE32E10E000E00E945C171F9175
:1039D0000F91EF900895BC0190E080E0AB01FC01F5
:1039E0000E94751A41505109E109F10928F0685106
:1039F0007C4F8F4F9F4FF6CFAB01FC010E94751A91
:103A0000641775078E079F07C8F308958FB18095D7
:103A1000807F669B88601C9B84600895480F592FA7
:103A2000511D14161506D4F580389105BCF597FF85
:103A300002C090E080E04138510514F040E850E0C9
:103A4000481BFB0177FD379633E0F595E7953A95EE
:103A5000E1F7F695FE2FEE27F795E795E80FF91FAA
:103A6000E554FE4F6770772781E090E001C0880F32
:103A70006A95EAF7382F213041F4415078F081916E
:103A8000DF011197832B8C93F8CF8095415030F054
:103A90009191DF01119798239C93F8CF0895803876
:103AA0009105B8F460347105A0F420E191E061FD66
:103AB00094E060FD990F62FD9295687F269FD0018A
:103AC0001124A80FA554BE4F8C9140FF03C0892B31
:103AD0008C93089590958923FBCF2F923F924F921C
:103AE0005F926F927F928F929F92AF92BF92CF928E
:103AF000DF92EF92FF920F931F93CF93DF9300D04B
:103B00001F92CDB7DEB79B838A837B016A0109834D
:103B10008901061B170B17FF03C0119501951109A9
:103B200046018A819B81881A990A97FE03C0919465
:103B300081949108801691065CF49C2D8D2D69016D
:103B4000292F382F9A818B81FB82EA82E92EF82E69
:103B50008A819B81C816D9065CF49E2D8F2D790130
:103B6000292F382F9A818B81DB82CA82C92ED82EC9
:103B700016018A819B81281A390A29014E185F088B
:103B800057FE03C0519441945108310137FE03C0E0
:103B90009FEF691A790A759467948FEFE216F3061E
:103BA0000CF481E0A82E880FBB088A819B81C8167F
:103BB000D906CCF04981BC01C701801691061CF0E2
:103BC000B7018A819B810E944F1D6418750877FE9A
:103BD00004C0EA0CFB1C620C731C8A819B81019659
:103BE0009B838A83E2CF0F900F900F90DF91CF914C
:103BF0001F910F91FF90EF90DF90CF90BF90AF900B
:103C00009F908F907F906F905F904F903F902F90FC
:103C100008952F923F924F925F926F927F928F9270
:103C20009F92AF92BF92CF92DF92EF92FF920F934B
:103C30001F93CF93DF93CDB7DEB72A970FB6F894D3
:103C4000DEBF0FBECDBF9A8389836A3061F5DC0188
:103C500055968C91B8E08B9F90011124E981FA81EF
:103C600081899289820F931F928B818B108A17868C
:103C700081E090E02A960FB6F894DEBF0FBECDBF6C
:103C8000DF91CF911F910F91FF90EF90DF90CF9038
:103C9000BF90AF909F908F907F906F905F904F906C
:103CA0003F902F9008956D3019F329813A813A871A
:103CB0002987D9011F96AD90BC90B0E8AB16B1042E
:103CC0000CF07BC0F901C188D288F0E4CF16D10492
:103CD0000CF073C0D90155966C90559745E095014D
:103CE000649E200D311D1124121613060CF065C0C0
:103CF000262C312C910153E0220F331F5A95E1F706
:103D00002C0D3D1D121613060CF057C05496BC9195
:103D1000BB83E985FA85F389FC83649FB001112494
:103D20009B012050394F3A832983712CE981FA8114
:103D30008491F5E07F1201C080E0460138E0532E07
:103D4000282F30E03E832D834C8080FF4B80411034
:103D500004C03B818C813817E1F010E000E00615CB
:103D6000C0F4D501A00FB11FB887AF83F12CE12CAF
:103D7000E61460F4B701680D791D442D8F81988594
:103D80000E944F1DBFEFEB1AFB0AF2CF0F5F1F4FD0
:103D9000E6CF8D819E81959587955A94820C931CD0
:103DA0005110CECF7394E981FA813196FA83E98379
:103DB000A20CB31CF6E07F12B9CFA985BA8555963F
:103DC0002C915597422F50E01F968D919C91B6E013
:103DD0002B9F800D911D1124E985FA85908B878793
:103DE0002689222309F444CF6AEF64039001659F7A
:103DF000300D112420583F4F281739070CF038CFC9
:103E0000DF010190F081E02D0190F081E02D6AE06A
:103E1000CD0109952DCF0895CF93DF93EC016A3042
:103E200059F48D818C838E819985890F8E8381E0F1
:103E300090E0DF91CF9108958C816E3719F48D5FFA
:103E40008C83F5CF262F6E816F5F2A3350F4203399
:103E500050F52D3221F12E3241F1213241F42EE381
:103E600010C02B3548F42134E0F42F3301F198854C
:103E70009C5F8C81890FE4CF9FE9920F27549A3180
:103E8000B0F7062E000C770B082E000C990B3F8123
:103E900046EF55E0313069F40E94D11CE8CF21E4AF
:103EA000F0CF2154EECF2C5FECCF2FE3EACF20E40C
:103EB000E8CF0E94DE1CDBCF0F931F93CF93DF93DD
:103EC0008C01D0E0C0E0F801EC0FFD1F6491662387
:103ED00041F08DE996E00E940C1F892B11F021968C
:103EE000F2CFCE01DF91CF911F910F9108950895E8
:103EF00090E080E00895CF93DF93C0919601D09138
:103F0000970170E060E0CE010E94631970E060E00C
:103F1000CE0180589F4F0E9463198091AE06909108
:103F2000AF0665E070E00E943733892B49F4219792
:103F3000C0388FEFD80738F0D0939701C09396011F
:103F4000DF91CF9108951092970110929601F8CFCA
:103F500095E0899FF0011124E55FF94F6187128692
:103F600013861486158610926E0610926F061092B4
:103F70007006109271061092720670910F06EBE0B7
:103F8000F6E090E020E030E040E050E080E0359660
:103F900078131AC050936E0640936F0630937006E4
:103FA000209371069093720695E0899FF001112489
:103FB000E55FF94F3596823198F4148215821682A6
:103FC000178210868F5FF6CF6481560F6581460F8A
:103FD0006681360F6781260F6085960F8F5FD7CF7A
:103FE0000895EF920F931F93EE24E3940EEA13E0EB
:103FF00020E041ED54E062E070E08FE090E00E944C
:104000005C171F910F91EF9008950F931F93CF931B
:10401000DF93D0E0C0E008E110E040E0B801CE015D
:104020000E944F1D0F5F1F4F0A321105B1F72196F5
:10403000C038D10581F701E029E130E040E850E0E7
:1040400069E170E090E080E00E946D1D28E230E0C0
:1040500040E850E068E270E090E080E00E946D1D72
:10406000DF91CF911F910F910895EF920F931F93BE
:10407000EE24E3940CEA10E020E04CE252E06EE221
:1040800070E090E080E00E945C171F910F91EF902C
:104090000895EF92FF920F931F93CF9310E000E0EB
:1040A00080E8E82EF12CC091A40120E04C2FB8014B
:1040B00090E080E00E940E1DB8016F5F7F4F20E00E
:1040C0004C2FC7018C1B91090E940E1D0E5F1F4FC4
:1040D0000034110541F781E0CC2321F0C450C09396
:1040E000A40180E0CF911F910F91FF90EF90089570
:1040F000FC01623059F018F4613031F008956330FA
:1041000039F0643039F00895418308954283089569
:104110004383089544830895FC01623069F020F4DC
:10412000613041F080E00895633041F06430D1F7B0
:1041300084810895818108958281089583810895FD
:10414000FC0101900020E9F73197AF01481B590BA2
:10415000BC018DE996E00C94A41C8F929F92AF92C3
:10416000BF920F931F93CF93DF93CDB7DEB7A19785
:104170000FB6F894DEBF0FBECDBF19A2423008F4CF
:104180004AE08E010F5D1F4F842E912CB12CA12C83
:10419000A50194010E940633E62FB901CA01EA3055
:1041A000F4F4E05DD801EE938D01232B242B252B15
:1041B00079F790E080E0109719F0CD010E94A020DF
:1041C000A1960FB6F894DEBF0FBECDBFDF91CF91A1
:1041D0001F910F91BF90AF909F908F900895E95CD1
:1041E000E1CF009711F00C94A02090E080E00895BA
:1041F000682F70E090E080E04AE00C94AD20CF930F
:10420000C82F633031F4843650F484E791E00E9483
:10421000F120CA3020F484E791E00E94F1208C2F35
:10422000CF910C94F820CF92DF92EF92FF92CF9330
:10423000DF936C01092E000CEE08FF0897FF19C0F0
:104240006DE28DE996E00E940C1FEC01662777274E
:10425000CB016C197D098E099F094AE00E94AD20AF
:104260008C0F9D1FDF91CF91FF90EF90DF90CF904B
:1042700008954AE0C701B601DF91CF91FF90EF901A
:10428000DF90CF900C94AD201F93CF93DF93EC0180
:10429000162F0E94BE32181739F0612FCE01DF9120
:1042A000CF911F910C94C632DF91CF911F91089549
:1042B0000F931F93CF93DF9360918F0686E790E073
:1042C0000E94442160910D0687E790E00E944421FE
:1042D00060910E0688E790E00E94442160910F06ED
:1042E00089E790E00E944421609110068AE790E0FF
:1042F0000E944421609111068BE790E00E944421C6
:10430000609112068CE790E00E94442160911306B0
:104310008DE790E00E9444210BE016E0CEE7D0E06C
:10432000F8016185CE010E944421F8016285CE0129
:1043300001960E944421F8016385CE0102960E94F5
:104340004421F8016485CE0103960E944421F801BE
:104350006585CE0104960E9444210B5F1F4F259670
:10436000C83DD105E9F660916E0688ED90E00E94A7
:10437000442160916F0689ED90E00E944421609194
:1043800070068AED90E00E944421609171068BEDE9
:1043900090E00E944421609172068CED90E00E94B2
:1043A000442103E716E0CDEDD0E0F80161918F01E3
:1043B000CE010E9444212196C43ED105B1F70AE7FF
:1043C00016E0F80161918F01CE010E9444212196EF
:1043D000CB3ED105B1F701E816E0F80161918F01FC
:1043E000CE010E9444212196C23FD105B1F708E8D1
:1043F00016E0F80161918F01CE010E9444212196BF
:10440000C93FD105B1F7DF91CF911F910F91089569
:104410000C94BE321F920F920FB60F9211248F93FD
:104420009F938091E1009091E100937F9093E10050
:1044300083FF0FC01092E90091E09093EB0010927F
:10444000EC0092E39093ED001092BA0198E0909303
:10445000F00082FF22C093E09093E9009091F20077
:10446000992319F09AE39093E8009091AB01992376
:1044700041F09091AB0191509093AB01911101C02B
:104480005D9A9091B901992341F09091B9019150B1
:104490009093B901911101C0289A84FF18C08091AE
:1044A000E2008E7E81608093E2008091E1008F7E49
:1044B0008093E1008091AC018E7E80618093AC019D
:1044C0009F918F910F900FBE0F901F90189580FFB6
:1044D000F7CF8091E2008E7E80618093E200809130
:1044E000E1008E7E8093E1008091AC018E7E816040
:1044F000E5CF1F920F920FB60F921124CF92DF9249
:10450000EF92FF920F931F932F933F934F935F93DD
:104510006F937F938F939F93AF93BF93EF93FF938B
:10452000CF93DF93CDB7DEB76C97DEBFCDBF1092D0
:10453000E9008091E80083FF25C068E0CE01459640
:104540000E94961C82EF8093E8008D8987FF39C016
:104550009091E80090FFFCCF982F907609F034C13D
:104560009E894F89588D2F89F88C911131C08038E0
:1045700061F58091AA018093F1001092F1008EEF15
:104580008093E8006C960FB6F894DEBF0FBECDBFE7
:10459000DF91CF91FF91EF91BF91AF919F918F915B
:1045A0007F916F915F914F913F912F911F910F914B
:1045B000FF90EF90DF90CF900F900FBE0F901F9065
:1045C00018959EEF9093E800C7CF1092F100D5CFD9
:1045D000913059F48111D3CF4130510581F680914A
:1045E000AA018D7F8093AA01CACF933049F481112B
:1045F000C6CF4130510519F68091AA018260F2CFF1
:10460000953041F48091E80080FFFCCF2068209332
:10461000E300B5CF963009F0A9C00B8D1C8D22E0C8
:104620001092E9001092A8011092A701F2122EC078
:104630001092A6011092A5010E94651C1F8299E0AC
:104640009983FA8291E09E8390EA98879AEF9987FE
:104650002091A7013091A801275F3F4F3C832B8316
:104660008D831092E9001092A8011092A701109377
:10467000A6010093A50149E050E0BE016F5F7F4FA6
:1046800080E00E943F1C0E94651C79CF1093A60118
:104690000093A5010E94C81ADC0112960D911C918D
:1046A0000115110509F451C1D801ED91FC91048067
:1046B000F581E02DBE016B5E7F4FC8010995009723
:1046C00009F03EC1F80100851185EACFF3E0FF1241
:1046D0000EC08F89882309F440C0823061F440E81D
:1046E00067E088EA99E20E940C1C811148CF81E2C0
:1046F0008093EB0047CF813029F440E86BE08CE9F0
:1047000099E2F1CF833099F70E94C81ADC01129622
:10471000ED90FC908E010F5F1F4F6801E114F104D2
:1047200079F0D701ED91FC910680F781E02DB80179
:10473000C7010995080F111DF701E084F184EECF40
:10474000D8011C92F60101900020E9F73197BF01D2
:104750006C197D0940E0C601C6CF66E879E2FB012D
:10476000449150E080E80E943F1C09CF973009F443
:10477000BECF983021F481E08093F10000CF9930D2
:1047800009F0FDCE837009F0B2CFE5E1F1E081E000
:1047900031E096E32191222371F08093E900309378
:1047A000EB00DF0111972C912093EC009093ED002A
:1047B0008F5F873079F78EE78093EA001092EA00E6
:1047C0008F898093BA01DBCE8B8D9C8D1092E9008E
:1047D0001092A8011092A7019093A6018093A501C1
:1047E000898D811192C08E899D89913A49F48132D7
:1047F00009F07DCF47E050E064E071E080E0B3CFA6
:10480000913209F074CF833269F48F89988DB0E0CA
:10481000A0E08093000190930101A0930201B09366
:104820000301ADCE803269F48091E80082FFFCCFB5
:1048300067E084E091E00E94961C8BEF8093E80093
:104840009ECE823209F09BCE8F8980930B01EEEFD2
:10485000FFE7859194918B3F9C4D51F1E0E0F8E0AA
:104860008091040190910501A0910601B09107018A
:10487000803B9440A105B105F1F480910B0180FDCE
:104880001AC0EE3F8AE0F80789F587E797E791833A
:104890008083809160008093A90188E19BE00FB63E
:1048A000F894A895809360000FBE9093600067CE47
:1048B000EEEFFAE0D5CF808191818737974709F0F5
:1048C0005ECEA895809160008861809360008091A1
:1048D000A90180936000EE3F2AE0F20789F0809101
:1048E000FE0A9091FF0A9183808349CE8081918155
:1048F0008737980751F29093FF0A8093FE0AC5CF3D
:104900001092FF0A1092FE0A3ACE0E94C81ADC01E9
:1049100012960D911C910115110509F4E8CED801EC
:10492000ED91FC910190F081E02DBE016B5E7F4F17
:10493000C8010995811123CEF80100851185EBCFBF
:10494000181619060CF41BCED2CEF1E0FF12BECE23
:104950006AE879E204CF0F920FB68F939F93EF939B
:10496000FF93809199018D5F8D3708F08D5780936B
:104970009901EEE9F1E080818E4F808391819F4F14
:10498000918382818F4F828383818F4F8383EAE972
:10499000F1E080818F5F808381818F4F818382816D
:1049A0008F4F828383818F4F83838FB18F6066990E
:1049B0001C9B88278F3681F480919801981B963034
:1049C00068F0E0E0F8E087E78083818388E1809306
:1049D0006000F0936000FFCF90939801FF91EF91FA
:1049E0009F918F910FBE0F9018950F931F93CF93A8
:1049F000DF938C0181E090E00E94082280FF31C0AB
:104A00008AE090E00E9408229FEF980F9E3F48F5B1
:104A100022E330E0D80150963C932E931F9728E371
:104A200030E052963C932E935197CBE0D0E0D801E2
:104A3000ED91FC910190F081E02D682FC80109955E
:104A4000CE010E9408222196C131D10581F70E9432
:104A50003D1A88EE93E0DF91CF911F910F910C9456
:104A6000EB1CDF91CF911F910F91089504970C9447
:104A7000F5241092BE051092BD0588EE93E0A0E0EB
:104A8000B0E08093BF059093C005A093C105B0939B
:104A9000C2058FE191E09093BC058093BB058FEF39
:104AA0009FEF9093C8058093C7051092AA061092B5
:104AB000A9061092B0061092B10680E18093B2066A
:104AC0001092AF061092AE061092B4061092B7067E
:104AD0001092B6061092B9061092B80681E0809343
:104AE000BA061092BB068093BC061092BD062DE359
:104AF00031E03093A8062093A7062BE431E03093F1
:104B0000AC062093AB061092A00610929F0621E3FC
:104B100031E030939E0620939D0698E09093A60680
:104B20008093A5061092A2061092A3061092A106E9
:104B30008093A40690E290939506909396069093A6
:104B40009706909398069093990690939A0697E407
:104B500090930B0693E490930C0680930D0680933C
:104B60000E0682E180930F0683E080931006109278
:104B700011061092120610921306EBE0F6E084E0A4
:104B80008187359696E0E536F907D1F780936E0672
:104B900089E080938F068091100190911101A0917E
:104BA0001201B09113018093900690939106A09307
:104BB0009206B0939306E3E7F6E080E28193868362
:104BC0008587848B96E0E937F907C1F7089500D00F
:104BD0001F92CDB7DEB7789483E084BD83E085BDB6
:104BE00081E080936E00E1E8F0E083E08083E0E81C
:104BF00081E08083E1E983E08083E0E981E08083F4
:104C0000E1EC87E08083E3EC81E08083E0EC82E00C
:104C10008083E2EC81E08083EAE787E0808380683C
:104C200080831092BA011092AA011092AC01809177
:104C3000D70081608093D70080EA8093D80089B53F
:104C4000806189BD89B5826089BD09B400FEFDCF50
:104C50000E94601A8091D8008F7C80618093D80078
:104C60008091E000807F8093E0008091E1008E7E63
:104C70008093E1008DE08093E200559A209A81ECC8
:104C800080937C0085B1806F85B984B1877E84B9BB
:104C900084B1876E84B95E9A5F988AB1806D8AB953
:104CA000769A6E9881B3806F81BB899880B38D703E
:104CB00080BB80E58CBD81E08DBD85E090E00E94E9
:104CC000EB1C5F9A85E090E00E94EB1C5E985C987C
:104CD000E0E0FCE084918EBD00000DB407FEFDCF46
:104CE00031960CE0ED30F007A9F75C9A81E88093EB
:104CF0006400809165008160809365000E94061DBC
:104D000087FF10C05C9885EA8EBD00000DB407FED9
:104D1000FDCF5C9A2E982F982D9881E083BF8895BF
:104D200013BEFCCF0E94061D82FF3AC02D980E9440
:104D3000061D84788438A9F42D9A88EC90E00E94AE
:104D4000EB1C2F986FEF82E090E00E94442184EFEB
:104D500091E00E94EB1C2F9A0E94061D84788438F3
:104D6000D9F30E94061D84718431A9F42D9A88EC30
:104D700090E00E94EB1C2E9860E082E090E00E94A0
:104D8000442184EF91E00E94EB1C2E9A0E94061DA4
:104D900084718431D9F388EC90E00E94EB1CC2CF7F
:104DA0002D9A809164008E7F8093640080917A00B8
:104DB000806480937A0080917A0086FDFCCF009118
:104DC0007800109179000E94751AAB01BC01C801EE
:104DD000B0E0A0E0DC01992788278C019D01040F39
:104DE000151F261F371FC901B801209164002160DB
:104DF00020936400611571058105910511F00E94F1
:104E0000B53280E18093B2061092940680E28093DE
:104E100095068093960680939706809398068093D4
:104E2000990680939A0684E790E00E94082289837D
:104E300085E790E00E94082260910B061981161305
:104E400004C090910C06891761F084E790E00E94FD
:104E5000442160910C0685E790E00E9444210E9465
:104E6000582186E790E00E94082280938F0687E70A
:104E700090E00E94082280930D0688E790E00E944F
:104E8000082280930E0689E790E00E9408228A8318
:104E900080930F068AE790E00E9408228093100614
:104EA0008BE790E00E940822809311068CE790E047
:104EB0000E940822809312068DE790E00E9408224B
:104EC00080931306FBE0EF2EF6E0FF2E0EE710E0D6
:104ED000198225E0E20EF11C3A814981341312C097
:104EE00055E0459FF0011124E55FF94F35960981A2
:104EF000023159F1148215821682178210860F5FD3
:104F00000983F4CFC8010E940822F7018483C801F5
:104F100001960E940822F7018583C80102960E942B
:104F20000822F7018683C80103960E940822F70130
:104F30008783C80104960E940822F7018087F981BF
:104F4000FF5FF9830B5F1F4FC4CF88ED90E00E9495
:104F5000082280936E0689ED90E00E9408228093DB
:104F60006F068AED90E00E940822809370068BED18
:104F700090E00E940822809371068CED90E00E94E0
:104F800008228093720603E716E02DED30E03B83A4
:104F90002A838A819B810E940822F80181938F01D4
:104FA0002A813B812F5F3F4F3B832A83243E31057B
:104FB00081F70AE716E08A819B810E940822F801A6
:104FC00081938F012A813B812F5F3F4F3B832A834F
:104FD0002B3E310581F701E816E08A819B810E9412
:104FE0000822F80181938F012A813B812F5F3F4F77
:104FF0003B832A83223F310581F708E816E08A8146
:105000009B810E940822F80181938F012A813B81B4
:105010002F5F3F4F3B832A83293F310581F7E3E030
:10502000CE2ED12C8FB7F89440919E0150919F01C4
:105030006091A0017091A1018FBF8091B306342FC0
:10504000381B832F9091B406992359F03093B506FD
:105050001092B40600E010E0012B21F30E94000042
:10506000E1CF9091B206391740F48F5F891790F71E
:1050700081E083BF889513BEEDCF81E08093B406B5
:105080004093B3068091AE069091AF06019690933F
:10509000AF068093AE060E944D1A8091B0068093B1
:1050A000B1060E94061D8093B0060E944D1AE09141
:1050B0008F06EB3008F0B5C0F0E0EF59F74D0C94D7
:1050C0004B332129FC29162A852A942AED2B7A2C88
:1050D0007F2C6C28AF28B32881E08093900682E073
:1050E0008093910683E08093920684E080939306F8
:1050F000E0900D06312CF12C370141E0641A710863
:10510000832D90E08615970514F00C94ED30512C0A
:105110005701A81AB90A11E0A11AB108052D10E02B
:105120000A151B0514F00C94EA3098012057394FEA
:105130004901F9014080842D0E94331789830F565D
:10514000194FF8012080822D0E943317F9818F17A3
:1051500020F4F4012082F80140825394DFCF8AE0EA
:1051600080938F0660C188E00E94241A811104C0D8
:1051700084E00E94241A81110E94492010E000E07E
:10518000F090A40120E04F2DB80190E080E00E9453
:105190000E1DB8016F5F7F4F20E04F2D80E890E03B
:1051A0008F1991090E940E1D0E5F1F4F00341105CB
:1051B00039F7F7FC39C0F394F394F092A4014EE36D
:1051C00058E261E170E080E290E00E942F1A809145
:1051D000AE069091AF0660E370E00E9437338831ED
:1051E000910550F511E10C9708F01EE147E358E2F4
:1051F00069E170E08BE590E00E942F1A612F70E06A
:1052000041E084E390E00E944F1D10FD08C043E39D
:1052100058E26CE170E08DE290E00E942F1A0E944B
:105220003D1A0E943D1A16CF80E88093A401109287
:105230008F060E945821C3CF1FE18497F8F210E235
:10524000DDCF0E947B1F0E943520EE24E39401E312
:1052500010E220E041E354E270E060E090E080E0A2
:105260000E945C170E9449201091A301113009F49B
:1052700051C0E8F1123009F45CC080E80E94241AA1
:10528000882321F0111111501093A30180E10E9495
:10529000241A882339F08091A301823009F08F5FAE
:1052A0008093A30188E00E94241A882309F4B9CFCF
:1052B0008091A301813009F48AC008F449C082308A
:1052C00009F0AFCF83E08093100610921106109280
:1052D00012061092130610926F061092700610922A
:1052E0007106109272060E94031781E068C020E0E8
:1052F0004AE250E265E170E08AE590E00E94DE1C3F
:1053000020E043E250E265E170E08AE590E00E942F
:10531000D11CB3CF20E04AE250E26DE170E08AE5B3
:1053200090E00E94DE1C20E043E250E26DE170E07C
:10533000ECCF20E04AE250E265E270E08AE590E0DE
:105340000E94DE1C20E043E250E265E270E0DDCF27
:1053500083E08093100610921106109212061092AC
:10536000130610926F06109270061092710610923A
:10537000720682E180930F06EBE0F6E084E081871D
:105380001286138614861586359605E616E00E17E6
:105390001F07A9F788E480936E0681E080930D06CD
:1053A00080930E06E3E7F6E080E2819386838587AB
:1053B000848B29E736E02E173F07B9F782E0809308
:1053C0008F060E94582180E88093A4012ACF83E0B1
:1053D0008093100610921106109212061092130676
:1053E00010926F061092700610927106109272065B
:1053F0000E94031786E0E3CF0E947B1FEE24E39414
:1054000001E218E120E041E25CE170E060E090E060
:1054100080E00E945C1788E00E94241A882309F427
:1054200000CF10928F060E945821FBCE0E947B1F56
:105430000E9435200E94F11F0E94052086E0809383
:10544000A2068093A1068DE18093A3068FE491E0EC
:105450000E94F12080910D060E94F82082E691E0E2
:105460000E94A0208091AE069091AF068F7399277D
:10547000803258F401E025E230E043E650E065E296
:1054800070E080E690E00E946D1D80E80E94241A82
:10549000811112C080E10E94241A81110DC08091F7
:1054A000AE069091AF066CE070E00E943733209119
:1054B000A2012817190661F40E94061D87FF04C087
:1054C00080910D06843058F00E94061D84FD15C0A1
:1054D00088E00E94241A8823B1F083E041CE8F5FD8
:1054E00080930D068091AE069091AF066CE070E05F
:1054F0000E9437338093A201EBCF80910D0682305A
:1055000038F38150EDCF84E087CF84E080938F061D
:105510000E94582180910E06823009F4F4C008F0F0
:10552000DBC0813009F4E3C00E947B1F0E9435205C
:105530000E94F11F0E94052086E08093A2068093BE
:10554000A1068DE18093A30689E198E10E945C1F8A
:1055500080910E060E94F82081E198E10E945C1F74
:1055600055E9E52E56E0F52E62E5A62EB12C10E0A9
:105570007DE1972EA092A206A092A1069092A3068A
:105580008091AE069091AF068F739927803278F4A0
:105590008091940681130BC001E025E230E0A50163
:1055A0004D5F5F4F65E270E0C5010E946D1DF70120
:1055B00061917F018DE996E00E940C1F1F5FF6E06C
:1055C000AF0EB11C1630B1F61091940680E80E941F
:1055D000241A811112C080E10E94241A81110DC089
:1055E0008091AE069091AF066CE070E00E94373378
:1055F0002091A20128171906F1F50E94061D87FFC8
:105600001BC0E12FF0E0EC56F94F81818A3509F497
:1056100093C00CF084C0803209F48BC01CF081343C
:105620000CF08CC08091AE069091AF066CE070E0FB
:105630000E9437338093A2010E94061D84FF1BC085
:10564000E12FF0E0EC56F94F81818B350CF078C0FA
:1056500082340CF07CC0803209F47BC0813409F4C0
:105660007BC08091AE069091AF066CE070E00E9426
:1056700037338093A20180E20E94241A882309F420
:105680006FC080919406882319F08150809394060E
:1056900088E00E94241A882309F4C3CD10910E06D5
:1056A000123009F490C008F082C065E976E083E723
:1056B00096E0113009F484C080910D06181708F0A7
:1056C0006CC583E080938F060E94582180910E065E
:1056D0008F5F80930E06A5CD8330D9F0843009F01A
:1056E00023CF1092940686E0E8E8F6E005C0109219
:1056F000940686E0E3E7F6E0A5E9B6E001900D92B6
:105700008A95E1F711CF1092940686E0EAE7F6E079
:10571000F3CF1092940686E0E1E8F6E0EDCF813613
:105720000CF480CF8A3754F08A3709F07BCF80E2BF
:1057300001C081E4818376CF81E6FCCF8F5FFACF11
:10574000813661F00CF48DCF8B370CF08ACF81500D
:1057500001C08AE7818385CF80E2FCCF8AE5FACF5A
:1057600080E40E94241A882339F0809194068530C1
:1057700008F08ECF8F5F8ACF84E00E94241A88239E
:1057800009F486CF80910E06823058F083E0809332
:105790008F060E94582180910E06815080930E063C
:1057A00077CF82E080938F060E94582171CF13300B
:1057B00079F065E976E088E896E0143009F07CCF6E
:1057C0000E94513379CF65E976E08AE796E0F8CF19
:1057D00065E976E081E896E0F3CF0E947B1F0E94A6
:1057E00035200E94F11F0E94052086E08093A206CA
:1057F0008093A1068DE18093A30685E691E00E9447
:10580000F12080910F060E94F82082E691E00E942C
:10581000A0208091AE069091AF068F7399278032B9
:1058200088F480910F0649E550E08A3010F04EE58B
:1058300050E001E025E230E065E270E086E590E0CE
:105840000E946D1D80E80E94241A811112C080E11F
:105850000E94241A81110DC08091AE069091AF066E
:105860006CE070E00E9437332091A20128171906DE
:1058700061F40E94061D87FF04C080910F068231EB
:1058800058F00E94061D84FD1AC088E00E94241A68
:10589000882349F186E064CC64E00E94A81F8091CF
:1058A0000F068F5F80930F068091AE069091AF0632
:1058B0006CE070E00E9437338093A201E6CF8091C4
:1058C0000F06843010F3815080930F0660E00E9431
:1058D000A81F8091100690910F06981728F7815005
:1058E00080931006E1CF84E00E94241A882309F4F3
:1058F00098CCF3CD87E080938F060E9458214FE02B
:1059000054E170E060E090E080E00E942F1A11E026
:105910001093A2061093A10686E18093A30683E765
:1059200096E00E94F12080910D06823058F010938D
:10593000A2061093A10681E28093A3068AE796E06F
:105940000E94F12080910D06833060F081E0809309
:10595000A2068093A1068CE28093A30681E896E0DC
:105960000E94F12080910D06843060F081E08093E8
:10597000A2068093A10687E38093A30688E896E0B9
:105980000E94F120809110069EE28C3008F09CE28B
:105990009093A2069093A1061092A3068250990BB1
:1059A0000E941321809110069EE38B3008F09CE347
:1059B0009093A2069093A1061092A3068150990B92
:1059C0000E941321809110069EE48A3008F09CE426
:1059D0009093A2069093A1061092A3060E94F8202D
:1059E0001092A406809110068350990B25E0289F01
:1059F000F001299FF00D1124E55FF94F81859EE2AA
:105A00008A3008F09CE29093A2069093A1069BE056
:105A10009093A3060E94F820809110068250990B63
:105A200025E0289FF001299FF00D1124E55FF94F33
:105A300081859EE38A3008F09CE39093A2069093C0
:105A4000A1069BE09093A3060E94F8208091100687
:105A50008150990B25E0289FF001299FF00D11241A
:105A6000E55FF94F81859EE48A3008F09CE49093CD
:105A7000A2069093A1069BE09093A3060E94F820B3
:105A800081E08093A406809110068350990B25E055
:105A9000289FF001299FF00D1124E55FF94F8285C1
:105AA0009EE28A3008F09CE29093A2069093A106B1
:105AB00096E19093A3060E94F820809110068250F0
:105AC000990B25E0289FF001299FF00D1124E55F37
:105AD000F94F82859EE38A3008F09CE39093A206FA
