:100000000C94DE160C9406170C9406170C94061725
:100010000C9406170C9406170C9406170C940617EC
:100020000C9406170C9406170C9429220C94982211
:100030000C9406170C9406170C9406170C940617CC
:100040000C9406170C9406170C9406170C940617BC
:100050000C9406170C9406170C9406170C94CA24DB
:100060000C9406170C9406170C9406170C9406179C
:100070000C9406170C9406170C9406170C9406178C
:100080000C9406170C9406170C9406170C9406177C
:100090000C9406170C9406170C9406170C9406176C
:1000A0000C9406170C9406170C9406170000000019
:1000B00000F0FCFEFEFFFFFFFFFEFEFCF000000074
:1000C0000000000000000000000000000000000030
:1000D0000000000000000000000000000000000020
:1000E0000000000000000000000000000000000010
:1000F0000000000000000000000000000000000000
:1001000000000000000000000000000000000000EF
:1001100000000000000000000000000000000000DF
:1001200000000000000000000000000080C0C0E0EF
:10013000C0C0E3C73FFFFFFFFFBF87C3C0E0C0C031
:10014000E0C0800000800080C0E0C0C0E0C080C08F
:10015000800080C0E0C0C0E0E0C080008080C0C0FF
:10016000E0C0C0E0C080C0E0C0C0E0C080C080800F
:100170000080C0E0C0C0E0C000800080C0800000FF
:10018000800080C08080C0E0C0C0E0C080C080002F
:1001900080C0E0C0C0E0C0C080008080C0C0E0C0BF
:1001A000C0E0C080C0C0C0C0E0C080C00303030383
:1001B000030303030303030303030303030303030F
:1001C00003030303030303030303030303030303FF
:1001D00003030303030303030303030303030303EF
:1001E00003030303030303030303030303030303DF
:1001F00003030303030303030303030303030303CF
:1002000003030303030303030303030303030303BE
:1002100003030303030303030303030303030303AE
:100220000303030303030303030303038012000018
:1002300000000000F0DCFC76DEFEB6FC0CF00000F6
:1002400000000000000000000000000000000000AE
:10025000000000000000000000000000000000009E
:10026000000000000000000000000000000000008E
:10027000000000000000000000000000000000007E
:10028000000000000000000000000000000000006E
:10029000000000000000000000000000000000005E
:1002A00000000000000000000000000000000080CE
:1002B00000C0008040030317F7B51502038000C09B
:1002C0000080400000000000000080C0008040006E
:1002D000008000000080C00080400080000000001E
:1002E0008000C0008040800000C00080400000808E
:1002F0000000000000C000804000000000008000FE
:10030000000000000080000000C00080400000806D
:1003100000000080C00080400080000000008000DD
:10032000C0008040800000C00080400000800203C8
:100330000203030302030200030002030203020399
:100340000303020303020203020303030203030382
:100350000203020203030302030203030202030275
:100360000303030203020303020302030303020362
:100370000203020303030203030302030202030353
:100380000202030202030203030302030303020344
:100390000202030303020302030302020302030334
:1003A0000302030203030203020303030203F8FC34
:1003B000FEFF070787C7C7CFCF86C0C0C0C0C0C079
:1003C000FEFFFFFEFFFFFFC7C78F0F060000FCFE0A
:1003D000FFFF070707071F3F3E9CC0C0C0C0C0C04B
:1003E00080C080C0C080C0C08080C0C0C0C0C0808D
:1003F0000080C0C0C0C080C080C080C0C080A0F0ED
:10040000F0A0C0C0C0C0C0C080C080C0C080000F0D
:100410001F3F7F707070717F7F7F3F7F7F717F7F15
:100420007F3F7F7F7F7F7F7F010100000000001FF3
:100430003F7F7F70707070787C3C3F7F7F717F7FE3
:100440007F3F7F7F3F7F7F3F7F7FFFFFFFF17F7F8A
:100450003F1F3F7F7F713F7F7F3F7F7F3F7F7F3F9A
:100460007F7F3F7F7F717F7F7F3F7F7F3F7F7F3FAA
:10047000000000000000000000000000000000007C
:10048000000000000000000000000000000000006C
:10049000000000000000000000000000000000005C
:1004A000000000000000000000000000010100004A
:1004B000000000000000000000000000000000003C
:1004C000000000000000000000000000000000002C
:1004D00000611100F8FC060202028282868600801A
:1004E000808080808000FEFE00FEFE828282060602
:1004F00000000000FCFE0602020202061E1C008034
:10050000808080808000800080800080800000806B
:1005100080808080000000808080800080008000DB
:1005200080800000A0A0008080808080800080000B
:1005300080800000000F1F3020202020203F3F003F
:100540003F2020203F3F003F3F003F3F0000000092
:1005500000000000001F3F3020202020203818001D
:100560003F2020203F3F003F3F003F3F003F3F00F4
:10057000FFE020203F1F001F3F2020103F3F003F93
:100580003F003F3F003F3F003F2020203F3F003FD4
:100590003F003F3F0000000000000000000000009E
:1005A000000000000000000000000000000000004B
:1005B000000000000000000000000000000000003B
:1005C000000000000000000000000000000000002B
:1005D000000000000000000000000000000000001B
:1005E000000000000000000000000000000000000B
:1005F00000000000000004083E09093E3F25251ABE
:100600001E2121123F21211E3F2525213F050501E5
:100610001E21293A3F04043F213F21001021211FC0
:100620003F040A313F2020203F02023F3F02043FA7
:100630001E21211E3F0909061E21112E3F090936E0
:1006400022252519013F01011F20201F0F10201F07
:100650003F10103F3B04043B03043807312D232196
:10066000102A2A3C3F2424181C2222141824243F38
:100670001C2A2A2C043E05014C52523E3F040438E9
:10068000243D20004040443D3F081422213F2000EB
:100690003E04043E3E04023C1C22221C7E22221CFC
:1006A0001C22227E3E040204242A2A12021F222037
:1006B0001E20201E0E10201E3E10103E360808364A
:1006C0004E50503E322A26221E29251E223F20004F
:1006D000322929261221251A0C0A3F081725251927
:1006E0001E252518013905031A25251A0629291E54
:1006F000002F000000200000022905020004040071
:1007000000000000003E5B4F5B3E3E6B4F6B3E1CAB
:100710003E7C3E1C183C7E3C181C577D571C1C5EC2
:100720007F5E1C00183C1800FFE7C3E7FF00182499
:100730001800FFE7DBE7FF30483A060E2629792943
:1007400026407F050507407F05253F5A3CE73C5A78
:100750007F3E1C1C08081C1C3E7F14227F22145F55
:100760005F005F5F06097F017F006689956A6060B0
:1007700060606094A2FFA29408047E040810207EAA
:10078000201008082A1C08081C2A08081E1010102F
:10079000100C1E0C1E0C30383E3830060E3E0E0675
:1007A000000000000000005F0000000700070014C8
:1007B0007F147F14242A7F2A122313086462364987
:1007C0005620500008070300001C2241000041226F
:1007D0001C002A1C7F1C2A08083E08080080703074
:1007E00000080808080800006060002010080402E3
:1007F0003E5149453E00427F4000724949494621E9
:1008000041494D331814127F1027454545393C4A5C
:100810004949314121110907364949493646494973
:10082000291E0000140000004034000000081422BB
:100830004114141414140041221408020159090629
:100840003E415D594E7C1211127C7F494949363E2A
:10085000414141227F4141413E7F494949417F0910
:100860000909013E414151737F0808087F00417F1B
:1008700041002040413F017F081422417F40404019
:10088000407F021C027F7F0408107F3E4141413EB1
:100890007F090909063E4151215E7F091929462633
:1008A0004949493203017F01033F4040403F1F2037
:1008B00040201F3F4038403F63140814630304780E
:1008C00004036159494D43007F414141020408102E
:1008D00020004141417F0402010204404040404069
:1008E000000307080020545478407F2844443838D7
:1008F00044444428384444287F3854545418000849
:100900007E090218A4A49C787F0804047800447D22
:1009100040002040403D007F1028440000417F40BF
:10092000007C047804787C08040478384444443813
:10093000FC1824241818242418FC7C0804040848F3
:100940005454542404043F44243C4040207C1C2044
:1009500040201C3C4030403C44281028444C90909F
:10096000907C4464544C44000836410000007700F9
:1009700000004136080002010204023C2623263C06
:100980001EA1A161123A4040207A38545455592191
:10099000555579412154547841215554784020547B
:1009A0005579400C1E5272123955555559395454C7
:1009B000545939555454580000457C410002457D36
:1009C000420001457C40F0292429F0F0282528F038
:1009D0007C545545002054547C547C0A097F49328C
:1009E000494949323248484832324A4848303A4107
:1009F00041217A3A42402078009DA0A07D394444AC
:100A000044393D4040403D3C24FF2424487E494336
:100A1000662B2FFC2F2BFF0929F620C0887E0903A7
:100A200020545479410000447D413048484A3238CE
:100A30004040227A007A0A0A727D0D19317D2629FA
:100A4000292F28262929292630484D4020380808F2
:100A5000080808080808382F10C8ACBA2F10283426
:100A6000FA00007B000008142A142222142A140819
:100A70009500220095AA005500AAAA55AA55AA00D9
:100A80000000FF00101010FF00141414FF001010DD
:100A9000FF00FF1010F010F0141414FC001414F7F1
:100AA00000FF0000FF00FF1414F404FC14141710DE
:100AB0001F10101F101F1414141F00101010F0002E
:100AC0000000001F101010101F10101010F0100068
:100AD0000000FF101010101010101010FF10000078
:100AE00000FF140000FF00FF00001F10170000FCB3
:100AF00004F414141710171414F404F40000FF0085
:100B0000F714141414141414F700F714141417140D
:100B100010101F101F141414F4141010F010F00013
:100B2000001F101F0000001F14000000FC14000034
:100B3000F010F01010FF10FF141414FF1410101018
:100B40001F00000000F010FFFFFFFFFFF0F0F0F0CB
:100B5000F0FFFFFF0000000000FFFF0F0F0F0F0F5F
:100B600038444438447C2A2A3E147E020206060297
:100B70007E027E0263554941633844443C04407E12
:100B8000201E2006027E020299A5E7A5991C2A498B
:100B90002A1C4C7201724C304A4D4D303048784816
:100BA00030BC625A463D3E494949007E0101017E02
:100BB0002A2A2A2A2A44445F444440514A44404055
:100BC000444A51400000FF0103E080FF0000080894
:100BD0006B6B083612362436060F090F0600001814
:100BE000180000001010003040FF0101001F01013B
:100BF0001E00191D1712003C3C3C3C000000000088
:100C0000D5F08D14A1C881CFD9F1AF2000FFFFFF2F
:100C1000FFFFFFFFFFFFFFFFFFFFFFFFFFFFFFFFE4
:100C2000FFFFFFFFFFFFFFFFFFFFFFFFFFFFFFFFD4
:100C3000FFFFFFFFFFFFFFFFFFFFFFFFFFFFFFFFC4
:100C4000FFFFFFFFFFFFFFFFFFFFFFFFFFFFFFFFB4
:100C5000FFFFFFFFFFFFFFFFFFFFFFFFFFFFFFFFA4
:100C6000FFFFFFFFFFFFFFFFFFFFFFFFFFFFFFFF94
:100C7000FFFFFFFFFFFFFFFFFFFFFFFFFFFFFFFF84
:100C8000FFFFFFFFFFFFFFFFFFFFFFFFFF0101016E
:100C900001010101010101C1E1F9F9F9F9F9F9F9DC
:100CA000F9F9F9F9F9F9F9F9F9F9F9F9F9F9F9F9B4
:100CB000F9F9F9F9F9F9F9F9F9F9F9F9F9F9F9F9A4
:100CC000F9F9F9F9F9F9F9F9F9F9F9F9F9F9F9F994
:100CD000F9F9F9F9F9F9F9F9F9F9F9F9F9F9F9F984
:100CE000F9F9F9F9F9F9F9F9F9F9F9F9F9F9F9F974
:100CF000F9F9F9F9F9F9F9F9F9F9F9F9F9F9F9F964
:100D0000F9E1C1010101010101010101010000003E
:100D100000000000000000FFFFFFFFFFFFFFFFFFDC
:100D2000FFFFFFFFFFFFFFFFFFFFFFFFFFFFFFFFD3
:100D3000FFFFFFFFFFFFFFFFFFFFFFFFFFFFFFFFC3
:100D4000FFFFFFFFFFFFFFFFFFFFFFFFFFFFFFFFB3
:100D5000FFFFFFFFFFFFFFFFFFFFFFFFFFFFFFFFA3
:100D6000FFFFFFFFFFFFFFFFFFFFFFFFFFFFFFFF93
:100D7000FFFFFFFFFFFFFFFFFFFFFFFFFFFFFFFF83
:100D8000FFFFFFBF5E00000000000000002070F8C1
:100D9000FCFCFCFCF87020FFFFFFFFFFFFFFFFFFE4
:100DA000FFFFFFFFFFFFFFFFFFFFFFFFFFFFFFFF53
:100DB000FFFFFFFFFFFFFFFFFFFFFFFFFFFFFFFF43
:100DC000FFFFFFFFFFFFFFFFFFFFFFFFFFFFFFFF33
:100DD000FFFFFFFFFFFFFFFFFFFFFFFFFFFFFFFF23
:100DE000FFFFFFFFFFFFFFFFFFFFFFFFFFFFFFFF13
:100DF000FFFFFFFFFFFFFFFFFFFFFFFFFFFFFFFF03
:100E0000FFFFFFAA550000000000000000000001E5
:100E100003030303010000FFFFFFFFFFFFFFFFFFCE
:100E2000FFFFFFFFFFFFFFFFFFFFFFFFFFFFFFFFD2
:100E3000FFFFFFFFFFFFFFFFFFFFFFFFFFFFFFFFC2
:100E4000FFFFFFFFFFFFFFFFFFFFFFFFFFFFFFFFB2
:100E5000FFFFFFFFFFFFFFFFFFFFFFFFFFFFFFFFA2
:100E6000FFFFFFFFFFFFFFFFFFFFFFFFFFFFFFFF92
:100E7000FFFFFFFFFFFFFFFFFFFFFFFFFFFFFFFF82
:100E8000FFFFFFAA55000000000000000000000066
:100E900000008080C0C0C0FFFFFFFFFFFFFFFFFF1B
:100EA000FFFFFFFFFFFFFFFFFFFFFFFFFFFFFFFF52
:100EB000FFFFFFFFFFFFFFFFFFFFFFFFFFFFFFFF42
:100EC000FFFFFFFFFFFFFFFFFFFFFFFFFFFFFFFF32
:100ED000FFFFFFFFFFFFFFFFFFFFFFFFFFFFFFFF22
:100EE000FFFFFFFFFFFFFFFFFFFFFFFFFFFFFFFF12
:100EF000FFFFFFFFFFFFFFFFFFFFFFFFFFFFFFFF02
:100F0000FFFFFFEAD5C08080000000000000000065
:100F10003CFFFFFFFFFFFFFFFFFFFFFFFFFFFFFFA4
:100F2000FFFFFFFFFFFFFFFFFFFFFFFFFFFFFFFFD1
:100F3000FFFFFFFFFFFFFFFFFFFFFFFFFFFFFFFFC1
:100F4000FFFFFFFFFFFFFFFFFFFFFFFFFFFFFFFFB1
:100F5000FFFFFFFFFFFFFFFFFFFFFFFFFFFFFFFFA1
:100F6000FFFFFFFFFFFFFFFFFFFFFFFFFFFFFFFF91
:100F7000FFFFFFFFFFFFFFFFFFFFFFFFFFFFFFFF81
:100F8000FFFFFFFFFFFFFFFFFF3C000000F0F8F056
:100F9000F0F8F1CFFFFFFFFFFFFFFFFFFFFFFFFFB5
:100FA000FFFFFFFFFFFFFFFFFFFFFFFFFFFFFFFF51
:100FB000FFFFFFFFFFFFFFFFFFFFFFFFFFFFFFFF41
:100FC000FFFFFFFFFFFFFFFFFFFFFFFFFFFFFFFF31
:100FD000FFFFFFFFFFFFFFFFFFFFFFFFFFFFFFFF21
:100FE000FFFFFFFFFFFFFFFFFFFFFFFFFFFFFFFF11
:100FF000FFFFFFFFFFFFFFFFFFFFFFFFFFFFFFFF01
:10100000FFFFFFFFFFFFFFF9F0F0F8F0F080407EF8
:10101000FFFFFFFFFFFFFFFFFFFFFFFFFFFFFFFFE0
:10102000FFFFFFFFFFFFFFFFFFFFFFFFFFFFFFFFD0
:10103000FFFFFFFFFFFFFFFFFFFFFFFFFFFFFFFFC0
:10104000FFFFFFFFFFFFFFFFFFFFFFFFFFFFFFFFB0
:10105000FFFFFFFFFFFFFFFFFFFFFFFFFFFFFFFFA0
:10106000FFFFFFFFFFFFFFFFFFFFFFFFFFFFFFFF90
:10107000FFFFFFFFFFFFFFFFFFFFFFFFFFFFFFFF80
:10108000FFFFFFFFFFFFFFFFFFFFFFFFFFFF7E00F0
:1010900000000000000000000000C02090505050F0
:1010A0005050505050505050505050505050505040
:1010B0005050505050505050505050505050505030
:1010C0005050505050505050505050505050505020
:1010D0005050505050505050505050505050505010
:1010E0005050505050505050505050505050505000
:1010F00050505050505050505050505050505050F0
:10110000509020C00000000000000000000000001F
:1011100000000000000000000000FF00FF000000D1
:101120007E12120C00427E40000020545478009C35
:10113000A0A07C0038545458007C0804080000002B
:1011400000FF0000000000444A4A320038444428AE
:101150000038444438007C080408003854545800CF
:10116000000000FF000000040E44300C22200000AC
:101170007E12120C0020545478007C0804080000F1
:1011800000FF00FF00000000000000000000002041
:1011900050A884243484A8502000FF00FF020202DB
:1011A000020202020202020202020202020202021F
:1011B000020202020202020202020202020202020F
:1011C00002FA020202020202020202020202020207
:1011D00002020202020202020202020202020202EF
:1011E000020202FA020202020202020202020202E7
:1011F00002020202020202020202020202020202CF
:1012000002FF00FF000000000000000000000000DE
:1012100000010202020201000000FF00FF000400C2
:10122000040004000400040004000400040004009E
:10123000040004000400040004000400040004008E
:1012400000FF000004000400040004000400040087
:10125000040004000400040004000400040004006E
:10126000040000FF00000400040004000400040067
:10127000040004000400040004000400040004004E
:1012800000FF00FF00000000000000000000000060
:10129000000000000000808080807F00FF000800C8
:1012A00008000800080008000800080008000800FE
:1012B00008000800080008000800080008000800EE
:1012C00000FF0000080008000800080008000800EF
:1012D00008000800080008000800080008000800CE
:1012E000080000FF000008000800080008000800CF
:1012F00008000800080008000800080008000800AE
:1013000000FF007F8080808000000000000000005F
:101310000000003CF7FFDDF77F6DBFC33C0010000D
:10132000100010001000100010001000100010003D
:10133000100010001000100010001000100010002D
:1013400000FF00001000100010001000100010003E
:10135000100010001000100010001000100010000D
:10136000100000FF0000100010001000100010001E
:1013700010001000100010001000100010001000ED
:10138000003CF7FFDDF77F6DBFC33C00000000802D
:10139000F0C0E090C08005FD2D85D080EF80E0C0DA
:1013A000E080C0C080A0C080C0E0E080E0C0C0801D
:1013B000E08080C0E0E080E080C0E08080C080E02D
:1013C000C0E780E080E0C080E080E0C0C080E080D6
:1013D000C080C0C0E080E0C0C0A0C08080E0C0800D
:1013E00080C0808FE080C0C0E080E0C0C080E0802E
:1013F00080C0E0E080E080C0E0808080E080E0C0ED
:10140000E097C0A005FD2D85C090E080F0C0E08091
:1014100040007E08087E003844443800427E400088
:101420000038545458000000000078EEFEBBEFFF77
:10143000DB7E867800000000007F000000000000D6
:101440000000000000000000007F0000000000001D
:101450000000000000000000007F0000000000000D
:101460000000000000000000007F00FF00000000FE
:10147000000002027E02023844443800043E444028
:10148000002054547800427E40000000000000001C
:1014900000FD0D6D6D9DFDFD5D5D3DFD1DBDDDBD69
:1014A000FDFDFDFDFDFDFDFDFDFDFE7DF50BFB5A8A
:1014B000AAF5FDFEFDFDFDFDFD05FDFDFDFDFDFDAE
:1014C000FDFDFDFDFDFDFDFDFD05FDFDFDFDFDFD44
:1014D000FDFDFDFDFDFDFDFDFD05FDFDFDFDFDFD34
:1014E000FDFDFDFDFDFDFDFDFD05F8F265EAEAEA05
:1014F000EAEAEAEAEAEAEAEAEA6AEAEAEAEAEAEACC
:101500006AEAEAEA6AEAEAEAEAEA6AEAEAEAEA6A3B
:10151000EA17141717171716151514171417171796
:101520001716151616151516151614171414151664
:1015300015151615151615141FA81F1F1F1F1F1F81
:101540001F1F1F1F1F1F1F1F1FA81F1F1F1F1F1F22
:101550001F1F1F1F1F1F1F1F1FA81F1F1F1F1F1F12
:101560001F1F1F1F1F1F1F1F1FA81F141714151633
:101570001615151615151615141716151516151416
:101580001714151617141516151417141516141705
:1015900016808080808080808080808080808080B5
:1015A000808080808080808080808080808080803B
:1015B000808080808080808000AA00808080808001
:1015C000808080808080808000AA008080808080F1
:1015D000808080808080808000AA008080808080E1
:1015E000808080808080808000AA008080808080D1
:1015F00080808080808080808080808080808080EB
:1016000080808080808080808080808080808080DA
:10161000800000000000000000000000000000004A
:1016200000000000000000000000000000000000BA
:10163000000000000000000000AA00000000000000
:10164000000000000000000000AA000000000000F0
:10165000000000000000000000AA000000000000E0
:10166000000000000000000000AA000000000000D0
:10167000000000000000000000000000000000006A
:10168000000000000000000000000000000000005A
:10169000000404040404040404040404040404040E
:1016A00004040404040404040404040404040404FA
:1016B000040404040404040400AA0004040404044C
:1016C000040404040404040400AA0004040404043C
:1016D000040404040404040400AA0004040404042C
:1016E000040404040404040400AA0004040404041C
:1016F00004040404040404040404040404040404AA
:101700000404040404040404040404040404040499
:1017100004202020202020202020202020202020E5
:1017200020202020202020202020202020202020B9
:10173000202020202020202000AA0020202020205F
:10174000202020202020202000AA0020202020204F
:10175000202020202020202000AA0020202020203F
:10176000202020202020202000AA0020202020202F
:101770002020202020202020202020202020202069
:101780002020202020202020202020202020202059
:101790002000000000000000000000000000000029
:1017A0000000000000000000000000000000000039
:1017B000000000000000000000AA0000000000007F
:1017C000000000000000000000AA0000000000006F
:1017D000000000000000000000AA0000000000005F
:1017E000000000000000000000AA0000000000004F
:1017F00000000000000000000000000000000000E9
:1018000000000000000000000000000000000000D8
:1018100000206E616D653F2000506C61796572201B
:1018200000000000000000000000000000000000B8
:1018300000000000000000000000000000000000A8
:1018400000FFFFFFFFFFFFFFFFFFFFFFFFFFFFFFA7
:10185000FFFFFFFFFFFFFFFFFFFFFFFFFFFFFFFF98
:10186000FFFFFFFFFFFFFFFFFFFFFFFFFFFFFFFF88
:10187000FFFFFFFFFFFFFFFFFFFFFFFFFFFFFFFF78
:101880000000000000000000000000000000000058
:101890000000000000000000000000000000000048
:1018A0000000000000000000000000000000000038
:1018B0000000000000000000000000000000000028
:1018C00000FFFFFFFFFFFFFFFFFFFFFFFFFFFFFF27
:1018D000FFFFFFFFFFFFFFFFFFFFFFFFFFFFFFFF18
:1018E000FFFFFFFFFFFFFFFFFFFFFFFFFFFFFFFF08
:1018F000FFFFFFFFFFFFFFFFFFFFFFFFFFFFFFFFF8
:1019000000000000000000000000000000000000D7
:1019100000000000000000000000000000000000C7
:1019200000000000000000000000000000000000B7
:1019300000000000000000000000000000000000A7
:1019400000FFFFFFFFFFFFFFFFFFFFFFFFFFFFFFA6
:10195000FFFFFFFFFFFFFFFFFFFFFFFFFFFFFFFF97
:10196000FFFFFFFFFFFFFFFFFFFFFFFFFFFFFFFF87
:10197000FFFFFFFFFFFFFFFFFFFFFFFFFFFFFFFF77
:101980000000000000000000000000000000000057
:101990000000000000000000000000000000000047
:1019A0000000000000000080C0C0E0E0E0E0C0C037
:1019B00080000000000000000000000000000000A7
:1019C00000FFFFFFFFFFFFFFFFFFFFFFFFFFFFFF26
:1019D000FFFFFFFFFFFFFFFFFFFFFFFFFFFFFFFF17
:1019E000FFFFFFFFFFFFFFFFFFFFFFFFFFFFFFFF07
:1019F000FFFFFFFFFFFFFFFFFFFFFFFFFFFFFFFFF7
:101A000000000000000000000000000000000000D6
:101A100080C0C0E0E0E0E0C0C08000000000000046
:101A20000000000000001E7FFFFFFFFFFFFFFFFF21
:101A30007F1E000000000000000000000000000009
:101A400000FFFFFFFFFFFFFFFFFFFFFFFFFFFFFFA5
:101A5000FFFFFFFFFFFFFFFFFFFFFFFFFFFFFFFF96
:101A6000FFFFFFFFFFFFFFFFFFFFFFFFFFFFFFFF86
:101A7000FFFFFFFFFFFFFFFFFFFFFFFFFFFFFFFF76
:101A80000000000000000000000000000000001E38
:101A90007FFFFFFFFFFFFFFFFF7F1E000000000032
:101AA00000F0F8F8FCF8F8FCF8E2FFFFFFF7F2F0BE
:101AB000F8F8FCF8F8FCF8F0E0E0F0E0F0F8FCF8FA
:101AC000FCFFFFFFFFFFFFFFFFFFFFFFFFFFFFFF29
:101AD000FFFFFFFFFFFFFFFFFFFFFFFFFFFFFFFF16
:101AE000FFFFFFFFFFFFFFFFFFFFFFFFFFFFFFFF06
:101AF000FFFFFFFFFFFFFFFFFFFFFFFFFFFFFFFFF6
:101B0000F8F0F8F0E0F0F0F8FCF8F8FCF8FCF8F881
:101B1000FCF8FAFFFFFFFFF2F8FCF8F8FCF8E0E051
:101B2000F0FFFFFFFFFFFFFFFFFFFFFFFFFFFFFFD4
:101B3000FFFFFFFFFFFFFFFFFFFFFFFFFFFFFFFFB5
:101B4000FFFFFFFFFFFFFFFFFFFFFFFFFFFFFFFFA5
:101B5000FFFFFFFFFFFFFFFFFFFFFFFFFFFFFFFF95
:101B6000FFFFFFFFFFFFFFFFFFFFFFFFFFFFFFFF85
:101B7000FFFFFFFFFFFFFFFFFFFFFFFFFFFFFFFF75
:101B8000FFFFFFFFFFFFFFFFFFFFFFFFFFFFFFFF65
:101B9000FFFFFFFFFFFFFFFFFFFFFFFFFFFFFFFF55
:101BA000FFFFFFFFFFFFFFFFFFFFFFFFFFFFFFFF45
:101BB000FFFFFFFFFFFFFFFFFFFFFFFFFFFFFFFF35
:101BC000FFFFFFFFFFFFFFFFFFFFFFFFFFFFFFFF25
:101BD000FFFFFFFFFFFFFFFFFFFFFFFFFFFFFFFF15
:101BE000FFFFFFFFFFFFFFFFFFFFFFFFFFFFFFFF05
:101BF000FFFFFFFFFFFFFFFFFFFFFFFFFFFFFFFFF5
:101C0000FFFFFFFFFFFFFFFFFFFFFFFFFFFFFFFFE4
:101C1000FFFFFFFFFFFFFFFFFFFFFFFFFFFFFFFFD4
:101C2000FF804000000000000000000000000000F5
:101C300000000000000000000000000000000000A4
:101C400000000000FF00FF00000000000000000096
:101C50000000000000000000000000000000000084
:101C60000000000000000000000000000000000074
:101C70000000000000000000000000000000FF0065
:101C8000FF00000000000000000000000000000055
:101C90000000000000000000000000000000000044
:101CA0000000000000000000000000000000000034
:101CB0000000000000000000000000000000000024
:101CC00000000000FF00FF0000000000082088382E
:101CD000F8E0F8F838884040E00000608000E0005C
:101CE00000000000800000000000000000008000F4
:101CF0000000004000000000000000000000FF00A5
:101D0000FF000000000000000000000000000000D4
:101D100000000000000000000000000000000000C3
:101D200000000000000000000000000000000000B3
:101D300000000000000000000000000000000000A3
:101D400000000000FF00FF00000000000000000293
:101D500008030701180B0B0600000000030E01002A
:101D600006090E000F010E010E001F0906000E00ED
:101D70000F02000F000609000B0D00000000FF001D
:101D8000FF00000000000000000000000000000054
:101D90000000000000000000000000000000000043
:101DA000000000000000000000008080C0C0C0C033
:101DB0008080000000000000000000000000000023
:101DC00000000000FF00FF00000000000000E03005
:101DD000FA6C7878786CFA30E0000000FC2404D4C7
:101DE00000FC00F020C020C000C020C008FC08C0DB
:101DF0002060000000000000000000000000FF0064
:101E0000FF000000000000000000000000000000D3
:101E10000000008080C0C0C0C080800000000000C2
:101E20000000000000000000001E7B7FEEFBBFB63C
:101E30005F611E00000000000000000000000000C4
:101E400000000000FF00FF00000000000000000094
:101E5000000101000101000000000000010000017C
:101E6000000100010001000100000100000100006C
:101E70000101000000000000000000000000FF0061
:101E8000FF00000000000000000000000000000053
:101E900000001E7B7FEEFBBFB65F611E00000000EE
:101EA000000000C0F0C0F8E0F0C8E0C082FE96C2BA
:101EB000E0C0F0C0F8E0F0C8E0E0C0C0E0C0E0F092
:101EC000F8C0F0E8E7C0F7C0C0E0F0F8C0F0C8E044
:101ED000F0C0C0E0C0F0E0F8C0F0C8F0E0C0F8C06A
:101EE000F0E8E0C0F0C0E0C0E0E0F8C0F0E8E0C03A
:101EF000E0C0C0F0E0C0C0E0C0C0F0C0E0E0FFC0A3
:101F0000F7E8E0C0F0C0C0E0E0F0F8C0F0F8E0F8BA
:101F1000E0F0C8E0D082FE96C2E0C0F8C0F0E8E091
:101F2000C0C0E0FFFFEFFFE3FFE7FBEFFFFFFFFFB6
:101F3000FFEFFFE3FFE7FBFFFFFFFFFFFFFFFFEF09
:101F4000FFE3FFE7FBEFFFFFFFFFFFEFFFE3FFE72D
:101F5000FBEFFFFFFFFFFFFFFFEFFFE3FFE7FBEFFD
:101F6000FFFFFFFFFFEFFFE3FFE7FBEFFFFFFFFFD9
:101F7000FFFFFFEFFFE3FFE7FBEFFFFFFFFFFFEFD9
:101F8000FFE3FFE7FBEFFFFFFFFFFFFFFFFFEFFFB9
:101F9000E3FFE7FBEFFFFFFFFFFFEFFFE3FFE7FBE1
:101FA000EFFFFFFFFFFFFFFFFFFFF7FFF1FFF3FD75
:101FB000F7FFFFFFFFFFFFFFFFFFFFFFFFFFFFFF39
:101FC000FFFFFFFFF7FFF1FFF3FDF7FFFFFFFFFF4D
:101FD000FFFFFFFFFFFFFFFFFFFFFFFFFFFFF7FF19
:101FE000F1FFF3FDF7FFFFFFFFFFFFFFFFFFFFFF25
:101FF000FFFFFFFFFFFFFFFFF7FFF1FFF3FDF7FF1D
:10200000FFFFFFFFFFFFFFFFFFFFFFFFFFFFFFFFE0
:10201000FFFFFFF7FFF1FFF3FDF7FFFFFFFFFFFFFC
:10202000FFFFFF050700003E000005077F7F7F7F61
:102030007F000000000000C0E0F0F0F0F0F0F0F0F1
:10204000F0F0F0F0F0F0F0F0F0F0F0F0F0F0F0F090
:10205000F0F0F0F0F0F0F0F0F0F0F0F0F0F0F0F080
:10206000F0F0F0F0F0F0F0F0F0F0F0F0F0F0F0F070
:10207000F0F0F0F0F0F0F0F0F0F0F0F0F0F0F0F060
:10208000F0F0F0F0F0F0E0C0000000000000000010
:102090000000000000000000000000000000000040
:1020A0000000000000000000000000000000000030
:1020B00000000000000000FFFFFFFFFFFFFFFFFF29
:1020C000FFFFFFFFFFFFFFFFFFFFFFFFFFFFFFFF20
:1020D000FFFFFFFFFFFFFFFFFFFFFFFFFFFFFFFF10
:1020E000FFFFFFFFFFFFFFFFFFFFFFFFFFFFFFFF00
:1020F000FFFFFFFFFFFFFFFFFFFFFFFFFFFFFFFFF0
:10210000FFFFFFFFFFFFFFFF0000000000000000D7
:1021100000000000000000000000000000000000BF
:1021200000000000000000000000000000000000AF
:1021300000000000000000FFFFFFFFFFFFFFFFFFA8
:10214000FFFFFFFFFFFFFFFFFFFFFFFFFFFFFFFF9F
:10215000FFFFFFFFFFFFFFFFFFFFFFFFFFFFFFFF8F
:10216000FFFFFFFFFFFFFFFFFFFFFFFFFFFFFFFF7F
:10217000FFFFFFFFFFFFFFFFFFFFFFFFFFFFFFFF6F
:10218000FFFFFFFFFFFFFFFF00000000000000E077
:10219000E0E0E0E0E0E0E0E0E0E0E0E0E0E0E0001F
:1021A000000000000000000000000000000000002F
:1021B00000000000000000FFFFFFFFFFFFFFFFFF28
:1021C000FFFFFFFFFFFFFFFFFFFFFFFFFFFFFFFF1F
:1021D000FFFFFFFFFFFFFFFFFFFFFFFFFFFFFFFF0F
:1021E000FFFFFFFFFFFFFFFFFFFFFFFFFFFFFFFFFF
:1021F000FFFFFFFFFFFFFFFFFFFFFFFFFFFFFFFFEF
:10220000FFFFFFFFFFFFFFFF00000000000000EFE7
:10221000EFEFEFEFEFEFEFEFEFEFEFEFEFEFEFE0DD
:10222000E0E0E0E00000000000000000000000002E
:1022300000000000000000FFFFFFFFFFFFFFFFFFA7
:10224000FFFFFFFFFFFFFFFFFFFFFFFFFFFFFFFF9E
:10225000FFFFFFFFFFFFFFFFFFFFFFFFFFFFFFFF8E
:10226000FFFFFFFFFFFFFFFFFFFFFFFFFFFFFFFF7E
:10227000FFFFFFFFFFFFFFFFFFFFFFFFFFFFFFFF6E
:10228000FFFFFFFFFFFFFFFF00000000000000EF67
:10229000EFEFEFEFEFEFEFEFEFEFEFEFEFEFEFEF4E
:1022A000EFEFEFEFE0E0E0E0E0E000000000000032
:1022B0000000000000000003878FCFCFCFCF8F8FAB
:1022C0000F0F0F0F0F0F0F0F0F0F0F0F0F0F0F0F1E
:1022D0000F0F0F0F0F0F0F0F0F0FFFFFFFFFFFFF6E
:1022E000FFFFFF0F0F0F0F0F0F0F0F0F0F0F0F0F2E
:1022F0000F0F0F0F0F0F0F0F0F0F0F0F0F0F0F8F6E
:102300008FCFCFCFCF8F8703000000000000000FDA
:102310000F0F0F0F0F0F0F0F0F0F0F0F0F0F0F0FCD
:102320000F0F0F0F0F0F0F0F0F0F00000000000017
:102330000000000000003CFFFFFFFFFFFFFFFFFF6A
:10234000FF3C000000000000000000000000000052
:1023500000000000000000000000FFFFFFFFFFFF83
:10236000FFFFFF0000000000000000000000000070
:10237000000000000000000000000000003CFFFF23
:10238000FFFFFFFFFFFFFFFF3C0000000000000019
:10239000000000000000000000000000000000003D
:1023A000000000000000000000000000000000002D
:1023B00000E0F0F0F8F0F0F8F1CFFFFFFFFFEFE101
:1023C000F0F0F8F0F0F8F0E0C0C0E0C0E0F0F8F0B5
:1023D000F0F8F0E0F0E0C0E0F0F8FFFFFFFFFFFFF3
:1023E000FFFFFFF0F0F8F0F0F8F0E0F0F8F0F0F8B0
:1023F000F0E0F0E0E0C0E0F0F8F0F0F8F0F0F8F134
:10240000EFFFFFFFFFEFE1F0F0F8F0F0F8F0E0E0B1
:10241000C0E0F0E0F0F8F0F0F8F0E0F0E0F0E0F02C
:10242000F8F0F0F8F8F0F0E0E0E0F0F0F8F0F0F8B4
:10243000F0804000000000000000C0E0E06060604C
:10244000606060606060606060606060606060608C
:10245000606060606060606060606060606060607C
:10246000606060606060606060606060606060606C
:10247000606060606060606060606060606060605C
:10248000606060606060E0E0C0000000000000008C
:10249000000000000000000000000000000000003C
:1024A000000000000000000000000000000000002C
:1024B00000000000000000000000FFFF00FE01011E
:1024C00001010101010101010101010101010101FC
:1024D0000101010181C161212121212161610101EC
:1024E000010101010101E1E101E1E121212161613C
:1024F00001010101010101010101010101010101CC
:102500000101010101FE00FFFF00000000000000CA
:1025100000000000000000000000000000000000BB
:1025200000000000000000000000000000000000AB
:1025300000000000000000000000FFFF00FF00009E
:102540000000C0E0602020202060E0C0000000000B
:1025500000000000FFFF000000000808F8F800F885
:10256000080808F8F800FFFF00FFFF08080800004F
:10257000000000000000000000000000000000005B
:102580000000000000FF00FFFF000000000000004E
:102590000000C08000C000C0404000C0008000C0FB
:1025A000000000000000000000000000000000002B
:1025B00000000000000000000000FFFF00FF00001E
:1025C0000000FFFF000000000000818100F8080803
:1025D00008F8F800F8F10BFAF20AFAF203FB080B1C
:1025E0000AFAF203F3F80B0B08F3FB00F8F008F813
:1025F000F000FAFA00F8080808F8F800F8F008F80F
:10260000F000000000FF00FFFF00000000000000DD
:102610000000C740C107C047450580414601C6418B
:10262000400040C04000000000000000000000002A
:1026300000000000000000000000FFFF007F80801D
:10264000808081838382828282828381808382826E
:10265000828383808383808383808383808F8E8241
:10266000828381808183828281838380838380834C
:102670008380838380838282828383808383808339
:1026800083808080807F00FFFF000000000000004A
:102690000000C7414600C745C500C4454200C745C4
:1026A0008500C00740C0400080404000000000009E
:1026B00000000000000000000000030787868686F7
:1026C00006060606060606060606060606060606AA
:1026D00006060606060606060606060606C606C61A
:1026E000C6C6C6C60606060606060606060606068A
:1026F000060606060606060606060606060606067A
:102700000606068686868707030000000000000094
:102710000000070404000701060007050500070480
:102720000700070000070000040502000000000089
:102730000000000000000000003CF7FFDDF77F6DA7
:10274000BFC33C00000000000000000000000000CB
:1027500000000000000000000000000000FF00FF7B
:10276000FFFFFFFF0000000000000000000000006D
:102770000000000000000000000000000000000059
:102780003CF7FFDDF77F6DBFC33C00000000000099
:102790000000000000000000000000000000000039
:1027A0000000000000000000000000000000000029
:1027B00000000080E080F0C0E090C08005FD2D8525
:1027C000C080E080F0C0E090C0C08080C080C0E0E9
:1027D000F080E0D0C080E08080C0E0F080EF90C763
:1027E000EF9FBFDF80E0C0F080E090E0C080F0802D
:1027F000E0D0C080E080C080C0C090E080F0C0E049
:1028000090C08005FD2D85C080E080F0C0E090C0C4
:10281000C08080C0A0C0E0F080E0D0C080E080A098
:10282000C0E0F080E090C0E08080C080E0C0F08038
:10283000E090E00208D4D205087F7F3E1C084120CA
:10284000FE0105F1F1F111D1B1D111F15151515107
:10285000515151515151515151510000FF00007FD0
:102860007F09090F06007F7F19396F46007F7F4976
:1028700049414100266F49497B3200266F49497B17
:1028800032FF0000FFFFFFFEFFFEFF0279CD95A59E
:10289000CD790111111101F9F901010000FF0000CA
:1028A0007F7F09090F06007F7F40404040007C7E0B
:1028B0000B0B7E7C00070F78780F070000000000EC
:1028C0000000FF00001F3F3F33333333333E3636C3
:1028D0003E363E363E36363E36363E360000FF0049
:1028E000003E7F41417F3E007F7F0E1C7F7F0000C6
:1028F00000000000000000000000000000000000D8
:102900000000003F40504040407846414159594105
:102910004141415959414141414141414100007FBB
:10292000000001017F7F0101007C7E0B0B7E7C009B
:102930007F7F09090F06007F7F4949414100000060
:1029400000000000080B0002020200000904000061
:102950000102020000052400100105240101010408
:102960002402060524060001070581031000400922
:10297000040100020A0000000705020240000007EF
:102980000583024000000403090412010002EF0263
:102990000140412336800001010203014172647548
:1029A000696E6F204C4C430041726475696E6F20F4
:1029B0004C656F6E6172646F0000000000000000E3
:1029C0000000000000000000000000000000000007
:1029D00000000000000000000000000000000000F7
:1029E00000000000000000000000000000000000E7
:1029F00000000000000000000000000000000000D7
:102A000000000000000000000000000000000000C6
:102A100000000000000000000000000000000000B6
:102A200000000000000000000000000000000000A6
:102A3000000000000000000000C0F0C0C0E0E0C0E6
:102A4000C0E0C0C0E0C0C0F0E0C0C0E0C0C0F0C0A6
:102A5000C0E0F0C0C0E0C0C0F0C0C0E0C0F0E0C066
:102A6000C0E0C0F0C0C0E0C0F0E0C0C0F0C0E0C056
:102A7000C0E0E0C0C0E0C0C0E0C0C0F0E0C0C0E066
:102A8000C0C0F0C0C0E0F0C0C0E0C0C0F0C0C0E056
:102A9000C0F0E0C0C0E0C0F0C0C0E0C0F0E0C0C026
:102AA000F0C0E0C0E0E0C0C0E0C0E0C0F0C0C0E006
:102AB000E0C0C0E0C0C0E0C0C0FAFCFAFCFAFCFA1A
:102AC000FCFAFCFAFCFAFCFAFCFAFCFAFCFAFCFA56
:102AD000FCFAFCFAFCFAFCFAFCFAFCFAFCFAFCFA46
:102AE000FCFAFCFAFCFAFCFAFCFAFCFAFCFAFCFA36
:102AF000FCFAFCFAFCFAFCFAFCFAFCFAFCFAFCFA26
:102B0000FCFAFCFAFCFAFCFAFCFAFCFAFCFAFCFA15
:102B1000FCFAFCFAFCFAFCFAFCFAFCFAFCFAFCFA05
:102B2000FCFAFCFAFCFAFCFAFCFAFCFAFCFAFCFAF5
:102B3000FCFAFCFAFCFAFCFAFCFFFFFFFFFFFFFFC8
:102B4000FFFFFFFFFFFFFFFFFFFFFFFFFFFFFFFF95
:102B5000FFFFFFFFFFFFFFFFFFFFFFFFFFFFFFFF85
:102B6000FFFFFFFFFFFFFFFFFFFFFFFFFFFFFFFF75
:102B7000FFFFFFFFFFFFFFFFFFFFFFFFFFFFFFFF65
:102B8000FFFFFFFFFFFFFFFFFFFFFFFFFFFFFFFF55
:102B9000FFFFFFFFFFFFFFFFFFFFFFFFFFFFFFFF45
:102BA000FFFFFFFFFFFFFFFFFFFFFFFFFFFFFFFF35
:102BB000FFFFFFFFFFFFFFFFFFFFFFFFFFFFFFFF25
:102BC000FFFFFFFFFFFFFFFFFFFFFFFFFFFFFFFF15
:102BD000FFFFFFFFFFFFFFFFFFFFFFFFFFFFFFFF05
:102BE000FFFFFFFFFFFFFFFFFFFFFFFFFFFFFFFFF5
:102BF000FFFFFFFFFFFFFFFFFFFFFFFFFFFFFFFFE5
:102C0000FFFFFFFFFFFFFFFFFFFFFFFFFFFFFFFFD4
:102C1000FFFFFFFFFFFFFFFFFFFFFFFFFFFFFFFFC4
:102C2000FFFFFFFFFFFFFFFFFFFFFFFFFFFFFFFFB4
:102C3000FFFFFFFFFFFFFFFFFFFFFFFFFFFFFFFFA4
:102C4000FFFFFFFFFFFFFFFFFFFFFFFFFFFFFFFF94
:102C5000FFFFFFFFFFFFFFFFFFFFFFFFFFFFFFFF84
:102C6000FFFFFFFFFFFFFFFFFFFFFFFFFFFFFFFF74
:102C7000FFFFFFFFFFFFFFFFFFFFFFFFFFFFFFFF64
:102C8000FFFFFFFFFFFFFFFFFFFFFFFFFFFFFFFF54
:102C9000FFFFFFFFFFFFFFFFFFFFFFFFFFFFFFFF44
:102CA000FFFFFFFFFFFFFFFFFFFFFFFFFFFFFFFF34
:102CB000FFFFFFFFFFFFFFFFFFB33DB337BB3BB796
:102CC00037BB37B73BB733BD3BB737BB37B33DB384
:102CD00037BB3DB337BB37B33DB337BB33BD3BB772
:102CE00037BB33BD33B73BB33DBB37B33DB33BB766
:102CF00037BB3BB737BB37B73BB733BD3BB737BB4A
:102D000037B33DB337BB3DB337BB37B33DB337BB49
:102D100033BD3BB737BB33BD33B73BB33DBB37B335
:102D20003DB33BB73BBB37B73BB73BB33DB337BB1B
:102D30003BB737BB37B73BB733AA55AA55AA55AAF5
:102D400055AA55AA55AA55AA55AA55AA55AA55AA8B
:102D500055AA55AA55AA55AA55AA55AA55AA55AA7B
:102D600055AA55AA55AA55AA55AA55AA55AA55AA6B
:102D700055AA55AA55AA55AA55AA55AA55AA55AA5B
:102D800055AA55AA55AA55AA55AA55AA55AA55AA4B
:102D900055AA55AA55AA55AA55AA55AA55AA55AA3B
:102DA00055AA55AA55AA55AA55AA55AA55AA55AA2B
:102DB00055AA55AA55AA55AA5500582511241FBE33
:102DC000CFEFDAE0DEBFCDBF11E0A0E0B1E0EEE88A
:102DD000F7E602C005900D92AE38B107D9F726E0AC
:102DE000AEE8B1E001C01D92A53BB207E1F716E1E4
:102DF000CEEDD6E104C02197FE010E94B333CD3D54
:102E0000D107C9F70E9406260C94C5330C94000024
:102E100090910606A2E0B6E0FD0180E03596981399
:102E200011C095E0899FF0011124EE5FF94F982FB2
:102E30003596923168F414821582168217821086B4
:102E40009F5FF6CF15821682178210868F5FE6CFBE
:102E50001092650690E020E01596821731F01496E6
:102E60003C911497930F2F5FF7CF909365060895C9
:102E7000823079F020F4813049F080E00895833089
:102E800059F08430D1F780916906089580916606E3
:102E900008958091670608958091680608958330AB
:102EA00039F0843041F0823049F481E796E00895AA
:102EB00088E796E008958FE796E008958AE696E021
:102EC00008956F927F928F929F92AF92BF92CF920E
:102ED000DF92EF92FF920F931F93CF93DF936C01DA
:102EE000CB013A017E2DFA01649131965491F2E0C2
:102EF0006F0E711CC62FD0E0222301F1E1E0F0E05B
:102F0000352F377011F4F0E0E0E0A52FA695A695D7
:102F1000A695AE0FBF2FB11DAC9FF001AD9FF00D78
:102F2000BC9FF00D1124733011F4EE0FFF1F2E9F84
:102F3000D0012F9FB00D11246A0E7B1ED601AC0F5D
:102F4000BD1F1A161B060CF067C09C01250F311D12
:102F5000121613060CF060C0803491050CF05CC0B2
:102F60006114710409F458C0382F3770FC0197FDC3
:102F7000379623E0F595E7952A95E1F72E2F97FFF1
:102F800004C0332311F02FEF2E0FEE27FF27EC198B
:102F9000FD09D7FC02C0F0E0E0E090E89C19A03801
:102FA000B1050CF4962F9E1BA22F022E000CBB0B1A
:102FB0004A2F40952F3F0CF040E0BB24B394852F5F
:102FC000877009F4B12C569556955695B50EAB0DF4
:102FD000B11D19971CF058E0B52EB21AB41A240F7F
:102FE00050E82503D0011124AC0DBD1DAE0FBF1F4D
:102FF000649FE00DF11D11246E0E7F1EC32E032E63
:10300000000CDD08733009F417C1A8F4713009F41D
:10301000CAC0723009F478C0DF91CF911F910F912F
:10302000FF90EF90DF90CF90BF90AF909F908F90E8
:103030007F906F9008957A3FB1F10B2D020F7B3F87
:1030400059F7201749F3BD016E547E4FF12CE12C46
:10305000E91608F0A2C0F301EE0DFF1DE491F0E0C7
:10306000AF010C2C02C0440F551F0A94E2F727FD54
:1030700006C0FB018081142F1095812380833323A8
:1030800061F0273054F45B01F0E8AF0EB11C452F1E
:103090004095F501808184238083FFEFEF1AFF0ABA
:1030A0006F5F7F4FD5CF0B2D020F201709F4B4CFE0
:1030B000BD016E547E4FF12CE12CE91608F067C07B
:1030C000F301EE0DFF1DE491F0E0AF010C2C02C006
:1030D000440F551F0A94E2F727FD04C0FB018081CD
:1030E000842B8083332351F0273044F45B01F0E8D4
:1030F000AF0EB11CF5018081852B8083FFEFEF1AA5
:10310000FF0A6F5F7F4FD9CF6FEF70E0032E02C0D1
:10311000660F771F0A94E2F760957095972E8B2CB7
:10312000820E281509F478CF8D010E541E4FF12C14
:10313000E12CE91630F5F301EE0DFF1DE491F0E00E
:10314000AF010C2C02C0440F551F0A94E2F727FD73
:1031500005C0F80180818623842B8083332359F0B6
:1031600027304CF45801F0E8AF0EB11CF501808116
:103170008921852B8083FFEFEF1AFF0A0F5F1F4F16
:10318000D8CF2F5F6C0E7D1EA058BF4FCACF2F5FC8
:103190006C0E7D1EA058BF4F88CF2F5F6C0E7D1E1A
:1031A000A058BF4F4ECF0E0F1F1F8B2D820F281719
:1031B00009F432CFBD016E547E4FF12CE12CE9169B
:1031C00098F5F801EE0DFF1DA490B12C0C2C02C057
:1031D000AA0CBB1C0A94E2F7A094B094F301EE0D84
:1031E000FF1D8490912C0C2C02C0880C991C0A9411
:1031F000E2F727FD08C0FB014081E42FEA214E2FB2
:103200004829FB014083332349F027303CF4FB017C
:10321000E058FF4FA080BA20B928B082FFEFEF1A24
:10322000FF0A6F5F7F4FCBCF2F5F6C0E7D1E0C0FA1
:103230001D1FA058BF4FBBCFE92EF12CE60DF71D87
:10324000AE54BE4F60E870E06E197F09CE19DF09F9
:10325000AE01440F551FC1E0D0E07E01032E01C036
:10326000EE0C0A94EAF7192F0B2D892E932ECF938B
:10327000DF93ED01EF96EF962296A590C5909920E9
:1032800059F0AE9C5001CE9C600127302CF4F880A0
:10329000D094FD20FB28F99222233AF0FC90C094B0
:1032A000FC20FA28FD920C94561911961A9529F7CC
:1032B0000A9551F0182D23951124E40FF11DA60F46
:1032C000B11DC60FD11DD9CFDF91CF911124A4CE4E
:1032D0002F923F924F925F926F927F928F929F9226
:1032E000AF92BF92CF92DF92EF92FF920F931F9314
:1032F000CF93DF939C0121583F4F2F3F310508F0BA
:1033000091C09B01215C3F4F2F37310508F08AC0E7
:10331000AB0177FF04C044275527461B570B477066
:1033200055279B0177FF02C0295F3F4FE3E03595AA
:103330002795EA95E1F777FF08C02150310968E049
:1033400070E0EB01C41BD50BAE01E901D695DC2F73
:10335000CC27D795C795C80FD91FB0E0A0E0FE01D4
:10336000EE54FE4F5F01BE016E5C7D4F1B0168E0B5
:1033700070E02B01441A550A2F3F7FEF37070CF4FA
:1033800045C035016A0E7B1E41018A0E9B1E8C01D1
:1033900070E060E0ED01C754D64D7E0100381105A4
:1033A000A9F117FD2CC02F3F320709F44EC0F701D9
:1033B000E60FF71FE4916301C60ED71E042E01C06D
:1033C000EE0F0A94EAF7E601F881EF2BE883411546
:1033D0005105A9F02730310591F0F701E60FF71FED
:1033E000E4916401C60ED71EF0E0042C02C0F595EE
:1033F000E7950A94E2F7E601F881EF2BE8836F5F27
:103400007F4F0F5F1F4F6038710541F62F5F3F4FB1
:10341000A058BF4FA115D4E0BD0721F028303105D9
:1034200009F0AACFDF91CF911F910F91FF90EF90FC
:10343000DF90CF90BF90AF909F908F907F906F90D4
:103440005F904F903F902F9008954115510529F6B8
:10345000D6CF9091A806982329F49091A706982397
:1034600081E009F480E00895EF920F931F9322E02A
:10347000E22E10E000E020E00E9461171F910F9102
:10348000EF900895E2EBF1E080E0A0E0B8E000808A
:103490000EBC8111012C1197A0FDFDCF0192B9F74F
:1034A0000DB4089580E0E2EBF1E081118FEF00248C
:1034B00081938193819381930394D1F7EEE9F6E0B0
:1034C000128A118A108A17860895FC018091B10131
:1034D000882311F13FB7F89482E08093E9002091AE
:1034E000F200822F90E01816190614F481E090E0A3
:1034F000882339F0289844E64093B0014091F100C8
:103500004083222339F02091F200211103C02BE6E1
:103510002093E8003FBF08958FEF9FEF08952FB7E6
:10352000F89483E08093E9009091E800892F8072FD
:1035300095FF04C09091F20080E4891B2FBF08958D
:103540008091A80181110DC082E08093A40184E0E4
:103550008093A5011092A7011092A60181E08093AB
:10356000A80184EA91E00895CF93DF931F92CDB72D
:10357000DEB76983DC01ED91FC910280F381E02DDF
:1035800041E050E0BE016F5F7F4F09950F90DF91E2
:10359000CF91089583E08093E9008091F200882321
:1035A00019F08AE38093E80008950E948F1A90E052
:1035B0000895CF93DF931F92CDB7DEB7FC018485CA
:1035C000958597FD08C02FEF3FEF358724870F9033
:1035D000DF91CF910895CE0101960E94651A01975F
:1035E00019F4898190E0F3CF8FEF9FEFF0CF0F9325
:1035F0001F93CF93DF931F92CDB7DEB78C01FC01F1
:103600008485958597FF0BC0CE0101960E94651AAF
:10361000019771F4898190E0F80195878487F8011A
:10362000848595850F90DF91CF911F910F9108951B
:103630008FEF9FEFF1CFFC018485958597FD0BC03F
:103640009FB7F89482E08093E9008091F2009FBFD9
:1036500090E0019608959FB7F89482E08093E90086
:103660008091F2009FBF90E0089540919E0150919B
:103670009F0120919C0130919D0142175307B4F4A2
:103680009091E8009570E1F39091E80092FD19C0E7
:103690008093F10080919E0190919F0101968F731C
:1036A0009927892B19F48EEF8093E80080919E0171
:1036B00090919F01019690939F0180939E0181E0DC
:1036C000089580E00895EF92FF920F931F93CF9398
:1036D000DF93F82E192FE62E042F81E0860F880F36
:1036E0000E94351B83E00E94351BCF2DD12FEC0E9D
:1036F000FD2EF11CCE15DF05B9F007FF13C0FE014A
:1037000084910E94351B182F80E00E94351B812375
:1037100021968111EFCFDF91CF911F910F91FF90F3
:10372000EF9008958881EDCF81E0F5CFDF92EF92A1
:10373000FF920F931F93CF93DF93D82E8A01EB0153
:103740007B01E40EF51ECE15DF0559F0D7FE12C041
:10375000FE0184910E94351B21968111F4CF0FEF59
:103760001FEFC801DF91CF911F910F91FF90EF9054
:10377000DF9008958881EECF0F931F93CF93DF934F
:103780001F92CDB7DEB782E0898342E450E064E463
:1037900079E280E80E94961B0E94A01ADC01129632
:1037A0000D911C910115110589F0D801ED91FC9145
:1037B0000280F381E02DBE016F5F7F4FC801099544
:1037C00097FD04C0F80100851185ECCF89810F9029
:1037D000DF91CF911F910F910895615030F02091AA
:1037E000F100FC0120830196F8CF289884E68093AD
:1037F000B0010895AF92BF92CF92DF92EF92FF9205
:103800000F931F93CF93DF936C017B018B01040F08
:10381000151FEB015E01AE18BF08C017D10759F0A4
:103820006991D601ED91FC910190F081E02DC601E6
:103830000995892B79F7C501DF91CF911F910F91E0
:10384000FF90EF90DF90CF90BF90AF9008953FB77B
:10385000F8948091910190919201A0919301B0917F
:10386000940126B5A89B05C02F3F19F00196A11D14
:10387000B11D3FBFBA2FA92F982F8827BC01CD01BA
:10388000620F711D811D911D42E0660F771F881F19
:10389000991F4A95D1F708958F929F92AF92BF9248
:1038A000CF92DF92EF92FF926B017C010E94271C66
:1038B0004B015C01C114D104E104F104B9F00E9490
:1038C000271C681979098A099B09683E734081059C
:1038D000910580F321E0C21AD108E108F10888EED1
:1038E000880E83E0981EA11CB11CE4CFFF90EF90DE
:1038F000DF90CF90BF90AF909F908F9008958F9260
:103900009F92AF92BF92CF92DF92EF92FF920F936E
:103910001F93CF93DF936C017B018A0180910B0190
:10392000882309F45CC08091B101882309F457C051
:103930008091A30180FF05C08091E00082608093A8
:10394000E000E801B12C8AEFA82E93E0892E2AE34B
:10395000922E209711F4BB20D9F10E948F1A811169
:103960000AC0AA94AA20D9F161E070E080E090E05A
:103970000E944C1CEECF8C171D0611F00CF08C2F02
:103980009FB7F8948092E9002091E80025FD02C0DD
:103990009FBFDFCF282F30E0C21BD30BF701815030
:1039A00020F041914093F100FACFE20EF31EBB20CC
:1039B00021F09092E800B12CEBCF8091E80085FDDA
:1039C000E7CF9092E800BB24B394209709F3F3CF9C
:1039D0005D9884E68093A201101611063CF081E008
:1039E00090E0F6019383828310E000E0C801DF914C
:1039F000CF911F910F91FF90EF90DF90CF90BF90EC
:103A0000AF909F908F900895EF920F931F933AEF8E
:103A1000E32E10E000E00E9461171F910F91EF90DC
:103A20000895EF920F931F933BEFE32E10E000E019
:103A30000E9461171F910F91EF900895BC0190E0D3
:103A400080E00C944C1C8FB18095807F669B8860D1
:103A50001C9B84600895480F592F511D141615069C
:103A6000D4F580389105BCF597FF02C090E080E066
:103A70004138510514F040E850E0481BFB0177FD48
:103A8000379633E0F595E7953A95E1F7F695FE2FF1
:103A9000EE27F795E795E80FF91FEE54FE4F677094
:103AA000772781E090E001C0880F6A95EAF7382F08
:103AB000213041F4415078F08191DF011197832B3F
:103AC0008C93F8CF8095415030F09191DF011197A0
:103AD00098239C93F8CF089580389105B8F460340A
:103AE0007105A0F420E191E061FD94E060FD990F83
:103AF00062FD9295687F269FD0011124A80FAE54D5
:103B0000BE4F8C9140FF03C0892B8C9308959095F4
:103B10008923FBCF2F923F924F925F926F927F92B9
:103B20008F929F92AF92BF92CF92DF92EF92FF92CD
:103B30000F931F93CF93DF9300D01F92CDB7DEB7C3
:103B40009B838A837B016A0109838901061B170B0A
:103B500017FF03C011950195110946018A819B81C8
:103B6000881A990A97FE03C091948194910880164F
:103B700091065CF49C2D8D2D6901292F382F9A8197
:103B80008B81FB82EA82E92EF82E8A819B81C816FE
:103B9000D9065CF49E2D8F2D7901292F382F9A811B
:103BA0008B81DB82CA82C92ED82E16018A819B8125
:103BB000281A390A29014E185F0857FE03C051948C
:103BC00041945108310137FE03C09FEF691A790A09
:103BD000759467948FEFE216F3060CF481E0A82E3B
:103BE000880FBB088A819B81C816D906CCF0498111
:103BF000BC01C701801691061CF0B7018A819B8128
:103C00000E946C1D6418750877FE04C0EA0CFB1C4A
:103C1000620C731C8A819B8101969B838A83E2CF0D
:103C20000F900F900F90DF91CF911F910F91FF9008
:103C3000EF90DF90CF90BF90AF909F908F907F904C
:103C40006F905F904F903F902F9008952F923F92EA
:103C50004F925F926F927F928F929F92AF92BF929C
:103C6000CF92DF92EF92FF920F931F93CF93DF9348
:103C7000CDB7DEB72A970FB6F894DEBF0FBECDBF23
:103C80009A8389836A3061F5DC0155968C91B8E09E
:103C90008B9F90011124E981FA8181899289820F99
:103CA000931F928B818B108A178681E090E02A9671
:103CB0000FB6F894DEBF0FBECDBFDF91CF911F913D
:103CC0000F91FF90EF90DF90CF90BF90AF909F90BB
:103CD0008F907F906F905F904F903F902F900895BE
:103CE0006D3019F329813A813A872987D9011F96C6
:103CF000AD90BC90B0E8AB16B1040CF07BC0F901FC
:103D0000C188D288F0E4CF16D1040CF073C0D90179
:103D100055966C90559745E09501649E200D311D98
:103D20001124121613060CF065C0262C312C9101BB
:103D300053E0220F331F5A95E1F72C0D3D1D12164B
:103D400013060CF057C05496BC91BB83E985FA85E5
:103D5000F389FC83649FB00111249B012050394FEB
:103D60003A832983712CE981FA818491F5E07F12ED
:103D700001C080E0460138E0532E282F30E03E831A
:103D80002D834C8080FF4B80411004C03B818C818F
:103D90003817E1F010E000E00615C0F4D501A00FDF
:103DA000B11FB887AF83F12CE12CE61460F4B701A2
:103DB000680D791D442D8F8198850E946C1DBFEF81
:103DC000EB1AFB0AF2CF0F5F1F4FE6CF8D819E816A
:103DD000959587955A94820C931C5110CECF73946D
:103DE000E981FA813196FA83E983A20CB31CF6E0EB
:103DF0007F12B9CFA985BA8555962C915597422F38
:103E000050E01F968D919C91B6E02B9F800D911DE7
:103E10001124E985FA85908B87872689222309F466
:103E200044CF6AEF64039001659F300D1124205840
:103E30003F4F281739070CF038CFDF010190F08190
:103E4000E02D0190F081E02D6AE0CD0109952DCFA4
:103E50000895CF93DF93EC016A3059F48D818C8300
:103E60008E819985890F8E8381E090E0DF91CF91DB
:103E700008958C816E3719F48D5F8C83F5CF262FD2
:103E80006E816F5F2A3350F4203350F52D3221F1CB
:103E90002E3241F1213241F42EE310C02B3548F48B
:103EA0002134E0F42F3301F198859C5F8C81890FD8
:103EB000E4CF9FE9920F27549A31B0F7062E000CF9
:103EC000770B082E000C990B3F8146EF55E03130FF
:103ED00069F40E94041DE8CF21E4F0CF2154EECF15
:103EE0002C5FECCF2FE3EACF20E4E8CF0E94111D36
:103EF000DBCF0F931F93CF93DF938C01D0E0C0E013
:103F0000F801EC0FFD1F6491662341F084E996E00F
:103F10000E94291F892B11F02196F2CFCE01DF914B
:103F2000CF911F910F910895089590E080E008953A
:103F3000CF93DF93C0918E01D0918F0170E060E04C
:103F4000CE010E94681970E060E0CE0180589F4F5A
:103F50000E9468198091A5069091A60665E070E020
:103F60000E949F33892B49F42197C0388FEFD807DF
:103F700038F0D0938F01C0938E01DF91CF910895D7
:103F800010928F0110928E01F8CF95E0899FF00179
:103F90001124EE5FF94F6187128613861486158609
:103FA00010926506109266061092670610926806D7
:103FB0001092690670910606E2E0F6E090E020E0DB
:103FC00030E040E050E080E0359678131AC050931E
:103FD00065064093660630936706209368069093C3
:103FE000690695E0899FF0011124EE5FF94F35963F
:103FF000823198F4148215821682178210868F5FA0
:10400000F6CF6481560F6581460F6681360F678152
:10401000260F6085960F8F5FD7CF0895EF920F938D
:104020001F93EE24E3940EEA13E020E041ED54E008
:1040300062E070E08FE090E00E9461171F910F91A5
:10404000EF9008950F931F93CF93DF93D0E0C0E0DC
:1040500008E110E040E0B801CE010E946C1D0F5F46
:104060001F4F0A321105B1F72196C038D10581F7EB
:1040700001E029E130E040E850E069E170E090E0E3
:1040800080E00E948A1D28E230E040E850E068E2CB
:1040900070E090E080E00E948A1DDF91CF911F9137
:1040A0000F910895EF920F931F93EE24E3940CEA7F
:1040B00010E020E04CE252E06EE270E090E080E040
:1040C0000E9461171F910F91EF900895EF92FF9258
:1040D0000F931F93CF9310E000E080E8E82EF12CBF
:1040E000C0919B0120E04C2FB80190E080E00E943D
:1040F0002B1DB8016F5F7F4F20E04C2FC7018C1B39
:1041000091090E942B1D0E5F1F4F0034110541F7CE
:1041100081E0CC2321F0C450C0939B0180E0CF917B
:104120001F910F91FF90EF900895FC01623059F0BC
:1041300018F4613031F00895633039F0643039F0AB
:1041400008954183089542830895438308954483E5
:104150000895FC01623069F020F4613041F080E0A4
:104160000895633041F06430D1F7848108958181EE
:1041700008958281089583810895FC0101900020B3
:10418000E9F73197AF01481B590BBC0184E996E070
:104190000C94FA1B8F929F92AF92BF920F931F9332
:1041A000CF93DF93CDB7DEB7A1970FB6F894DEBFFC
:1041B0000FBECDBF19A2423008F44AE08E010F5D58
:1041C0001F4F842E912CB12CA12CA50194010E948B
:1041D0006E33E62FB901CA01EA30F4F4E05DD8018C
:1041E000EE938D01232B242B252B79F790E080E093
:1041F000109719F0CD010E94BD20A1960FB6F8943A
:10420000DEBF0FBECDBFDF91CF911F910F91BF9049
:10421000AF909F908F900895E95CE1CF009711F0E7
:104220000C94BD2090E080E00895682F70E090E04D
:1042300080E04AE00C94CA20CF93C82F633031F459
:10424000843650F484E791E00E940E21CA3020F4B5
:1042500084E791E00E940E218C2FCF910C941521C0
:10426000CF92DF92EF92FF92CF93DF936C01092EF2
:10427000000CEE08FF0897FF19C06DE284E996E094
:104280000E94291FEC0166277727CB016C197D0955
:104290008E099F094AE00E94CA208C0F9D1FDF9162
:1042A000CF91FF90EF90DF90CF9008954AE0C70143
:1042B000B601DF91CF91FF90EF90DF90CF900C94FB
:1042C000CA200E94B9331F93CF93DF93EC01162FBE
:1042D0000E942633181739F0612FCE01DF91CF915C
:1042E0001F910C942E33DF91CF911F9108950F935E
:1042F0001F93CF93DF936091860686E790E00E943C
:1043000063216091040687E790E00E946321609139
:10431000050688E790E00E9463216091060689E720
:1043200090E00E946321609107068AE790E00E9476
:104330006321609108068BE790E00E946321609101
:1043400009068CE790E00E94632160910A068DE7E0
:1043500090E00E94632102E016E0CEE7D0E0F80191
:104360006185CE010E946321F8016285CE0101962C
:104370000E946321F8016385CE0102960E946321A9
:10438000F8016485CE0103960E946321F8016585DA
:10439000CE0104960E9463210B5F1F4F2596C83DF6
:1043A000D105E9F66091650688ED90E00E946321F1
:1043B0006091660689ED90E00E9463216091670636
:1043C0008AED90E00E946321609168068BED90E099
:1043D0000E946321609169068CED90E00E94632148
:1043E0000AE616E0CDEDD0E0F80161918F01CE0133
:1043F0000E9463212196C43ED105B1F701E716E082
:10440000F80161918F01CE010E9463212196CB3E7C
:10441000D105B1F708E716E0F80161918F01CE01EF
:104420000E9463212196C23FD105B1F70FE716E044
:10443000F80161918F01CE010E9463212196C93F4D
:10444000D105B1F7DF91CF911F910F9108950C9491
:1044500026331F920F920FB60F9211248F939F93C2
:104460008091E1009091E100937F9093E10083FFC0
:104470000FC01092E90091E09093EB001092EC00D5
:1044800092E39093ED001092B10198E09093F000C8
:1044900082FF22C093E09093E9009091F20099236B
:1044A00019F09AE39093E8009091A201992341F0CA
:1044B0009091A20191509093A201911101C05D9A37
:1044C0009091B001992341F09091B0019150909357
:1044D000B001911101C0289A84FF18C08091E200B8
:1044E0008E7E81608093E2008091E1008F7E8093D8
:1044F000E1008091A3018E7E80618093A3019F9152
:104500008F910F900FBE0F901F90189580FFF7CFDF
:104510008091E2008E7E80618093E2008091E100D4
:104520008E7E8093E1008091A3018E7E8160E5CF35
:104530001F920F920FB60F921124CF92DF92EF923B
:10454000FF920F931F932F933F934F935F936F931C
:104550007F938F939F93AF93BF93EF93FF93CF93EB
:10456000DF93CDB7DEB76C97DEBFCDBF1092E90009
:104570008091E80083FF25C068E0CE0145960E9447
:10458000ED1B82EF8093E8008D8987FF39C0909101
:10459000E80090FFFCCF982F907609F034C19E89F7
:1045A0004F89588D2F89F88C911131C0803861F571
:1045B0008091A1018093F1001092F1008EEF809321
:1045C000E8006C960FB6F894DEBF0FBECDBFDF914A
:1045D000CF91FF91EF91BF91AF919F918F917F917B
:1045E0006F915F914F913F912F911F910F91FF908C
:1045F000EF90DF90CF900F900FBE0F901F90189507
:104600009EEF9093E800C7CF1092F100D5CF913084
:1046100059F48111D3CF4130510581F68091A10128
:104620008D7F8093A101CACF933049F48111C6CF09
:104630004130510519F68091A1018260F2CF953089
:1046400041F48091E80080FFFCCF20682093E300D4
:10465000B5CF963009F0A9C00B8D1C8D22E01092C9
:10466000E90010929F0110929E01F2122EC010924A
:104670009D0110929C010E94BC1B1F8299E09983AE
:10468000FA8291E09E8390EA98879AEF9987209129
:104690009E0130919F01275F3F4F3C832B838D8389
:1046A0001092E90010929F0110929E0110939D01BB
:1046B00000939C0149E050E0BE016F5F7F4F80E0B6
:1046C0000E94961B0E94BC1B79CF10939D01009302
:1046D0009C010E94A01ADC0112960D911C910115FB
:1046E000110509F451C1D801ED91FC910480F581C7
:1046F000E02DBE016B5E7F4FC8010995009709F060
:104700003EC1F80100851185EACFF3E0FF120EC02B
:104710008F89882309F440C0823061F440E860E169
:1047200088EA99E20E94631B811148CF81E280935D
:10473000EB0047CF813029F440E86BE08CE999E247
:10474000F1CF833099F70E94A01ADC011296ED9008
:10475000FC908E010F5F1F4F6801E114F10479F0A6
:10476000D701ED91FC910680F781E02DB801C701DA
:104770000995080F111DF701E084F184EECFD801EF
:104780001C92F60101900020E9F73197BF016C19E6
:104790007D0940E0C601C6CF66E879E2FB0144919D
:1047A00050E080E80E94961B09CF973009F4BECFF5
:1047B000983021F481E08093F10000CF993009F026
:1047C000FDCE837009F0B2CFE5E1F1E081E031E0A8
:1047D00096E32191222371F08093E9003093EB005E
:1047E000DF0111972C912093EC009093ED008F5FE7
:1047F000873079F78EE78093EA001092EA008F897C
:104800008093B101DBCE8B8D9C8D1092E9001092CC
:104810009F0110929E0190939D0180939C01898D30
:10482000811192C08E899D89913A49F4813209F0B3
:104830007DCF47E050E064E071E080E0B3CF91329B
:1048400009F074CF833269F48F89988DB0E0A0E0CD
:104850008093000190930101A0930201B0930301A2
:10486000ADCE803269F48091E80082FFFCCF67E032
:1048700084E091E00E94ED1B8BEF8093E8009ECED8
:10488000823209F09BCE8F8980930B01EEEFFFE718
:10489000859194918B3F9C4D51F1E0E0F8E080913F
:1048A000040190910501A0910601B0910701803BA0
:1048B0009440A105B105F1F480910B0180FD1AC06F
:1048C000EE3F8AE0F80789F587E797E791838083D1
:1048D000809160008093A00188E19BE00FB6F8947E
:1048E000A895809360000FBE9093600067CEEEEFB6
:1048F000FAE0D5CF808191818737974709F05ECE66
:10490000A895809160008861809360008091A001EB
:1049100080936000EE3F2AE0F20789F08091FE0A62
:104920009091FF0A9183808349CE8081918187375E
:10493000980751F29093FF0A8093FE0AC5CF109218
:10494000FF0A1092FE0A3ACE0E94A01ADC011296CB
:104950000D911C910115110509F4E8CED801ED91D6
:10496000FC910190F081E02DBE016B5E7F4FC8018C
:104970000995811123CEF80100851185EBCF18161A
:1049800019060CF41BCED2CEF1E0FF12BECE6AE8BF
:1049900079E204CF1F920F920FB60F9211242F933A
:1049A0003F938F939F93AF93BF9380919501909185
:1049B0009601A0919701B09198013091900123E068
:1049C000230F2D3758F50196A11DB11D209390019D
:1049D0008093950190939601A0939701B0939801CD
:1049E0008091910190919201A0919301B0919401D5
:1049F0000196A11DB11D8093910190939201A09306
:104A00009301B0939401BF91AF919F918F913F918A
:104A10002F910F900FBE0F901F90189526E8230F2F
:104A20000296A11DB11DD2CF0F931F93CF93DF9399
:104A30008C0181E090E00E94272280FF31C08AE053
:104A400090E00E9427229FEF980F9E3F48F522E3B7
:104A500030E0D80150963C932E931F9728E330E026
:104A600052963C932E935197CBE0D0E0D801ED9134
:104A7000FC910190F081E02D682FC8010995CE01CD
:104A80000E9427222196C131D10581F70E94421A46
:104A900088EE93E0DF91CF911F910F910C941E1D32
:104AA000DF91CF911F910F91089504970C941425D5
:104AB0001092B5051092B40588EE93E0A0E0B0E046
:104AC0008093B6059093B705A093B805B093B90548
:104AD0008FE191E09093B3058093B2058FEF9FEF44
:104AE0009093BF058093BE051092A1061092A00678
:104AF0001092A7061092A80680E18093A906109252
:104B0000A6061092A5061092AB061092AE06109261
:104B1000AD061092B0061092AF0681E08093B10608
:104B20001092B2068093B3061092B4062DE331E0E2
:104B300030939F0620939E062BE431E03093A3062A
:104B40002093A206109297061092960621E331E078
:104B5000309395062093940698E090939D06809359
:104B60009C061092990610929A06109298068093CD
:104B70009B0690E290938C0690938D0690938E0600
:104B800090938F06909390069093910697E490935C
:104B9000020693E49093030680930406809305062F
:104BA00082E18093060683E0809307061092080650
:104BB0001092090610920A06E2E0F6E084E081878E
:104BC000359696E0EC35F907D1F78093650689E0D4
:104BD000809386068091100190911101A09112019D
:104BE000B09113018093870690938806A09389065D
:104BF000B0938A06EAE6F6E080E2819386838587B1
:104C0000848B96E0E037F907C1F70895CF93DF93DF
:104C100000D01F92CDB7DEB7789484B5826084BD92
:104C200084B5816084BD85B5826085BD85B58160B0
:104C300085BD80916E00816080936E00109281002E
:104C400080918100826080938100809181008160E9
:104C500080938100809180008160809380008091AA
:104C60009100826080939100809191008160809397
:104C70009100809190008160809390008091C100AC
:104C800084608093C1008091C10082608093C100E4
:104C90008091C10081608093C1008091C3008160D8
:104CA0008093C3008091C00082608093C000809197
:104CB000C20081608093C20080917A0084608093FA
:104CC0007A0080917A00826080937A0080917A00E5
:104CD000816080937A0080917A00806880937A0066
:104CE0001092B1011092A1011092A3018091D700FE
:104CF00081608093D70080EA8093D80089B5806175
:104D000089BD89B5826089BD09B400FEFDCF61E02F
:104D100070E080E090E00E944C1C8091D8008F7C75
:104D200080618093D8008091E000807F8093E000D4
:104D30008091E1008E7E8093E1008DE08093E2001F
:104D4000559A209A81EC80937C0085B1806F85B95B
:104D500084B1877E84B984B1876E84B95E9A5F9886
:104D60008AB1806D8AB9769A6E9881B3806F81BB63
:104D7000899880B38D7080BB80E58CBD81E08DBD4E
:104D800085E090E00E941E1D5F9A85E090E00E9401
:104D90001E1D5E985C98E0E0FCE084918EBD0000F2
:104DA0000DB407FEFDCF31960CE0ED30F007A9F70A
:104DB0005C9A81E8809364008091650081608093B3
:104DC00065000E94231D87FF15C05C9885EA8EBD93
:104DD00000000DB407FEFDCF5C9A2E982F982D98F9
:104DE0008091640080628093640081E083BF889535
:104DF00013BEFCCF0E94231D82FF3AC02D980E9453
:104E0000231D84788438A9F42D9A88EC90E00E94C0
:104E10001E1D2F986FEF82E090E00E94632184EFC7
:104E200091E00E941E1D2F9A0E94231D84788438D1
:104E3000D9F30E94231D84718431A9F42D9A88EC42
:104E400090E00E941E1D2E9860E082E090E00E949B
:104E5000632184EF91E00E941E1D2E9A0E94231D63
:104E600084718431D9F388EC90E00E941E1DC2CF7A
:104E70002D9A809164008E7F8093640080917A00E7
:104E8000806480937A0080917A0086FDFCCF009147
:104E90007800109179000E94271CAB01BC01C80169
:104EA000B0E0A0E0DC01992788278C019D01040F68
:104EB000151F261F371FC901B8012091640021600A
:104EC00020936400611571058105910511F00E9420
:104ED0001D3380E18093A90610928B0680E28093B7
:104EE0008C0680938D0680938E0680938F06809328
:104EF00090068093910684E790E00E9427228983A0
:104F000085E790E00E94272260910206198116131E
:104F100004C090910306891761F084E790E00E9435
:104F200063216091030685E790E00E9463210E945F
:104F3000772186E790E00E9427228093860687E704
:104F400090E00E9427228093040688E790E00E9468
:104F500027228093050689E790E00E9427228A8312
:104F6000809306068AE790E00E9427228093070636
:104F70008BE790E00E942722809308068CE790E060
:104F80000E942722809309068DE790E00E94272245
:104F900080930A06F2E0EF2EF6E0FF2E0EE710E017
:104FA000198225E0E20EF11C3A814981341312C0C6
:104FB00055E0459FF0011124EE5FF94F35960981C8
:104FC000023159F1148215821682178210860F5F02
:104FD0000983F4CFC8010E942722F7018483C80106
:104FE00001960E942722F7018583C80102960E943C
:104FF0002722F7018683C80103960E942722F70122
:105000008783C80104960E942722F7018087F981CF
:10501000FF5FF9830B5F1F4FC4CF88ED90E00E94C4
:1050200027228093650689ED90E00E9427228093D5
:1050300066068AED90E00E942722809367068BED3A
:1050400090E00E942722809368068CED90E00E94F9
:105050002722809369060AE616E02DED30E03B83B7
:105060002A838A819B810E942722F80181938F01E4
:105070002A813B812F5F3F4F3B832A83243E3105AA
:1050800081F701E716E08A819B810E942722F801BF
:1050900081938F012A813B812F5F3F4F3B832A837E
:1050A0002B3E310581F708E716E08A819B810E943B
:1050B0002722F80181938F012A813B812F5F3F4F87
:1050C0003B832A83223F310581F70FE716E08A816F
:1050D0009B810E942722F80181938F012A813B81C5
:1050E0002F5F3F4F3B832A83293F310581F7E3E060
:1050F000CE2ED12C8FB7F894409195015091960106
:1051000060919701709198018FBF8091AA06342F0A
:10511000381B832F9091AB06992359F03093AC063E
:105120001092AB0600E010E0012B21F30E9400007A
:10513000E1CF9091A906391740F48F5F891790F756
:1051400081E083BF889513BEEDCF81E08093AB06ED
:105150004093AA068091A5069091A6060196909389
:10516000A6068093A5060E94521A8091A7068093F6
:10517000A8060E94231D8093A7060E94521AE09160
:105180008606EB3008F0B5C0F0E0E753F74D0C941D
:10519000B3338929642A7E2AED2AFC2A552CE22C75
:1051A000E72CD42817291B2981E08093870682E009
:1051B0008093880683E08093890684E080938A0642
:1051C000E0900406312CF12C370141E0641A71089B
:1051D000832D90E08615970514F00C945531512CD1
:1051E0005701A81AB90A11E0A11AB108052D10E05B
:1051F0000A151B0514F00C94523198012957394FA8
:105200004901F9014080842D0E943817898308578D
:10521000194FF8012080822D0E943817F9818F17CD
:1052200020F4F4012082F80140825394DFCF8AE019
:105230008093860660C188E00E94291A811104C00B
:1052400084E00E94291A81110E94662010E000E08B
:10525000F0909B0120E04F2DB80190E080E00E948B
:105260002B1DB8016F5F7F4F20E04F2D80E890E04D
:105270008F1991090E942B1D0E5F1F4F00341105DD
:1052800039F7F7FC39C0F394F394F0929B014EE3A5
:1052900058E261E170E080E290E00E94341A80916F
:1052A000A5069091A60660E370E00E949F338831C6
:1052B000910550F511E10C9708F01EE147E358E223
:1052C00069E170E08BE590E00E94341A612F70E094
:1052D00041E084E390E00E946C1D10FD08C043E3B0
:1052E00058E26CE170E08DE290E00E94341A0E9476
:1052F000421A0E94421A16CF80E880939B011092B6
:1053000086060E947721C3CF1FE18497F8F210E24E
:10531000DDCF0E94981F0E945220EE24E39401E307
:1053200010E220E041E354E270E060E090E080E0D1
:105330000E9461170E94662010919A01113009F4B1
:1053400051C0E8F1123009F45CC080E80E94291ACB
:10535000882321F01111115010939A0180E10E94CD
:10536000291A882339F080919A01823009F08F5FE1
:1053700080939A0188E00E94291A882309F4B9CF02
:1053800080919A01813009F48AC008F449C08230C2
:1053900009F0AFCF83E080930706109208061092C1
:1053A000090610920A06109266061092670610927D
:1053B0006806109269060E94081781E068C020E024
:1053C0004AE250E265E170E08AE590E00E94111D3A
:1053D00020E043E250E265E170E08AE590E00E945F
:1053E000041DB3CF20E04AE250E26DE170E08AE5AF
:1053F00090E00E94111D20E043E250E26DE170E078
:10540000ECCF20E04AE250E265E270E08AE590E00D
:105410000E94111D20E043E250E265E270E0DDCF22
:1054200083E08093070610920806109209061092F6
:105430000A0610926606109267061092680610928D
:10544000690682E180930606E2E0F6E084E0818767
:10545000128613861486158635960CE516E00E170F
:105460001F07A9F788E48093650681E0809304060E
:1054700080930506EAE6F6E080E2819386838587DD
:10548000848B20E736E02E173F07B9F782E0809340
:1054900086060E94772180E880939B012ACF83E0D3
:1054A00080930706109208061092090610920A06C9
:1054B00010926606109267061092680610926906AE
:1054C0000E94081786E0E3CF0E94981FEE24E39421
:1054D00001E218E120E041E25CE170E060E090E090
:1054E00080E00E94611788E00E94291A882309F44D
:1054F00000CF109286060E947721FBCE0E94981F53
:105500000E9452200E940E200E94222086E080935A
:105510009906809398068DE180939A068FE491E036
:105520000E940E21809104060E94152182E691E0DE
:105530000E94BD208091A5069091A6068F739927A1
:10554000803258F401E025E230E043E650E065E2C5
:1055500070E080E690E00E948A1D80E80E94291A8F
:10556000811112C080E10E94291A81110DC0809121
:10557000A5069091A6066CE070E00E949F332091F2
:1055800099012817190661F40E94231D87FF04C0A2
:1055900080910406843058F00E94231D84FD15C0BC
:1055A00088E00E94291A8823B1F083E041CE8F5F02
:1055B000809304068091A5069091A6066CE070E0A9
:1055C0000E949F3380939901EBCF80910406823033
:1055D00038F38150EDCF84E087CF84E08093860656
:1055E0000E94772180910506823009F4F4C008F00A
:1055F000DBC0813009F4E3C00E94981F0E94522052
:105600000E940E200E94222086E0809399068093BB
:1056100098068DE180939A0689E198E10E94791FAE
:10562000809105060E94152181E198E10E94791F71
:105630005CE8E52E56E0F52E62E5A62EB12C10E0D2
:105640007DE1972EA0929906A092980690929A06D4
:105650008091A5069091A6068F739927803278F4E1
:1056600080918B0681130BC001E025E230E0A5019B
:105670004D5F5F4F65E270E0C5010E948A1DF70132
:1056800061917F0184E996E00E94291F1F5FF6E087
:10569000AF0EB11C1630B1F610918B0680E80E9457
:1056A000291A811112C080E10E94291A81110DC0AE
:1056B0008091A5069091A6066CE070E00E949F3351
:1056C0002091990128171906F1F50E94231D87FFE3
:1056D0001BC0E12FF0E0E557F94F81818A3509F4CD
:1056E00093C00CF084C0803209F48BC01CF081346C
:1056F0000CF08CC08091A5069091A6066CE070E03D
:105700000E949F33809399010E94231D84FF1BC038
:10571000E12FF0E0E557F94F81818B350CF078C02F
:1057200082340CF07CC0803209F47BC0813409F4EF
:105730007BC08091A5069091A6066CE070E00E9467
:105740009F338093990180E20E94291A882309F4EB
:105750006FC080918B06882319F0815080938B064F
:1057600088E00E94291A882309F4C3CD1091050608
:10577000123009F490C008F082C06CE876E08AE646
:1057800096E0113009F484C080910406181708F0DF
:105790006CC583E0809386060E9477218091050680
:1057A0008F5F80930506A5CD8330D9F0843009F052
:1057B00023CF10928B0686E0EFE7F6E005C010924B
:1057C0008B0686E0EAE6F6E0ACE8B6E001900D92E2
:1057D0008A95E1F711CF10928B0686E0E1E7F6E0BB
:1057E000F3CF10928B0686E0E8E7F6E0EDCF813646
:1057F0000CF480CF8A3754F08A3709F07BCF80E2EF
:1058000001C081E4818376CF81E6FCCF8F5FFACF40
:10581000813661F00CF48DCF8B370CF08ACF81503C
:1058200001C08AE7818385CF80E2FCCF8AE5FACF89
:1058300080E40E94291A882339F080918B068530F4
:1058400008F08ECF8F5F8ACF84E00E94291A8823C8
:1058500009F486CF80910506823058F083E080936A
:1058600086060E9477218091050681508093050667
:1058700077CF82E0809386060E94772171CF133024
:1058800079F06CE876E08FE796E0143009F07CCF91
:105890000E94BE3379CF6CE876E081E796E0F8CFDE
:1058A0006CE876E088E796E0F3CF0E94981F0E94AC
:1058B00052200E940E200E94222086E080939906AA
:1058C000809398068DE180939A0685E691E00E9488
:1058D0000E21809106060E94152182E691E00E9429
:1058E000BD208091A5069091A6068F7399278032DE
:1058F00088F48091060649E550E08A3010F04EE5C4
:1059000050E001E025E230E065E270E086E590E0FD
:105910000E948A1D80E80E94291A811112C080E12C
:105920000E94291A81110DC08091A5069091A606AA
:105930006CE070E00E949F332091990128171906AE
:1059400061F40E94231D87FF04C080910606823106
:1059500058F00E94231D84FD1AC088E00E94291A75
:10596000882349F186E064CC64E00E94C51F8091E1
:1059700006068F5F809306068091A5069091A60685
:105980006CE070E00E949F3380939901E6CF809194
:105990000606843010F381508093060660E00E9472
:1059A000C51F8091070690910606981728F7815029
:1059B00080930706E1CF84E00E94291A882309F426
:1059C00098CCF3CD87E0809386060E9477214FE044
:1059D00054E170E060E090E080E00E94341A11E051
:1059E000109399061093980686E180939A068AE6AA
:1059F00096E00E940E2180910406823058F01093A8
:105A000099061093980681E280939A0681E796E0C2
:105A10000E940E2180910406833060F081E0809323
:105A20009906809398068CE280939A0688E796E020
:105A30000E940E2180910406843060F081E0809302
:105A400099068093980687E380939A068FE796E0FD
:105A50000E940E21809107069EE28C3008F09CE2A5
:105A6000909399069093980610929A068250990BFB
:105A70000E943021809107069EE38B3008F09CE362
:105A8000909399069093980610929A068150990BDC
:105A90000E943021809107069EE48A3008F09CE441
:105AA000909399069093980610929A060E94152159
:105AB00010929B06809107068350990B25E0289F42
:105AC000F001299FF00D1124EE5FF94F81859EE2D0
:105AD0008A3008F09CE290939906909398069BE098
